:020000040800F2
:1000000000800020DD530008995100089F5100082E
:1000100000000000000000000000000000000000E0
:10002000000000000000000000000000A5510008D2
:100030000000000000000000AF510008B9510008A6
:100040002D540008000000002D5400082D54000815
:100050002D5400082D5400082D5400082D5400087C
:10006000000000002D5400082D5400082D540008F5
:100070002D5400082D5400082D54000800000000E5
:100080002D5400082D5400082D5400082D5400084C
:100090002D5400082D5400082D5400082D5400083C
:1000A0002D5400082D5400082D5400082D5400082C
:0C00B0002D5400082D5400080000000032
:1000BC0010B5064C2378002B07D1054B002B02D032
:1000CC00044800E000BF0123237010BD3400002061
:1000DC000000000040700008044B10B5002B03D04A
:1000EC000349044800E000BF10BDC04600000000FA
:1000FC003800002040700008002243088B4274D363
:10010C0003098B425FD3030A8B4244D3030B8B420C
:10011C0028D3030C8B420DD3FF22090212BA030C15
:10012C008B4202D31212090265D0030B8B4219D3F6
:10013C0000E0090AC30B8B4201D3CB03C01A524116
:10014C00830B8B4201D38B03C01A5241430B8B425E
:10015C0001D34B03C01A5241030B8B4201D30B0347
:10016C00C01A5241C30A8B4201D3CB02C01A52416E
:10017C00830A8B4201D38B02C01A5241430A8B4231
:10018C0001D34B02C01A5241030A8B4201D30B021A
:10019C00C01A5241CDD2C3098B4201D3CB01C01A34
:1001AC00524183098B4201D38B01C01A524143093E
:1001BC008B4201D34B01C01A524103098B4201D32C
:1001CC000B01C01A5241C3088B4201D3CB00C01A99
:1001DC00524183088B4201D38B00C01A5241430811
:1001EC008B4201D34B00C01A5241411A00D2014636
:1001FC00524110467047FFE701B5002000F0F0F8BF
:10020C0002BDC0460029F7D076E7704703460B4382
:10021C007FD4002243088B4274D303098B425FD3F3
:10022C00030A8B4244D3030B8B4228D3030C8B421F
:10023C000DD3FF22090212BA030C8B4202D3121205
:10024C00090265D0030B8B4219D300E0090AC30BDA
:10025C008B4201D3CB03C01A5241830B8B4201D387
:10026C008B03C01A5241430B8B4201D34B03C01A70
:10027C005241030B8B4201D30B03C01A5241C30AE8
:10028C008B4201D3CB02C01A5241830A8B4201D359
:10029C008B02C01A5241430A8B4201D34B02C01A43
:1002AC005241030A8B4201D30B02C01A5241CDD2E8
:1002BC00C3098B4201D3CB01C01A524183098B4233
:1002CC0001D38B01C01A524143098B4201D34B011C
:1002DC00C01A524103098B4201D30B01C01A52417F
:1002EC00C3088B4201D3CB00C01A524183088B4206
:1002FC0001D38B00C01A524143088B4201D34B00EF
:10030C00C01A5241411A00D2014652411046704760
:10031C005DE0CA0F00D04942031000D34042534065
:10032C0000229C4603098B422DD3030A8B4212D325
:10033C00FC22890112BA030A8B420CD38901921157
:10034C008B4208D3890192118B4204D389013AD094
:10035C00921100E08909C3098B4201D3CB01C01A69
:10036C00524183098B4201D38B01C01A524143097C
:10037C008B4201D34B01C01A524103098B4201D36A
:10038C000B01C01A5241C3088B4201D3CB00C01AD7
:10039C00524183088B4201D38B00C01A5241D9D2EF
:1003AC0043088B4201D34B00C01A5241411A00D270
:1003BC000146634652415B10104601D34042002B6C
:1003CC0000D54942704763465B1000D3404201B5EB
:1003DC00002000F005F802BD0029F8D016E77047A0
:1003EC007047C046844608006146FFE71FB500F021
:1003FC008FFB002801D40021C8421FBD10B500F0AE
:10040C001BFB4042013010BD10B500F081FB0028F1
:10041C0001DB002010BD012010BDC04610B500F05E
:10042C0077FB002801DD002010BD012010BDC04667
:10043C0010B500F027FB002801DC002010BD0120C6
:10044C0010BDC04610B500F01DFB002801DA0020DD
:10045C0010BD012010BDC0469E2110B5C905041C5D
:10046C00FFF7F0FF002803D1201C00F083FE10BD25
:10047C009E21201CC90500F0DDFC00F07BFE8023D2
:10048C001B069C466044F2E770B500220C4B04003E
:10049C000D0002F0F7FC002804D12000290002F026
:1004AC0063FB70BD064B00222000290001F0DAFF2F
:1004BC0002F05AFB80231B069C466044F1E7C046C1
:1004CC000000E041F8B54746CE464A0243024500DB
:1004DC00C40F500A804648005B0A000E92099446ED
:1004EC0080B51E00814602002D0EDF00C90F8C4224
:1004FC0024D0281A00280EDD002A3ED16246002A9C
:10050C0000D1FDE0421E012800D137E1FF2800D1C7
:10051C00A9E0100039E0002863D04B46521B002D97
:10052C0000D0E0E0002F00D1CEE0531E012A00D114
:10053C0055E1FF2A00D194E01A00D9E02A1A002ACA
:10054C0000DC99E0002862D0FF2D00D18BE08023E5
:10055C006146DB0419438C461B2A00DCD2E00123E4
:10056C00DB195A016AD50135FF2D5BD00122A34955
:10057C001A405B080B4013431CE0FF2D00D172E0C6
:10058C0080236246DB041A4394461B2800DC90E06F
:10059C000123FB1A5A0151D59B019E09300002F030
:1005AC007BFC330005388340854200DC75E0944ABF
:1005BC002D1A13405A0704D00F221A40042A00D0D7
:1005CC0004335A013CD5681CFE2D2BD09B015E0ACE
:1005DC00C0B2C0053043E4072043C0BCB946B046A6
:1005EC00F8BDFE206A1C104272D1002D00D0AEE086
:1005FC00002F00D1ECE063460020002BE9D0FB1A61
:10060C005A0100D4F3E063460C00DB1BD2E76146D1
:10061C0000295BD0511E012A00D1A7E0FF2A22D06D
:10062C000A0099E7FF200026D3E7FE216A1C11423D
:10063C0073D0FF2AF6D0150067447B085A07BBD14C
:10064C00DB08FF2D0FD05B025E0AE8B2C1E7624601
:10065C00002A08D08022D203134204D04046104214
:10066C0001D10C004346002BDCD08026F6031E4340
:10067C007602FF20760AACE7002AD6D0421B002D6A
:10068C005CD0FF28EED08023DB041F431B2A00DC48
:10069C0082E001234D46634463E72022401B013076
:1006AC00121A19009340C1405A1E934100250B4366
:1006BC0080E7202361461B1A994062460B00C2401A
:1006CC00591E8B41134364E70C0043461500B8E7F1
:1006DC006346FE1A730145D4002E00D05EE7002459
:1006EC000020002675E7FF2BBBD08023DB041F43C3
:1006FC001B2A47DD012362460C004D46D31A49E7FD
:10070C0005009EE761462023D1409B1A62469A4021
:10071C0013005A1E93410B4322E7002D46D1002FA4
:10072C0062D063460020002B00D152E73B006344AB
:10073C005A0183D5324A013513407FE7002FC4D0CC
:10074C00531E012A12D0FF2A8CD01A009EE7002FCC
:10075C0000D07CE76346002B83D180260024FF2049
:10076C00F60336E763460C00DE1B17E73B006344D9
:10077C0001255A0100D461E70225F7E663460125FD
:10078C00FB1A07E720239B1A38009F403B00D04000
:10079C005A1E93410343AEE720239B1A39009F4016
:1007AC003B00D1405A1E93410B4373E7002F00D1FD
:1007BC0058E76246002A00D155E78022D203134243
:1007CC0000D150E74146114200D04CE743464AE77E
:1007DC006346002B83D00C0046460020F9E66346A6
:1007EC000C00DB1B0135D5E646460020F1E6002B5C
:1007FC0000D023E700240026EBE6C046FFFFFF7D78
:10080C00FFFFFFFBF0B54F464646D6464502C0B546
:10081C0047000C1C6D0A3F0EC60F002F00D16FE075
:10082C00FF2F00D174E00023802299469A46ED00F8
:10083C00D20415437F3F63025B0A984663001B0E8C
:10084C00E40F002B4DD0FF2B45D042468021D20027
:10085C00C9041143884600227F3B3100FF1A4B46E6
:10086C006140C9B20F2B00D9B8E070489B00C35847
:10087C009F46002398462600454692465346022B37
:10088C0000D18DE0032B00D1A1E0012B18D03B004F
:10089C007F33002B6DDD6A0704D00F222A40042A17
:1008AC0000D004352A0103D5614B1D403B00803339
:1008BC00FE2B00DD74E0AA01520AD8B202E00E0051
:1008CC0000200022C005F60710433043E0BCBA46B6
:1008DC00B146A846F0BD4346002B3FD10222FF3F54
:1008EC0003E04346002B2DD1012231004B466140E1
:1008FC00C9B213430F2B38D84E489B00C3589F46A0
:10090C00002D13D104239946033B00279A4692E706
:10091C00002D05D108239946063BFF279A468AE706
:10092C000C239946093BFF279A4684E7280002F0DE
:10093C00B3FA7627431F9D4000237F4299469A467F
:10094C003F1A78E7404602F0A7FA4246431F9A4006
:10095C0076235B4290461B1A00227EE703234A460D
:10096C001A439146FC33032277E70E00FF20002246
:10097C00A8E70122D31A1B2BA2DC9E372A00BD400C
:10098C00DA406B1E9D4115436A0704D00F222A40A2
:10099C00042A00D004356A0144D50120002291E7D5
:1009AC00FF2000228EE780220026FF20D20389E759
:1009BC00002398468022D203154208D043461342A6
:1009CC0005D11A4352022600FF20520A7AE78022F0
:1009DC00D2032A435202FF20520A73E742466B01AC
:1009EC005501AB421AD21B200022013F01261C00EC
:1009FC0052005B00002C01DB9D4201D85B1B324393
:100A0C0001380028F3D1581E834113431D003B00CD
:100A1C007F330E00002B00DD3DE7AAE71A200122F0
:100A2C005B1BE3E7AA010020520A4BE7F4700008B5
:100A3C00FFFFFFF73471000870B5420045024E020B
:100A4C004C00C30F6D0A0120120E760A240EC90F3A
:100A5C00FF2A06D0FF2C03D0A24201D1B54206D00A
:100A6C0070BD002DFCD1FF2CFAD1002EF8D18B4299
:100A7C0006D00120002AF3D12800431E9841EFE74D
:100A8C000020EDE770B5420045024E024C00C30F4A
:100A9C006D0A120E760A240EC80FFF2A1BD0FF2CEB
:100AAC000ED0002A1BD1002C01D1002E1CD0002D01
:100ABC000CD083421CD00221581E0840013870BD56
:100ACC00002E22D1002AF4D1002DF2D10028F6D12B
:100ADC0001204042F3E7002D17D1FF2CF0D0002C61
:100AEC00E7D1002EE5D1E6E70020002DE7D0E2E7C4
:100AFC00A24205DCEADBB54202D8E7D30020DEE7F0
:100B0C004342584140000138D9E702204042D6E721
:100B1C0070B5420045024E024C00C30F6D0A120E16
:100B2C00760A240EC80FFF2A0BD0FF2C0DD0002AFA
:100B3C001FD1002C16D1002E14D10020002D10D066
:100B4C0009E0002D0CD1FF2C13D1002E08D1002A66
:100B5C0008D0834212D00221581E0840013800E010
:100B6C00022070BD002DF4D10028FAD101204042A2
:100B7C00F7E7002CEDD1002EEBD1ECE7A24205DC1F
:100B8C00F2DBB54202D8EFD30020EAE743425841EA
:100B9C0040000138E5E7C04643025B0AF0B54F461A
:100BAC0046469946D646C30F45009846C0B54B46B7
:100BBC000F1C2D0E00D1CBE0FF2D00D1CFE08022F9
:100BCC00DB00D2041A430023914600269A467F3D4F
:100BDC007C027B00640A1B0EFF0F002B00D1A9E0E6
:100BEC00FF2B11D08022E400D204144342467F3BF9
:100BFC005B197A400020D2B25D1C0A2E13DD3A003C
:100C0C000B2E47D047463FE02B00FF33002C1ED164
:100C1C0002221643424601357A40D2B2FF350A2EE3
:100C2C0000DDE4E00220022E1CDC013E012E42D845
:100C3C0002283DD0012866D100200021C0050843C0
:100C4C00D2071043E0BCBA46B146A846F0BD032219
:100C5C001643424601357A40D2B2FF350A2E00DDEA
:100C6C00E4E003200121B140A626F60031420AD16E
:100C7C009026B600314216D1B93EFF3E0E421AD034
:100C8C00A146824600E0170053463A00022B0FD0D3
:100C9C004C4650460328CDD18021C903214349023B
:100CAC00FF20490ACAE780210022FF20C903C5E7BB
:100CBC00FF200021C2E7200C49462404240C270005
:100CCC000E0C0904090C74434F4346434843390C3A
:100CDC00001909188C4203D98020400284466644CE
:100CEC003F0408043F0CC0198401671EBC41090C69
:100CFC00800E8919044389010C43090171D5012324
:100D0C0061081C400C432B007F33002B51DD610725
:100D1C0004D00F212140042900D00434210103D533
:100D2C00434B1C402B008033FE2BC1DCA101490A34
:100D3C00D8B283E7002C2CD1012342461E432B0052
:100D4C007A400120D2B25D1C0A2E00DD57E76AE71B
:100D5C00002B10D10123042600259A4638E7002BDE
:100D6C0004D102230826FF259A4631E703230C26DB
:100D7C00FF259A462CE7484602F08EF84A46431F58
:100D8C0076259A4000236D42914600269A462D1AEC
:100D9C001EE7200002F080F84246431F9C402B1AAD
:100DAC00763B7A400020D2B25D1C0A2E00DD26E78D
:100DBC0039E70121CB1A1B2B00DD3DE79E352100C5
:100DCC00AC40D940631E9C4121434B0704D00F23F8
:100DDC000B40042B00D004314B0104D50120002121
:100DEC002CE71D008FE789010020490A26E7022322
:100DFC000F2E0CD180214B46C9030B420DD00C4257
:100E0C000BD1214349023A00FF20490A16E70B2E69
:100E1C0000D0F7E6A1469A4636E780214B46C90337
:100E2C00194349024246FF20490A07E70323DFE73B
:100E3C00FFFFFFF7F0B5C64643025B0A4500DA0038
:100E4C00C40F48024F009446420A1E00904600B55B
:100E5C002D0E3F0EC90F8009FF2F59D00122514092
:100E6C008C4239D0EA1B002A58DD002F68D0FF2DA8
:100E7C0000D1D1E08023DB0418431B2A00DCE3E023
:100E8C0001236246D31A5A0100D4ACE09B019E099F
:100E9C00300002F001F8330005388340854200DC55
:100EAC00C6E0B24A2D1A13405A0704D00F221A403A
:100EBC00042A00D004335A0100D497E06A1CFE2D9A
:100ECC0000D184E09B015E0AD2B2D0053043E40726
:100EDC00204380BCB846F0BDEA1B002A41DD002F40
:100EEC006BD0FF2D00D197E08023DB0418431B2A25
:100EFC0000DCCCE0012363445A0174D50135FF2D8D
:100F0C0065D001229A491A405B080B401343CBE78A
:100F1C0000281FD08C4222D02A00FF3A002A35D05C
:100F2C007A1B002D00D099E06346002B00D1DDE048
:100F3C00531E012A00D105E1FF2A6BD01A0094E060
:100F4C00002873D0511E012A00D1DFE0FF2A63D0A4
:100F5C000A0092E701225140A14200D082E72A0008
:100F6C00FF3A002A36D07A1B002D00D1AAE0FF2FC1
:100F7C0000D1DAE080236146DB0419438C461B2A3E
:100F8C0000DCD4E001233D001B18B5E7FE276A1CEA
:100F9C00174271D1002D00D09EE06346002B00D18A
:100FAC00D5E00022002800D18FE71B1A5E0100D487
:100FBC00D6E063460C00C31A76E7002836D0511EE3
:100FCC00012A00D19AE0FF2A26D00A008FE7FF22DF
:100FDC0000267AE7FE276A1C174262D0FF2AF6D059
:100FEC001500604443085A0700D05FE7DB08FF2D6B
:100FFC0012D05B025E0AEAB267E76246002A00D1B1
:10100C0093E0002808D08022D203134204D040463B
:10101C00104201D10C004346002BD8D08026F60399
:10102C001E437602FF22760A4FE743461500DEE7A1
:10103C002022401B0130121A19009340C1405A1E45
:10104C00934100250B432FE720239B1A0100984066
:10105C000300D1405A1E93410B4312E7FF2FD9D006
:10106C0080236446DB041C43A4461B2A52DD012367
:10107C000C003D00C31A06E763461E1A730139D4EF
:10108C00002E00D004E70024002200261DE72023B8
:10109C009B1A010098400300D1405A1E93410B4308
:1010AC0029E7002DA9D16346002B56D00022002839
:1010BC0000D10AE7030063445A0194D52B4A013549
:1010CC00134090E76346002BAFD0531E012A15D076
:1010DC00FF2A2AD01A0052E76246002A91D1002832
:1010EC0098D180260024FF22F603EEE60C0043463E
:1010FC0015007CE763460C00C61AC9E6030063447E
:10110C0001255A0100D46EE70225FAE66346012553
:10111C001B1AB8E664462023D4409B1A62469A40B8
:10112C0013005A1E93412343A2E7434674E76146DA
:10113C002023D1409B1A62469A4013005A1E9341B9
:10114C000B4320E763460C000125C31A9BE60028DD
:10115C0099D00C0046460022B7E646460022B4E67B
:10116C00002B00D03FE700240026AEE6FFFFFFFB7C
:10117C00FFFFFF7D41024200C30F490A0020120EFF
:10118C007E2A03DD9D2A02DD094A981870478020CB
:10119C0000040143952A07DC9620821AD14048426C
:1011AC00002BF3D10800F1E7963A9140F7E7C046DF
:1011BC00FFFFFF7F70B5041E0ED001F06DFE9E2365
:1011CC0001001B1A962B0CDC08282CD008398C40FB
:1011DC006402640AD8B201E000200024C005204358
:1011EC0070BD992B0ADD020020001B3290400200DA
:1011FC00501E82410520401AC4401443052916DCB8
:10120C0022000F480240650709D00F252C40042C02
:10121C0005D00432540102D59F2302405B1A92017F
:10122C00540AD8B2DAE764029620640AD6E74A1F59
:10123C0094402200024802406507F0D0E5E7C04622
:10124C00FFFFFFFBF0B54F464646D6460400C0B53F
:10125C001F000B0310004E005B0ACD0F610F7A00CC
:10126C001943E3003C03FF0FBC46640A470F2743B6
:10127C00760D520DC000B9468046B71A654500D1AF
:10128C009BE0002F00DC84E0002A00D1BEE0C84ABD
:10129C00964200D124E180224C4612041443A1460C
:1012AC00382F00DD67E11F2F00DDD6E120224C46F0
:1012BC00D21B9440A2464446FC40200054460443B2
:1012CC0040469040421E90414A46FA400443891AD7
:1012DC001C1BA342924152428B1A9A4653461B0244
:1012EC0000D4D4E053465A02530A9A465346002B74
:1012FC0000D104E1504601F0CFFD0300083B202251
:10130C002000D21A5146D040994002009C400A431A
:10131C00B34200DA02E19B1B591C1F2900DDA7E038
:10132C002023100026005B1A9C409840CE40CA40F7
:10133C00631E9C413043924600260443630709D048
:10134C000F232340042B05D0231DA342A441644248
:10135C00A2441C0053461B0200D49BE0944B013664
:10136C009E4200D1B8E053469249E4080B40190064
:10137C005B07234372054C02240B520D1205ED073B
:10138C0022432A4318001100E0BCBA46B146A846D5
:10139C00F0BD002F48D0971B002E00D00EE10C00A2
:1013AC001C4300D1B7E17C1E012F00D126E2804DF9
:1013BC00AF4200D1D5E1270007E1002F00DCB2E0FD
:1013CC00002A47D07A4A964200D189E080224C46C6
:1013DC0012041443A146382F6BDC1F2F00DC6EE186
:1013EC003A004846203AD0408446202F07D040226D
:1013FC004846D21B9040020040461043804640466F
:10140C00421E904162460400144357E04A46024390
:10141C0000D103E17A1E012F00D193E1644CA74265
:10142C0000D18AE117003BE7634C721C224200D0CA
:10143C00E0E00A001A43002E00D074E1002A00D12B
:10144C00D0E14A46024300D0E3E14A07DB081343EC
:10145C00C90829E04A46024300D17DE17A1E012FDA
:10146C0000D1E0E0524CA74200D166E11700B2E790
:10147C0010001F3BD840202903D040235B1A9A4010
:10148C001443631E9C41002300269A4604436307C1
:10149C0000D055E75246E308520713435246370033
:1014AC00D108434A97421FD009037A050C0B520D01
:1014BC0064E742464C461443621E9441E4189C4235
:1014CC009241524292468A4453461B02DFD5384B16
:1014DC0001369E4200D0B3E03200002400234DE7D9
:1014EC004A07DB081343C9081A000A4300D100E27B
:1014FC00802424030C4324032D4A240B3EE72000B4
:10150C0001F0CAFC030018331F2B00DCF7E62200A5
:10151C00083882400024B34200DBFCE6F61A254B67
:10152C001A4092460AE7002F2BD0971B002E00D1B1
:10153C00B8E01F4CA24200D11CE1802424042143BA
:10154C00382F00DD1EE11F2F00DD9EE120260C0050
:10155C00F61B1800B340B440F8405E1EB341F9408E
:10156C0004431C438944444444459B415B424B44E3
:10157C009A461600A8E742464C461443621E944114
:10158C00A6E60D4C721C224200D0A8E00A001A43B9
:10159C00002E00D00AE1002A00D15EE14A46024347
:1015AC0000D061E14A07DB081343C9087CE7C04659
:1015BC00FF070000FFFF7FFFFE070000CF4CA24299
:1015CC0000D1CEE0802424042143382F5BDC1F2F74
:1015DC0000DDDCE020250C00ED1B1E00AB40AC4018
:1015EC00FE405D1EAB413443F9401C434B465B1A35
:1015FC0099464CE04A461C1A881AA3429241524220
:10160C00924602005046121A9246120278D4534661
:10161C00234300D06AE60021002545E74A07DB0892
:10162C001343C9083DE71C189C429B4149448A4618
:10163C005B429A44534601261B0200D427E702263C
:10164C005246AF4B01211A401300214062080A4355
:10165C00DC075B089A46144370E63A004C46203A85
:10166C00D440A446202F07D040224846D21B90409D
:10167C0002004046104380464046421E904162465E
:10168C000400144324E619430C00631E9C4143469A
:10169C001C1BA0459B4149465B42CB1A9A466546AA
:1016AC0016001BE60C001C4300D1C7E07C1E012F6A
:1016BC0000D1F9E0914EB7425CD0270040E72022E0
:1016CC004C464046D21B9440F84004434046904060
:1016DC00421E90414A46FA4004438918EEE6874C74
:1016EC00A24200D1F9E6181898429B4149445B424A
:1016FC00CB18DC0740085B089A4616000443C6E684
:10170C004246D41AA04580414B464042591A0B1A06
:10171C009A466546EAE54B464A46C0085B0765466D
:10172C000343D108BDE6002A00D08EE04B460343AC
:10173C0017D1802100250903DAE64A07DB08134399
:10174C00C908D1E61C1A4A46A3429B41891A5B423E
:10175C00CB1A9A460126C1E54A07DB081343C90890
:10176C009FE64346D8084B464A465B07654603430B
:10177C00D108B9E64346D8084B464A465B070343B3
:10178C00D108B1E619430C00631E9C41EBE63C000A
:10179C000D00203CE540202F03D04024E41BA14049
:1017AC000B431C00631E9C412C4370E7002AE1D0C4
:1017BC004A460243C1D04A07DB0813438022C908BA
:1017CC001203114208D04846C408144204D14346BF
:1017DC002100DB08420713435A0FDB005207DB08DA
:1017EC00134381E64B46034300D114E74B464A466C
:1017FC00C0085B0765460343D10855E6C41AA045EB
:10180C0080414B464042591A0B1A9A4665460126AE
:10181C0064E51C1A4A46A34280418A1A4042121AB5
:10182C009246120249D54246D41AA04580414B46F5
:10183C004042591A0B1A9A4665467FE54B464A4672
:10184C00C0085B070343D1082BE64A46DB0802437A
:10185C0038D14A071343C90846E64B464A46C008E6
:10186C005B070343D1081FE61C189C429B4149446B
:10187C008A465B429A4453461B0200D407E6524602
:10188C001F4B01261A40924601E63C000E00203CFC
:10189C00E640202F03D04024E41BA1400B431C0046
:1018AC00631E9C4134435EE6434483428041494479
:1018BC008A4640421C008244BCE65346234300D176
:1018CC00A9E6E4E54A0713438022C9081203114232
:1018DC0009D04846C408144205D143466546210048
:1018EC00DB08420713435A0FDB00DB085207134394
:1018FC00FAE50023014A1C0040E5C046FF07000042
:10190C00FFFF7FFFF0B557464E464546DE46E0B535
:10191C000C031F004B0081469246050085B0240B3A
:10192C005B0DCE0F002B00D152E1D24A934200D175
:10193C006EE1420FE40014438022120422439046CD
:10194C00CD4AC50093469B440023994600933C0323
:10195C007B005046240B5B0DFF0F002B00D11AE1CE
:10196C00C44A934200D15EE1420FE400224380243A
:10197C0024041443C04AC10094465A466344D31A03
:10198C009B46002033007B409A464B460F2B27D8B2
:10199C00BA4A9B00D3589F46B246009B022B16D0E6
:1019AC00032B00D187E2012B00D0D5E000230022CD
:1019BC0000251B0513435246D20713432800190078
:1019CC0005B0F0BCBB46B246A946A046F0BD00220D
:1019DC000025A84BEDE7BA46A0460D000090DCE7C9
:1019EC00444500D2C4E100D1BFE101235B429C46D7
:1019FC002E0040460025E34423020C0E1C431B0C16
:101A0C00994623040A021F0C494600920197FEF7DF
:101A1C00F9FB02007A430B04310C804619438A42CD
:101A2C0007D901235B429C460919E0448C4200D83B
:101A3C0001E2881A4946FEF7E5FB019A3604424357
:101A4C000904360C03000E43B24204D93619013B8B
:101A5C00B44200D8E9E1B01A4246009E12041A437F
:101A6C00330C1F00110C9046029313043204160C15
:101A7C0032001B0C5A4303967B434E437943170C9D
:101A8C00BC469B1963449E4203D980267602B44619
:101A9C0061441E0C711816041B04360C9E198842E6
:101AAC0002D312D1B54210D243465A1E009B9C461B
:101ABC0065441F009D429B415B421B19C018844228
:101ACC0000D29EE100D199E19046AE1BB542AD41EA
:101ADC00401A6D42401B844200D1D2E14946FEF7C8
:101AEC0091FB019A0B044243310C050019438A42C5
:101AFC0000D96CE1881A4946FEF784FB019A36043A
:101B0C0042430904360C03000E43B24200D953E1A0
:101B1C000398B61A02002D041D43029F2B041B0CC4
:101B2C005A437B439C46290C4843130C844463441E
:101B3C007943984203D98020400284466144180CB2
:101B4C0012041B04120C40189B18864200D200E1B0
:101B5C0000D1FBE001231D43494B5B44002B00DC0F
:101B6C00AAE06A0700D03DE1E9084246D20106D559
:101B7C004246444B1A4080239046DB005B44424A69
:101B8C00934200DD23E742465B05550752020D43A5
:101B9C00120B5B0D0DE75146214300D17CE0002C6C
:101BAC0000D1FBE0200001F077F902000B3A1D2375
:101BBC009B1A52460100DA40534608398B408C4040
:101BCC0019001443314B58449B4683440020D9E6FA
:101BDC0003002343984644D0002C00D1CFE02000D2
:101BEC0001F05AF9010002000B391D235B1A49461A
:101BFC001000D940083884400B004D4623439846CA
:101C0C008540234B9B1A9B460023994600939EE6E6
:101C1C000200224390461DD108229B460223002538
:101C2C009146009393E65146214309D102234A463B
:101C3C001A43184B91469C4600240220E344A1E62B
:101C4C0003234A461A43134B91469C4651460320A4
:101C5C00E34497E60C229B460323A046914600934F
:101C6C0075E60423994600239B4601330025009317
:101C7C006DE6C046FF07000001FCFFFF7471000811
:101C8C00FF030000FFFFFFFEFE070000F303000050
:101C9C000DFCFFFF01F8FFFF4A4601231A43914652
:101CAC00002401206EE6002380229A460025884BF2
:101CBC0012037EE601256D420122D21A382A00DD7C
:101CCC0074E61F2A00DCBDE01F214942CB1A4146B5
:101CDC00D9400B00202A04D041467E4A5A449140F8
:101CEC000D4329004A1E9141194307231D00002270
:101CFC000D400B4200D1D0E00F2200230A40042AF1
:101D0C0000D1C7E00A1D8A42894149425B18110083
:101D1C001A0200D4BEE001230022002549E68022ED
:101D2C0043461203134208D0144206D12243120335
:101D3C00BA460D00664B120B3BE68022434612035B
:101D4C001A431203B246624B120B32E6002B00D13F
:101D5C0002E7A6196A1EA64200D289E0864200D28A
:101D6C009FE000D1AFE01500F4E6A94200D93CE6B3
:101D7C004346DE0758086B081E43ED073CE601F0AE
:101D8C008BF801000200153120321C2900DC2CE7F5
:101D9C004B46083883400025984632E701F07CF822
:101DAC0003001A00153220301C2A00DCFFE65446D2
:101DBC00083B00219C4005E73619013BB44200D991
:101DCC00A6E6B24200D8A3E6831E3619A0E609198E
:101DDC00013D8C4200D98DE68A4200D88AE6851EE8
:101DEC00091987E60F222A40042A00D1BCE6291DD6
:101DFC00A942AD416D42C908A844B6E6AF4200D92C
:101E0C0062E6814204D800D05EE6AE4200D85BE6C2
:101E1C0002235B429C46009BE0449C4665449D42E9
:101E2C009B415B421B19C0184FE6B24200D812E628
:101E3C00831E36190FE68A4200D8FAE5831E9846AF
:101E4C000919F6E5244B28005B4441469D40994016
:101E5C00D0406B1E9D41434601432943D3404A0762
:101E6C0000D155E70F220A40042A00D04AE74FE779
:101E7C001500864200D06DE6009A9A4200D069E6C1
:101E8C006AE6164B5B44002B00DC13E701250021AE
:101E9C00A8446AE65D075B021A0BC90800230D43D0
:101EAC0087E50099023D4A008A42BF417F423F19B3
:101EBC00F6190092DDE78022434612031A431203FF
:101ECC00034B120B75E500999942EAD31500D3E741
:101EDC00FF0700003E0400001E040000FF0300008A
:101EEC00F0B54546DE4657464E46E0B51F000B039F
:101EFC001B0B9B464D00CB0F04009146984687B0B8
:101F0C006D0D00D1CDE1CE4B9D4200D1E9E15A4699
:101F1C00430FD2001343802212041A43C3009A4683
:101F2C00C84B93469C4600230026654400933C0313
:101F3C007B004846240B5B0DFF0F002B00D189E181
:101F4C00BF4A934219D0420FE40022438024240458
:101F5C001443BC4A00219446424663445B190193E6
:101F6C00019B7A400133C000D2B202930A2E1CDDD1
:101F7C003A000B2E5ED0474656E04946B04B214303
:101F8C00EB18019300292AD18020022200012B009A
:101F9C0084461643424663447A40D2B202930A2ED8
:101FAC0000DD31E2002000240221022E26DC013E5D
:101FBC00012E52D802294CD0012900D018E100235F
:101FCC00002400251B052343D207134328001900C6
:101FDC0007B0F0BCBB46B246A946A046F0BD802176
:101FEC00032209012B008C461643424663447A4077
:101FFC00D2B202930A2E00DD28E203210125B5405E
:10200C00AC46A6266346F600354033420BD19026EB
:10201C00B600334218D1B93EFF3E1E421DD0A34636
:10202C008246009100E0170000993A00022910D076
:10203C005C4650460329BFD180231B031C43240359
:10204C0005007F4B240BBDE7802400227C4B24032E
:10205C00B8E7002400257A4BB4E753461E04360C2F
:10206C001F0C3300010C0004000C43439846030082
:10207C007B43994633004B439C4643460D001B0C57
:10208C009A467D43CC44D4440095E14504D9802341
:10209C005B0299464D44009563461B0C1D0063463C
:1020AC001B049C4643461B041B0C98466346434446
:1020BC000393230C984633002404240C63439C465E
:1020CC0023007B43994643465E435F434E4463463D
:1020DC00B2461E0C5644B14503D980235B02994687
:1020EC004F44330C99463B004B4405936346AC4636
:1020FC001F043F0C3604F619B444634604935B4644
:10210C001B0C9C465B461F043F0C3B00434399460B
:10211C00634643439A464B4660461B0C9B464843DA
:10212C007943514459448A4503D980235B029A462A
:10213C0050440B0C9A464B461B041B0C99463B0017
:10214C006343090445464944994663465C436B43E3
:10215C009C464B461B0C98466F433F1947445044D2
:10216C00BC4203D980235B029846C444049B009D67
:10217C0098464544B542B641734298464B461E04B8
:10218C00059B3C049946360CA4194C44A146834645
:10219C006E18C1448E428941CB445D4649426D184C
:1021AC009C42A441C1459B41834580418D4289415C
:1021BC005B4264421C434042039B49420143700210
:1021CC003F0C1843E419471EB84164186444F60DDB
:1021DC0061023043EC0D6E020C433043C90100D454
:1021EC00F1E00121430801400B43E0071843640868
:1021FC001549029B8C466344002B00DC97E0410799
:10220C0009D00F210140042905D0011D81428041D4
:10221C00404224180800E10106D58021C9008C46F3
:10222C000A4B1C40029B634409498B4200DD10E7BA
:10223C006107C50864025B050D43240B5B0DC1E609
:10224C00FF07000001FCFFFFFF030000FFFFFFFE84
:10225C00FE0700004B46234359D0002C00D1A3E0CD
:10226C00200000F019FE010003000B391D22521A48
:10227C0049461800D1404A46083882408440100034
:10228C000C43744AEB1A9446424663440193019BF7
:10229C007A4001330021D2B202930A2E00DD67E6A8
:1022AC0083E65B4603439A462AD05B46002B6DD0EF
:1022BC00584600F0F1FD010003000B391D22521AA3
:1022CC00210018005D46D140083885400A00844042
:1022DC002A439346A2465F4D0026ED1A0023009335
:1022EC0025E65B4603439A4605D100239B46023301
:1022FC00082600931BE6032382460C26009316E661
:10230C0000239B4601330426002500930FE642462A
:10231C00013301951E43019B7A40013300240020B8
:10232C000121D2B202930A2E00DD21E63DE6012105
:10233C00C91A382900DD42E61F2947DD1F26250072
:10234C007642F31ADD402B00202905D04249029D2C
:10235C008C466544AC402043411E884118430723FA
:10236C001D000024054003424AD00F2300240340E3
:10237C00042B42D0031D8342804140422418180094
:10238C0023023AD50123002400251BE600F084FD2E
:10239C0001000300153120331C298FDD0838002281
:1023AC0084409246A34696E700F076FD01000300B8
:1023BC00153120331C2900DC58E702004C46083A42
:1023CC00002094405DE7019B029311E7234B26000C
:1023DC009C460300029DCB406544AE401E43030067
:1023EC00AB40581E834130001843CC404307C7D044
:1023FC000F230340042BBDD1C2E765076402240BF5
:10240C00C00800230543DDE5002502230F2E0CD167
:10241C0080245B46240323420ED021420CD10C4372
:10242C0024033A000E4B240BCCE50B2E00D0A2E576
:10243C008B46AA460093F7E580245B4624031C4395
:10244C00240342465546064B240BBBE54D46210062
:10245C000323DBE70DFCFFFF3E0400001E0400001D
:10246C00FF070000F0B557464E464546DE46E0B540
:10247C000D000400190010002B035B0A620F1A43B5
:10248C00E3000C03640A470F2743D04C6E009146BF
:10249C0083B04A00C0009846A246760DED0F520D4F
:1024AC00C90F0190A24200D1B9E0012461408B46D2
:1024BC008D4200D18DE0B41AA446002C00DCB7E0AC
:1024CC00002A00D1CBE0C14A964200D186E180229D
:1024DC00120417436246382A00DDA4E11F2A00DDEE
:1024EC001DE2614620223C00521A010090409440AB
:1024FC00421E90416246A0466446D7404A46E1409F
:10250C004446D21B91460C4304431C1BA3429241EC
:10251C004B4652429B1A9A4653461B0200D42BE15F
:10252C0053465A02530A9A465346002B00D166E191
:10253C00504600F0B1FC0300083B20222000D21AC8
:10254C005146D040994002009C400A439E4200DD17
:10255C0064E19B1B591C1F2900DDFEE020231000A9
:10256C0026005B1A9C409840CE40CA40631E9C419A
:10257C003043924600260443630709D00F232340BF
:10258C00042B05D0231DA342A4416442A2441C0089
:10259C0053461B0200D4F2E08C4B01369E4200D114
:1025AC000FE153468A49E4080B4019005B072343AB
:1025BC0072054C02240B520D12052243ED072A43DF
:1025CC001800110003B0F0BCBB46B246A946A046A9
:1025DC00F0BDB41AA446002C59DD002A00D1B0E09D
:1025EC00564500D1FAE08022120417436246382A7D
:1025FC0000DDD4E01F2A00DCC0E13900203AD140D4
:10260C006246202A06D064464022121B3C009440AD
:10261C0004430194019C621E94410C43C3E03C00B2
:10262C0004432BD08B468D422ED06A4CA446B44426
:10263C006446002C5FD0941BA446002E00D020E1F1
:10264C004C461C4300D1C7E161464C1E012900D108
:10265C0023E25E4DAC4500D1D8E1A4461AE13A0024
:10266C00024300D1E4E02200013A012C00D1C3E185
:10267C0056498C4200D1B1E094462BE701246140CD
:10268C008B468D4200D016E752498C46B4446446C2
:10269C00002C00D1D3E0911B8C46002E00D15EE1C2
:1026AC004A498A4200D1BEE180214C4609040C43C0
:1026BC00A1466146382900DDBAE11F2900DD27E279
:1026CC002024641A4946A1401E0088466146A34056
:1026DC00CE4041465C1EA341314319430C00634676
:1026EC004946D9407F18241884429B415B429A4644
:1026FC001600BA445DE0384C721C224200D0DFE078
:10270C004A461A43002E00D05CE1002A00D1CFE1EA
:10271C003A00024300D17FE11C1A4A46A342894188
:10272C00D21B4942521A9246120200D40AE2C41A2F
:10273C00A04280414B464042FF1A3B1A9A465D46E6
:10274C001AE73A00024373D02200013A012C00D15F
:10275C00CBE0544542D0944648E710001F3BD8408C
:10276C00202903D040235B1A9A401443631E9C41DA
:10277C00002300269A460443630700D0FEE6524627
:10278C00E308520713435246B446D2080F498C450E
:10279C002AD01203140B62465205520D0CE73C0072
:1027AC000443621E9441E4189C42924152424A44B2
:1027BC00924653461B02DFD5044B01369E4200D095
:1027CC00A0E0320000240023F6E6C046FF0700001C
:1027DC00FFFF7FFF01F8FFFFFE070000DB084A4602
:1027EC00520713434A46D2081900114300D1B5E1F0
:1027FC008024240314432403D54A240BDCE6200054
:10280C0000F04AFB030018331F2B00DC95E6220076
:10281C000838824000249E4200DC9AE6F61ACD4B22
:10282C001A409246A8E63C000443621E94416CE6B2
:10283C004A46DB08520713434A46D208A6E7C64C61
:10284C00721C224200D0ACE04A461A43002E00D043
:10285C0005E1002A00D156E13A00024300D1DBE049
:10286C001C189C429B414F44BA465B429A445346C7
:10287C001B0200D480E75246B64B01261A40924602
:10288C007AE7B34CA24200D1C0E080244D46240428
:10289C002543A9466446382C53DC61461F2C00DDC9
:1028AC00CDE020251E002D1B4C46AB40AC40CE404D
:1028BC005D1EAB41344323434C46CC403F1B45E0AB
:1028CC004A461C1AD11BA3429241524292460A001C
:1028DC005146521A9246120200D583E053462343C6
:1028EC0000D021E60022002553E71C189C429B4196
:1028FC004F44BA465B429A44534601261B0200D40D
:10290C003AE702265246934B01211A40130021400C
:10291C0062080A43DC075B089A4614432CE639002C
:10292C00203AD1406246202A06D064464022121B2F
:10293C003C00944004430194019C621E94410C435E
:10294C00E3E5494619430B005C1EA341C41AA0429F
:10295C009B415B42FB1A9A465D461600DCE54946F4
:10296C00194300D1AEE0614664460139012C00D117
:10297C00E0E0774CA44556D08C469AE6614620227E
:10298C003C00521A944001009040A0466446421EFE
:10299C0090416246E1404446D7400C430443B9445D
:1029AC0001E76B498A4200D10CE7181898429B4109
:1029BC004F445B42FB18DC0740085B089A46160044
:1029CC000443D9E6002A00D081E03B0003431DD12B
:1029DC008022002512030BE7C0087B075D460343EA
:1029EC00FA08D3E6C41AA04280414B464042FF1A73
:1029FC003B1A9A465D4697E51C1A4A46A3429B41F0
:102A0C00D71B5B42FB1A9A46012685E5C0087B075B
:102A1C005D460343FA08E7E64A46DB0852071343D0
:102A2C004A46D208B5E6C0087B070343FA08DBE642
:102A3C00494619430B00591E8B411C0053E64D4669
:102A4C00203CE540202905D04024641A4946A14089
:102A5C000B43984643465C1EA3412B4376E7002A62
:102A6C00E1D03A00DB08024300D1B8E64A465207EF
:102A7C00802413434A462403D208224207D0FE087E
:102A8C00264204D15D463200C3087F073B43590FF1
:102A9C00DB004907DB080B43A6E6C41AA0428041C1
:102AAC004B464042FF1A3B1A9A465D46012633E5D7
:102ABC003B00034300D115E7C0087B075D46034389
:102ACC00FA0866E6C0087B070343FA085EE63A009C
:102ADC00DB08024300D182E64A46520780241343A6
:102AEC004A462403D208224207D0FE08264204D1CB
:102AFC005D463200C3087F073B43590FDB00DB0800
:102B0C0049070B4370E6C0087B070343FA0840E60D
:102B1C004C462039CC406146202906D066464021DF
:102B2C00891B4E468E40334398464346591E8B4173
:102B3C001C43D8E51C18844280414F44BA4640429D
:102B4C008244D9E65346234300D1CBE614E6C04673
:102B5C00FF070000FFFF7FFFFE0700000023014A74
:102B6C001C0029E5FF0700000A0030B5134C530088
:102B7C0009030500090B00205B0DD20FA34204DDF5
:102B8C000F48834202DD0F4BD01830BD802040032C
:102B9C0001430D48C01A1F2808DD0C48C31AD94040
:102BAC000B005842002AF0D11800EEE7084CC54043
:102BBC00A446634499400B002B43F2E7FE0300004C
:102BCC001D040000FFFFFF7F33040000130400000E
:102BDC00EDFBFFFF70B5002816D0C317C5185D407C
:102BEC00C40F280000F058F9114B1B1A0A2816DCE8
:102BFC0002002E00153296400B22121AD5405B05AE
:102C0C002D032D0B5B0D03E0002400230025002673
:102C1C001B052B43E40723433000190070BD0B3810
:102C2C0085405B052D0300262D0B5B0DF0E7C046A0
:102C3C001E04000010B5041E10D000F02DF90F4B2F
:102C4C001B1A0A2811DC0B222100121AD140153054
:102C5C000A035B058440120B5B0D01E0002300228C
:102C6C001B0513432000190010BD22000B388240B5
:102C7C005B0512030024120B5B0DF1E71E04000030
:102C8C0070B542024300C40FFE201B0E591C550A9E
:102C9C0008420CD0E02189008C466D07120B63446E
:102CAC001B051343E40723432800190070BD002BB8
:102CBC0014D1002D1BD0280000F0EEF80A281CDCE3
:102CCC000B232A001B1ADA40030015339D400E4BD0
:102CDC0012031B1A5B05120B5B0DE1E7002D09D0EB
:102CEC00130B802212031A436D07084BD8E70023FD
:102CFC000022D5E70022054BD2E703002A000B3B4C
:102D0C009A400025E3E7C04689030000FF07000056
:102D1C000200F0B54B000D03400F5B0DCC0F6D0A9C
:102D2C003A490543581CD70008420AD0384959186B
:102D3C00FE2916DDFF200022C0051043E4072043C6
:102D4C00F0BD002B06D13D4326D005229201520A3C
:102D5C00D8B2F1E72F43EDD08022D203FF202A43D3
:102D6C00EAE700291BDD9201501E8241ED007F0F26
:102D7C002A433A43530747D00F231340042B00D068
:102D8C0004328023DB0413403ED0481CFE29D1D0F2
:102D9C009201520AC0B2CFE700200022CCE70A0011
:102DAC0017322FDB802636042E431E256D1A1F2D5D
:102DBC0011DD02225242521A3100D140202D04D092
:102DCC00144A944663449E4037433A00531E9A413A
:102DDC000A430021CEE7104A3800944663449840D9
:102DEC003A00411E88419E40EA4030430243002194
:102DFC005307C1D180211300C90401200B400A42A2
:102E0C00C6D1A3E70023A0E70B009FE7FE07000055
:102E1C0080FCFFFFA2FCFFFF82FCFFFF844610003A
:102E2C0062468C461900634600E0C0461FB500F0B0
:102E3C00F9F8002801D40021C8421FBD10B500F0DC
:102E4C0049F84042013010BD10B500F0EBF80028F5
:102E5C0001DB002010BD012010BDC04610B500F0F4
:102E6C00E1F8002801DD002010BD012010BDC04696
:102E7C0010B500F071F8002801DC002010BD012015
:102E8C0010BDC04610B500F067F8002801DA00202C
:102E9C0010BD012010BDC0461C2101231B0498420B
:102EAC0001D3000C10391B0A984201D3000A0839CF
:102EBC001B09984201D30009043902A2105C401886
:102ECC007047C0460403020201010101000000002A
:102EDC0000000000F0B54E464546DE46574690468B
:102EEC00E0B517001A03120B0500844619480E03AF
:102EFC004C0091465A00DB0F9B46360B640DC90FF4
:102F0C00520D844219D0824210D0012094420ED12D
:102F1C004E450CD10120C44509D1594517D0002C80
:102F2C0005D130002843431E984100E00120F0BC3D
:102F3C00BB46B246A946A046F0BD330001202B4348
:102F4C00F5D1A242F3D14B463B43F0D1E2E700204E
:102F5C00EDE7C046FF070000F0B54746CE4604003B
:102F6C00180016001B031B0B2D4D4A00994680B50B
:102F7C0043000F03A446B0463F0B520DC90F5B0D27
:102F8C00C00FAA4221D0AB4213D0002A22D13C431D
:102F9C00002B02D14D462E4322D0002C10D0814262
:102FAC0022D00220013908400138C0BCB946B046D5
:102FBC00F0BD4D462E4329D1002AF0D13C43EED131
:102FCC000028F2D101204042EFE73D0025431DD1FE
:102FDC009342EED0002BE2D14C462643DFD1E0E702
:102FEC000020002CE1D0DCE79A420ADCE8DB4F45FC
:102FFC00D7D80ED000204F45D7D20029E2D00800F8
:10300C00D3E74342584140000138CEE7022040420A
:10301C00CBE7C445C5D80020C445C6D2EDE7C046B1
:10302C00FF070000F0B54746CE4604001800160016
:10303C001B031B0B2C4D4A00994680B543000F0314
:10304C00A446B0463F0B520DC90F5B0DC00FAA42F0
:10305C000DD0AB4210D0002A27D13C43002B11D10C
:10306C004D462E430ED10020002C15D00EE03D0015
:10307C00254310D1934218D14D462E430BD1002A33
:10308C0002D13C43002C0BD0814214D002200139D8
:10309C000840013800E00220C0BCB946B046F0BD83
:1030AC000028F9D101204042F6E7002BECD14C4628
:1030BC002643E9D1EAE79A4204DD434258414000F5
:1030CC000138E9E79A42EBDB4F45DFD806D0002008
:1030DC004F45E1D20029E5D00800DDE7C445D5D83D
:1030EC000020C445D8D2F5E7FF07000090B583B0A7
:1030FC0000AF040008001100BB1D221C1A803B1DF0
:10310C00021C1A80BB1C0A1C1A80BB1D18883B1D94
:10311C001988BB1C1B881A0000F0BCFEC046BD46BB
:10312C0003B090BDB0B584B002AF05000C00100028
:10313C001900BB1D2A1C1A803B1D221C1A80BB1CAB
:10314C00021C1A803B000A1C1A80BB1D18883B1DF0
:10315C001988BB1C1A883B001C881823FB181B8879
:10316C000093230001F012F8C046BD4602B0B0BD7A
:10317C0090B583B000AF040008001100BB1D221CE9
:10318C001A803B1D021C1A80BB1C0A1C1A80BB1C1B
:10319C001A883B1D0021595EBB1D00201B5E1800C8
:1031AC00FFF7A4FFC046BD4603B090BDB0B588B0D4
:1031BC0000AF05000C0010001900BB1D2A1C1A8062
:1031CC003B1D221C1A80BB1C021C1A803B000A1CD3
:1031DC001A803B0000229A5E3B1D00215B5ED31AD5
:1031EC00D9175A184A40BB1C0021595EBB1D002040
:1031FC001B5ECB1AD9175B184B4001219A4201DC9C
:10320C000023191CCAB21A217B181A807B180022C1
:10321C009B5E002B19D018217B18BA1D12881A80BE
:10322C00BB1D3A1D12881A803B1D7A1812881A8011
:10323C0016217B18BA1C12881A80BB1C3A00128803
:10324C001A803B007A1812881A80BA1DBB1C002108
:10325C00525E00215B5E9A4219DD14217B18BA1D67
:10326C0012881A80BB1DBA1C12881A80BB1C7A18D3
:10327C0012881A8012217B183A1D12881A803B1D65
:10328C003A0012881A803B007A1812881A80BB1CEC
:10329C001A88BB1D1B88D31A9AB210203B181A80AF
:1032AC003B0000229A5E3B1D00215B5ED31AD917AE
:1032BC005A184A400E23FB181A801E23FA183B1882
:1032CC0000215B5E002B00DA01335B1013803A1D8A
:1032DC003B000021525E00215B5E9A4204DA1C2303
:1032EC00FB1801221A804DE01C23FB1801225242CC
:1032FC001A8047E01A23FB1800229B5E002B0CD08F
:10330C003023FB181A88BB1D0021595E3B1D002081
:10331C001B5E1800FFF72CFF0BE03023FB181A88FC
:10332C003B1D0021595EBB1D00201B5E1800FFF7E2
:10333C001FFF1E217B181A880E23FB181B88D31A1B
:10334C009AB27B181A807B1800229B5E002B11DA34
:10335C003B1D1A881C23FB181B88D3189AB23B1DE3
:10336C001A807B181A881023FB181B88D3189AB262
:10337C007B181A80BB1D00229B5E9BB201339AB254
:10338C00BB1D1A80BA1DBB1C0021525E00215B5E66
:10339C009A42AFDDC046C046BD4608B0B0BDB0B520
:1033AC0084B002AF05000C0010001900BB1D2A1CD4
:1033BC001A803B1D221C1A80BB1C021C1A803B006D
:1033CC000A1C1A803B1D1A88BB1C1B88D3189BB285
:1033DC00013B9BB21CB2BB1D00229A5E3B1D00211F
:1033EC00595EBB1D0020185E3B001B880093230018
:1033FC00FFF7DCFEC046BD4602B0B0BDB0B584B030
:10340C0002AF05000C0010001900BB1D2A1C1A800D
:10341C003B1D221C1A80BB1C021C1A803B000A1C80
:10342C001A80BB1D1A88BB1C1B88D3189BB2013B8E
:10343C009BB21AB23B1D00241C5F3B1D0021595E40
:10344C00BB1D0020185E3B001B8800932300FFF778
:10345C00ADFEC046BD4602B0B0BDB0B586B002AF41
:10346C0005000C0010001900BB1D2A1C1A803B1D06
:10347C00221C1A80BB1C021C1A803B000A1C1A80DE
:10348C00BA1DBB1C0021525E00215B5E9A422AD100
:10349C003A1D3B000021525E00215B5E9A420CDD1E
:1034AC000C217B183A1D12881A803B1D3A00128899
:1034BC001A803B007A1812881A803B001A883B1D30
:1034CC001B88D31A9BB201339BB21AB22023FB1870
:1034DC001C883B1D0021595EBB1D0020185E23007B
:1034EC00FFF75DFF45E03A1D3B000021525E0021D5
:1034FC005B5E9A422AD1BA1DBB1C0021525E002190
:10350C005B5E9A420CDD0E217B18BA1D12881A8064
:10351C00BB1DBA1C12881A80BB1C7A1812881A8020
:10352C00BB1C1A88BB1D1B88D31A9BB201339BB2E0
:10353C001AB22023FB181C883B1D0021595EBB1DB1
:10354C000020185E2300FFF759FF12E03B00002417
:10355C001C5FBB1C00229A5E3B1D0021595EBB1DEB
:10356C000020185E2023FB181B8800932300FFF714
:10357C001DFEC046BD4604B0B0BDB0B582B000AFB4
:10358C0005000C0010001900BB1D2A1C1A803B1DE5
:10359C00221C1A80BB1C021C1A803B000A1C1A80BD
:1035AC0018257B191C88BB1C00229A5E3B1D002130
:1035BC00595EBB1D0020185E2300FFF71FFF3B1D4B
:1035CC001A883B001B88D3189BB2013B9BB219B2E3
:1035DC007B191C88BB1C00229A5EBB1D0020185E48
:1035EC002300FFF70BFF7B191C883B0000229A5E1F
:1035FC003B1D0021595EBB1D0020185E2300FFF708
:10360C00CEFEBB1D1A88BB1C1B88D3189BB2013B7A
:10361C009BB218B27B191C883B0000229A5E3B1DA2
:10362C000021595E2300FFF7BAFEC046BD4602B02A
:10363C00B0BDB0B58EB000AF05000C001000190085
:10364C00BB1D2A1C1A803B1D221C1A80BB1C021C91
:10365C001A803B000A1C1A803A1D3B000021525E66
:10366C0000215B5E9A4219DD26217B183A1D1288D7
:10367C001A803B1D3A0012881A803B007A18128877
:10368C001A8024217B18BA1D12881A80BB1DBA1C03
:10369C0012881A80BB1C7A1812881A803A004C21A6
:1036AC007B180020125E00201B5E9A421ADD22203D
:1036BC003B187A1812881A807B183A0012881A80E4
:1036CC003B003A1812881A8020217A1848203B189F
:1036DC001B8813803B18BA1C12881A80BB1C7A18E2
:1036EC0012881A803A1D3B000021525E00215B5E5D
:1036FC009A4219DD1E217B183A1D12881A803B1D37
:10370C003A0012881A803B007A1812881A801C2101
:10371C007B18BA1D12881A80BB1DBA1C12881A801D
:10372C00BB1C7A1812881A803A1D4C23FB180021F6
:10373C00525E00215B5E9A4258D134203B18BA1D70
:10374C0012881A8036217B183A1812881A80BA1CF3
:10375C007B180020125E00201B5E9A4204DA7B1854
:10376C00BA1C12881A800CE0BA1C34217B18002079
:10377C00125E00201B5E9A4203DD7B18BA1C128875
:10378C001A8048203B183624391900229A5E0023EF
:10379C00CB5E9A4204DA3A193B181B8813800DE071
:1037AC0048203B183424391900229A5E0023CB5E42
:1037BC009A4203DD3A193B181B8813803423FB18FB
:1037CC001A8836203B181B88D31A9BB201339BB244
:1037DC001AB25023FB181C883B1D0021595E3B1864
:1037EC000020185E2300FFF709FE51E1BB1C1A886C
:1037FC00BB1D1B88D31A9AB21A23FB181A803B00E4
:10380C001A883B1D1B88D31A9AB21823FB181A80EE
:10381C0048203B181A88BB1D1B88D31A9AB2162352
:10382C00FB181A804C217B181A883B1D1B88D31A55
:10383C009AB21423FB181A803B181A88BB1C1B88DD
:10384C00D31A9AB21223FB181A807B181A883B00E1
:10385C001B88D31A9AB21023FB181A800023FB6220
:10386C000023BB623A007B180021525E00215B5E94
:10387C009A4205D13023FB183A0012881A8006E0D0
:10388C003B001B88013B9AB23023FB181A80322371
:10389C00FB183A1D12881A8065E01823FB180022C9
:1038AC009B5E1900F86AFCF7B1FC03009AB2BB1DD1
:1038BC001B88D3189AB236243B191A801423FB1890
:1038CC0000229B5E1900B86AFCF7A0FC03009AB2B8
:1038DC00BB1D1B88D3189AB234217B181A801A236B
:1038EC00FB1800229B5EFA6AD318FB621623FB18A6
:1038FC0000229B5EBA6AD318BB623A197B1800206F
:10390C00125E00201B5E9A420CDD0C203B183A190B
:10391C0012881A803B197A1812881A807B183A1868
:10392C0012881A803423FB181A8836203B181B88FF
:10393C00D31A9BB201339BB21AB25023FB181C88CA
:10394C0032257B190021595E3B180020185E23009C
:10395C00FFF754FD29007B1800229B5E9BB20133BC
:10396C009AB27B181A8032203A183023FB180021A7
:10397C00525E00215B5E9A428FDD1223FB180022FF
:10398C009B5E3A180021515E3A000024125F8A1A9D
:10399C005343FB621623FB1800229B5E3A1800214E
:1039AC00515E3A1D0020125E8A1A5343BB6265E0D9
:1039BC001023FB1800229B5E1900F86AFCF726FC0A
:1039CC0003009AB2BB1C1B88D3189AB236243B193D
:1039DC001A801423FB1800229B5E1900B86AFCF7AE
:1039EC0015FC03009AB2BB1D1B88D3189AB2342164
:1039FC007B181A801223FB1800229B5EFA6AD318DC
:103A0C00FB621623FB1800229B5EBA6AD318BB62BA
:103A1C003A197B180020125E00201B5E9A420CDDC6
:103A2C000E203B183A1912881A803B197A18128802
:103A3C001A807B183A1812881A803423FB181A88BB
:103A4C0036203B181B88D31A9BB201339BB21AB297
:103A5C005023FB181C8832257B190021595E3B181A
:103A6C000020185E2300FFF7C9FC29007B180022F8
:103A7C009B5E9BB201339AB27B181A803223FA18E0
:103A8C004C23FB180021525E00215B5E9A428FDDB5
:103A9C00BD460EB0B0BD000080B584B002AF0200D0
:103AAC00BB1D1A80084B00229A5E084B0021595E00
:103ABC00BB1D1B8800930B0000210020FFF732FB7D
:103ACC00C046BD4602B080BD500000205200002010
:103ADC0080B500AF8023DB0003480022190002F000
:103AEC008EFAC046BD4680BD0004004880B500AFCC
:103AFC008023DB0003480122190002F080FAC04643
:103B0C00BD4680BD0004004880B500AF084B0022C4
:103B1C000421180002F073FA052001F0F1FC044BAB
:103B2C0001220421180002F06AFAC046BD4680BD8D
:103B3C000004004880B582B000AF0200FB1D1A7073
:103B4C00084B00220221180002F059FA01235B42B3
:103B5C00F91D0548012202F06BFFC046BD4602B0BC
:103B6C0080BDC046000400489C00002080B582B097
:103B7C0000AF78603960094B01220221180002F075
:103B8C003EFA3B689AB201235B427968044802F022
:103B9C004FFFC046BD4602B080BDC0460004004881
:103BAC009C00002090B585B000AF78607B685A1CF3
:103BBC007A600F22BA181B7813704AE07B685A1C83
:103BCC007A600B217A181B7813707B181B781800FD
:103BDC00FFF7B0FF7B685A1C7A600A203A181B78F2
:103BEC0013703B181B789AB20C23FB1880210A40E7
:103BFC001A803B183A1812787F210A401A703B1829
:103C0C001B78002B0CD004003B181A787B68110031
:103C1C001800FFF7ABFF3B191B787A68D3187B6051
:103C2C000C217B181B88002B13D07B685A1C7A60E4
:103C3C001A787B181A807B181B88FF2B03D17B18F2
:103C4C00FA2252001A800C23FB181B88180001F072
:103C5C0057FC0F22BB181B78BA18591E1170002B79
:103C6C00ACD1C046C046BD4605B090BDB0B584B021
:103C7C0000AF05000C0010001900FB1D2A1C1A7067
:103C8C00BB1D221C1A707B1D021C1A703B1D0A1CCA
:103C9C001A702A20FFF74EFF0C217B1800221A7095
:103CAC001C4B1A78FB1D1B78D318DAB27B185A7090
:103CBC007B1800229A70174B1A787B1D1B78D3182F
:103CCC00DAB27B18DA700C007B1804211800FFF7AD
:103CDC004DFF2B20FFF72EFF0F4B1A78BB1D1B78C7
:103CEC00D318DAB221007B185A700B4B1A783B1D93
:103CFC001B78D318DAB27B18DA707B180421180001
:103D0C00FFF734FF2C20FFF715FFC046BD4604B06B
:103D1C00B0BDC046570000205800002080B582B0CE
:103D2C0000AF0200FB1D1A70FFF7D2FEFFF7ECFE8E
:103D3C000E4B1800FFF736FF0D4B1800FFF732FF44
:103D4C000C4B1800FFF72EFF0B4B00221A700B4B7D
:103D5C0000221A70FB1D1B78180000F011F8FFF7F9
:103D6C00C5FEC046BD4602B080BDC046B471000859
:103D7C00EC710008FC710008550000205600002072
:103D8C0080B584B000AF0200FB1D1A700F23FB1826
:103D9C0000221A70FB1D1B7803221340DAB2364B3B
:103DAC001A70354B1B78032B41D053DC022B2BD0D4
:103DBC0050DC002B02D0012B13D04BE00F23FB184F
:103DCC00C0221A702D4BA0221A802D4B80221A80F3
:103DDC002C4B1A782C4B1A702C4B1A782C4B1A70C3
:103DEC0038E00F23FB18A0221A70254BA0221A8052
:103DFC00224B80221A80234B1A78254B1A70234BA6
:103E0C001A78214B1A7025E00F23FB1800221A7028
:103E1C001A4BA0221A801A4B80221A80194B1A783E
:103E2C00194B1A70194B1A78194B1A7012E00F2390
:103E3C00FB1860221A70124BA0221A800F4B8022A2
:103E4C001A80104B1A78124B1A70104B1A780E4BB2
:103E5C001A70C046FFF73CFE3620FFF76BFE0F23AF
:103E6C00FB1801211800FFF781FEFFF73FFEC0464B
:103E7C00BD4604B080BDC046540000205200002056
:103E8C005000002055000020570000205600002054
:103E9C005800002090B585B000AF04000800110058
:103EAC00BB1D221C1A803B1D021C1A80BB1C0A1C49
:103EBC001A80BB1D1B881C4A0021525E93422FDACC
:103ECC003B1D1B88194A0021525E934228DAFFF7EA
:103EDC00FFFDBB1D1B88D8B23B1D1B88D9B2BB1D77
:103EEC001B88DBB20133DAB23B1D1B88DBB201331A
:103EFC00DBB2FFF7BBFEBB1C1B881B0A9BB2DAB202
:103F0C000C217B181A70BB1C1B88DAB27B185A70F8
:103F1C007B1802211800FFF729FEFFF7E7FD00E0F0
:103F2C00C046BD4605B090BD500000205200002098
:103F3C0082B0B0B588B000AF0400080011000422B4
:103F4C0030255219D2191360BB1D221C1A803B1D3F
:103F5C00021C1A80FB1C0A1C1A70BB1D1B88D8B2D1
:103F6C003B1D1B88D9B2BB1D1B88DAB204235B191D
:103F7C00DB191B78D318DBB2013BDCB23B1D1B8871
:103F8C00DAB204235B19DB195B78D318DBB2013B83
:103F9C00DBB22200FFF76AFE0023FB6153E004232F
:103FAC0030201B18DB195A68FB1C1B78203B0421A2
:103FBC000918C91949784B431900FB69CB185B00E8
:103FCC00D3181B887B610023BB6130E07A69BB6925
:103FDC009A4080231B02134013D03C203B181B88B3
:103FEC001B0A9BB2DAB210217B181A703B181B8883
:103FFC00DAB27B185A707B1802211800FFF7B6FD55
:10400C0012E040203B181B881B0A9BB2DAB20C2131
:10401C007B181A703B181B88DAB27B185A707B1805
:10402C0002211800FFF7A2FDBB690133BB61042319
:10403C0030229B18DB191B781A00BB699342C5D33D
:10404C00FB690133FB61042330229B18DB195B787D
:10405C001A00FB699342A2D3C046C046BD4608B0C5
:10406C00B0BC08BC02B0184782B0F0B587B004AF42
:10407C003A600422182412190824A446BC44624451
:10408C001360BB1D021C1A803B1D0A1C1A80FFF713
:10409C001FFD67E0BB1D1B88042218215218082045
:1040AC008446BC44624412789B18364A0020125E47
:1040BC00934227DBBB1D00221A80042308005B18E7
:1040CC0008229446BC4463445B7899B23B1D3A1D6C
:1040DC0012888A181A803B1D1B880422121808218A
:1040EC008C46BC44624452789B18274A0021525E8D
:1040FC0093423CDA3B681B78202B03D13B6801339D
:10410C003B602FE03B681D78042318269B1908227E
:10411C009446BC4463443A1D1488BA1D1088282266
:10412C0008215218D2191288029224225218D2193C
:10413C00128801926A46596811601B682A00210096
:10414C00FFF7F6FE04239B1908229446BC446344F3
:10415C001B7899B2BB1DBA1D12888A181A803B684D
:10416C0001333B603B681B78002B93D100E0C046C9
:10417C00FFF7BCFCC046BD4603B0F0BC08BC02B0A7
:10418C001847C0465000002052000020B0B584B043
:10419C0000AF05000C0010001900BB1D2A1C1A8072
:1041AC003B1D221C1A80BB1C021C1A803B000A1CE3
:1041BC001A80BB1D1B88494A0021525E934200DBCA
:1041CC0087E03B1D1B88464A0021525E934200DB70
:1041DC007FE0BB1D1A88BB1C1B88D3183F4A0021EB
:1041EC00525E934208DD3D4B00229B5E99B2BB1C94
:1041FC00BA1D12888A1A1A803B1D1A883B001B882C
:10420C00D318374A0021525E934208DD344B00220A
:10421C009B5E99B23B003A1D12888A1A1A80FFF7EE
:10422C0057FCBB1D1B88D8B23B1D1B88D9B2BB1DCC
:10423C001B88DAB2BB1C1B88DBB2D318DBB2013B88
:10424C00DCB23B1D1B88DAB23B001B88DBB2D318F7
:10425C00DBB2013BDBB22200FFF708FD20217B180B
:10426C001B881B0A9BB2DAB20C203B181A707B1805
:10427C001B88DAB23B185A701A4B01220221180023
:10428C0001F0BDFE3B1D3A0012881A801AE0BB1DDE
:10429C00BA1C12881A800CE001235B420C22B9185C
:1042AC001148022202F0C4FBBB1D1A88BB1D013A47
:1042BC001A80BB1D1B88002BEED13B1D1A883B1DA1
:1042CC00013A1A803B1D1B88002BE0D1FFF70EFC36
:1042DC0000E0C046BD4604B0B0BDC0465000002052
:1042EC0052000020000400489C00002080B500AF64
:1042FC0001F098F800F01AF800F004F900F068F8F2
:10430C0000F0C2F8084B180001F05EFA0020FFF72D
:10431C0005FD0020FFF7C0FBFA235B00180001F03D
:10432C00EFF800F08DF9FCE75C00002090B591B03F
:10433C0000AF10243B19180030231A00002102F0A2
:10434C004DFE3B00180010231A00002102F046FE1F
:10435C0021007B1812221A607B180122DA607B186C
:10436C0001225A617B1810221A617B1810229A6163
:10437C007B1802221A627B18802212025A627B1866
:10438C00C02212039A627B180022DA627B18180092
:10439C0001F052FE031E01D000F04CF93B00072245
:1043AC001A603B0002225A603B0080229A603B005C
:1043BC000022DA603B000121180002F05BF9031EB9
:1043CC0001D000F037F9C046BD4611B090BD0000D9
:1043DC0080B584B000AF3B1D18000C231A000021DF
:1043EC0002F0FCFD264B274A1A60254B00225A602E
:1043FC00234B00229A60224B0022DA60204B0122D0
:10440C001A611F4B04225A611D4B00221A761C4B59
:10441C0000225A761A4B00229A76194B0022DA7631
:10442C00174BC222FF32DA61154B00221A62144B71
:10443C00242200219954124B01229A62104B18002D
:10444C0001F082F8031E01D000F0F4F83B1D0822A5
:10445C001A603B1D802252015A603B1D802252057E
:10446C009A603A1D064B1100180001F00DFA031E5C
:10447C0001D000F0DFF8C046BD4604B080BDC04698
:10448C005C0000200024014080B500AF1B4B1C4A8F
:10449C001A601A4B822252005A60184B00229A6002
:1044AC00164BE022D200DA60144B00221A61134B37
:1044BC0000225A61114B802292009A610F4B082204
:1044CC00DA610E4B00221A620C4B00225A620B4B23
:1044DC0000229A62094B0722DA62084B00221A6307
:1044EC00064B08225A63054B180002F0E9F9031E2B
:1044FC0001D000F09FF8C046BD4680BD9C00002056
:10450C000030014090B58BB000AF14243B1918005B
:10451C0014231A00002102F061FD424B5A69414BF1
:10452C00802109030A435A613E4B5A6980231B03BD
:10453C0013403B613B693B4B5A693A4B8021C903A1
:10454C000A435A61374B5A698023DB031340FB60E3
:10455C00FB68344B5A69334B802189020A435A61F8
:10456C00304B5A6980239B021340BB60BB682D4BB8
:10457C005A692C4B8021C9020A435A61294B5A694A
:10458C008023DB0213407B607B682749274B00228A
:10459C00180001F034FD3B19E02212021A603B199D
:1045AC0000225A603B1900229A603B19204A1900DC
:1045BC00100001F097FB3B1903221A603B190022F3
:1045CC005A603B1900229A603A199023DB051100BE
:1045DC00180001F087FB3B19134A1A603B190122A2
:1045EC005A603B1900229A603B190022DA603B1991
:1045FC000E4A1900100001F075FB21007B18802277
:10460C0052011A607B1800225A607B1801229A60B2
:10461C007B18064A1900100001F064FBC046BD4629
:10462C000BB090BD001002400604000000040048CE
:10463C000008004880B500AF72B6C046FEE7000027
:10464C0090B583B000AFFB1D00221A70144B1B7881
:10465C00002B01D000F0D0F800F026F800F0F6FAAC
:10466C00FC1D00F0C7FA030023700E4B1B78022BC5
:10467C0005D0FB1D1B78180000F036F905E0FB1D7A
:10468C001B78180000F0BEF9C046054B1B78012BB7
:10469C0002D1034B00221A70C046BD4603B090BD38
:1046AC001800002020000020F0B585B000AF0023DA
:1046BC00FB60464B1B68180000F090FD0200FA23CB
:1046CC009B009A4200D27CE000F07CFD02003F4B44
:1046DC001A603F4B180001F0CBF803007B60786840
:1046EC00FEF7A8FA3B4A3C4BFDF7FAFB02000B0025
:1046FC0010001900FEF70CFB031C3B603868FEF73A
:10470C00BFFA0022354BFDF7ADFE02000B00100086
:10471C0019000022324BFDF7E3FB02000B001000E6
:10472C00190000222F4BFCF78DFD02000B0014002A
:10473C001D002D4B1B6806211800FBF763FD0B00B9
:10474C001E0020002900FEF7E3FA011C274BB200E3
:10475C00D150254B1B6806211800FBF753FD0B00AD
:10476C001A00224B9200D358FB601F4B1B685A1C3B
:10477C001D4B1A601C4B1B68052B1AD90023FB60C0
:10478C000023BB600CE0194BBA689200D358191C7B
:10479C00F868FBF797FE031CFB60BB680133BB603A
:1047AC00BB68052BEFDD1249F868FCF72BF8031CEE
:1047BC00FB60104BFA681A60054B180001F004F806
:1047CC0000E0C046BD4605B0F0BDC046000100206B
:1047DC005C0000206666666666664A3F0000F43F31
:1047EC0000002EC000001C40040100200801002025
:1047FC000000C0401C00002080B584B004AF012034
:10480C00FFF7BEFA314B324800220292314A019234
:10481C006A46596811601B68020000210020FFF7EE
:10482C0023FCFA239B00180000F06AFE0020FFF71F
:10483C0033F90120FFF7A4FA274B284800220292F3
:10484C00FC22D20001926A46596811601B68020072
:10485C0032211420FFF708FCFA239B00180000F00B
:10486C004FFE0020FFF718F90120FFF789FA174BCC
:10487C001B4800220292174A01926A46596811603D
:10488C001B68020000210020FFF7EEFBFA239B00BF
:10489C00180000F035FE104B124800220292FC2248
:1048AC00D20001926A46596811601B6802003221DD
:1048BC001420FFF7D9FBFA239B00180000F020FE10
:1048CC000020FFF7E9F8C046BD4680BD000000207F
:1048DC0058700008FFFF0000080000206C700008F2
:1048EC00787000089070000890B589B004AF020091
:1048FC00FB1D1A70FB1D1B78012B05D0394B1A7848
:10490C00394B1B789A424ED0364B1B78052B16D060
:10491C0006DC042B21D003DC012B38D0022B2AD04F
:10492C00314B03221A70FC23DB001800FFF7B4F89C
:10493C0000F0E2F92D4BFC22D2001A8033E02A4B16
:10494C0005221A70F8231B021800FFF7A5F800F0D7
:10495C00D3F9264B264A1A8025E0234B04221A70E1
:10496C00244B1800FFF798F800F0C6F91F4B2022D3
:10497C0052421A8017E01C4B02221A70FF20FFF7DC
:10498C008BF800F0B9F9194BFF221A800BE0164B8B
:10499C0001221A701F20FFF77FF800F0ADF9134BBE
:1049AC001F221A80C046144B1B6808243A191100A8
:1049BC00181C00F031FC0120FFF7E2F90B4B1A88B0
:1049CC000E4B381902920E4A01926A4659681160D0
:1049DC001B68020032212820FFF746FBC046BD466B
:1049EC0005B090BD210000202001002022000020F5
:1049FC0000F8FFFFE0FF00001C000020100000206A
:104A0C00FFFF0000F0B58BB002AF0200FB1D1A7067
:104A1C001E23FB186B4A1A801223FB1880221A8063
:104A2C008023BB610023FB60FB1D1B78012B09D18C
:104A3C000020FFF731F800F06DF9634B180000F01F
:104A4C00C3FEBCE0604B180000F012FF0200122104
:104A5C007B181A807B181B881800FEF7BBF85B4A82
:104A6C005B4BFDF73DFA02000B0010001900FEF73E
:104A7C004FF9031CFB60F868FEF702F9554A564BD8
:104A8C00FDF72EFA02000B0000205449FDF7EAFC5A
:104A9C0002000B0014001D00514B1B68062118006E
:104AAC00FBF7B0FB0B001E0020002900FEF730F9CD
:104ABC00011C4C4BB200D150494B1B68062118000D
:104ACC00FBF7A0FB0B001A00464B9200D358181CA6
:104ADC00FBF7C2FC0300BB61414B1B685A1C404BEB
:104AEC001A603F4B1B68052B29D90023BB6100239F
:104AFC007B6112E0B869FCF75DFB3A4B7A69920076
:104B0C00D358191CFBF7DEFC031C181CFBF7A4FC88
:104B1C000300BB617B6901337B617B69052BE9DD9C
:104B2C00B869FEF787F800222F4BFCF7EBFE02006A
:104B3C000B0010001900FBF7A7FC0300BB61224B14
:104B4C00180000F041FE294B1B68DBB26422534372
:104B5C00DAB2BB69DBB264214B43DBB29A420BD0B5
:104B6C00224B1B6819B2214B1B681BB2002200920E
:104B7C00A0220020FEF771FCBB6919B2BB691BB205
:104B8C001B4A0092A0220020FEF767FC174BBA6963
:104B9C001A60BB69482B08D9BB694B2B05D81E235F
:104BAC00FB18FC22D2001A8003E01E23FB18054AD6
:104BBC001A801E23FB181B88180000F00DFABD4646
:104BCC0009B0F0BD00F8FFFF5C0000206666666669
:104BDC0066664A3F5C8FC2F5285C4040000060402E
:104BEC00240100202801002000001840240000208F
:104BFC00FFFF000080B500AF80235B01104A190055
:104C0C00100001F0DFF9031E03D10E4B02221A70C3
:104C1C0002E00C4B01221A700B4B1A78094B1B78D3
:104C2C009A4205D0074B1A78074B1A70012304E0FF
:104C3C00044B1A78044B1A7000231800BD4680BD33
:104C4C0000040048200000204001002080B500AF87
:104C5C00234B1B682349181CFBF7F4FB031E03D0E2
:104C6C00214B01221A7037E01D4B1B681F49181C81
:104C7C00FBF7DEFB031E0BD0194B1B681949181CE4
:104C8C00FBF7C2FB031E03D0174B02221A7023E062
:104C9C00134B1B681649181CFBF7CAFB031E0BD0E1
:104CAC000F4B1B681349181CFBF7AEFB031E03D0FC
:104CBC000D4B04221A700FE0094B1B680C49181C91
:104CCC00FBF7ACFB031E03D0074B05221A7003E065
:104CDC00054B03221A70FFE7C046BD4680BDC04697
:104CEC001C00002000002841210000200000084189
:104CFC00000060400000B04080B500AF044B0A21BA
:104D0C00180000F019F800F0B3F8C046BD4680BD9D
:104D1C009C70000880B500AF064B1421180000F001
:104D2C000BF8F8231B02180000F056F9C046BD46DC
:104D3C0080BDC046A870000890B589B004AF7860FB
:104D4C000A00FB1C1A700F217B1800221A70FB1C26
:104D5C001B780A2B03D17B1800221A7015E0FB1C60
:104D6C001B78142B04D10F23FB1814221A700CE09F
:104D7C00FB1C1B781E2B04D10F23FB1814221A705A
:104D8C0003E00F23FB1800221A700120FEF7F8FF36
:104D9C000F243B191B789BB21E22D31A9BB218B25C
:104DAC003B191B789BB23222D31A9BB219B23B1916
:104DBC001B789BB23222D31A9BB21BB2C3221201B4
:104DCC00029214220192009300230A000021FEF7A4
:104DDC0030FC3B191B789BB26E339BB218B23B195B
:104DEC001B789BB282339BB219B23B191B789BB2D6
:104DFC006E339BB21BB2C322120102921422019297
:104E0C00009300230A000021FEF713FC3B191B78CA
:104E1C009BB23222D31A9BB218B23B191B781E33A9
:104E2C009BB2DB189BB21AB2C3231B010093152350
:104E3C000021FEF777F93B191B789BB22D22D31A70
:104E4C0098B2094B7C68C32212010292074A019264
:104E5C006A46596811601B6822000321FFF704F9A8
:104E6C00C046BD4605B090BD00000020FFFF00000D
:104E7C0080B584B002AF0120FEF782FFFB1D7822C3
:104E8C001A70BB1D64221A70FB1D1B7818B2BB1D57
:104E9C001B789BB2503B9BB219B200230093142396
:104EAC002822FEF76AFBFB1D1B7818B2BB1D1B7872
:104EBC009BB23C3B9BB219B20023009314232822D3
:104ECC00FEF75BFBFB1D1B7818B2BB1D1B789BB25E
:104EDC00283B9BB219B20023009314232822FEF71F
:104EEC004CFBFB1D1B7818B2BB1D1B789BB2143BF3
:104EFC009BB219B20023009314232822FEF73DFB2A
:104F0C00FB1D1B7818B2BB1D1B7819B20023009334
:104F1C0014232822FEF731FBFB1D1B789BB20133B7
:104F2C009BB218B2BB1D1B789BB2503B9BB219B203
:104F3C001F23009313232722FEF7F4F8FB1D1B7885
:104F4C009BB201339BB218B2BB1D1B789BB23C3B8E
:104F5C009BB219B2FF23009313232722FEF7E2F82A
:104F6C00FB1D1B789BB201339BB218B2BB1D1B7887
:104F7C009BB2283B9BB219B2FC23DB00009313239A
:104F8C002722FEF7CFF8FB1D1B789BB201339BB297
:104F9C0018B2BB1D1B789BB2143B9BB219B20D4BC4
:104FAC00009313232722FEF7BDF8FB1D1B789BB241
:104FBC0001339BB218B2BB1D1B7819B2F8231B022C
:104FCC00009313232722FEF7ADF8C046BD4602B06E
:104FDC0080BDC046E0FF000080B586B004AF020083
:104FEC00BB1D1A80BB1D1B88029336230193002323
:104FFC0000934A2314225E210020FEF71AFBBB1DEE
:10500C001B88029336230193A02300934A238C22FE
:10501C005E21A020FEF70DFBC046BD4602B080BD50
:10502C0080B582B000AF0F4B9A690E4B01210A4339
:10503C009A610C4B9B69012213407B607B68094B86
:10504C00DA69084B802149050A43DA61054BDA69B4
:10505C0080235B0513403B603B68C046BD4602B0F5
:10506C0080BDC0460010024090B58BB000AF786098
:10507C0014243B19180014231A00002101F0AEFF70
:10508C007B681B68184A93422AD1184B9A69174BB4
:10509C00802189000A439A61144B9A6980239B00F2
:1050AC0013403B613B69114B5A69104B8021C9027B
:1050BC000A435A610D4B5A698023DB021340FB6093
:1050CC00FB683B1901221A603B1903225A603B19F9
:1050DC0000229A603B19064A1900100000F002FEEB
:1050EC00C046BD460BB090BD0024014000100240EC
:1050FC000004004890B58BB000AF786014243B19C5
:10510C00180014231A00002101F068FF7B681B684B
:10511C001C4A934232D11C4B9A691B4B802149018A
:10512C000A439A61184B9A6980235B0113403B61D7
:10513C003B69154B5A69144B802189020A435A6109
:10514C00114B5A6980239B021340FB60FB682100C2
:10515C007B18E0221A607B1802225A607B1800220E
:10516C009A607B180322DA607B1800221A617A1885
:10517C009023DB051100180000F0B4FDC046BD46BD
:10518C000BB090BD003001400010024080B500AF64
:10519C00FEE780B500AFFEE780B500AFC046BD4668
:1051AC0080BD80B500AFC046BD4680BD80B500AFA8
:1051BC0000F080F9C046BD4680BD80B500AFC0464A
:1051CC00BD4680BDB0B500AF00F086F9040000F01C
:1051DC008DF9030063431800BD46B0BD90B585B092
:1051EC0000AF7860FFF7EEFF040000F07FF90300DA
:1051FC006343BB60BA687B689A4204D3BA687B6825
:10520C00D31AFB6003E07A68BB68D31AFB60FB68B7
:10521C001800BD4605B090BDB0B584B000AF786045
:10522C0039606A497868FBF7B7FC031C0E257C19BA
:10523C00181CFBF711F9030023807B191A88FA2339
:10524C009B009A426DD33B68053300221A707B1980
:10525C001B88FA2291001800FAF74EFF03009BB24C
:10526C00DBB23033DAB23B681A707B191C887B19BD
:10527C001B88FA2291001800FAF73EFF03009BB23C
:10528C001A0013009B059B1A9B019B185B009B1833
:10529C00DB00E31864211800FAF7B8FF0300DAB258
:1052AC003B6801333032D2B21A703B6802332E2283
:1052BC001A707B191C887B191B8864211800FAF75B
:1052CC001BFF03009BB21A0013005B069B1A9B008A
:1052DC009B18DB009B1A9B00E3180A211800FAF7B5
:1052EC0095FF0300DAB23B6803333032D2B21A7046
:1052FC007B191B88DCB27B191B880A211800FAF772
:10530C00FBFE03009BB2DBB21A1C9200D318DB1815
:10531C00DBB2E31ADAB23B6804333032D2B21A7021
:10532C0050E03B68053300221A703B6804330022BE
:10533C001A700E257B191B8864211800FAF7DCFE05
:10534C0003009BB2DBB23033DAB23B681A703B68B5
:10535C0001332E221A707B191C887B191B8864213F
:10536C001800FAF7C9FE03009BB21A0013005B0683
:10537C009B1A9B009B18DB009B1A9B00E3180A21CD
:10538C001800FAF743FF0300DAB23B6802333032FD
:10539C00D2B21A707B191B88DCB27B191B880A21CC
:1053AC001800FAF7A9FE03009BB2DBB21A1C92009C
:1053BC00D318DB18DBB2E31ADAB23B6803333032B2
:1053CC00D2B21A70C046BD4604B0B0BD0000C8428F
:1053DC000D488546FFF7F1FE0C480D490D4A002398
:1053EC0002E0D458C4500433C4188C42F9D30A4A8E
:1053FC000A4C002301E013600432A242FBD301F0FB
:10540C00F5FDFEF773FFFEE7008000200000002092
:10541C0034000020749A0008340000204801002059
:10542C00FEE7000080B500AF074B1A68064B102151
:10543C000A431A60032000F009F8FFF7F1FD00237E
:10544C001800BD4680BDC0460020024090B583B018
:10545C0000AF7860144B1C68144B1B781900FA23AE
:10546C009800FAF749FE030019002000FAF744FEF1
:10547C000300180000F029FC031E01D001230FE0EB
:10548C007B68032B0BD8796801235B420022180040
:10549C0000F006FC064B7A681A60002300E001233A
:1054AC001800BD4603B090BD28000020300000203D
:1054BC002C00002080B500AF054B1B781A00054B63
:1054CC001B68D218034B1A60C046BD4680BDC0464F
:1054DC00300000204401002080B500AF024B1B6857
:1054EC001800BD4680BDC0464401002080B500AF09
:1054FC00024B1B781800BD4680BDC0463000002012
:10550C0080B584B000AF7860FFF7E6FF0300BB60A6
:10551C007B68FB60FB68013305D00A4B1B781A00D3
:10552C00FB689B18FB60C046FFF7D6FF0200BB6808
:10553C00D31AFA689A42F7D8C046C046BD4604B0A2
:10554C0080BDC0463000002080B584B000AF7860CC
:10555C000F23FB1800221A700023BB607B68002B02
:10556C0001D1012325E17B689B6B002B0AD17B6861
:10557C000022DA637B683422002199547B6818007E
:10558C00FFF772FD7B689B6B1022134000D003E188
:10559C000F23FB181B78002B00D0FDE07B681B68E9
:1055AC009B680422134000D0F6E07B689B6B834A17
:1055BC00134002221A437B689A637B681B689B68C2
:1055CC0003221340012B12D17B681B681B6801223C
:1055DC001340012B09D07B681B68DA6880231B02FF
:1055EC001A4080231B029A4201D1012300E00023C0
:1055FC00002B16D17B681B68DB68182293431900BB
:10560C007B689A687B681B680A43DA607B681B6856
:10561C001B699B0099087B685A687B681B680A4366
:10562C001A617B681B68DA687B681B6864490A40EE
:10563C00DA607B681B7E9A037B685B7EDB031A4314
:10564C007B689B7E5B031A437B689B6A012B02D0B1
:10565C0080235B0100E000231A437B68DB681A435C
:10566C007B681B69022B01D1042300E000231A4341
:10567C007B6824215B5C5B001343BA681343BB60FB
:10568C007B68DB7E012B15D17B689B7E002B05D1C3
:10569C00BB68802252021343BB600BE07B689B6BA0
:1056AC0020221A437B689A637B68DB6B01221A43C6
:1056BC007B68DA637B68DA69C223FF339A4207D0CE
:1056CC007B68DA697B681B6A1343BA681343BB6057
:1056DC007B681B68D9687B681B68BA680A43DA6008
:1056EC007B68DA6A80235B059A421BD07B68DB6A95
:1056FC00012B17D07B68DB6A022B13D07B68DB6A2B
:10570C00032B0FD07B68DB6A042B0BD07B68DB6A26
:10571C00052B07D07B68DB6A062B03D07B68DB6A22
:10572C00072B12D17B681B685A697B681B680721A1
:10573C008A435A617B681B6859697B68DB6A07225C
:10574C001A407B681B680A435A617B681B68DB68DC
:10575C001C4A1340BA689A420BD17B680022DA6368
:10576C007B689B6B0322934301221A437B689A63E9
:10577C001CE07B689B6B1222934310221A437B68BC
:10578C009A637B68DB6B01221A437B68DA630F2315
:10579C00FB1801221A7009E07B689B6B10221A43DC
:1057AC007B689A630F23FB1801221A700F23FB18D6
:1057BC001B781800BD4604B080BDC046FDFEFFFF3F
:1057CC001902FEFFE7FF3F8390B585B000AF78600C
:1057DC000F23FB1800221A707B681B689B6804223D
:1057EC00134038D17B6834229B5C012B01D10223FE
:1057FC0038E07B683422012199547B685B7E012B55
:10580C0007D00F23FC187B68180000F033F9030055
:10581C0023700F23FB181B78002B20D17B689B6B0C
:10582C00124A1340802252001A437B689A637B68A9
:10583C000022DA637B683422002199547B681B6850
:10584C001C221A607B681B689A687B681B680421A1
:10585C000A439A6003E00F23FB1802221A700F23ED
:10586C00FB181B781800BD4605B090BDFEF0FFFF7D
:10587C0080B582B000AF78607B681B681B6C180029
:10588C00BD4602B080BD000080B584B000AF78602A
:10589C0039600F23FB1800221A700023BB607B6851
:1058AC00DA6A80235B059A4211D07B68DB6A012B94
:1058BC000DD07B68DB6A022B09D07B68DB6A032B7B
:1058CC0005D07B68DB6A042B01D07B68DB6A7B68C4
:1058DC0034229B5C012B01D10223BBE07B68342278
:1058EC00012199547B681B689B680422134000D0EB
:1058FC009FE03B685B68594A934200D177E07B6834
:10590C001B68996A3B681B6801229A407B681B687C
:10591C000A439A627B68DA6A80235B059A4237D025
:10592C007B68DB6A012B33D07B68DB6A022B2FD0C0
:10593C007B68DB6A032B2BD07B68DB6A042B27D0BC
:10594C007B68DB6A052B23D07B68DB6A062B1FD0B8
:10595C007B68DB6A072B1BD03B689A687B681B68EB
:10596C005B6907210B409A4212D07B681B685A690D
:10597C007B681B6807218A435A617B681B685969DD
:10598C003B689B6807221A407B681B680A435A6174
:10599C003B681B68102B03D03B681B68112B52D142
:1059AC002F4B19683B681B68102B02D180231B04FA
:1059BC0001E08023DB032A4A0B4313603B681B681E
:1059CC00102B40D1274B1B6827491800FAF794FB82
:1059DC0003001A0013009B009B185B00BB6002E0E5
:1059EC00BB68013BBB60BB68002BF9D12BE07B682B
:1059FC001B689A6A3B681B68012199400B00D943CC
:105A0C007B681B680A409A623B681B68102B03D0AA
:105A1C003B681B68112B16D1114B19683B681B682E
:105A2C00102B01D1114A00E0114A0D4B0A401A60AB
:105A3C0009E07B689B6B20221A437B689A630F23D7
:105A4C00FB1801221A707B683422002199540F2311
:105A5C00FB181B781800BD4604B080BD0110000077
:105A6C00082701402800002040420F00FFFF7FFF65
:105A7C00FFFFBFFF80B584B000AF78600023FB60F0
:105A8C000023BB607B681B689B6803221340012BBF
:105A9C0012D17B681B681B6801221340012B09D0B3
:105AAC007B681B68DA6880231B021A4080231B0268
:105ABC009A4201D1012300E00023002B52D17B68D4
:105ACC001B689B682A4A13400DD07B689B6B102285
