:020000040800F2
:10000000008000207D680008956200089B6200085F
:1000100000000000000000000000000000000000E0
:10002000000000000000000000000000A1620008C5
:100030000000000000000000AB620008B56200088C
:10004000CD68000800000000CD680008CD680008F9
:10005000CD680008CD680008CD680008CD680008AC
:1000600000000000CD680008CD680008CD680008D9
:10007000CD680008CD680008CD68000800000000C9
:10008000CD680008CD680008CD680008CD6800087C
:10009000CD680008CD680008CD680008CD6800086C
:1000A000CD680008CD680008CD680008CD6800085C
:0C00B000CD680008CD68000800000000CA
:1000BC0010B5064C2378002B07D1054B002B02D032
:1000CC00044800E000BF0123237010BD5000002045
:1000DC0000000000E4880008044B10B5002B03D08E
:1000EC000349044800E000BF10BDC04600000000FA
:1000FC0054000020E4880008002243088B4274D38B
:10010C0003098B425FD3030A8B4244D3030B8B420C
:10011C0028D3030C8B420DD3FF22090212BA030C15
:10012C008B4202D31212090265D0030B8B4219D3F6
:10013C0000E0090AC30B8B4201D3CB03C01A524116
:10014C00830B8B4201D38B03C01A5241430B8B425E
:10015C0001D34B03C01A5241030B8B4201D30B0347
:10016C00C01A5241C30A8B4201D3CB02C01A52416E
:10017C00830A8B4201D38B02C01A5241430A8B4231
:10018C0001D34B02C01A5241030A8B4201D30B021A
:10019C00C01A5241CDD2C3098B4201D3CB01C01A34
:1001AC00524183098B4201D38B01C01A524143093E
:1001BC008B4201D34B01C01A524103098B4201D32C
:1001CC000B01C01A5241C3088B4201D3CB00C01A99
:1001DC00524183088B4201D38B00C01A5241430811
:1001EC008B4201D34B00C01A5241411A00D2014636
:1001FC00524110467047FFE701B5002000F0F0F8BF
:10020C0002BDC0460029F7D076E7704703460B4382
:10021C007FD4002243088B4274D303098B425FD3F3
:10022C00030A8B4244D3030B8B4228D3030C8B421F
:10023C000DD3FF22090212BA030C8B4202D3121205
:10024C00090265D0030B8B4219D300E0090AC30BDA
:10025C008B4201D3CB03C01A5241830B8B4201D387
:10026C008B03C01A5241430B8B4201D34B03C01A70
:10027C005241030B8B4201D30B03C01A5241C30AE8
:10028C008B4201D3CB02C01A5241830A8B4201D359
:10029C008B02C01A5241430A8B4201D34B02C01A43
:1002AC005241030A8B4201D30B02C01A5241CDD2E8
:1002BC00C3098B4201D3CB01C01A524183098B4233
:1002CC0001D38B01C01A524143098B4201D34B011C
:1002DC00C01A524103098B4201D30B01C01A52417F
:1002EC00C3088B4201D3CB00C01A524183088B4206
:1002FC0001D38B00C01A524143088B4201D34B00EF
:10030C00C01A5241411A00D2014652411046704760
:10031C005DE0CA0F00D04942031000D34042534065
:10032C0000229C4603098B422DD3030A8B4212D325
:10033C00FC22890112BA030A8B420CD38901921157
:10034C008B4208D3890192118B4204D389013AD094
:10035C00921100E08909C3098B4201D3CB01C01A69
:10036C00524183098B4201D38B01C01A524143097C
:10037C008B4201D34B01C01A524103098B4201D36A
:10038C000B01C01A5241C3088B4201D3CB00C01AD7
:10039C00524183088B4201D38B00C01A5241D9D2EF
:1003AC0043088B4201D34B00C01A5241411A00D270
:1003BC000146634652415B10104601D34042002B6C
:1003CC0000D54942704763465B1000D3404201B5EB
:1003DC00002000F005F802BD0029F8D016E77047A0
:1003EC007047C0468446100062468C46190063462E
:1003FC0000E0C0461FB501F0DDFA002801D4002151
:10040C00C8421FBD10B501F02DFA4042013010BD9D
:10041C0010B501F0CFFA002801DB002010BD01203F
:10042C0010BDC04610B501F0C5FA002801DD002052
:10043C0010BD012010BDC04610B501F055FA0028C2
:10044C0001DC002010BD012010BDC04610B501F02C
:10045C004BFA002801DA002010BD012010BDC04667
:10046C00844608006146FFE71FB500F08BFB0028AF
:10047C0001D40021C8421FBD10B500F017FB40424B
:10048C00013010BD10B500F07DFB002801DB002011
:10049C0010BD012010BDC04610B500F073FB002844
:1004AC0001DD002010BD012010BDC04610B500F0CC
:1004BC0023FB002801DC002010BD012010BDC0462C
:1004CC0010B500F019FB002801DA002010BD012046
:1004DC0010BDC0469E2110B5C905041CFFF7F0FFE6
:1004EC00002803D1201C00F065FE10BD9E21201CAD
:1004FC00C90500F0B1FC00F05DFE80231B069C4694
:10050C006044F2E770B500220C4B04000D00FFF7BD
:10051C009DFF002804D12000290002F0ADF870BD29
:10052C00064B00222000290001F014FD02F0A4F873
:10053C0080231B069C466044F1E7C0460000E04166
:10054C00F0B5C64643025B0A4E0245004F00DA0086
:10055C00C40F9C46700A904600B52D0E3F0EC90F75
:10056C00B6098C424BD0EA1B002A36DD002F61D035
:10057C00FF2D00D1ADE08023DB041E431B2A00DCE1
:10058C00D3E001204346181A430100D48CE08001CB
:10059C008709380002F0CCF905388740854200DC29
:1005AC00B6E02D1AB3483840430704D00F2303405C
:1005BC00042B00D00430430100D478E06A1CFE2DDB
:1005CC0065D08001430A9C46D2B26346D0051843DD
:1005DC00E407204380BCB846F0BD002A35D07A1B16
:1005EC00002D00D0AFE04346002B00D1A7E0531EF6
:1005FC00012A00D12FE1FF2A69D01A00AAE0E91BD9
:10060C00002970DD002F37D0FF2D62D08023DB0452
:10061C001E431B2900DCB0E001204044430143D5BC
:10062C000135FF2D33D00123934A0340400810407D
:10063C001843B9E7002E00D183E0511E012A00D1E6
:10064C00D8E0FF2A45D00A0098E7FE276A1C17421B
:10065C0000D086E0002D00D0B7E04346002B00D13F
:10066C00F3E00022002EB0D0981B430100D4FAE036
:10067C0043460C00F01A97E7002E00D1C8E04A1E42
:10068C00012900D1AEE0FF2923D01100C1E70023DE
:10069C00FF229C4699E7FE216A1C114277D0FF2A63
:1006AC00F5D0150046447008430700D07EE7C30818
:1006BC00FF2D0ED05B025B0A9C46EAB285E7002E4A
:1006CC0007D08022D203134203D0104201D10C0078
:1006DC000300002BDBD08020C00318434002430AE8
:1006EC009C46FF2271E70029D5D07A1B002D60D1E2
:1006FC004346002B24D0531E012A73D0FF2AE7D087
:10070C001A001B2A00DC85E001203D00801985E7DA
:10071C0020233A00451B38000135EA405D1BA840F8
:10072C00431E9841002510433EE7202330009B1ABE
:10073C0031009840D140431E9841084322E70C00F9
:10074C0003001500B4E7FF2FC1D080234046DB0423
:10075C00184380461B2A51DD01200C003D00301A45
:10076C0012E743469F1B7B012BD4002F00D010E7D0
:10077C000023002400229C4627E72023320030006F
:10078C00CA40591A8840431E9841104345E7002D32
:10079C004AD14346002B63D00022002E00D114E72F
:1007AC0030004044430100D47EE7324B0135184001
:1007BC007AE7FF2F8CD080234146DB04194388460F
:1007CC009FE743460C00F71AE3E64246002A00D0A6
:1007DC0075E7002E00D07AE78023DB0300249C46CB
:1007EC00FF22F2E6300040440125430100D45BE7D0
:1007FC00022518E743460125981BC5E620234446ED
:10080C004046D4409A1A9040431E98412043A4E796
:10081C000D004DE7202341464046D1409A1A9040A6
:10082C00431E9841084370E74246002A00D14FE727
:10083C00002E00D14DE78022D203134200D148E7AD
:10084C00104200D045E7030043E7002E90D00C0087
:10085C0084460022B9E643460C00F01A013593E6B3
:10086C0084460022B1E6002800D01DE700230024B6
:10087C009C46AAE6FFFFFFFBFFFFFF7DF0B54F464E
:10088C004646D6464502C0B547000C1C6D0A3F0EC5
:10089C00C60F002F00D170E0FF2F00D175E0EB00E8
:1008AC008025ED041D43002399469A467F3F600244
:1008BC00430A984663001B0EE40F002B4ED0FF2B0F
:1008CC0046D04246D0008022D204024390460022F9
:1008DC007F3B3100FF1A4B466140C9B213430F2BCB
:1008EC0000D9B5E06E489B00C3589F46002398463C
:1008FC002600454692465346022B00D189E0032B35
:10090C0000D19EE0012B18D03B007F33002B69DD1A
:10091C006A0704D00F222A40042A00D004352A0189
:10092C0003D5604B1D403B008033FE2B00DD70E097
:10093C00AD016D0AD8B202E00E0000200025C00502
:10094C002843F6073043E0BCBA46B146A846F0BD92
:10095C004346002B3FD10222FF3F03E04346002BCE
:10096C002DD1012231004B466140C9B213430F2BEC
:10097C0034D84D489B00C3589F46002D13D10423F7
:10098C009946033B00279A4691E7002D05D1082391
:10099C009946063BFF279A4689E70C239946093B63
:1009AC00FF279A4683E7280001F0C2FF7627431FF2
:1009BC009D4000237F4299469A463F1A77E740466E
:1009CC0001F0B6FF4246431F9A4076235B429046A5
:1009DC001B1A00227DE7FF2303227AE70E00FF207B
:1009EC000025ACE70120C01A1B28A6DC9E372A0084
:1009FC00BD40C2406B1E9D4115436B0704D00F23B5
:100A0C002B40042B00D004356B0144D5012000256C
:100A1C0095E7FF20002592E780250026FF20ED03B7
:100A2C008DE7002398468020C003054209D0434639
:100A3C00034206D1454605436D022600FF206D0A90
:100A4C007DE78020C00305436D02FF206D0A76E729
:100A5C0042466B015001834219D21B220025013FF3
:100A6C0001261C006D005B00002C01DB984201D8B4
:100A7C001B1A3543013A002AF3D15A1E93411D43E8
:100A8C003B007F330E00002B00DD41E7AAE71A2262
:100A9C0001251B1AE4E7AD0100206D0A4FE7C046A3
:100AAC00A0890008FFFFFFF7E089000870B542003D
:100ABC0045024E024C00C30F6D0A0120120E760A3D
:100ACC00240EC90FFF2A06D0FF2C03D0A24201D15D
:100ADC00B54206D070BD002DFCD1FF2CFAD1002EF2
:100AEC00F8D18B4206D00120002AF3D12800431EF6
:100AFC009841EFE70020EDE770B5420045024E0249
:100B0C004C00C30F6D0A120E760A240EC80FFF2A72
:100B1C001BD0FF2C0ED0002A1BD1002C01D1002E93
:100B2C001CD0002D0CD083421CD00221581E084032
:100B3C00013870BD002E22D1002AF4D1002DF2D143
:100B4C000028F6D101204042F3E7002D17D1FF2CED
:100B5C00F0D0002CE7D1002EE5D1E6E70020002DE7
:100B6C00E7D0E2E7A24205DCEADBB54202D8E7D3E4
:100B7C000020DEE74342584140000138D9E702200B
:100B8C004042D6E770B5420045024E024C00C30FFE
:100B9C006D0A120E760A240EC80FFF2A0BD0FF2CFA
:100BAC000DD0002A1FD1002C16D1002E14D10020FC
:100BBC00002D10D009E0002D0CD1FF2C13D1002EEC
:100BCC0008D1002A08D0834212D00221581E0840B6
:100BDC00013800E0022070BD002DF4D10028FAD1BC
:100BEC0001204042F7E7002CEDD1002EEBD1ECE7D1
:100BFC00A24205DCF2DBB54202D8EFD30020EAE7D3
:100C0C004342584140000138E5E7C046F0B54F4635
:100C1C004646D64644024500C0B5640A0F1C2D0E4C
:100C2C00C60F002D00D18DE0FF2D00D192E00023E6
:100C3C00802099469A46E400C00404437F3D780224
:100C4C00430A98467B001B0EFF0F002B00D170E06F
:100C5C00FF2B00D186E04246D00080227F3BED186E
:100C6C000023D204024390469C4631004B46794007
:100C7C00681C0F2B1CD8764A9B00D3589F46390012
:100C8C004446E2465346022B0FD0032B00D1D7E04B
:100C9C00012B37D100200024C0052043C90708438D
:100CAC00E0BCBA46B146A846F0BDFF200024F3E7ED
:100CBC00260C2404220C44462404240C434627000E
:100CCC001B0C574374435A435E4312193B0C9B183D
:100CDC009C4203D980225202944666443F041A0473
:100CEC003F0CD2199401671EBC411B0C920E9B1930
:100CFC0014439B011C431B0100D49BE0012362089D
:100D0C001C40144302007F32002A64DD630704D0C8
:100D1C000F232340042B00D00434230103D50200FD
:100D2C004C4B80321C40FE2ABFDCA401640AD0B2BA
:100D3C00B2E74346002B3DD14A4601331A43914654
:100D4C009C4692E7002C29D104239946033B0025AD
:100D5C009A4674E7002C1BD108239946063BFF25C5
:100D6C009A466CE74346FF35002B0BD102234A46CB
:100D7C001A4391469C4678E753463100022B00D02B
:100D8C0083E792E703234A461A4391469C466CE755
:100D9C000C239946093BFF259A4650E7200001F0A9
:100DAC00C7FD7625431F9C4000236D4299469A4609
:100DBC002D1A44E7404601F0BBFD4246431F9A40C2
:100DCC0000232D1A90469C46763D4EE78024002148
:100DDC00FF20E40360E701239B1A1B2B00DD59E77E
:100DEC0022009E30DA4084401300621E94411C4362
:100DFC00630704D00F232340042B00D00434630179
:100E0C001AD50120002447E78020C003044209D0F2
:100E1C004346034206D14446044364023900FF2092
:100E2C00640A39E78020C003044364023100FF20C8
:100E3C00640A31E7280065E7A4010020640A2BE767
:100E4C008020C00304436402FF20640A24E7C046E8
:100E5C00208A0008FFFFFFF7F8B5CE46474643024D
:100E6C005B0A4E02DA009446720A914645004A002B
:100E7C0080B52D0E1F00C40F120EC90FB609FF2A24
:100E8C005BD0012041408C4239D0A81A00285ADD91
:100E9C00002A6AD0FF2D00D1D9E08022D20416435B
:100EAC001B2800DCE9E001206346181A430100D43A
:100EBC00B4E080018709380001F03AFD053887401D
:100ECC00854200DCCCE02D1AB5483840430704D0ED
:100EDC000F230340042B00D00430430100D4A0E0C6
:100EEC006A1CFE2D00D18DE08001470AD2B2D005DC
:100EFC003843E4072043C0BCB946B046F8BDA81A35
:100F0C008046002845DD002A70D0FF2D00D19EE0E0
:100F1C008023DB041E4343461B2B00DCD2E0012064
:100F2C00604443017AD50135FF2D6BD001239D4AD6
:100F3C000340400810401843C8E7002E20D08C42D4
:100F4C0023D02800FF38002839D0571B002D00D0A3
:100F5C009DE06346002B00D1DBE07B1E012F00D10E
:100F6C000DE1FF2F71D01F0098E0002E00D1A7E0FB
:100F7C00421E012800D1E6E0FF2868D010008FE760
:100F8C0001204140A14200D07FE7FF204042804633
:100F9C00A8444046002838D0511B002D00D1AEE0AB
:100FAC00FF2A00D1DFE080236046DB04184384462F
:100FBC001B2900DCD9E0012015008019B1E7FE20C7
:100FCC006A1C104271D1002D00D0A6E06346002BA4
:100FDC0000D1D9E00022002E00D188E7981B4301F4
:100FEC0000D4E1E063460C00F01A6FE7002E00D14C
:100FFC00B7E00200013A012800D19CE0FF2826D07E
:10100C00904688E7FF22002771E7FE206A1C1042F9
:10101C0064D0FF2AF6D0150066447008430700D050
:10102C0056E7C308FF2D12D05B025F0AEAB25EE7F7
:10103C006246002A00D196E0002E08D08022D2030E
:10104C00134204D04846104201D10C004B46002BF1
:10105C00D8D08027FF031F437F02FF227F0A46E779
:10106C0020233A00451B38000135EA405D1BA8409F
:10107C00431E98410025104328E720231B1A3200F9
:10108C009E40C2403000431E984110430CE7FF2A9B
:10109C00DBD080236046DB04184384461B2F56DDCF
:1010AC0001200C001500301A00E763469F1B7B01E2
:1010BC003DD4002F00D0FEE600240022002716E7C6
:1010CC000500AFE7320043464146DA4020235B1A65
:1010DC009E403000431E9841104321E7002DA7D1BC
:1010EC006346002B59D00022002E00D1FFE63000C1
:1010FC006044430192D52A4B013518408EE7634674
:10110C00002B47D04B1E012915D0FF292BD01900DD
:10111C004EE70C004B463D0084E76246002A8BD11B
:10112C00002E92D180270024FF22FF03DFE66346C6
:10113C000C00F71ABFE6300060440125430100D4CF
:10114C006CE70225F2E663460125981BAEE62023E8
:10115C0064466046FC40DF1BB840431E9841204368
:10116C009FE705005EE74B4671E720236546604626
:10117C00CD40591A8840431E984128431CE76346CA
:10118C000C000125F01A91E6002E95D00C004F466C
:10119C000022ACE64B460D0044E74F460022A6E683
:1011AC00FFFFFFFBFFFFFF7D002800D036E7002488
:1011BC0000279CE641024200C30F490A0020120E90
:1011CC007E2A03DD9D2A02DD094A9818704780208B
:1011DC0000040143952A07DC9620821AD14048422C
:1011EC00002BF3D10800F1E7963A9140F7E7C0469F
:1011FC00FFFFFF7F70B5051E0ED001F099FB9E23FB
:10120C0004001B1A962B0CDC082801DD083CA540B9
:10121C006D026D0AD8B201E000200025C0052843FC
:10122C0070BD992B09DD020029001B3291404A1E2A
:10123C0091410522121AD5400D43052C12DC2900D0
:10124C000C4E31406A0709D00F202840042805D0E5
:10125C0004314A0102D59F2331401B1B89014D0AE1
:10126C00D8B2DBE7621F95402900024E31406A0775
:10127C00F4D0E9E7FFFFFFFBF0B557464E46454675
:10128C00DE46E0B5814605000C03480092461F007F
:10129C0085B0240B400DCE0F002800D156E1D44B65
:1012AC00984200D172E16B0FE4001C4380231B04B5
:1012BC0023439846CF4BED009B460023994683442D
:1012CC0000933C037B005046240B5B0DFF0F002B5F
:1012DC0000D11FE1C64A934200D162E1C549420FD9
:1012EC008C46E40059461443802263441204CB1A02
:1012FC0014439B46C200002033007B409A464B4669
:10130C000F2B27D8BC499B00CB589F46B246009B5D
:10131C00022B16D0032B00D18EE2012B00D0D9E08A
:10132C0000230024002552461B052343D2071343F8
:10133C002800190005B0F0BCBB46B246A946A04631
:10134C00F0BD00240025AA4BEDE7BA46A0461500D7
:10135C000090DCE7444500D2C7E100D1C2E1012393
:10136C005B429C462E0040460025E3442302140EAB
:10137C001C431B0C994623041F0C12024946009275
:10138C000197FEF73FFF02007A430B04310C8046B5
:10139C0019438A4207D901235B429C460919E04450
:1013AC008C4200D807E2881A4946FEF72BFF090445
:1013BC008C4631046646019A090C424303003143C2
:1013CC008A4204D90919013B8C4200D8EDE1881AF4
:1013DC00424612041A4390464146009B0E041B0CD5
:1013EC001F000293009B360C1B04190C0B0073435B
:1013FC00120C7E43039151437A431F0CBC46761862
:10140C006644B14203D9802149028C466244310CB6
:10141C008A1831041E04360C8E19904202D312D154
:10142C00B54210D24346591E009B9C4665441F0092
:10143C009D429B415B421B19C018844200D2A0E123
:10144C0000D19BE18846AE1BB542AD41801A6D427E
:10145C00401B844200D1D5E14946FEF7D3FE019AE8
:10146C000B044243310C050019438A4200D96CE14C
:10147C00881A4946FEF7C6FE019A3604424309040F
:10148C00360C03000E43B24200D953E10398B61A4E
:10149C0002002D041D43029F2B041B0C5A437B435B
:1014AC009C46290C4843130C84446344794398426A
:1014BC0003D98020400284466144180C12041B049A
:1014CC00120C41189B188E4200D2FFE000D1FAE0BA
:1014DC0001231D43494A5A44002A00DCAAE06B0749
:1014EC0000D03DE1ED084346DB0106D54246444BB6
:1014FC001A4090468022D2005A44424B9A4200DD58
:10150C001FE743465B071D43434652055C02240B11
:10151C00530D08E75246224300D17BE0002C00D14A
:10152C00FAE0200001F004FA02000B3A1D2301003E
:10153C009B1A52460839DA408C40144352468A4072
:10154C00314B58449B4683440020D5E64B462343FD
:10155C00984644D0002C00D1CEE0200001F0E8F9F0
:10156C00010002000B391D235B1A49461000D940BB
:10157C00083884400B004D46234398468540234849
:10158C00831A9B460023994600939AE64B462343C5
:10159C0098461DD108239946063B002583460093A7
:1015AC008FE65246224309D1022349461943184B70
:1015BC0089469C4600240220E3449DE603234A46C8
:1015CC001A43134B91469C4652460320E34493E640
:1015DC000C239946093BA0468346009371E60423ED
:1015EC00994600239B4601330025009369E6C046CB
:1015FC00FF07000001FCFFFF608A0008FF030000EA
:10160C00FFFFFFFEFE070000F30300000DFCFFFFD1
:10161C0001F8FFFF494601231943894600240120A4
:10162C006AE6002380249A4600258A4B24037AE636
:10163C0001256D4201239B1A382B00DD70E61F2B10
:10164C0000DCBFE01F2149428A1A4146D1400A0002
:10165C00202B04D04146804B5B4499400D436B1EBC
:10166C009D4107232A431D0000241540134200D13D
:10167C00D4E00F2100231140042900D1CBE0111D2F
:10168C009142924152429B180A00190200D4C2E0C6
:10169C0001230024002546E6802341461B03194202
:1016AC0008D01C4206D11C432403BA461500694BD2
:1016BC00240B38E68024434624031C432403B246FF
:1016CC00644B240B2FE6002B00D103E7A619681EF0
:1016DC00A64200D28DE08E4200D2A3E000D1B3E04E
:1016EC000500F5E6AA4200D939E64346DE0758085C
:1016FC006B081E43ED0739E6484601F019F9010065
:10170C000200153120321C2900DC2CE74B4608382E
:10171C0083400025984632E701F00AF903001A00CD
:10172C00153220301C2A00DC00E75446083B00220E
:10173C009C4005E73619013BB44200D9A6E6B242FB
:10174C0000D8A3E6831E3619A0E60919013D8C4288
:10175C0000D98DE68A4200D88AE6851E091987E6EB
:10176C000F232B40042B00D1BCE605235B42AB427C
:10177C009B4104355B42ED089844B4E6AF4200D976
:10178C0060E6824204D800D05CE6AE4200D859E64E
:10179C0002235B429C46009BE0449C4665449D4270
:1017AC009B415B421B19C0184DE68A4200D80EE6DD
:1017BC00831E09190BE68A4200D8F4E5831E98466D
:1017CC000919F0E52549280059448D4042468A40C4
:1017DC00691E8D414146D840D94002432A430B0033
:1017EC00510700D151E70F211140042900D046E7E1
:1017FC004BE705008E4200D06AE6009A934200D077
:10180C0066E667E6164A5A44002A00DC10E7012314
:10181C000025984467E65D075B021C0BD208002389
:10182C00154380E50098023D42008242BF417F4251
:10183C003C1936190092DDE78024434624031C43EF
:10184C002403044B240B6EE5009A9A42EAD305005C
:10185C00D3E7C046FF0700003E0400001E04000052
:10186C00FF030000F0B54E464546DE46574690460F
:10187C00E0B517001A03120B0500844619480E0335
:10188C004C0091465A00DB0F9B46360B640DC90F7A
:10189C00520D844219D0824210D0012094420ED1B4
:1018AC004E450CD10120C44509D1594517D0002C07
:1018BC0005D130002843431E984100E00120F0BCC4
:1018CC00BB46B246A946A046F0BD330001202B43CF
:1018DC00F5D1A242F3D14B463B43F0D1E2E70020D5
:1018EC00EDE7C046FF070000F0B54746CE460400C2
:1018FC00180016001B031B0B2D4D4A00994680B592
:10190C0043000F03A446B0463F0B520DC90F5B0DAD
:10191C00C00FAA4221D0AB4213D0002A22D13C43A3
:10192C00002B02D14D462E4322D0002C10D08142E8
:10193C0022D00220013908400138C0BCB946B0465B
:10194C00F0BD4D462E4329D1002AF0D13C43EED1B7
:10195C000028F2D101204042EFE73D0025431DD184
:10196C009342EED0002BE2D14C462643DFD1E0E788
:10197C000020002CE1D0DCE79A420ADCE8DB4F4582
:10198C00D7D80ED000204F45D7D20029E2D008007E
:10199C00D3E74342584140000138CEE70220404291
:1019AC00CBE7C445C5D80020C445C6D2EDE7C04638
:1019BC00FF070000F0B54746CE460400180016009D
:1019CC001B031B0B2C4D4A00994680B543000F039B
:1019DC00A446B0463F0B520DC90F5B0DC00FAA4277
:1019EC000DD0AB4210D0002A27D13C43002B11D193
:1019FC004D462E430ED10020002C15D00EE03D009C
:101A0C00254310D1934218D14D462E430BD1002AB9
:101A1C0002D13C43002C0BD0814214D0022001395E
:101A2C000840013800E00220C0BCB946B046F0BD09
:101A3C000028F9D101204042F6E7002BECD14C46AE
:101A4C002643E9D1EAE79A4204DD4342584140007B
:101A5C000138E9E79A42EBDB4F45DFD806D000208E
:101A6C004F45E1D20029E5D00800DDE7C445D5D8C3
:101A7C000020C445D8D2F5E7FF070000F0B5574663
:101A8C004E464546DE46E0B598460C034B00060034
:101A9C00924687B0240B5B0DCF0F002B00D15CE17D
:101AAC00D94A934200D175E1420FE40014438022DD
:101ABC0012041443D54AC500944663440093002392
:101ACC0099469B46434642461E03D20F5B00504646
:101ADC009046360B5B0D00D120E1CB4A934200D1EE
:101AEC0062E1CA49420F8C4600996344F6008C4669
:101AFC00164380229C44120463461643C200002005
:101B0C0000930099434601318C4649467B40019332
:101B1C000F2926D8BE4B890059588F46434601934E
:101B2C003400150083465B46022B16D0032B00D1E4
:101B3C0003E2012B00D0CDE0002200240025019B04
:101B4C0012052243DB071A432800110007B0F0BC32
:101B5C00BB46B246A946A046F0BD00240025AA4AC1
:101B6C00EDE7280C2D042D0C2B00110C1204120C7B
:101B7C005343984613002F00434399464F434F4419
:101B8C00BB4647460B003F0CBA464343DA4402932C
:101B9C00D14504D980277F02B9464B440293534662
:101BAC001B0C9B4653461F0443461B041B0C9846B8
:101BBC003B0043440493330C3604360C98463300F4
:101BCC0043439946434643432F009A464346774343
:101BDC005D43380C4D444519A94503D980235B025C
:101BEC009946CA443F04280C3F0C2D04ED19270CD0
:101BFC002404240C0300200050437A4391463A00FD
:101C0C0053440593030C9A464A4361434944514457
:101C1C00AB44894503D980235B0299464A440004AE
:101C2C000B0C000C0904091820009946434670431C
:101C3C005C437E435F43030C9846A41944444A44D6
:101C4C000397A64204D980235B0298464744039726
:101C5C002304029E9A46059B5E449846AE42AD41D3
:101C6C0076188E4289410004000C504440446D4269
:101C7C004719B846934649428946C344D9449842C9
:101C8C008041A845AD4193459241894589416D42BA
:101C9C0040422843240C524249420A43039B0019F8
:101CAC008018C7184B46DC0D049B75021D436A1E39
:101CBC0095414B46F60D7F0235435A023C43154382
:101CCC00FB0100D41CE101216A080D401543E20719
:101CDC00154364084F496144002900DCB0E06B07F0
:101CEC0009D00F222A40042A05D02A1DAA42AD4150
:101CFC006D4264191500E30104D58021464AC900E0
:101D0C0014406144454A914200DD26E76207ED0824
:101D1C00640249051543240B4A0D10E75246324321
:101D2C0000D17FE0002E00D1DCE0300000F000FE9E
:101D3C0002000B3A1D2301009B1A52460839DA4067
:101D4C008E40164352468A40009B3549181A0300B0
:101D5C008C46634400200093D3E6250005434AD00B
:101D6C00002C00D1B0E0200000F0E2FD01000200E8
:101D7C000B391D2310005B1A3100350008388440E4
:101D8C00D94085400C432648831A0093002399467A
:101D9C009B4697E60500254326D108220093022393
:101DAC00002491469B468DE65246009B324310D14F
:101DBC00154900268C466344494600930223194377
:101DCC00894602209DE65B460197022B00D0ADE6CA
:101DDC00C3E60D4A0320944663444A46009303230A
:101DEC001A43914652468CE60C22009303230500BD
:101DFC0091469B4666E604239946002300930133E3
:101E0C0000249B465EE6C046FF07000001FCFFFF76
:101E1C00A08A0008FF030000FFFFFFFEFE07000082
:101E2C000DFCFFFF4946012319438946002601207A
:101E3C0067E6002380240025434A019324037EE6B1
:101E4C000120401A382800DD76E61F285BDD1F22B2
:101E5C0023005242511ACB401900202803D03B4A90
:101E6C006244944025436A1E95412A000A43072187
:101E7C000D000024154011425BD00F2100241140AD
:101E8C00042953D0111D914292415242A4180A00C8
:101E9C0023024BD501220024002550E680231B038E
:101EAC001C4209D01E4207D133431C034346150084
:101EBC00240B254A019342E6802212031443240387
:101ECC00214A240B01973AE600F032FD0100020092
:101EDC00153120321C2900DC4BE734000838002572
:101EEC00844050E700F024FD03001A001532203026
:101EFC001C2A00DC1EE75646083B00229E4023E7C6
:101F0C00009B9C46E6E61249220061442E008D405F
:101F1C008A40C640691E8D4132432A43C440530750
:101F2C00B6D00F2111400429ACD1B1E7650764028A
:101F3C00240BD2081543002201E68022120314431D
:101F4C002403014A240BFAE5FF0700003E040000BD
:101F5C001E040000F8B557464E464546DE46E0B531
:101F6C001E0017004A000B03520D5B0A9046420FED
:101F7C001A43CD0FCD4C3103C300944670007A0F39
:101F8C00490AFF009A46B946400DF60F1143A0428C
:101F9C0000D1B1E001225640B346B54200D188E0F1
:101FAC004246121A002A00DCAEE0002800D1C1E043
:101FBC00BE48804500D151E1802000040143382AFD
:101FCC0000DD7BE11F2A00DDEEE120203E00801ABF
:101FDC000C00D640D140874062468440521A781E8D
:101FEC008741944634432743DC1BA3429B41624602
:101FFC005B42D31A99464B461B0200D418E14B4660
:10200C005802430A99464B46002B00D137E148460B
:10201C0000F08EFC010008392023220048465B1A90
:10202C00DA4088408C4043461043884500DD36E159
:10203C00C91A4B1C1F2B00DDEAE020222600D21A05
:10204C0001009440DE40D84000239140621E944130
:10205C008146984631430C43630709D00F23234034
:10206C00042B05D0231DA342A4416442A1441C00AF
:10207C004B461B0200D4DEE041468C4B01319942A9
:10208C0000D1E7E04B468A48E408034018004905B4
:10209C005B07400223434A0D040B1205ED07224354
:1020AC002A4318001100F0BCBB46B246A946A04614
:1020BC00F8BD4246121A002A52DD002800D19CE0DD
:1020CC00A04500D1CAE0802000040143382A00DD7D
:1020DC0049E11F2A00DC97E110000E002038C640B1
:1020EC00202A04D04020821A91400F43B9464C4616
:1020FC00621E944134433AE10A003A4328D0B34675
:10210C00B5422BD06B4A4244002A5DD0424644462D
:10211C00821A002C00D0F5E065461D4300D19CE1ED
:10212C00551E012A00D1FBE1604CA24200D1BDE159
:10213C002A00F0E00800384300D1C3E0501E012A09
:10214C0000D1A8E1594CA24200D187E0020036E749
:10215C0001225640B346B54200D021E7554A4244CD
:10216C00002A00D1B5E042464446821A002C00D128
:10217C0038E14E4EB04200D1DEE180266446360492
:10218C003443A446382A00DD96E11F2A00DD24E200
:10219C002026B41AA24664465646B440A1461C00FA
:1021AC004E46D440264334005646B3405E1EB341DF
:1021BC001C436346D340C918E419BC42BF417F425B
:1021CC00B94680468944D8E040463B4C0130204219
:1021DC0000D0B4E04046002800D044E160461843EB
:1021EC0000D190E10800384300D0AAE16146DB0839
:1021FC0049070B436146CC0827E00800384361D0FF
:10220C00501E012A00D139E1A24227D002005DE71D
:10221C0002001F39CA401100202B03D04022D31AD0
:10222C0098400443631E9C410023994698460C43F6
:10223C00630700D012E74B464A46E4085B0723438A
:10224C00D408424619498A420ED024035205240B65
:10225C00520D22E70A00002400231EE7DB08624629
:10226C00520713436246D4081A00224300D1FCE102
:10227C0080221203144324030C4A240B0DE7200084
:10228C0000F056FB010018311F2900DCC4E60838A9
:10229C008440434620000024884500DCC8E6044AFC
:1022AC005B1A104098468146D6E6C046FF070000F0
:1022BC00FFFF7FFF01F8FFFFFE0700000F437A1EB0
:1022CC00974191E66146DB0849070B436146CC0810
:1022DC00B8E74046D34C0130204200D0A2E0404643
:1022EC00002800D001E16046184300D15EE10800EF
:1022FC00384300D05FE16146DB0849070B43614678
:10230C00CC08A2E7C84DA84200D1CFE08025644696
:10231C002D042C43A446382A56DC1F2A00DDD1E0BC
:10232C0020251E00AD1A6446AB40AC40D6405D1E65
:10233C00AB41344323436446D440091B49E0604617
:10234C00DC1B461AA34280414042814630004E4677
:10235C00801B8146000276D44B46234300D052E6C4
:10236C000024002571E739430C00621E9441E418E7
:10237C009C429B415B42634499464B461B0200D4F2
:10238C0056E701239C46A84BE044984538D04B4671
:10239C00A648012203401800630814401C43C307DD
:1023AC001C434308994657E610000E002038C640DF
:1023BC00202A04D04020821A91400F43B9464F4640
:1023CC007A1E974137430FE662461A4313005A1E92
:1023DC009341FC1AA742BF417F42CB1B99465D46F5
:1023EC00804608E666461E4300D1BEE0561E012A12
:1023FC0000D109E18C4CA24200D119E13200C1E6B6
:10240C0042460024002348E620200C00801A3E009F
:10241C0087408440D640781E8741D14034433C43AA
:10242C008C44A4E7804A904200D1E9E0DF199F4236
:10243C009B4161445B42C918CC077F084B08994605
:10244C0080463C43F4E6FC1AA742BF4163467F42F8
:10245C00C91ACB1B99465D46D5E5FF084B075D466F
:10246C003B43CC08EEE662461A4300D082E00B00F8
:10247C003B431BD1802400252403F9E6DC199C4244
:10248C009B41614489465B4299444B461B0244D4B0
:10249C0001239846CCE6DC1B6246A3429B41511AB1
:1024AC005B42CB1A994601239846A4E5FF084B07DB
:1024BC005D463B43CC08D7E662461A431400631EC4
:1024CC009C4179E615006446203DEC40A046202A4C
:1024DC0005D040256446AA1A944023439A46544694
:1024EC00631E9C414346234373E762461A4323D041
:1024FC000A003A4300D0A0E06246DB0852071343BF
:10250C006246D408B0E60B003B4300D128E7FF0835
:10251C004B075D463B43CC0897E60223984636E7CB
:10252C00FC1AA742BF4163467F42C91ACB1B99468E
:10253C0001235D4698465EE54B07FF083B43CC08FC
:10254C0092E6DC1B6046A342B641401A7642801BE1
:10255C008146000260D5FC1AA742BF4163467F4208
:10256C00C91ACB1B99465D4676E5FF084B073B43E2
:10257C00CC0867E60A00DB083A4300D16FE66246F6
:10258C00520713436246D40880221203144207D028
:10259C00C808104204D15D460400FB0849070B43F0
:1025AC005A0FDB00DB08520713435DE64B07FF08AD
:1025BC003B43CC0849E6DC199C429B41614489466B
:1025CC005B4299444B461B0200D431E64A46174BFA
:1025DC001A400123914698462AE616006446203E8E
:1025EC00F440A046202A05D040266446B21A9440F6
:1025FC0023439A465446631E9C4143461C43DBE5E9
:10260C0002000024002348E5DC19BC42BF416144B0
:10261C0089467F42B94438E74B46234300D19FE6B5
:10262C0006E6C046FE070000FF070000FFFF7FFF25
:10263C00FF084B073B43CC0816E66246DB08520703
:10264C0013436246D40880221203144207D0C808F0
:10265C00104204D15D460400FB0849070B435A0F96
:10266C00DB005207DB081343FEE50023014A1C0084
:10267C0013E5C046FF0700000A0030B5134C5300A9
:10268C0009030500090B00205B0DD20FA34204DDEA
:10269C000F48834202DD0F4BD01830BD8020400321
:1026AC0001430D48C01A1F2808DD0C48C31AD94035
:1026BC000B005842002AF0D11800EEE7084CC54038
:1026CC00A446634499400B002B43F2E7FE03000041
:1026DC001D040000FFFFFF7F330400001304000003
:1026EC00EDFBFFFF70B5002816D0C317C5185D4071
:1026FC00C40F280000F01CF9114A121A0A2816DC23
:10270C0003002E0015339E400B23181AC5405205AA
:10271C002D032D0B530D03E0002400230025002670
:10272C001B052B43E40723433000190070BD0B3805
:10273C00854052052D0300262D0B530DF0E7C046A6
:10274C001E04000010B5041E10D000F0F1F80F4B61
:10275C001B1A0A2811DC0B222100121AD140153049
:10276C000A035B058440120B5B0D01E00023002281
:10277C001B0513432000190010BD22000B388240AA
:10278C005B0512030024120B5B0DF1E71E04000025
:10279C0070B543004602C40FFE201B0E591C750A6F
:1027AC0008420CD0E022920094466D07360B63442D
:1027BC001B053343E40723432800190070BD002B8D
:1027CC0014D1002D1BD0280000F0B2F80A281CDC14
:1027DC000B232E001B1ADE40030015339D400E4ABE
:1027EC003603121A5205360B530DE1E7002D09D0B2
:1027FC008022360B1203094B6D071643D8E70023D2
:10280C000026D5E70026054BD2E703000B3B9D4085
:10281C002E000025E3E7C04689030000FF070000F7
:10282C0002004B00F0B55B0D0C033D4E640A400FEB
:10283C005F1CC90F0443D50037420AD039481E1813
:10284C00FE2E16DDFF200024C0052043C9070843D7
:10285C00F0BD002B06D12C4326D005229201540A40
:10286C00D8B2F1E72543EDD08020C0030443FF200C
:10287C00EAE7002E1BDD9201531E9A41E4006D0F16
:10288C0022432A43530748D00F231340042B00D074
:10289C0004328023DB0413403FD0701CFE2ED1D0B9
:1028AC009201540AC0B2CFE700200024CCE73200DA
:1028BC00173222DB8020000420431E24A41B1F2C73
:1028CC001DDD02225242961B0200F2401600202C03
:1028DC0004D0154A94466344984005432A00531E7D
:1028EC009A41324300265307CED180241300E404CE
:1028FC00012023402242D3D1B0E70023ADE70B4A9D
:10290C0094462A00E24014002A0063449A409840FE
:10291C00551EAA4102432243E4E733009EE7C0461A
:10292C00FE07000080FCFFFFA2FCFFFF82FCFFFF04
:10293C001C2101231B04984201D3000C10391B0AE3
:10294C00984201D3000A08391B09984201D30009A7
:10295C00043902A2105C40187047C04604030202FE
:10296C0001010101000000000000000090B583B0DF
:10297C0000AF040008001100BB1D221C1A803B1D77
:10298C00021C1A80BB1C0A1C1A80BB1D18883B1D1C
:10299C001988BB1C1B881A0001F030FBC046BD46D1
:1029AC0003B090BDB0B584B002AF05000C001000B0
:1029BC001900BB1D2A1C1A803B1D221C1A80BB1C33
:1029CC00021C1A803B000A1C1A80BB1D18883B1D78
:1029DC001988BB1C1A883B001C881823FB181B8801
:1029EC000093230001F086FCC046BD4602B0B0BD8A
:1029FC0090B583B000AF040008001100BB1D221C71
:102A0C001A803B1D021C1A80BB1C0A1C1A80BB1CA2
:102A1C001A883B1D0021595EBB1D00201B5E18004F
:102A2C00FFF7A4FFC046BD4603B090BDB0B588B05B
:102A3C0000AF05000C0010001900BB1D2A1C1A80E9
:102A4C003B1D221C1A80BB1C021C1A803B000A1C5A
:102A5C001A803B0000229A5E3B1D00215B5ED31A5C
:102A6C00D9175A184A40BB1C0021595EBB1D0020C7
:102A7C001B5ECB1AD9175B184B4001219A4201DC23
:102A8C000023191CCAB21A217B181A807B18002249
:102A9C009B5E002B19D018217B18BA1D12881A8046
:102AAC00BB1D3A1D12881A803B1D7A1812881A8099
:102ABC0016217B18BA1C12881A80BB1C3A0012888B
:102ACC001A803B007A1812881A80BA1DBB1C002190
:102ADC00525E00215B5E9A4219DD14217B18BA1DEF
:102AEC0012881A80BB1DBA1C12881A80BB1C7A185B
:102AFC0012881A8012217B183A1D12881A803B1DED
:102B0C003A0012881A803B007A1812881A80BB1C73
:102B1C001A88BB1D1B88D31A9AB210217B181A80F5
:102B2C003B0000229A5E3B1D00201B5ED31AD81777
:102B3C001A1842400E23FB181A801E23FA187B1811
:102B4C0000215B5E002B00DA01335B1013803A1D11
:102B5C003B000021525E00215B5E9A4204DA1C238A
:102B6C00FB1801221A804DE01C23FB180122524253
:102B7C001A8047E01A23FB1800229B5E002B0CD016
:102B8C003023FB181A88BB1D0021595E3B1D002009
:102B9C001B5E1800FFF72CFF0BE03023FB181A8884
:102BAC003B1D0021595EBB1D00201B5E1800FFF76A
:102BBC001FFF1E217B181A880E23FB181B88D31AA3
:102BCC009AB27B181A807B1800229B5E002B11DABC
:102BDC003B1D1A881C23FB181B88D3189AB23B1D6B
:102BEC001A807B181A881023FB181B88D3189AB2EA
:102BFC007B181A80BB1D00229B5E9BB201339AB2DC
:102C0C00BB1D1A80BA1DBB1C0021525E00215B5EED
:102C1C009A42AFDDC046C046BD4608B0B0BDB0B5A7
:102C2C0084B002AF05000C0010001900BB1D2A1C5B
:102C3C001A803B1D221C1A80BB1C021C1A803B00F4
:102C4C000A1C1A803B1D1A88BB1C1B88D3189BB20C
:102C5C00013B9BB21CB2BB1D00229A5E3B1D0021A6
:102C6C00595EBB1D0020185E3B001B88009323009F
:102C7C00FFF7DCFEC046BD4602B0B0BDB0B584B0B7
:102C8C0002AF05000C0010001900BB1D2A1C1A8095
:102C9C003B1D221C1A80BB1C021C1A803B000A1C08
:102CAC001A80BB1D1A88BB1C1B88D3189BB2013B16
:102CBC009BB21AB23B1D00241C5F3B1D0021595EC8
:102CCC00BB1D0020185E3B001B8800932300FFF700
:102CDC00ADFEC046BD4602B0B0BDB0B586B002AFC9
:102CEC0005000C0010001900BB1D2A1C1A803B1D8E
:102CFC00221C1A80BB1C021C1A803B000A1C1A8066
:102D0C00BA1DBB1C0021525E00215B5E9A422AD187
:102D1C003A1D3B000021525E00215B5E9A420CDDA5
:102D2C000C217B183A1D12881A803B1D3A00128820
:102D3C001A803B007A1812881A803B001A883B1DB7
:102D4C001B88D31A9BB201339BB21AB22023FB18F7
:102D5C001C883B1D0021595EBB1D0020185E230002
:102D6C00FFF75DFF45E03A1D3B000021525E00215C
:102D7C005B5E9A422AD1BA1DBB1C0021525E002117
:102D8C005B5E9A420CDD0E217B18BA1D12881A80EC
:102D9C00BB1DBA1C12881A80BB1C7A1812881A80A8
:102DAC00BB1C1A88BB1D1B88D31A9BB201339BB268
:102DBC001AB22023FB181C883B1D0021595EBB1D39
:102DCC000020185E2300FFF759FF12E03B0000249F
:102DDC001C5FBB1C00229A5E3B1D0021595EBB1D73
:102DEC000020185E2023FB181B8800932300FFF79C
:102DFC001DFEC046BD4604B0B0BDF0B587B000AFF7
:102E0C0005000C0010001900BB1D2A1C1A803B1D6C
:102E1C00221C1A80BB1C021C1A807B1C0A1C1A70F8
:102E2C00BB1C1B880122D31A9AB21623FB181A80DA
:102E3C001423FB1801221A80BB1C1B881A1CD203FA
:102E4C00D31ADB189AB21223FB181A801023FB1822
:102E5C0000221A800E23FB18BA1C12881A80FEE07E
:102E6C0016217B1800229B5E002B17DB0E203B18D3
:102E7C0000229B5E9BB2013B9AB23B181A80122037
:102E8C003B181B8802339AB23B181A807B181A889D
:102E9C003B181B88D3189AB27B181A8010217B1808
:102EAC0000229B5E9BB201339AB27B181A801420CD
:102EBC003B181B8802339AB23B181A8016243B1914
:102ECC001A883B181B88D3189AB23B191A807B1CA2
:102EDC001B78042213402CD0BB1D1A880C007B18C5
:102EEC001B88D3189BB218B23B1D1A880E257B1970
:102EFC001B88D3189BB219B228260823F218D319B1
:102F0C001B881A00FFF774FDBB1D1A887B191B88E0
:102F1C00D3189BB218B23B1D1A883B191B88D318C7
:102F2C009BB219B20823F318DB191B881A00FFF7A0
:102F3C005FFD7B1C1B78022213402CD0BB1D1A8812
:102F4C0010243B191B88D3189BB218B23B1D1A884E
:102F5C000E257B191B88D31A9BB219B2282608237D
:102F6C00F218D3191B881A00FFF742FDBB1D1A88F3
:102F7C007B191B88D3189BB218B23B1D1A883B19BE
:102F8C001B88D31A9BB219B20823F318DB191B88C0
:102F9C001A00FFF72DFD7B1C1B78082213402CD048
:102FAC00BB1D1A880E243B191B88D31A9BB218B26E
:102FBC003B1D1A8810257B191B88D3189BB219B29C
:102FCC0028260823F218D3191B881A00FFF710FDC6
:102FDC00BB1D1A887B191B88D31A9BB218B23B1DD8
:102FEC001A883B191B88D3189BB219B20823F31803
:102FFC00DB191B881A00FFF7FBFC7B1C1B780122DA
:10300C0013402CD0BB1D1A880E243B191B88D31AD5
:10301C009BB218B23B1D1A8810257B191B88D31A3A
:10302C009BB219B228260823F218D3191B881A0050
:10303C00FFF7DEFCBB1D1A887B191B88D31A9BB2C9
:10304C0018B23B1D1A883B191B88D31A9BB219B2B4
:10305C000823F318DB191B881A00FFF7C9FC10238F
:10306C00FA180E23FB180021525E00215B5E9A4277
:10307C0000DAF5E6C046C046BD4607B0F0BDB0B5B7
:10308C0086B000AF05000C0010001900BB1D2A1CF7
:10309C001A803B1D221C1A80BB1C021C1A807B1C34
:1030AC000A1C1A70BB1C1B880122D31A9AB2162355
:1030BC00FB181A801423FB1801221A80BB1C1B88D6
:1030CC001A1CD203D31ADB189AB21223FB181A80DB
:1030DC0010217B1800221A800E203B18BA1C128873
:1030EC001A800C23FB187A1812881A800A23FB18F2
:1030FC003A1812881A8028217B1800229B5E9BB2FA
:10310C0001339AB27B181A80E2E016217B18002258
:10311C009B5E002B17DB0E203B1800229B5E9BB2A4
:10312C00013B9AB23B181A8012203B181B880233C1
:10313C009AB23B181A807B181A883B181B88D31834
:10314C009AB27B181A8010217B1800229B5E9BB2CE
:10315C0001339AB27B181A8014203B181B88023357
:10316C009AB23B181A8016243B191A883B181B88F4
:10317C00D3189AB23B191A800E243A197B180020E6
:10318C00125E00201B5E9A4245DB7B1C1B780122E1
:10319C0013401CD0BB1D1A887B181B88D3189BB2FC
:1031AC0018B23B1D1A883B191B88D31A9BB219B253
:1031BC003B191B88DB189AB22823FB181B88D318E1
:1031CC009BB21AB22C23FB181B88FFF728FD7B1C23
:1031DC001B78022213401ED0BB1D1A881023FB182B
:1031EC001B88D31A9BB218B23B1D1A880E243B19AC
:1031FC001B88D31A9BB219B23B191B88DB189AB2E5
:10320C002823FB181B88D3189BB21AB22C23FB184B
:10321C001B88FFF704FD0E23FA180A217B180020E7
:10322C00125E00201B5E9A424CD07B1C1B78012244
:10323C0013401DD0BB1D1A887B181B88D3189BB25A
:10324C0018B23B1D1A880C243B191B88D31A9BB24D
:10325C0019B23B191B88DB189AB22823FB181B8860
:10326C00D3189BB21AB22C23FB181B88FFF7D7FC80
:10327C007B1C1B78022213401ED0BB1D1A880A230C
:10328C00FB181B88D31A9BB218B23B1D1A880C244E
:10329C003B191B88D31A9BB219B23B191B88DB183C
:1032AC009AB22823FB181B88D3189BB21AB22C2372
:1032BC00FB181B88FFF7B3FC0A23FB180E22BA1865
:1032CC0012881A800C23FB181022BA1812881A8044
:1032DC001023FA180E23FB180021525E00215B5EAE
:1032EC009A4200DA11E7C046C046BD4606B0B0BDF2
:1032FC00B0B582B000AF05000C0010001900BB1D6A
:10330C002A1C1A803B1D221C1A80BB1C021C1A8012
:10331C003B000A1C1A8018257B191C88BB1C002238
:10332C009A5E3B1D0021595EBB1D0020185E2300D8
:10333C00FFF7A4FC3B1D1A883B001B88D3189BB2DB
:10334C00013B9BB219B27B191C88BB1C00229A5EF4
:10335C00BB1D0020185E2300FFF790FC7B191C8816
:10336C003B0000229A5E3B1D0021595EBB1D0020D4
:10337C00185E2300FFF753FCBB1D1A88BB1C1B886F
:10338C00D3189BB2013B9BB218B27B191C883B0033
:10339C0000229A5E3B1D0021595E2300FFF73FFC83
:1033AC00C046BD4602B0B0BDF0B587B002AF050057
:1033BC000C0010001900BB1D2A1C1A803B1D221C7E
:1033CC001A80BB1C021C1A803B000A1C1A803B0092
:1033DC00BA1C10881B8819B202B2914200DD031C82
:1033EC001BB20E22BA18002B00DA01335B101380CB
:1033FC00202008254319DB190E24391900229A5E66
:10340C000023CB5E9A4204DD4319DB193A1912886A
:10341C001A80BB1D1A88202508242B19DB191B8840
:10342C00D3189BB218B2BB1C1A882B19DB191B883A
:10343C00DB189BB2D31A9BB21AB224263319DB19B0
:10344C001C883B1D0021595E2300FFF717FCBB1D98
:10345C001A8808242B19DB191B88D3189BB218B2B5
:10346C003B1D1A883B001B88D3189BB2013B9BB2B7
:10347C0019B2BB1C1A882B19DB191B88DB189BB2E1
:10348C00D31A9BB21AB23319DB191B88FFF7F6FB60
:10349C003B1D1A882B19DB191B88D3189BB219B248
:1034AC003B001A882B19DB191B88DB189BB2D31A2B
:1034BC009BB21AB23319DB191C88BB1D0020185E95
:1034CC002300FFF7ACFBBB1D1A88BB1C1B88D31851
:1034DC009BB2013B9BB218B23B1D1A8808242B19D6
:1034EC00DB191B88D3189BB219B23B001A882B1915
:1034FC00DB191B88DB189BB2D31A9BB21AB2331997
:10350C00DB191B88FFF78BFBBB1D1A882B19DB19EA
:10351C001B88D3189BB218B23B1D1A882919CB19DA
:10352C001B88D3189BB219B22C000823EA18D319A4
:10353C0000229A5E35000826AB19DB191B88009314
:10354C000123FFF75AFCBB1D1A88BB1C1B88D31820
:10355C009AB231006318DB191B88D31A9BB2013B5A
:10356C009BB218B23B1D1A880E00A319DB191B88DD
:10357C00D3189BB219B2A319DB1900229A5EAB19AE
:10358C00DB191B8800930223FFF737FCBB1D1A883D
:10359C00BB1C1B88D3189AB221008B19DB191B8812
:1035AC00D31A9BB2013B9BB218B23B1D1A883B004D
:1035BC001B88D3189AB20C00A319DB191B88D31AD9
:1035CC009BB2013B9BB219B2A319DB1900229A5E84
:1035DC00AB19DB191B8800930423FFF70EFCBB1DF2
:1035EC001A8821008B19DB191B88D3189BB218B2CF
:1035FC003B1D1A883B001B88D3189AB20C008B1900
:10360C00DB191B88D31A9BB2013B9BB219B2A319CD
:10361C00DB1900229A5EAB19DB191B880093082377
:10362C00FFF7EBFBC046BD4605B0F0BDF0B587B06B
:10363C0002AF05000C0010001900BB1D2A1C1A80DB
:10364C003B1D221C1A80BB1C021C1A803B000A1C4E
:10365C001A803B00BA1C10881B8819B202B2914226
:10366C0000DD031C1BB20E22BA18002B00DA01334A
:10367C005B101380202008254319DB190E243919FF
:10368C0000229A5E0023CB5E9A4204DD4319DB19BB
:10369C003A1912881A80BB1D1A88202508242B1968
:1036AC00DB191B88D3189BB218B2BB1C1A882919BA
:1036BC00CB191B88DB189BB2D31A9BB21AB23B00F6
:1036CC0000241C5F3B1D0021595E24260823F3189F
:1036DC00DB191B8800932300FFF764F9BB1D1A88C4
:1036EC00BB1C1B88D3189AB208242B19DB191B8816
:1036FC00D31A9BB2013B9BB218B23B1D1A882B19F3
:10370C00DB191B88D3189BB219B23B001A882B19F2
:10371C00DB191B88DB189BB2D31A9BB2013B9BB203
:10372C001AB22B19DB1900241C5F0823F318DB19C0
:10373C001B880193009201232200FFF7A0FCBB1D04
:10374C001A882C0008256319DB191B88D3189BB227
:10375C0018B23B1D1A886319DB191B88D3189BB24E
:10376C0019B23B001A886319DB191B88DB189BB252
:10377C00D31A9BB2013B9BB21AB26319DB1900241A
:10378C001C5F7319DB191B88019300920223220022
:10379C00FFF775FCC046BD4605B0F0BDB0B58EB0A8
:1037AC0000AF05000C0010001900BB1D2A1C1A806C
:1037BC003B1D221C1A80BB1C021C1A803B000A1CDD
:1037CC001A803A1D3B000021525E00215B5E9A423A
:1037DC0019DD26217B183A1D12881A803B1D3A00F0
:1037EC0012881A803B007A1812881A8024217B18C0
:1037FC00BA1D12881A80BB1DBA1C12881A80BB1CF9
:10380C007A1812881A803A004C217B180020125E1C
:10381C0000201B5E9A421ADD22203B187A1812886F
:10382C001A807B183A0012881A803B003A181288CA
:10383C001A8020217A1848203B181B8813803B18CB
:10384C00BA1C12881A80BB1C7A1812881A803A1D6E
:10385C003B000021525E00215B5E9A4219DD1E2165
:10386C007B183A1D12881A803B1D3A0012881A8068
:10387C003B007A1812881A801C217B18BA1D1288FA
:10388C001A80BB1DBA1C12881A80BB1C7A181288AD
:10389C001A803A1D4C23FB180021525E00215B5EFE
:1038AC009A4258D134203B18BA1D12881A803621FE
:1038BC007B183A1812881A80BA1C7B180020125EEA
:1038CC0000201B5E9A4204DA7B18BA1C12881A80FC
:1038DC000CE0BA1C34217B180020125E00201B5E09
:1038EC009A4203DD7B18BA1C12881A8048203B18B8
:1038FC003624391900229A5E0023CB5E9A4204DAF0
:10390C003A193B181B8813800DE048203B183424CF
:10391C00391900229A5E0023CB5E9A4203DD3A19D4
:10392C003B181B8813803423FB181A8836203B184D
:10393C001B88D31A9BB201339BB21AB25023FB18CB
:10394C001C883B1D0021595E3B180020185E23008B
:10395C00FFF794F951E1BB1C1A88BB1D1B88D31AC5
:10396C009AB21A23FB181A803B001A883B1D1B883D
:10397C00D31A9AB21823FB181A8048203B181A88BD
:10398C00BB1D1B88D31A9AB21623FB181A804C2124
:10399C007B181A883B1D1B88D31A9AB21423FB1868
:1039AC001A803B181A88BB1C1B88D31A9AB2122394
:1039BC00FB181A807B181A883B001B88D31A9AB202
:1039CC001023FB181A800023FB620023BB623A0011
:1039DC007B180021525E00215B5E9A4205D1302398
:1039EC00FB183A0012881A8006E03B001B88013B4A
:1039FC009AB23023FB181A803223FB183A1D128816
:103A0C001A8065E01823FB1800229B5E1900F86AE7
:103A1C00FCF7FCFB03009AB2BB1D1B88D3189AB2AF
:103A2C0036243B191A801423FB1800229B5E1900C4
:103A3C00B86AFCF7EBFB03009AB2BB1D1B88D318CA
:103A4C009AB234217B181A801A23FB1800229B5E31
:103A5C00FA6AD318FB621623FB1800229B5EBA6A23
:103A6C00D318BB623A197B180020125E00201B5E33
:103A7C009A420CDD0C203B183A1912881A803B191B
:103A8C007A1812881A807B183A1812881A803423F4
:103A9C00FB181A8836203B181B88D31A9BB20133AB
:103AAC009BB21AB25023FB181C8832257B190021BB
:103ABC00595E3B180020185E2300FFF7DFF8290041
:103ACC007B1800229B5E9BB201339AB27B181A8042
:103ADC0032203A183023FB180021525E00215B5E25
:103AEC009A428FDD1223FB1800229B5E3A180021AC
:103AFC00515E3A000024125F8A1A5343FB6216236C
:103B0C00FB1800229B5E3A180021515E3A1D0020E2
:103B1C00125E8A1A5343BB6265E01023FB18002225
:103B2C009B5E1900F86AFCF771FB03009AB2BB1C90
:103B3C001B88D3189AB236243B191A801423FB180D
:103B4C0000229B5E1900B86AFCF760FB03009AB276
:103B5C00BB1D1B88D3189AB234217B181A801223F0
:103B6C00FB1800229B5EFA6AD318FB621623FB1823
:103B7C0000229B5EBA6AD318BB623A197B180020EC
:103B8C00125E00201B5E9A420CDD0E203B183A1987
:103B9C0012881A803B197A1812881A807B183A18E6
:103BAC0012881A803423FB181A8836203B181B887D
:103BBC00D31A9BB201339BB21AB25023FB181C8848
:103BCC0032257B190021595E3B180020185E23001A
:103BDC00FFF754F829007B1800229B5E9BB201333F
:103BEC009AB27B181A803223FA184C23FB18002146
:103BFC00525E00215B5E9A428FDDBD460EB0B0BDB9
:103C0C0080B584B002AF0200BB1D1A80084B0022A5
:103C1C009A5E084B0021595EBB1D1B8800930B005C
:103C2C0000210020FEF7BEFEC046BD4602B080BD9E
:103C3C006C0000206E00002080B500AF8023DB00FC
:103C4C0003480022190003F02CFEC046BD4680BD7F
:103C5C000004004880B500AF8023DB00034801223C
:103C6C00190003F01EFEC046BD4680BD000400488E
:103C7C0080B500AF084B00220421180003F011FEA0
:103C8C00052002F08DFE044B01220421180003F0E4
:103C9C0008FEC046BD4680BD0004004880B582B019
:103CAC0000AF0200FB1D1A70084B00220221180005
:103CBC0003F0F7FD01235B42F91D0548012204F0D6
:103CCC0009FBC046BD4602B080BDC046000400489A
:103CDC00DC00002080B582B000AF78603960094B01
:103CEC0001220221180003F0DCFD3B689AB201238B
:103CFC005B427968044804F0EDFAC046BD4602B058
:103D0C0080BDC04600040048DC00002090B585B0A2
:103D1C0000AF78607B685A1C7A600F22BA181B7847
:103D2C0013704AE07B685A1C7A600B217A181B7856
:103D3C0013707B181B781800FFF7B0FF7B685A1CB8
:103D4C007A600A203A181B7813703B181B789AB2C9
:103D5C000C23FB1880210A401A803B183A18127861
:103D6C007F210A401A703B181B78002B0CD00400E2
:103D7C003B181A787B6811001800FFF7ABFF3B1952
:103D8C001B787A68D3187B600C217B181B88002B5E
:103D9C0013D07B685A1C7A601A787B181A807B18AF
:103DAC001B88FF2B03D17B18FA2252001A800C239C
:103DBC00FB181B88180002F0F3FD0F22BB181B78B0
:103DCC00BA18591E1170002BACD1C046C046BD4666
:103DDC0005B090BDB0B584B000AF05000C0010006C
:103DEC001900FB1D2A1C1A70BB1D221C1A707B1D8E
:103DFC00021C1A703B1D0A1C1A702A20FFF74EFF7A
:103E0C000C217B1800221A701C4B1A78FB1D1B7896
:103E1C00D318DAB27B185A707B1800229A70174BA1
:103E2C001A787B1D1B78D318DAB27B18DA700C0069
:103E3C007B1804211800FFF74DFF2B20FFF72EFFF6
:103E4C000F4B1A78BB1D1B78D318DAB221007B18E4
:103E5C005A700B4B1A783B1D1B78D318DAB27B18AF
:103E6C00DA707B1804211800FFF734FF2C20FFF7C1
:103E7C0015FFC046BD4604B0B0BDC046730000205F
:103E8C007400002080B582B000AF0200FB1D1A70D8
:103E9C00FFF7D2FEFFF7ECFE0E4B1800FFF736FFD4
:103EAC000D4B1800FFF732FF0C4B1800FFF72EFFDD
:103EBC000B4B00221A700B4B00221A70FB1D1B7847
:103ECC00180000F011F8FFF7C5FEC046BD4602B061
:103EDC0080BDC046E08A0008188B0008288B0008BB
:103EEC00710000207200002080B584B000AF020089
:103EFC00FB1D1A700F23FB1800221A70FB1D1B7878
:103F0C0003221340DAB2364B1A70354B1B78032B55
:103F1C0041D053DC022B2BD050DC002B02D0012BD8
:103F2C0013D04BE00F23FB18C0221A702D4BA0228C
:103F3C001A802D4B80221A802C4B1A782C4B1A701D
:103F4C002C4B1A782C4B1A7038E00F23FB18A0223C
:103F5C001A70254BA0221A80224B80221A80234BE8
:103F6C001A78254B1A70234B1A78214B1A7025E0BE
:103F7C000F23FB1800221A701A4BA0221A801A4B1E
:103F8C0080221A80194B1A78194B1A70194B1A780F
:103F9C00194B1A7012E00F23FB1860221A70124B87
:103FAC00A0221A800F4B80221A80104B1A78124BC9
:103FBC001A70104B1A780E4B1A70C046FFF73CFE65
:103FCC003620FFF76BFE0F23FB1801211800FFF7BB
:103FDC0081FEFFF73FFEC046BD4604B080BDC04623
:103FEC00700000206E0000206C000020710000208A
:103FFC0073000020720000207400002090B585B082
:10400C0000AF040008001100BB1D221C1A803B1DD0
:10401C00021C1A80BB1C0A1C1A80BB1D1B881C4A64
:10402C000021525E93422FDA3B1D1B88194A002156
:10403C00525E934228DAFFF7FFFDBB1D1B88D8B2F6
:10404C003B1D1B88D9B2BB1D1B88DBB20133DAB216
:10405C003B1D1B88DBB20133DBB2FFF7BBFEBB1C85
:10406C001B881B0A9BB2DAB20C217B181A70BB1C82
:10407C001B88DAB27B185A707B1802211800FFF7E4
:10408C0029FEFFF7E7FD00E0C046BD4605B090BD38
:10409C006C0000206E00002082B0B0B588B000AF7C
:1040AC00040008001100042230255219D2191360A3
:1040BC00BB1D221C1A803B1D021C1A80FB1C0A1CF7
:1040CC001A70BB1D1B88D8B23B1D1B88D9B2BB1DF7
:1040DC001B88DAB204235B19DB191B78D318DBB20B
:1040EC00013BDCB23B1D1B88DAB204235B19DB19E4
:1040FC005B78D318DBB2013BDBB22200FFF76AFE20
:10410C000023FB6153E0042330201B18DB195A6891
:10411C00FB1C1B78203B04210918C91949784B4317
:10412C001900FB69CB185B00D3181B887B6100233B
:10413C00BB6130E07A69BB699A4080231B02134053
:10414C0013D03C203B181B881B0A9BB2DAB21021FF
:10415C007B181A703B181B88DAB27B185A707B18C4
:10416C0002211800FFF7B6FD12E040203B181B8817
:10417C001B0A9BB2DAB20C217B181A703B181B88F5
:10418C00DAB27B185A707B1802211800FFF7A2FDD7
:10419C00BB690133BB61042330229B18DB191B78EC
:1041AC001A00BB699342C5D3FB690133FB6104233D
:1041BC0030229B18DB195B781A00FB699342A2D35F
:1041CC00C046C046BD4608B0B0BC08BC02B01847DB
:1041DC0082B0F0B587B004AF3A60042218241219EB
:1041EC000824A446BC4462441360BB1D021C1A8004
:1041FC003B1D0A1C1A80FFF71FFD67E0BB1D1B88C7
:10420C0004221821521808208446BC4462441278B7
:10421C009B18364A0020125E934227DBBB1D0022FE
:10422C001A80042308005B1808229446BC4463449B
:10423C005B7899B23B1D3A1D12888A181A803B1D77
:10424C001B880422121808218C46BC446244527804
:10425C009B18274A0021525E93423CDA3B681B783C
:10426C00202B03D13B6801333B602FE03B681D786A
:10427C00042318269B1908229446BC4463443A1D17
:10428C001488BA1D1088282208215218D2191288B5
:10429C00029224225218D219128801926A46596845
:1042AC0011601B682A002100FFF7F6FE04239B19FE
:1042BC0008229446BC4463441B7899B2BB1DBA1DBA
:1042CC0012888A181A803B6801333B603B681B7864
:1042DC00002B93D100E0C046FFF7BCFCC046BD46A6
:1042EC0003B0F0BC08BC02B01847C0466C000020FC
:1042FC006E000020B0B584B000AF05000C001000BB
:10430C001900BB1D2A1C1A803B1D221C1A80BB1CC9
:10431C00021C1A803B000A1C1A80BB1D1B88494AD0
:10432C000021525E934200DB87E03B1D1B88464A0E
:10433C000021525E934200DB7FE0BB1D1A88BB1C40
:10434C001B88D3183F4A0021525E934208DD3D4B37
:10435C0000229B5E99B2BB1CBA1D12888A1A1A8065
:10436C003B1D1A883B001B88D318374A0021525E2C
:10437C00934208DD344B00229B5E99B23B003A1D00
:10438C0012888A1A1A80FFF757FCBB1D1B88D8B2FB
:10439C003B1D1B88D9B2BB1D1B88DAB2BB1C1B880A
:1043AC00DBB2D318DBB2013BDCB23B1D1B88DAB2AB
:1043BC003B001B88DBB2D318DBB2013BDBB2220023
:1043CC00FFF708FD20217B181B881B0A9BB2DAB271
:1043DC000C203B181A707B181B88DAB23B185A70E9
:1043EC001A4B01220221180003F05BFA3B1D3A0024
:1043FC0012881A801AE0BB1DBA1C12881A800CE0B5
:10440C0001235B420C22B9181148022203F062FF0F
:10441C00BB1D1A88BB1D013A1A80BB1D1B88002BC3
:10442C00EED13B1D1A883B1D013A1A803B1D1B889F
:10443C00002BE0D1FFF70EFC00E0C046BD4604B0F7
:10444C00B0BDC0466C0000206E0000200004004887
:10445C00DC000020F0B595B004AFF8600800110046
:10446C007B600B243B19021C1A700A203B180A1C97
:10447C001A703F23FB1800221A703C23FB180122F0
:10448C001A803B23FB1801221A7014217B1801227D
:10449C001A707B183A1912781A717B183A1812781C
:1044AC005A717B187A68DA607A18502308201B1826
:1044BC00DB191B88D3807B1854221218D21912884E
:1044CC001A817B183A6E1A617B185C221218D21969
:1044DC0012889A8205E03F217B181A787B180132EA
:1044EC001A703F217B181B787A68D3181B78002B25
:1044FC00F1D17B181B789BB21A1CD200D31A9AB23A
:10450C003C243B1905321A803B257B190F221A706B
:10451C000B26BB191B7818B20A23FB181B7819B28F
:10452C003B1900241A5F7B191B781CB250250823F9
:10453C00ED18EB191B880193022300932300FFF75E
:10454C0075F8BB191B789BB2033398B20A23FB187E
:10455C001B789BB203339CB20F4B7D685022082111
:10456C005218D219128802920C4A01926A46596862
:10457C0011601B682A002100FFF72AFEFB68142239
:10458C00BA1813CA13C313CA13C313CA13C3F868D4
:10459C00BD4611B0F0BDC04600000020FFFF00007A
:1045AC00F0B593B004AFF860080011007B600B24E9
:1045BC003B19021C1A700A257B190A1C1A7014204C
:1045CC003B1802221A703B183A1912781A763B18CB
:1045DC007A1912785A763A18482308269B19DB194F
:1045EC001B8853833B187A68DA613B184C24A21958
:1045FC00D219202112785A5450239B19DB191B888D
:10460C00D9B23B1821229954A319DB191B78092B19
:10461C0027D9A319DB191B780A211800FBF76CFDAD
:10462C000300DBB23033DAB210257B191A70A319F0
:10463C00DB191B780A211800FBF75EFD0300DBB2C7
:10464C001A1C5201D21A9200D31ADB18DAB2A3192F
:10465C00DB191B78D318DBB23033DAB27B195A7002
:10466C000CE010217B1830221A704C2308229B1866
:10467C00DB191B783033DAB27B185A701023FB1815
:10468C0000229A700B26BB191B7898B20A23FB18D0
:10469C001B789CB2284B7D68482108228A18D219B5
:1046AC0012880292254A01926A46596811601B6869
:1046BC002A002100FFF78CFDBB191B789BB220331D
:1046CC0098B20A23FB181B789BB216339CB21A4B78
:1046DC001022BD18502208215218D21912880292A9
:1046EC00164A01926A46596811601B682A0021001B
:1046FC00FFF76EFDBB191B789BB21B339BB218B234
:10470C000A23FB181B789BB214339BB219B20B4BC8
:10471C0001930223009314231E22FEF745FEFB682F
:10472C001422BA1813CA13C313CA13C313CA13C35C
:10473C00F868BD460FB0F0BD08000020FFFF000078
:10474C00B0B58AB004AF3B1D186059609A6014254F
:10475C007B19404A12881A800222002199543B1D71
:10476C001B7A092B23D93B1D1B7A0A211800FBF756
:10477C00C3FC0300DBB23033DAB27B191A703B1D79
:10478C001C7A3B1D1B7A0A211800FBF7B5FC0300B1
:10479C00DBB21A1C5201D21A9200D31ADB18DBB20C
:1047AC00E318DBB23033DAB27B195A7009E014210A
:1047BC007B1830221A703B1D1B7A3033DAB27B180F
:1047CC005A703B1D1B7898B23B1D5B789CB23B1D0D
:1047DC005D683B1D5A88204B0292204A01926A4622
:1047EC00596811601B682A002100FFF7F1FC3B1D82
:1047FC001B789BB2203398B23B1D5B789BB216336F
:10480C009CB23B1D5B7A9AB2134B14217D18029219
:10481C00124A01926A46596811601B682A002100ED
:10482C00FFF7D6FC3B1D1B789BB21B339BB218B217
:10483C003B1D5B789BB214339BB219B2074B0193AF
:10484C000223009314231E22FEF7AEFDC046BD4684
:10485C0006B0B0BDFC88000808000020FFFF000077
:10486C00B0B588B004AF78600F23FB1800221A7023
:10487C0005E00F217B181A787B1801321A707B68BF
:10488C009A680F217B181B78D3181B78002BF0D15A
:10489C007B181B789BB21A1CD200D31A9AB20C2428
:1048AC003B1905321A800B257B190F221A707B6875
:1048BC001B7818B27B685B7819B23B1900229A5EA0
:1048CC007B191B781CB27B689B8801930223009395
:1048DC002300FEF7ABFE7B681B789BB2033398B2C8
:1048EC007B685B789BB203339CB27B689D687B686A
:1048FC009A880E4B02920E4A01926A4659681160D0
:10490C001B682A002100FFF763FC08217B187A68DA
:10491C0052881A807B689A887B685A807B687A18E0
:10492C0012889A80C046BD4604B0B0BD000000207D
:10493C00FFFF000084B0F0B587B004AF20243C1911
:10494C0020606160A260E360744B1B78012B30D156
:10495C00724B1A79FB1D0B3A1A70BB1D6F4A5279B8
:10496C001A707B1DBA1D127807321A70FB1D1B784A
:10497C0018B2BB1D1B781CB2FB1D1B789BB20A33F3
:10498C009BB21DB27B1D1B781EB2FB1D1B781BB28C
:10499C00BA1D127892B20E3292B212B260490988E4
:1049AC0002910192009333002A002100FEF7F6FEDB
:1049BC0033E05A4B1B78022B2FD1584B1A7EFB1D20
:1049CC000B3A1A70BB1D554A527E1A707B1DBA1DCC
:1049DC00127807321A70FB1D1B7818B2BB1D1B789E
:1049EC001CB2FB1D1B789BB20A339BB21DB27B1D04
:1049FC001B781EB2FB1D1B781BB2BA1D127892B22B
:104A0C000E3292B212B24649098802910192009379
:104A1C0033002A002100FEF7C1FE20217B181B78F1
:104A2C00012B37D17B181A79FB1D0B3A1A70BA1D62
:104A3C007B185B7913707B1DBA1D127807321A70C4
:104A4C00FB1D1B7818B2BB1D1B7819B2FB1D1B7804
:104A5C009BB20A339BB21CB27B1D1B781DB2FB1D93
:104A6C001B781BB2BA1D127892B20E3292B212B2ED
:104A7C002C4E0296019200932B002200FEF78EFE24
:104A8C00264B20217A1813CA13C313CA13C313CA93
:104A9C0013C33BE020217B181B78022B36D17B18EB
:104AAC001A7EFB1D0B3A1A70BA1D7B185B7E1370B5
:104ABC007B1DBA1D127807321A70FB1D1B7818B2B9
:104ACC00BB1D1B7819B2FB1D1B789BB20A339BB222
:104ADC001CB27B1D1B781DB2FB1D1B781BB2BA1DB3
:104AEC00127892B20E3292B212B20E4E029601921D
:104AFC0000932B002200FEF751FE084B20217A1860
:104B0C0013CA13C313CA13C313CA13C3C046BD4677
:104B1C0003B0F0BC08BC04B01847C04678000020B5
:104B2C0004020020FFFF000080B500AF01F0CAFEB8
:104B3C0000F01AF800F004F900F068F800F0C2F880
:104B4C00084B180002F090F80020FFF79BF90020AA
:104B5C00FFF756F8FA235B00180001F021FF00F074
:104B6C008DF9FCE79C00002090B591B000AF1024AB
:104B7C003B19180030231A00002103F0A5FE3B005E
:104B8C00180010231A00002103F09EFE21007B1850
:104B9C0012221A607B180122DA607B1801225A61FA
:104BAC007B1810221A617B1810229A617B18022242
:104BBC001A627B18802212025A627B18C0221203DE
:104BCC009A627B180022DA627B18180002F086FECB
:104BDC00031E01D000F04CF93B0007221A603B0089
:104BEC0002225A603B0080229A603B000022DA606D
:104BFC003B000121180003F08FF9031E01D000F0D7
:104C0C0037F9C046BD4611B090BD000080B584B0E8
:104C1C0000AF3B1D18000C231A00002103F054FEBA
:104C2C00264B274A1A60254B00225A60234B002240
:104C3C009A60224B0022DA60204B01221A611F4B32
:104C4C0004225A611D4B00221A761C4B00225A7604
:104C5C001A4B00229A76194B0022DA76174BC22295
:104C6C00FF32DA61154B00221A62144B2422002108
:104C7C009954124B01229A62104B180001F0B4FEA9
:104C8C00031E01D000F0F4F83B1D08221A603B1DF6
:104C9C00802252015A603B1D802252059A603A1DB7
:104CAC00064B1100180002F03FF8031E01D000F073
:104CBC00DFF8C046BD4604B080BDC0469C00002055
:104CCC000024014080B500AF1B4B1C4A1A601A4BE4
:104CDC00822252005A60184B00229A60164BE02236
:104CEC00D200DA60144B00221A61134B00225A6175
:104CFC00114B802292009A610F4B0822DA610E4B05
:104D0C0000221A620C4B00225A620B4B00229A6250
:104D1C00094B0722DA62084B00221A63064B082261
:104D2C005A63054B180003F01DFA031E01D000F066
:104D3C009FF8C046BD4680BDDC000020003001401D
:104D4C0090B58BB000AF14243B19180014231A0033
:104D5C00002103F0B9FD434B5A69424B80210903F2
:104D6C000A435A613F4B5A6980231B0313403B6132
:104D7C003B693C4B5A693B4B8021C9030A435A613E
:104D8C00384B5A698023DB031340FB60FB68354BBF
:104D9C005A69344B802189020A435A61314B5A6952
:104DAC0080239B021340BB60BB682E4B5A692D4B72
:104DBC008021C9020A435A612A4B5A698023DB02BB
:104DCC0013407B607B682849284B0022180002F0B6
:104DDC0068FD3B19802252011A603B1900225A606F
:104DEC003B1901229A603A199023DB051100180037
:104DFC0002F0CAFB3B19C02212011A603B190022B7
:104E0C005A603B1901229A603A199023DB05110074
:104E1C00180002F0B9FB3B19134A1A603B19012226
:104E2C005A603B1900229A603B190022DA603B1948
:104E3C000E4A1900100002F0A7FB21007B188022FB
:104E4C0052011A607B1800225A607B1801229A606A
:104E5C007B18064A1900100002F096FBC046BD46AE
:104E6C000BB090BD00100240060400000004004886
:104E7C0080B500AF72B6C046FEE7000090B583B0B7
:104E8C0000AFFB1D00221A70244B1B78002B13D093
:104E9C0000F012F901F01AFB80235A019023DB0574
:104EAC001100180002F0E0FC031E03D11C4B04227D
:104EBC001A8001E001F08EFB00F038F800F09CFE47
:104ECC00FC1D00F05FFE03002370164B1B78042BB7
:104EDC0007D0082B0BD0FB1D1B78180000F064F9D1
:104EEC000BE0FB1D1B78180000F012FB05E0FB1D0E
:104EFC001B78180000F00EFAC046084B1B78012BEB
:104F0C0002D1064B00221A70074B1B68180000F0E8
:104F1C007BFCC046BD4603B090BDC04618000020C7
:104F2C00220000202000002044010020F0B585B0B4
:104F3C0000AF0023FB60544B1B68180001F0CCF948
:104F4C000200FA239B009A4200D298E001F0B8F9D3
:104F5C0002004D4B1A604D4B180001F0D9FE0300B6
:104F6C007B607868FDF7EEFB494A4A4BFCF786FDFF
:104F7C0002000B0010001900FDF752FC031C3B60F3
:104F8C00454B1A68444B5B68191C101CFBF764FFFB
:104F9C00031C1C1C414B1A68404B5B68191C101CF1
:104FAC00FBF75AFF031C191C201CFBF767FC031CA6
:104FBC001C1C3A4B1B68191C3868FBF74DFF031C73
:104FCC00191C201CFBF722FE031C1E1C324B1C68F8
:104FDC00334B1B6806211800FBF714F90B001D005E
:104FEC00211C301CFBF7ACFA031C191C2D4BAA001E
:104FFC00D1502B4B1B6806211800FBF703F90B0053
:10500C001A00284B9200D358FB60254B1B685A1C86
:10501C00234B1A60224B1B68052B1AD90023FB600B
:10502C000023BB600CE01F4BBA689200D358191CCC
:10503C00F868FBF785FA031CFB60BB680133BB60A7
:10504C00BB68052BEFDD1849F868FBF717FC031C50
:10505C00FB600021F868FBF715FA031E05D1134914
:10506C00F868FBF723FA031E01D0114BFB60114BC0
:10507C00FA681A60054B180001F0F6FD00E0C04616
:10508C00BD4605B0F0BDC046000200209C000020CB
:10509C006666666666664A3F240000202C00002087
:1050AC00080200200C0200200000C04000006041FB
:1050BC0066661E411C00002080B584B004AF012040
:1050CC00FEF712FF314B324800220292314A019214
:1050DC006A46596811601B68020000210020FFF726
:1050EC0077F8FA239B00180001F05AFC0020FEF719
:1050FC0087FD0120FEF7F8FE274B2848002202927C
:10510C00FC22D20001926A46596811601B680200A9
:10511C0032211420FFF75CF8FA239B00180001F0F1
:10512C003FFC0020FEF76CFD0120FEF7DDFE174B67
:10513C001B4800220292174A01926A465968116074
:10514C001B68020000210020FFF742F8FA239B00A5
:10515C00180001F025FC104B124800220292FC2290
:10516C00D20001926A46596811601B680200322114
:10517C001420FFF72DF8FA239B00180001F010FC07
:10518C000020FEF73DFDC046BD4680BD000000205E
:10519C0000890008FFFF00000800002014890008A7
:1051AC00208900083889000890B589B004AF020046
:1051BC00FB1D1A70FB1D1B78012B05D0494B1A786F
:1051CC00494B1B789A425FD0464B1B78052B1AD063
:1051DC0006DC042B28D003DC012B46D0022B35D067
:1051EC00414B03221A70414BFC22D2001A80FC2343
:1051FC00DB001800FEF704FD00F054FD3C4BFC22D4
:10520C00D2001A8041E0384B05221A70374B394ACC
:10521C001A80F8231B021800FEF7F2FC00F042FD86
:10522C00334B344A1A8030E02F4B04221A702F4B28
:10523C00202252421A80304B1800FEF7E1FC00F09D
:10524C0031FD2B4B202252421A801EE0264B0222AB
:10525C001A70264BFF221A80FF20FEF7D1FC00F0BB
:10526C0021FD234BFF221A800FE01F4B01221A70E5
:10527C001E4B1F221A801F20FEF7C2FC00F012FDED
:10528C001B4B1F221A8000E0C046FB1D1B78012B14
:10529C0009D11A4B1A4A1A601A4B01221A70144B74
:1052AC001A88124B1A80184B1B6808243A191100E3
:1052BC00181C01F02FF80120FEF716FE0C4B1A8873
:1052CC00124B38190292124A01926A4659681160BF
:1052DC001B68020038211420FEF77AFFC046BD4639
:1052EC0005B090BD21000020240200200402002003
:1052FC003400002000F8FFFFE0FF00004401002014
:10530C00D8010020FD0100201C000020100000200E
:10531C00FFFF0000F0B58BB002AF0200FB1D1A704E
:10532C001E23FB186D4A1A801223FB1880221A8048
:10533C008023BB610023FB60FB1D1B78012B0CD170
:10534C000020FEF75DFC00F0C1FC654B00221A80CA
:10535C00644B180001F088FCBCE0624B180001F0B3
:10536C00D7FC020012217B181A807B181B881800AE
:10537C00FDF7B8F95C4A5D4BFCF780FB02000B00B3
:10538C0010001900FDF74CFA031CFB60F868FDF7E0
:10539C00FFF9574A574BFCF771FB02000B0000203A
:1053AC005549FCF7D7FD02000B0014001D00534BB0
:1053BC001B6806211800FAF725FF0B001E002000C1
:1053CC002900FDF72DFA011C4D4BB200D1504B4B6F
:1053DC001B6806211800FAF715FF0B001A00484B42
:1053EC009200D358181CFBF775F80300BB61434BB4
:1053FC001B685A1C414B1A60404B1B68052B29D962
:10540C000023BB6100237B6112E0B869FBF7F2FE5D
:10541C003B4B7A699200D358191CFBF791F8031C8B
:10542C00181CFBF757F80300BB617B6901337B61E8
:10543C007B69052BE9DDB869FDF784F90022314B56
:10544C00FBF71AFF02000B0010001900FBF75AF8CB
:10545C000300BB61234B180001F006FC2A4B1B68B0
:10546C00DBB264225343DAB2BB69DBB264214B4337
:10547C00DBB29A420BD0244B1B6819B2224B1B682F
:10548C001BB200220092A0220020FDF726FCBB6973
:10549C0019B2BB691BB21D4A0092A0220020FDF775
:1054AC001CFC194BBA691A60BB69482B08D9BB693B
:1054BC004B2B05D81E23FB18FC22D2001A8003E0CC
:1054CC001E23FB18054A1A801E23FB181B88180084
:1054DC0000F000FEBD4609B0F0BDC04600F8FFFF6D
:1054EC00040200209C0000206666666666664A3FE1
:1054FC005C8FC2F5285C4040000060402802002010
:10550C002C0200200000184038000020FFFF000093
:10551C0090B58BB004AF0200FB1D1A700C23FB1866
:10552C0000221A80FB1D1B78012B12D10020FEF7E4
:10553C0067FB00F0DDFB894B894A1A60894B04221A
:10554C001A70894B00221A80884B180001F08CFBD2
:10555C0001E1874B1B78002B00D1D8E0854B1B68F1
:10556C00180000F0B9FE0200FA239B009A4200D208
:10557C00F1E07E4B180001F0CBFB02000E217B18F2
:10558C001A807B181B881800FDF7ACF87A4A7B4B05
:10559C00FCF774FA02000B0010001900FDF740F93B
:1055AC00031C7B61764B1B7806211800FAF72AFE48
:1055BC000B00DBB21A00734B92007969D150704B1F
:1055CC001B780133DAB26E4B1A706D4B1B78052BBE
:1055DC001AD900237B6100233B610CE0694B3A69CB
:1055EC009200D358191C7869FAF7AAFF031C7B6147
:1055FC003B6901333B613B69052BEFDD62497869FF
:10560C00FBF73CF9031C7B61584B180001F02CFB99
:10561C005E4B1B78013BDAB25C4B1A705B4B1B7810
:10562C00002B54D1594B09221A70514B00221A707D
:10563C00534B00221A704C4B1A88554B554802920A
:10564C00554A01926A46596811601B68020068212C
:10565C003C20FEF7BDFD514B1800FFF701F9504BF4
:10566C001B781A004F4B92007969D1503C4B682241
:10567C009A5C4B4B1B781C001000FBF7BBFD011C0C
:10568C00494BA200D150464B1B780133DAB2444B44
:10569C001A70434B1B78012B19D9434B190000206E
:1056AC0000F0F5FF3F4B1900042000F0F0FF3F4BDA
:1056BC001900082000F0EBFF3D4B19000C2000F006
:1056CC00E6FF374B00221A703A4B02221A802F4BFE
:1056DC001B783033DAB20C217B181A707B1800223D
:1056EC005A70214B1A882A4B781802922A4A019236
:1056FC006A46596811601B68020037211420FEF7B6
:10570C0067FD00F0DDFD02001A4B1A6023E01F4B11
:10571C001B78092B1FD01D4B09221A70154B002228
:10572C001A601A4B1B783033DAB20C217B181A70C2
:10573C007B1800225A700C4B1A88154B7818029261
:10574C00154A01926A46596811601B68020037219C
:10575C001420FEF73DFDBD4607B090BD440100206E
:10576C0048010020FD010020040200209C000020C4
:10577C0006020020440200206666666666664A3FA2
:10578C00480200204C0200200000C0403C000020D9
:10579C000800002044890008FFFF0000B801002029
:1057AC00640200202C00002024000020280000208F
:1057BC00300000202200002080B582B000AF78605D
:1057CC007B681800FFF74CF87B681A8A024B1A802A
:1057DC00C046BD4602B080BD2200002080B582B01C
:1057EC0000AF78607B681800FFF73AF8054B1B7820
:1057FC005A425341DBB21A00024B1A70C046BD46E6
:10580C0002B080BD06020020B0B588B006AF78604B
:10581C0080231A019023DB051100180002F024F8F4
:10582C00031E6CD1D24B01221A70D24B1B78002B69
:10583C0061D1D14B1B781A001300DB009B189B0025
:10584C001A007B689B181B78022B2DD1CA4B1B7836
:10585C001A001300DB009B189B001A007B689B1836
:10586C0020229B5C0D2B1FD8C34B1B781A001300F6
:10587C00DB009B189B001A007B689B1820229A5C0B
:10588C000132D1B220229954BB4B1B781A00130061
:10589C00DB009B189B001A007B689B189869D969E0
:1058AC001A6AFEF74DFF26E0B34B1B78013BDAB2C8
:1058BC00B14B1A70B04B1A78B04B1B789A4202D38A
:1058CC00AD4B00221A70AC4B1B781A001300DB0096
:1058DC009B189B001A007B689B186A4611001A00E3
:1058EC00103231CA31C111CA11C1186859689A688D
:1058FC00DB68FFF71FF8C82001F052F830E1802375
:10590C00DB019F4A1900100001F0AEFF031E6FD19E
:10591C00974B02221A70974B1B78002B64D1964B35
:10592C001B781A001300DB009B189B001A007B6885
:10593C009B181B78022B2DD18F4B1B781A00130050
:10594C00DB009B189B001A007B689B1820229B5C39
:10595C00002B1FD0884B1B781A001300DB009B1800
:10596C009B001A007B689B1820229A5C013AD1B2EA
:10597C0020229954804B1B781A001300DB009B18D3
:10598C009B001A007B689B189869D9691A6AFEF704
:10599C00D7FE29E0784B1B780133DAB2764B1A70BC
:1059AC00754B1A78754B1B789A4205D3734B1B7841
:1059BC00013BDAB2704B1A706F4B1B781A00130054
:1059CC00DB009B189B001A007B689B186A46110031
:1059DC001A00103231CA31C111CA11C11868596884
:1059EC009A68DB68FEF7A6FFC82000F0D9FFB7E085
:1059FC0080231A019023DB051100180001F034FFFD
:105A0C00031E34D15A4B03221A705A4B1B78002BAD
:105A1C0029D1594B1B78013BDAB2574B1A70564BB4
:105A2C001A78564B1B789A4205D3544B1B78013B82
:105A3C00DAB2514B1A70504B1B781A001300DB0072
:105A4C009B189B001A007B689B186A4611001A0071
:105A5C00103231CA31C111CA11C1186859689A681B
:105A6C00DB68FEF767FFC82000F09AFF78E0802320
:105A7C00DA009023DB051100180001F0F5FE031E7F
:105A8C0031D13B4B04221A703A4B1B78002B26D198
:105A9C00394B1B780133DAB2374B1A70364B1A7804
:105AAC00364B1B789A4202D3334B00221A70324B7E
:105ABC001B781A001300DB009B189B001A007B68F4
:105ACC009B186A4611001A00103231CA31C111CA32
