:020000040800F2
:100000000080002009510008C54E0008CB4E0008B2
:1000100000000000000000000000000000000000E0
:10002000000000000000000000000000D14E0008A9
:100030000000000000000000DB4E0008E54E000854
:10004000595100080000000059510008595100089A
:1000500059510008595100085951000859510008D8
:10006000000000005951000859510008595100087A
:10007000595100085951000859510008000000006A
:1000800059510008595100085951000859510008A8
:100090005951000859510008595100085951000898
:1000A0005951000859510008595100085951000888
:0C00B000595100085951000800000000E0
:1000BC0010B5064C2378002B07D1054B002B02D032
:1000CC00044800E000BF0123237010BD3000002065
:1000DC00000000006C6D0008044B10B5002B03D021
:1000EC000349044800E000BF10BDC04600000000FA
:1000FC00340000206C6D0008002243088B4274D33E
:10010C0003098B425FD3030A8B4244D3030B8B420C
:10011C0028D3030C8B420DD3FF22090212BA030C15
:10012C008B4202D31212090265D0030B8B4219D3F6
:10013C0000E0090AC30B8B4201D3CB03C01A524116
:10014C00830B8B4201D38B03C01A5241430B8B425E
:10015C0001D34B03C01A5241030B8B4201D30B0347
:10016C00C01A5241C30A8B4201D3CB02C01A52416E
:10017C00830A8B4201D38B02C01A5241430A8B4231
:10018C0001D34B02C01A5241030A8B4201D30B021A
:10019C00C01A5241CDD2C3098B4201D3CB01C01A34
:1001AC00524183098B4201D38B01C01A524143093E
:1001BC008B4201D34B01C01A524103098B4201D32C
:1001CC000B01C01A5241C3088B4201D3CB00C01A99
:1001DC00524183088B4201D38B00C01A5241430811
:1001EC008B4201D34B00C01A5241411A00D2014636
:1001FC00524110467047FFE701B5002000F0F0F8BF
:10020C0002BDC0460029F7D076E7704703460B4382
:10021C007FD4002243088B4274D303098B425FD3F3
:10022C00030A8B4244D3030B8B4228D3030C8B421F
:10023C000DD3FF22090212BA030C8B4202D3121205
:10024C00090265D0030B8B4219D300E0090AC30BDA
:10025C008B4201D3CB03C01A5241830B8B4201D387
:10026C008B03C01A5241430B8B4201D34B03C01A70
:10027C005241030B8B4201D30B03C01A5241C30AE8
:10028C008B4201D3CB02C01A5241830A8B4201D359
:10029C008B02C01A5241430A8B4201D34B02C01A43
:1002AC005241030A8B4201D30B02C01A5241CDD2E8
:1002BC00C3098B4201D3CB01C01A524183098B4233
:1002CC0001D38B01C01A524143098B4201D34B011C
:1002DC00C01A524103098B4201D30B01C01A52417F
:1002EC00C3088B4201D3CB00C01A524183088B4206
:1002FC0001D38B00C01A524143088B4201D34B00EF
:10030C00C01A5241411A00D2014652411046704760
:10031C005DE0CA0F00D04942031000D34042534065
:10032C0000229C4603098B422DD3030A8B4212D325
:10033C00FC22890112BA030A8B420CD38901921157
:10034C008B4208D3890192118B4204D389013AD094
:10035C00921100E08909C3098B4201D3CB01C01A69
:10036C00524183098B4201D38B01C01A524143097C
:10037C008B4201D34B01C01A524103098B4201D36A
:10038C000B01C01A5241C3088B4201D3CB00C01AD7
:10039C00524183088B4201D38B00C01A5241D9D2EF
:1003AC0043088B4201D34B00C01A5241411A00D270
:1003BC000146634652415B10104601D34042002B6C
:1003CC0000D54942704763465B1000D3404201B5EB
:1003DC00002000F005F802BD0029F8D016E77047A0
:1003EC007047C046844608006146FFE71FB500F021
:1003FC006DFB002801D40021C8421FBD10B500F0D0
:10040C00F9FA4042013010BD10B500F05FFB002836
:10041C0001DB002010BD012010BDC04610B500F05E
:10042C0055FB002801DD002010BD012010BDC04689
:10043C0010B500F005FB002801DC002010BD0120E8
:10044C0010BDC04610B500F0FBFA002801DA002000
:10045C0010BD012010BDC0469E2110B5C905041C5D
:10046C00FFF7F0FF002803D1201C00F047FE10BD61
:10047C009E21201CC90500F093FC00F03FFE802358
:10048C001B069C466044F2E7F0B5C64643025B0A85
:10049C004E0245004F00DA00C40F9C46700A90468D
:1004AC0000B52D0E3F0EC90FB6098C424BD0EA1B7E
:1004BC00002A36DD002F61D0FF2D00D1ADE0802366
:1004CC00DB041E431B2A00DCD3E001204346181A30
:1004DC00430100D48CE080018709380002F05EF8FB
:1004EC0005388740854200DCB6E02D1AB348384009
:1004FC00430704D00F230340042B00D004304301E6
:10050C0000D478E06A1CFE2D65D08001430A9C461D
:10051C00D2B26346D0051843E407204380BCB846EA
:10052C00F0BD002A35D07A1B002D00D0AFE0434639
:10053C00002B00D1A7E0531E012A00D12FE1FF2A86
:10054C0069D01A00AAE0E91B002970DD002F37D012
:10055C00FF2D62D08023DB041E431B2900DCB0E09E
:10056C0001204044430143D50135FF2D33D00123F5
:10057C00934A0340400810401843B9E7002E00D1BD
:10058C0083E0511E012A00D1D8E0FF2A45D00A0091
:10059C0098E7FE276A1C174200D086E0002D00D099
:1005AC00B7E04346002B00D1F3E00022002EB0D080
:1005BC00981B430100D4FAE043460C00F01A97E76D
:1005CC00002E00D1C8E04A1E012900D1AEE0FF295F
:1005DC0023D01100C1E70023FF229C4699E7FE219E
:1005EC006A1C114277D0FF2AF5D0150046447008DA
:1005FC00430700D07EE7C308FF2D0ED05B025B0AD9
:10060C009C46EAB285E7002E07D08022D203134223
:10061C0003D0104201D10C000300002BDBD0802052
:10062C00C00318434002430A9C46FF2271E700298D
:10063C00D5D07A1B002D60D14346002B24D0531EFD
:10064C00012A73D0FF2AE7D01A001B2A00DC85E0B0
:10065C0001203D00801985E720233A00451B380016
:10066C000135EA405D1BA840431E9841002510430C
:10067C003EE7202330009B1A31009840D140431EA6
:10068C009841084322E70C0003001500B4E7FF2F44
:10069C00C1D080234046DB04184380461B2A51DD21
:1006AC0001200C003D00301A12E743469F1B7B01D2
:1006BC002BD4002F00D010E70023002400229C46EE
:1006CC0027E7202332003000CA40591A8840431EC5
:1006DC009841104345E7002D4AD14346002B63D087
:1006EC000022002E00D114E730004044430100D416
:1006FC007EE7324B013518407AE7FF2F8CD08023F0
:10070C004146DB04194388469FE743460C00F71A21
:10071C00E3E64246002A00D075E7002E00D07AE7C7
:10072C008023DB0300249C46FF22F2E63000404489
:10073C000125430100D45BE7022518E74346012558
:10074C00981BC5E6202344464046D4409A1A904054
:10075C00431E98412043A4E70D004DE7202341465A
:10076C004046D1409A1A9040431E9841084370E786
:10077C004246002A00D14FE7002E00D14DE78022DF
:10078C00D203134200D148E7104200D045E70300E2
:10079C0043E7002E90D00C0084460022B9E6434675
:1007AC000C00F01A013593E684460022B1E60028CD
:1007BC0000D01DE7002300249C46AAE6FFFFFFFBA8
:1007CC00FFFFFF7DF0B54F464646D6464502C0B505
:1007DC0047000C1C6D0A3F0EC60F002F00D170E0B5
:1007EC00FF2F00D175E0EB008025ED041D430023A5
:1007FC0099469A467F3F6002430A984663001B0E57
:10080C00E40F002B4ED0FF2B46D04246D000802266
:10081C00D2040243904600227F3B3100FF1A4B4624
:10082C006140C9B213430F2B00D9B5E06E489B0051
:10083C00C3589F4600239846260045469246534689
:10084C00022B00D189E0032B00D19EE0012B18D0A4
:10085C003B007F33002B69DD6A0704D00F222A404E
:10086C00042A00D004352A0103D5604B1D403B00FF
:10087C008033FE2B00DD70E0AD016D0AD8B202E0D2
:10088C000E0000200025C0052843F6073043E0BCCD
:10089C00BA46B146A846F0BD4346002B3FD10222D2
:1008AC00FF3F03E04346002B2DD1012231004B4684
:1008BC006140C9B213430F2B34D84D489B00C35829
:1008CC009F46002D13D104239946033B00279A46DB
:1008DC0091E7002D05D108239946063BFF279A4640
:1008EC0089E70C239946093BFF279A4683E72800A2
:1008FC0001F054FE7627431F9D4000237F4299460A
:10090C009A463F1A77E7404601F048FE4246431F9D
:10091C009A4076235B4290461B1A00227DE7FF2308
:10092C0003227AE70E00FF200025ACE70120C01A55
:10093C001B28A6DC9E372A00BD40C2406B1E9D4181
:10094C0015436B0704D00F232B40042B00D0043528
:10095C006B0144D50120002595E7FF20002592E787
:10096C0080250026FF20ED038DE70023984680208C
:10097C00C003054209D04346034206D14546054310
:10098C006D022600FF206D0A7DE78020C003054321
:10099C006D02FF206D0A76E742466B0150018342DF
:1009AC0019D21B220025013F01261C006D005B00A3
:1009BC00002C01DB984201D81B1A3543013A002A5E
:1009CC00F3D15A1E93411D433B007F330E00002B85
:1009DC0000DD41E7AAE71A2201251B1AE4E7AD0165
:1009EC0000206D0A4FE7C046186E0008FFFFFFF7A6
:1009FC00586E000870B5420045024E024C00C30F01
:100A0C006D0A0120120E760A240EC90FFF2A06D099
:100A1C00FF2C03D0A24201D1B54206D070BD002DEF
:100A2C00FCD1FF2CFAD1002EF8D18B4206D001203C
:100A3C00002AF3D12800431E9841EFE70020EDE790
:100A4C0070B5420045024E024C00C30F6D0A120EE7
:100A5C00760A240EC80FFF2A1BD0FF2C0ED0002ABA
:100A6C001BD1002C01D1002E1CD0002D0CD08342A8
:100A7C001CD00221581E0840013870BD002E22D116
:100A8C00002AF4D1002DF2D10028F6D101204042E9
:100A9C00F3E7002D17D1FF2CF0D0002CE7D1002E5E
:100AAC00E5D1E6E70020002DE7D0E2E7A24205DC25
:100ABC00EADBB54202D8E7D30020DEE743425841D7
:100ACC0040000138D9E702204042D6E770B5420019
:100ADC0045024E024C00C30F6D0A120E760A240E0C
:100AEC00C80FFF2A0BD0FF2C0DD0002A1FD1002CD1
:100AFC0016D1002E14D10020002D10D009E0002DAD
:100B0C000CD1FF2C13D1002E08D1002A08D083421F
:100B1C0012D00221581E0840013800E0022070BD9E
:100B2C00002DF4D10028FAD101204042F7E7002C27
:100B3C00EDD1002EEBD1ECE7A24205DCF2DBB542A5
:100B4C0002D8EFD30020EAE7434258414000013875
:100B5C00E5E7C046F0B54F464646D646440245004A
:100B6C00C0B5640A0F1C2D0EC60F002D00D18DE0F0
:100B7C00FF2D00D192E00023802099469A46E40094
:100B8C00C00404437F3D7802430A98467B001B0E49
:100B9C00FF0F002B00D170E0FF2B00D186E0424606
:100BAC00D00080227F3BED180023D20402439046F4
:100BBC009C4631004B467940681C0F2B1CD8764A5A
:100BCC009B00D3589F4639004446E2465346022BBD
:100BDC000FD0032B00D1D7E0012B37D100200024FC
:100BEC00C0052043C9070843E0BCBA46B146A84635
:100BFC00F0BDFF200024F3E7260C2404220C44460D
:100C0C002404240C434627001B0C574374435A43BB
:100C1C005E4312193B0C9B189C4203D98022520252
:100C2C00944666443F041A043F0CD2199401671E83
:100C3C00BC411B0C920E9B1914439B011C431B01C2
:100C4C0000D49BE0012362081C40144302007F3255
:100C5C00002A64DD630704D00F232340042B00D04B
:100C6C000434230103D502004C4B80321C40FE2A75
:100C7C00BFDCA401640AD0B2B2E74346002B3DD1DD
:100C8C004A4601331A4391469C4692E7002C29D1DF
:100C9C0004239946033B00259A4674E7002C1BD18C
:100CAC0008239946063BFF259A466CE74346FF35D9
:100CBC00002B0BD102234A461A4391469C4678E7F7
:100CCC0053463100022B00D083E792E703234A46B8
:100CDC001A4391469C466CE70C239946093BFF2529
:100CEC009A4650E7200001F059FC7625431F9C40A2
:100CFC0000236D4299469A462D1A44E7404601F06E
:100D0C004DFC4246431F9A4000232D1A90469C46A8
:100D1C00763D4EE780240021FF20E40360E70123A9
:100D2C009B1A1B2B00DD59E722009E30DA408440D1
:100D3C001300621E94411C43630704D00F2323400D
:100D4C00042B00D0043463011AD50120002447E79A
:100D5C008020C003044209D04346034206D14446D6
:100D6C00044364023900FF20640A39E78020C00381
:100D7C00044364023100FF20640A31E7280065E770
:100D8C00A4010020640A2BE78020C0030443640202
:100D9C00FF20640A24E7C046986E0008FFFFFFF7A7
:100DAC00F8B5CE46474643025B0A4E02DA0094463B
:100DBC00720A914645004A0080B52D0E1F00C40FE3
:100DCC00120EC90FB609FF2A5BD0012041408C429C
:100DDC0039D0A81A00285ADD002A6AD0FF2D00D17C
:100DEC00D9E08022D20416431B2800DCE9E0012064
:100DFC006346181A430100D4B4E080018709380017
:100E0C0001F0CCFB05388740854200DCCCE02D1A84
:100E1C00B5483840430704D00F230340042B00D0BF
:100E2C000430430100D4A0E06A1CFE2D00D18DE0FB
:100E3C008001470AD2B2D0053843E4072043C0BC36
:100E4C00B946B046F8BDA81A8046002845DD002AF0
:100E5C0070D0FF2D00D19EE08023DB041E4343465F
:100E6C001B2B00DCD2E00120604443017AD5013514
:100E7C00FF2D6BD001239D4A0340400810401843BE
:100E8C00C8E7002E20D08C4223D02800FF38002841
:100E9C0039D0571B002D00D09DE06346002B00D1AC
:100EAC00DBE07B1E012F00D10DE1FF2F71D01F0065
:100EBC0098E0002E00D1A7E0421E012800D1E6E008
:100ECC00FF2868D010008FE701204140A14200D0DC
:100EDC007FE7FF2040428046A8444046002838D097
:100EEC00511B002D00D1AEE0FF2A00D1DFE08023A2
:100EFC006046DB04184384461B2900DCD9E0012042
:100F0C0015008019B1E7FE206A1C104271D1002D2A
:100F1C0000D0A6E06346002B00D1D9E00022002EC1
:100F2C0000D188E7981B430100D4E1E063460C0034
:100F3C00F01A6FE7002E00D1B7E00200013A012849
:100F4C0000D19CE0FF2826D0904688E7FF2200279E
:100F5C0071E7FE206A1C104264D0FF2AF6D01500FF
:100F6C0066447008430700D056E7C308FF2D12D023
:100F7C005B025F0AEAB25EE76246002A00D196E0A5
:100F8C00002E08D08022D203134204D048461042CF
:100F9C0001D10C004B46002BD8D08027FF031F43F8
:100FAC007F02FF227F0A46E720233A00451B3800C8
:100FBC000135EA405D1BA840431E984100251043B3
:100FCC0028E720231B1A32009E40C2403000431EEB
:100FDC00984110430CE7FF2ADBD080236046DB04EA
:100FEC00184384461B2F56DD01200C001500301AC7
:100FFC0000E763469F1B7B013DD4002F00D0FEE62B
:10100C0000240022002716E70500AFE73200434614
:10101C004146DA4020235B1A9E403000431E984123
:10102C00104321E7002DA7D16346002B59D0002295
:10103C00002E00D1FFE630006044430192D52A4BCC
:10104C00013518408EE76346002B47D04B1E012913
:10105C0015D0FF292BD019004EE70C004B463D0054
:10106C0084E76246002A8BD1002E92D1802700247F
:10107C00FF22FF03DFE663460C00F71ABFE63000E1
:10108C0060440125430100D46CE70225F2E6634677
:10109C000125981BAEE6202364466046FC40DF1B0E
:1010AC00B840431E984120439FE705005EE74B463E
:1010BC0071E7202365466046CD40591A8840431E8F
:1010CC00984128431CE763460C000125F01A91E671
:1010DC00002E95D00C004F460022ACE64B460D007E
:1010EC0044E74F460022A6E6FFFFFFFBFFFFFF7D14
:1010FC00002800D036E7002400279CE6410242007D
:10110C00C30F490A0020120E7E2A03DD9D2A02DD40
:10111C00094A98187047802000040143952A07DC7F
:10112C009620821AD1404842002BF3D10800F1E7F7
:10113C00963A9140F7E7C046FFFFFF7FF0B54F4668
:10114C004646D6460D000400C0B51F00110028030A
:10115C00620F400A10437A00520DE3003C039146A3
:10116C00640AFA0F4F0F6E0027439246B846760D6D
:10117C00ED0FC900954200D199E04C46341BA446B2
:10118C00002C00DC7CE04A46002A00D1B8E0C54ABD
:10119C00964200D11CE180223C0012041443A0466C
:1011AC006246382A00DD61E11F2A00DDCCE164468D
:1011BC002022121B444694400F00A14664469140E5
:1011CC00E7404C464A1E91413C434246214364460B
:1011DC00E240801A5C1AA3429B415F42C71B3B0250
:1011EC0000D4D0E07F027F0A002F00D1FFE038004E
:1011FC0001F0D4F901000839202322005B1A8F403A
:10120C00DA408C401743B14200DAFFE0891B4B1CDB
:10121C001F2B00DDA8E020223900D21A20009440B8
:10122C009140D840621E9441DF40002601430C439C
:10123C00630709D00F232340042B05D0231DA342A1
:10124C00A44164423F191C003B0200D49EE0954B24
:10125C0001369E4200D1B7E0934AE40817407B0761
:10126C0071057F0223433F0B4A0D12053A43ED07EC
:10127C002A4318001100E0BCBA46B146A846F0BD9E
:10128C00002C4BD04C46A41BA446002E00D023E1CE
:10129C0004001C4300D1AFE16246541E012A00D168
:1012AC0015E2804DAC4500D1C8E1A4461BE14A468D
:1012BC00B21A9446002A00DCACE04A46002A43D01D
:1012CC00784A964200D1AFE180223C0012041443CC
:1012DC00A0466246382A67DC1F2A00DC5FE14746DD
:1012EC00203AD7406246202A05D064464022121B81
:1012FC004446944021434A1E91410C003C4357E024
:10130C003A000A4300D105E12200013A012C00D138
:10131C0082E1644CA4455BD0944641E7634C771C56
:10132C00274200D0C4E004001C43002E00D069E129
:10133C00002C00D1BFE144460C4300D0D0E1420761
:10134C00DB081343C00829E03A000A4300D170E1DE
:10135C0062466446013A012C00D1E0E0514CA445B0
:10136C0000D161E19446B4E73A001F39CA4011003C
:10137C00202B03D04022D31A9F403C43631E9C4138
:10138C00002700260C43630700D053E7B446E4085B
:10139C007B072343F808434A94451DD06246070354
:1013AC0052053F0B520D60E744460C43621E9441BC
:1013BC00E4189C429B415F423F183B02E3D5394BFA
:1013CC0001369E4200D0B5E03200002700234CE7E6
:1013DC004207DB081343C0081A00024300D1E1E1C5
:1013EC0080273F0307433F032E4A3F0B3DE7200076
:1013FC0001F0D4F8010018311F2900DCFCE6083894
:10140C00844027000024B14200DBFFE6264A761A0E
:10141C0017400DE7002A2FD04A46921B9446002E07
:10142C0000D1ADE01F4A914500D10FE1802212049A
:10143C0010436246382A00DD0FE11F2A00DD80E1EF
:10144C00644620221E00121B674604009340944001
:10145C00FE405A1E9341F84034431C4380446418A8
:10146C008C42BF417F424E464744A6E742460A4360
:10147C0011004A1E9141ADE60C4C721C224200D068
:10148C00A1E002001A43002E00D0FAE0002A00D19D
:10149C0045E13A000A4300D046E14207DB0813431A
:1014AC00C0087BE7FF070000FFFF7FFFFE0700007F
:1014BC0047465C1AC21BA342BF417F42B946170084
:1014CC004A46BF1A3A0200D58DE023003B4300D0B8
:1014DC008AE60020002561E7B44CA14500D1ADE0BF
:1014EC008024240420436446382C3DDC62461F2CA7
:1014FC0000DDB7E020251E002D1B0400AB40AC40E6
:10150C00D640D04042465D1EAB413443121A904641
:10151C0023432CE04207DB081343C0083BE75C186D
:10152C009C429B4140445B42C71801263B0200D4BD
:10153C0029E702269E4A63081740012214401C43E7
:10154C00FB071C437F0873E64446203AD4406246AE
:10155C00202A05D067464022D21B47469740394384
:10156C004A1E9141214335E60343581E8341CC1A50
:10157C00A142BF4143467F4255464E46DF1B2EE6F5
:10158C0002001A4300D1BDE062466446013A012CC8
:10159C0000D1E5E0854CA44558D0944649E7644613
:1015AC002022121B444694400F00A14664469140F1
:1015BC00E7404C464A1E91413C4342460C4361462F
:1015CC00CA408018F4E6794CA24200D1FDE65918C5
:1015DC0099429B4140445F42C719FC0749081600D9
:1015EC000C437F08CFE6CC1AA142BF4143467F4251
:1015FC00181A5546C71BF7E5C9087B0755460B4318
:10160C00F808C8E6002C00D081E043460B4315D106
:10161C00802000250003E3E65C1AA3429B41C71B14
:10162C005B420126FF1ADAE54207DB081343C008C8
:10163C00D2E64207DB081343C008ACE643464246F9
:10164C00C9085B0755460B43D008C5E643464246DE
:10165C005B07C9080B43D008BEE603431C00631E9E
:10166C009C41FCE60200203CE24014006246202A29
:10167C0003D04025AD1AA8400343581E8341234391
:10168C0075E7002AE2D03A000A43CDD04207DB08C6
:10169C0013438022C0081203104206D0FC081442E7
:1016AC0003D12000CB087A0713435A0FDB005207F3
:1016BC00DB08134390E643460B4300D109E743464E
:1016CC004246C9085B0755460B43D00866E6CC1A60
:1016DC00A14289413F1A4942554601267F1A7EE5AF
:1016EC0042465C1A871AA34292415242BF1A3A02EE
:1016FC003DD5CC1AA1428941434649421F1A554651
:10170C007F1A95E57B07C9080B43F80843E6444666
:10171C00DB080C4330D142071343C0085CE67B075F
:10172C00C9080B43F80839E65C189C429B414044BD
:10173C005B42C7183B0200D425E61D4B01261F4017
:10174C0021E60400203AD4406246202A04D04022EC
:10175C006646921B904003435A1E93411C437EE6FF
:10176C005C188C428941404449424718DDE623000D
:10177C003B4300D1ADE606E6440723438024C00872
:10178C002403204208D04246D608264204D15546AE
:10179C003000CB0851070B435A0FDB00DB08520714
:1017AC00134319E60023014A1F005EE5FF07000002
:1017BC00FFFF7FFFF0B557464E464546DE46E0B587
:1017CC0098460C034B000600924687B0240B5B0D29
:1017DC00CF0F002B00D15CE1D94A934200D175E1C7
:1017EC00420FE4001443802212041443D54AC5006E
:1017FC00944663440093002399469B4643464246D5
:10180C001E03D20F5B0050469046360B5B0D00D189
:10181C0020E1CB4A934200D162E1CA49420F8C4687
:10182C0000996344F6008C46164380229C441204B3
:10183C0063461643C20000200093009943460131D1
:10184C008C4649467B4001930F2926D8BE4B890014
:10185C0059588F46434601933400150083465B4626
:10186C00022B16D0032B00D103E2012B00D0CDE0CC
:10187C00002200240025019B12052243DB071A439A
:10188C002800110007B0F0BCBB46B246A946A046E2
:10189C00F0BD00240025AA4AEDE7280C2D042D0CE0
:1018AC002B00110C1204120C5343984613002F00FA
:1018BC00434399464F434F44BB4647460B003F0CAE
:1018CC00BA464343DA440293D14504D980277F02B8
:1018DC00B9464B44029353461B0C9B4653461F047C
:1018EC0043461B041B0C98463B0043440493330CA7
:1018FC003604360C984633004343994643464343DB
:10190C002F009A46434677435D43380C4D444519A6
:10191C00A94503D980235B029946CA443F04280C8D
:10192C003F0C2D04ED19270C2404240C030020007B
:10193C0050437A4391463A0053440593030C9A461C
:10194C004A43614349445144AB44894503D98023FC
:10195C005B0299464A4400040B0C000C090409185C
:10196C0020009946434670435C437E435F43030C1F
:10197C009846A41944444A440397A64204D98023A8
:10198C005B029846474403972304029E9A46059BA4
:10199C005E449846AE42AD4176188E4289410004B1
:1019AC00000C504440446D424719B8469346494296
:1019BC008946C344D94498428041A845AD419345DA
:1019CC009241894589416D4240422843240C524240
:1019DC0049420A43039B00198018C7184B46DC0D7B
:1019EC00049B75021D436A1E95414B46F60D7F0202
:1019FC0035435A023C431543FB0100D41CE1012141
:101A0C006A080D401543E207154364084F496144C9
:101A1C00002900DCB0E06B0709D00F222A40042A11
:101A2C0005D02A1DAA42AD416D4264191500E3018F
:101A3C0004D58021464AC90014406144454A91426C
:101A4C0000DD26E76207ED08640249051543240B07
:101A5C004A0D10E75246324300D17FE0002E00D1F0
:101A6C00DCE0300000F09AFD02000B3A1D2301006F
:101A7C009B1A52460839DA408E40164352468A4029
:101A8C00009B3549181A03008C46634400200093D0
:101A9C00D3E6250005434AD0002C00D1B0E020004D
:101AAC0000F07CFD010002000B391D2310005B1AB5
:101ABC003100350008388440D94085400C43264815
:101ACC00831A0093002399469B4697E6050025430D
:101ADC0026D1082200930223002491469B468DE6D2
:101AEC005246009B324310D1154900268C46634464
:101AFC004946009302231943894602209DE65B4622
:101B0C000197022B00D0ADE6C3E60D4A03209446A4
:101B1C0063444A46009303231A43914652468CE68B
:101B2C000C2200930323050091469B4666E6042392
:101B3C00994600230093013300249B465EE6C04681
:101B4C00FF07000001FCFFFFD86E0008FF03000038
:101B5C00FFFFFFFEFE0700000DFCFFFF49460123BF
:101B6C00194389460026012067E6002380240025BE
:101B7C00434A019324037EE60120401A382800DDF5
:101B8C0076E61F285BDD1F2223005242511ACB4000
:101B9C001900202803D03B4A6244944025436A1E16
:101BAC0095412A000A4307210D00002415401142DB
:101BBC005BD00F2100241140042953D0111D9142F8
:101BCC0092415242A4180A0023024BD50122002450
:101BDC00002550E680231B031C4209D01E4207D16E
:101BEC0033431C0343461500240B254A019342E65C
:101BFC008022120314432403214A240B01973AE652
:101C0C0000F0CCFC01000200153120321C2900DC54
:101C1C004BE7340008380025844050E700F0BEFC48
:101C2C0003001A00153220301C2A00DC1EE7564631
:101C3C00083B00229E4023E7009B9C46E6E61249A7
:101C4C00220061442E008D408A40C640691E8D41A1
:101C5C0032432A43C4405307B6D00F211140042904
:101C6C00ACD1B1E765076402240BD20815430022FE
:101C7C0001E68022120314432403014A240BFAE5E3
:101C8C00FF0700003E0400001E040000F8B5574694
:101C9C004E464546DE46E0B51E0017004A000B03D3
:101CAC00520D5B0A9046420F1A43CD0FCD4C3103B7
:101CBC00C300944670007A0F490AFF009A46B94651
:101CCC00400DF60F1143A04200D1B1E00122564065
:101CDC00B346B54200D188E04246121A002A00DC15
:101CEC00AEE0002800D1C1E0BE48804500D151E1F2
:101CFC00802000040143382A00DD7BE11F2A00DD2F
:101D0C00EEE120203E00801A0C00D640D1408740E6
:101D1C0062468440521A781E8741944634432743C6
:101D2C00DC1BA3429B4162465B42D31A99464B464D
:101D3C001B0200D418E14B465802430A99464B4605
:101D4C00002B00D137E1484600F028FC010008398F
:101D5C002023220048465B1ADA4088408C404346D8
:101D6C001043884500DD36E1C91A4B1C1F2B00DDE2
:101D7C00EAE020222600D21A01009440DE40D8402E
:101D8C0000239140621E94418146984631430C4396
:101D9C00630709D00F232340042B05D0231DA34236
:101DAC00A4416442A1441C004B461B0200D4DEE05B
:101DBC0041468C4B0131994200D1E7E04B468A48B1
:101DCC00E4080340180049055B07400223434A0D11
:101DDC00040B1205ED0722432A4318001100F0BC36
:101DEC00BB46B246A946A046F8BD4246121A002A86
:101DFC0052DD002800D19CE0A04500D1CAE0802033
:101E0C0000040143382A00DD49E11F2A00DC97E178
:101E1C0010000E002038C640202A04D04020821A20
:101E2C0091400F43B9464C46621E944134433AE10B
:101E3C000A003A4328D0B346B5422BD06B4A4244F1
:101E4C00002A5DD042464446821A002C00D0F5E0B0
:101E5C0065461D4300D19CE1551E012A00D1FBE1D2
:101E6C00604CA24200D1BDE12A00F0E008003843EA
:101E7C0000D1C3E0501E012A00D1A8E1594CA24266
:101E8C0000D187E0020036E701225640B346B54246
:101E9C0000D021E7554A4244002A00D1B5E0424621
:101EAC004446821A002C00D138E14E4EB04200D18B
:101EBC00DEE18026644636043443A446382A00DD2D
:101ECC0096E11F2A00DD24E22026B41AA2466446BD
:101EDC005646B440A1461C004E46D440264334001E
:101EEC005646B3405E1EB3411C436346D340C918EB
:101EFC00E419BC42BF417F42B94680468944D8E0D0
:101F0C0040463B4C0130204200D0B4E04046002813
:101F1C0000D044E16046184300D190E108003843FA
:101F2C0000D0AAE16146DB0849070B436146CC08A7
:101F3C0027E00800384361D0501E012A00D139E156
:101F4C00A24227D002005DE702001F39CA401100EF
:101F5C00202B03D04022D31A98400443631E9C418B
:101F6C000023994698460C43630700D012E74B4672
:101F7C004A46E4085B072343D408424619498A427F
:101F8C000ED024035205240B520D22E70A00002424
:101F9C0000231EE7DB086246520713436246D4084F
:101FAC001A00224300D1FCE18022120314432403C3
:101FBC000C4A240B0DE7200000F0F0FA0100183158
:101FCC001F2900DCC4E60838844043462000002466
:101FDC00884500DCC8E6044A5B1A104098468146E6
:101FEC00D6E6C046FF070000FFFF7FFF01F8FFFFAA
:101FFC00FE0700000F437A1E974191E66146DB080D
:10200C0049070B436146CC08B8E74046D34C013036
:10201C00204200D0A2E04046002800D001E16046FA
:10202C00184300D15EE10800384300D05FE16146FF
:10203C00DB0849070B436146CC08A2E7C84DA84210
:10204C0000D1CFE0802564462D042C43A446382AC9
:10205C0056DC1F2A00DDD1E020251E00AD1A644697
:10206C00AB40AC40D6405D1EAB4134432343644689
:10207C00D440091B49E06046DC1B461AA342804150
:10208C004042814630004E46801B8146000276D489
:10209C004B46234300D052E60024002571E7394318
:1020AC000C00621E9441E4189C429B415B426344C9
:1020BC0099464B461B0200D456E701239C46A84B7D
:1020CC00E044984538D04B46A648012203401800FE
:1020DC00630814401C43C3071C434308994657E646
:1020EC0010000E002038C640202A04D04020821A4E
:1020FC0091400F43B9464F467A1E974137430FE63E
:10210C0062461A4313005A1E9341FC1AA742BF4160
:10211C007F42CB1B99465D46804608E666461E43C9
:10212C0000D1BEE0561E012A00D109E18C4CA2421E
:10213C0000D119E13200C1E642460024002348E6F2
:10214C0020200C00801A3E0087408440D640781E28
:10215C008741D14034433C438C44A4E7804A9042AD
:10216C0000D1E9E0DF199F429B4161445B42C918F1
:10217C00CC077F084B08994680463C43F4E6FC1A92
:10218C00A742BF4163467F42C91ACB1B99465D46A5
:10219C00D5E5FF084B075D463B43CC08EEE66246AF
:1021AC001A4300D082E00B003B431BD18024002556
:1021BC002403F9E6DC199C429B41614489465B424D
:1021CC0099444B461B0244D401239846CCE6DC1BB5
:1021DC006246A3429B41511A5B42CB1A994601239A
:1021EC009846A4E5FF084B075D463B43CC08D7E671
:1021FC0062461A431400631E9C4179E6150064463E
:10220C00203DEC40A046202A05D040256446AA1A61
:10221C00944023439A465446631E9C4143462343B1
:10222C0073E762461A4323D00A003A4300D0A0E079
:10223C006246DB08520713436246D408B0E60B0033
:10224C003B4300D128E7FF084B075D463B43CC08D6
:10225C0097E60223984636E7FC1AA742BF4163462D
:10226C007F42C91ACB1B994601235D4698465EE511
:10227C004B07FF083B43CC0892E6DC1B6046A342AD
:10228C00B641401A7642801B8146000260D5FC1A8A
:10229C00A742BF4163467F42C91ACB1B99465D4694
:1022AC0076E5FF084B073B43CC0867E60A00DB08E2
:1022BC003A4300D16FE66246520713436246D40894
:1022CC0080221203144207D0C808104204D15D4684
:1022DC000400FB0849070B435A0FDB00DB085207CD
:1022EC0013435DE64B07FF083B43CC0849E6DC197A
:1022FC009C429B41614489465B4299444B461B027C
:10230C0000D431E64A46174B1A40012391469846B1
:10231C002AE616006446203EF440A046202A05D04A
:10232C0040266446B21A944023439A465446631E90
:10233C009C4143461C43DBE502000024002348E596
:10234C00DC19BC42BF41614489467F42B94438E73D
:10235C004B46234300D19FE606E6C046FE0700002D
:10236C00FF070000FFFF7FFFFF084B073B43CC0834
:10237C0016E66246DB08520713436246D4088022F5
:10238C001203144207D0C808104204D15D46040061
:10239C00FB0849070B435A0FDB005207DB081343BA
:1023AC00FEE50023014A1C0013E5C046FF070000B0
:1023BC0010B5041E10D000F0F1F80F4B1B1A0A28B0
:1023CC0011DC0B222100121AD14015300A035B05D7
:1023DC008440120B5B0D01E0002300221B0513430C
:1023EC002000190010BD22000B3882405B0512033F
:1023FC000024120B5B0DF1E71E04000070B54300C6
:10240C004602C40FFE201B0E591C750A08420CD044
:10241C00E022920094466D07360B63441B05334350
:10242C00E40723432800190070BD002B14D1002DA4
:10243C001BD0280000F0B2F80A281CDC0B232E005D
:10244C001B1ADE40030015339D400E4A3603121A48
:10245C005205360B530DE1E7002D09D08022360BC7
:10246C001203094B6D071643D8E700230026D5E766
:10247C000026054BD2E703000B3B9D402E000025A8
:10248C00E3E7C04689030000FF07000002004B0091
:10249C00F0B55B0D0C033D4E640A400F5F1CC90F79
:1024AC000443D50037420AD039481E18FE2E16DDDB
:1024BC00FF200024C0052043C9070843F0BD002BB2
:1024CC0006D12C4326D005229201540AD8B2F1E74A
:1024DC002543EDD08020C0030443FF20EAE7002E03
:1024EC001BDD9201531E9A41E4006D0F22432A43D7
:1024FC00530748D00F231340042B00D00432802301
:10250C00DB0413403FD0701CFE2ED1D09201540A34
:10251C00C0B2CFE700200024CCE73200173222DB18
:10252C008020000420431E24A41B1F2C1DDD02222E
:10253C005242961B0200F2401600202C04D0154A81
:10254C0094466344984005432A00531E9A413243F3
:10255C0000265307CED180241300E404012023402D
:10256C002242D3D1B0E70023ADE70B4A94462A00B0
:10257C00E24014002A0063449A409840551EAA4138
:10258C0002432243E4E733009EE7C046FE07000007
:10259C0080FCFFFFA2FCFFFF82FCFFFF1C2101233C
:1025AC001B04984201D3000C10391B0A984201D32A
:1025BC00000A08391B09984201D30009043902A208
:1025CC00105C40187047C04604030202010101016F
:1025DC00000000000000000090B583B000AF0400C4
:1025EC0008001100BB1D221C1A803B1D021C1A8006
:1025FC00BB1C0A1C1A80BB1D18883B1D1988BB1CF0
:10260C001B881A0001F0A0FAC046BD4603B090BD6D
:10261C00B0B584B002AF05000C0010001900BB1D52
:10262C002A1C1A803B1D221C1A80BB1C021C1A80FF
:10263C003B000A1C1A80BB1D18883B1D1988BB1C4B
:10264C001A883B001C881823FB181B880093230056
:10265C0001F0F6FBC046BD4602B0B0BD90B583B0EC
:10266C0000AF040008001100BB1D221C1A803B1D8A
:10267C00021C1A80BB1C0A1C1A80BB1C1A883B1D2E
:10268C000021595EBB1D00201B5E1800FFF7A4FF44
:10269C00C046BD4603B090BDB0B588B000AF0500D4
:1026AC000C0010001900BB1D2A1C1A803B1D221C9B
:1026BC001A80BB1C021C1A803B000A1C1A803B00AF
:1026CC0000229A5E3B1D00215B5ED31AD9175A1863
:1026DC004A40BB1C0021595EBB1D00201B5ECB1A5F
:1026EC00D9175B184B4001219A4201DC0023191CBD
:1026FC00CAB21A217B181A807B1800229B5E002B11
:10270C0019D018217B18BA1D12881A80BB1D3A1DCE
:10271C0012881A803B1D7A1812881A8016217B1891
:10272C00BA1C12881A80BB1C3A0012881A803B0013
:10273C007A1812881A80BA1DBB1C0021525E002127
:10274C005B5E9A4219DD14217B18BA1D12881A801F
:10275C00BB1DBA1C12881A80BB1C7A1812881A80EE
:10276C0012217B183A1D12881A803B1D3A001288E0
:10277C001A803B007A1812881A80BB1C1A88BB1D61
:10278C001B88D31A9AB210217B181A803B000022A6
:10279C009A5E3B1D00201B5ED31AD8171A184240B4
:1027AC000E23FB181A801E23FA187B1800215B5E7F
:1027BC00002B00DA01335B1013803A1D3B00002123
:1027CC00525E00215B5E9A4204DA1C23FB18012244
:1027DC001A804DE01C23FB18012252421A8047E05C
:1027EC001A23FB1800229B5E002B0CD03023FB1805
:1027FC001A88BB1D0021595E3B1D00201B5E180072
:10280C00FFF72CFF0BE03023FB181A883B1D00212F
:10281C00595EBB1D00201B5E1800FFF71FFF1E2119
:10282C007B181A880E23FB181B88D31A9AB27B18B4
:10283C001A807B1800229B5E002B11DA3B1D1A8834
:10284C001C23FB181B88D3189AB23B1D1A807B18CB
:10285C001A881023FB181B88D3189AB27B181A807D
:10286C00BB1D00229B5E9BB201339AB2BB1D1A802A
:10287C00BA1DBB1C0021525E00215B5E9A42AFDD8B
:10288C00C046C046BD4608B0B0BDB0B584B002AFBE
:10289C0005000C0010001900BB1D2A1C1A803B1DE2
:1028AC00221C1A80BB1C021C1A803B000A1C1A80BA
:1028BC003B1D1A88BB1C1B88D3189BB2013B9BB2D7
:1028CC001CB2BB1D00229A5E3B1D0021595EBB1D34
:1028DC000020185E3B001B8800932300FFF7DCFEF2
:1028EC00C046BD4602B0B0BDB0B584B002AF050065
:1028FC000C0010001900BB1D2A1C1A803B1D221C49
:10290C001A80BB1C021C1A803B000A1C1A80BB1DBF
:10291C001A88BB1C1B88D3189BB2013B9BB21AB202
:10292C003B1D00241C5F3B1D0021595EBB1D00207C
:10293C00185E3B001B8800932300FFF7ADFEC046DA
:10294C00BD4602B0B0BDF0B587B000AF05000C00BD
:10295C0010001900BB1D2A1C1A803B1D221C1A805A
:10296C00BB1C021C1A807B1C0A1C1A70BB1C1B880B
:10297C000122D31A9AB21623FB181A801423FB18BF
:10298C0001221A80BB1C1B881A1CD203D31ADB1819
:10299C009AB21223FB181A801023FB1800221A80FB
:1029AC000E23FB18BA1C12881A80FEE016217B1825
:1029BC0000229B5E002B17DB0E203B1800229B5E37
:1029CC009BB2013B9AB23B181A8012203B181B8811
:1029DC0002339AB23B181A807B181A883B181B8852
:1029EC00D3189AB27B181A8010217B1800229B5E98
:1029FC009BB201339AB27B181A8014203B181B88A7
:102A0C0002339AB23B181A8016243B191A883B18C9
:102A1C001B88D3189AB23B191A807B1C1B78042292
:102A2C0013402CD0BB1D1A880C007B181B88D318A4
:102A3C009BB218B23B1D1A880E257B191B88D31824
:102A4C009BB219B228260823F218D3191B881A0036
:102A5C00FFF704FEBB1D1A887B191B88D3189BB289
:102A6C0018B23B1D1A883B191B88D3189BB219B29C
:102A7C000823F318DB191B881A00FFF7EFFD7B1CEA
:102A8C001B78022213402CD0BB1D1A8810243B1932
:102A9C001B88D3189BB218B23B1D1A880E257B19C4
:102AAC001B88D31A9BB219B228260823F218D31903
:102ABC001B881A00FFF7D2FDBB1D1A887B191B88D7
:102ACC00D3189BB218B23B1D1A883B191B88D31A1A
:102ADC009BB219B20823F318DB191B881A00FFF7F5
:102AEC00BDFD7B1C1B78082213402CD0BB1D1A8803
:102AFC000E243B191B88D31A9BB218B23B1D1A88A3
:102B0C0010257B191B88D3189BB219B228260823D1
:102B1C00F218D3191B881A00FFF7A0FDBB1D1A88E9
:102B2C007B191B88D31A9BB218B23B1D1A883B1910
:102B3C001B88D3189BB219B20823F318DB191B8816
:102B4C001A00FFF78BFD7B1C1B78012213402CD045
:102B5C00BB1D1A880E243B191B88D31A9BB218B2C2
:102B6C003B1D1A8810257B191B88D31A9BB219B2EE
:102B7C0028260823F218D3191B881A00FFF76EFDBC
:102B8C00BB1D1A887B191B88D31A9BB218B23B1D2C
:102B9C001A883B191B88D31A9BB219B20823F31855
:102BAC00DB191B881A00FFF759FD1023FA180E23A6
:102BBC00FB180021525E00215B5E9A4200DAF5E6BA
:102BCC00C046C046BD4607B0F0BDB0B586B000AF3C
:102BDC0005000C0010001900BB1D2A1C1A803B1D9F
:102BEC00221C1A80BB1C021C1A807B1C0A1C1A702B
:102BFC00BB1C1B880122D31A9AB21623FB181A800D
:102C0C001423FB1801221A80BB1C1B881A1CD2032C
:102C1C00D31ADB189AB21223FB181A8010217B18D6
:102C2C0000221A800E203B18BA1C12881A800C2322
:102C3C00FB187A1812881A800A23FB183A18128883
:102C4C001A8028217B1800229B5E9BB201339AB21A
:102C5C007B181A80E2E016217B1800229B5E002B69
:102C6C0017DB0E203B1800229B5E9BB2013B9AB2F5
:102C7C003B181A8012203B181B8802339AB23B185F
:102C8C001A807B181A883B181B88D3189AB27B18A9
:102C9C001A8010217B1800229B5E9BB201339AB2E2
:102CAC007B181A8014203B181B8802339AB23B18ED
:102CBC001A8016243B191A883B181B88D3189AB211
:102CCC003B191A800E243A197B180020125E002042
:102CDC001B5E9A4245DB7B1C1B78012213401CD0E7
:102CEC00BB1D1A887B181B88D3189BB218B23B1DCE
:102CFC001A883B191B88D31A9BB219B23B191B8833
:102D0C00DB189AB22823FB181B88D3189BB21AB273
:102D1C002C23FB181B88FFF7B8FD7B1C1B780222A9
:102D2C0013401ED0BB1D1A881023FB181B88D31A06
:102D3C009BB218B23B1D1A880E243B191B88D31A60
:102D4C009BB219B23B191B88DB189AB22823FB18CB
:102D5C001B88D3189BB21AB22C23FB181B88FFF7C5
:102D6C0094FD0E23FA180A217B180020125E002015
:102D7C001B5E9A424CD07B1C1B78012213401DD049
:102D8C00BB1D1A887B181B88D3189BB218B23B1D2D
:102D9C001A880C243B191B88D31A9BB219B23B1905
:102DAC001B88DB189AB22823FB181B88D3189BB2FC
:102DBC001AB22C23FB181B88FFF767FD7B1C1B78B2
:102DCC00022213401ED0BB1D1A880A23FB181B8835
:102DDC00D31A9BB218B23B1D1A880C243B191B88C2
:102DEC00D31A9BB219B23B191B88DB189AB2282351
:102DFC00FB181B88D3189BB21AB22C23FB181B8808
:102E0C00FFF743FD0A23FB180E22BA1812881A800A
:102E1C000C23FB181022BA1812881A801023FA18E7
:102E2C000E23FB180021525E00215B5E9A4200DAF1
:102E3C0011E7C046C046BD4606B0B0BDB0B582B0C5
:102E4C0000AF05000C0010001900BB1D2A1C1A80D5
:102E5C003B1D221C1A80BB1C021C1A803B000A1C46
:102E6C001A8018257B191C88BB1C00229A5E3B1DFE
:102E7C000021595EBB1D0020185E2300FFF734FDB6
:102E8C003B1D1A883B001B88D3189BB2013B9BB29D
:102E9C0019B27B191C88BB1C00229A5EBB1D00203A
:102EAC00185E2300FFF720FD7B191C883B000022D5
:102EBC009A5E3B1D0021595EBB1D0020185E23004D
:102ECC00FFF7E3FCBB1D1A88BB1C1B88D3189BB2F5
:102EDC00013B9BB218B27B191C883B0000229A5E06
:102EEC003B1D0021595E2300FFF7CFFCC046BD46B9
:102EFC0002B0B0BDF0B587B002AF05000C001000F9
:102F0C001900BB1D2A1C1A803B1D221C1A80BB1CDD
:102F1C00021C1A803B000A1C1A803B00BA1C108849
:102F2C001B8819B202B2914200DD031C1BB20E22A7
:102F3C00BA18002B00DA01335B101380202008250F
:102F4C004319DB190E24391900229A5E0023CB5E3B
:102F5C009A4204DD4319DB193A1912881A80BB1DF9
:102F6C001A88202508242B19DB191B88D3189BB22F
:102F7C0018B2BB1C1A882B19DB191B88DB189BB2E7
:102F8C00D31A9BB21AB224263319DB191C883B1DA9
:102F9C000021595E2300FFF7A7FCBB1D1A880824EB
:102FAC002B19DB191B88D3189BB218B23B1D1A883E
:102FBC003B001B88D3189BB2013B9BB219B2BB1CC4
:102FCC001A882B19DB191B88DB189BB2D31A9BB2FE
:102FDC001AB23319DB191B88FFF786FC3B1D1A88C4
:102FEC002B19DB191B88D3189BB219B23B001A881A
:102FFC002B19DB191B88DB189BB2D31A9BB21AB2A4
:10300C003319DB191C88BB1D0020185E2300FFF749
:10301C003CFCBB1D1A88BB1C1B88D3189BB2013B04
:10302C009BB218B23B1D1A8808242B19DB191B887C
:10303C00D3189BB219B23B001A882B19DB191B88C9
:10304C00DB189BB2D31A9BB21AB23319DB191B884B
:10305C00FFF71BFCBB1D1A882B19DB191B88D31817
:10306C009BB218B23B1D1A882919CB191B88D3188F
:10307C009BB219B22C000823EA18D31900229A5ECD
:10308C0035000826AB19DB191B8800930123FFF7C9
:10309C005AFCBB1D1A88BB1C1B88D3189AB2310072
:1030AC006318DB191B88D31A9BB2013B9BB218B275
:1030BC003B1D1A880E00A319DB191B88D3189BB271
:1030CC0019B2A319DB1900229A5EAB19DB191B8804
:1030DC0000930223FFF737FCBB1D1A88BB1C1B880F
:1030EC00D3189AB221008B19DB191B88D31A9BB207
:1030FC00013B9BB218B23B1D1A883B001B88D318AE
:10310C009AB20C00A319DB191B88D31A9BB2013B92
:10311C009BB219B2A319DB1900229A5EAB19DB1909
:10312C001B8800930423FFF70EFCBB1D1A8821009B
:10313C008B19DB191B88D3189BB218B23B1D1A884C
:10314C003B001B88D3189AB20C008B19DB191B8817
:10315C00D31A9BB2013B9BB219B2A319DB19002203
:10316C009A5EAB19DB191B8800930823FFF7EBFB66
:10317C00C046BD4605B0F0BDF0B587B002AF050046
:10318C000C0010001900BB1D2A1C1A803B1D221CB0
:10319C001A80BB1C021C1A803B000A1C1A803B00C4
:1031AC00BA1C10881B8819B202B2914200DD031CB4
:1031BC001BB20E22BA18002B00DA01335B101380FD
:1031CC00202008254319DB190E24391900229A5E98
:1031DC000023CB5E9A4204DD4319DB193A1912889D
:1031EC001A80BB1D1A88202508242B19DB191B8873
:1031FC00D3189BB218B2BB1C1A882919CB191B887F
:10320C00DB189BB2D31A9BB21AB23B0000241C5F92
:10321C003B1D0021595E24260823F318DB191B885B
:10322C0000932300FFF7F4F9BB1D1A88BB1C1B8805
:10323C00D3189AB208242B19DB191B88D31A9BB20A
:10324C00013B9BB218B23B1D1A882B19DB191B884A
:10325C00D3189BB219B23B001A882B19DB191B88A7
:10326C00DB189BB2D31A9BB2013B9BB21AB22B193F
:10327C00DB1900241C5F0823F318DB191B8801934E
:10328C00009201232200FFF7A0FCBB1D1A882C0022
:10329C0008256319DB191B88D3189BB218B23B1D88
:1032AC001A886319DB191B88D3189BB219B23B001F
:1032BC001A886319DB191B88DB189BB2D31A9BB2D3
:1032CC00013B9BB21AB26319DB1900241C5F731902
:1032DC00DB191B880193009202232200FFF775FC77
:1032EC00C046BD4605B0F0BDB0B58EB000AF050010
:1032FC000C0010001900BB1D2A1C1A803B1D221C3F
:10330C001A80BB1C021C1A803B000A1C1A803A1D36
:10331C003B000021525E00215B5E9A4219DD2621A2
:10332C007B183A1D12881A803B1D3A0012881A80AD
:10333C003B007A1812881A8024217B18BA1D128837
:10334C001A80BB1DBA1C12881A80BB1C7A181288F2
:10335C001A803A004C217B180020125E00201B5E64
:10336C009A421ADD22203B187A1812881A807B1890
:10337C003A0012881A803B003A1812881A802021D1
:10338C007A1848203B181B8813803B18BA1C1288EB
:10339C001A80BB1C7A1812881A803A1D3B00002137
:1033AC00525E00215B5E9A4219DD1E217B183A1D8C
:1033BC0012881A803B1D3A0012881A803B007A183A
:1033CC0012881A801C217B18BA1D12881A80BB1D0A
:1033DC00BA1C12881A80BB1C7A1812881A803A1DE3
:1033EC004C23FB180021525E00215B5E9A4258D19F
:1033FC0034203B18BA1D12881A8036217B183A18D3
:10340C0012881A80BA1C7B180020125E00201B5EEA
:10341C009A4204DA7B18BA1C12881A800CE0BA1C87
:10342C0034217B180020125E00201B5E9A4203DDC3
:10343C007B18BA1C12881A8048203B18362439197C
:10344C0000229A5E0023CB5E9A4204DA3A193B18AA
:10345C001B8813800DE048203B18342439190022B6
:10346C009A5E0023CB5E9A4203DD3A193B181B8807
:10347C0013803423FB181A8836203B181B88D31A68
:10348C009BB201339BB21AB25023FB181C883B1D14
:10349C000021595E3B180020185E2300FFF724FA28
:1034AC0051E1BB1C1A88BB1D1B88D31A9AB21A2374
:1034BC00FB181A803B001A883B1D1B88D31A9AB242
:1034CC001823FB181A8048203B181A88BB1D1B8830
:1034DC00D31A9AB21623FB181A804C217B181A881F
:1034EC003B1D1B88D31A9AB21423FB181A803B1865
:1034FC001A88BB1C1B88D31A9AB21223FB181A8089
:10350C007B181A883B001B88D31A9AB21023FB181D
:10351C001A800023FB620023BB623A007B18002157
:10352C00525E00215B5E9A4205D13023FB183A00B3
:10353C0012881A8006E03B001B88013B9AB23023AC
:10354C00FB181A803223FB183A1D12881A8065E08A
:10355C001823FB1800229B5E1900F86AFCF756FE34
:10356C0003009AB2BB1D1B88D3189AB236243B19A0
:10357C001A801423FB1800229B5E1900B86AFCF712
:10358C0045FE03009AB2BB1D1B88D3189AB2342196
:10359C007B181A801A23FB1800229B5EFA6AD31838
:1035AC00FB621623FB1800229B5EBA6AD318BB621F
:1035BC003A197B180020125E00201B5E9A420CDD2B
:1035CC000C203B183A1912881A803B197A18128869
:1035DC001A807B183A1812881A803423FB181A8820
:1035EC0036203B181B88D31A9BB201339BB21AB2FC
:1035FC005023FB181C8832257B190021595E3B187F
:10360C000020185E2300FFF76FF929007B180022B9
:10361C009B5E9BB201339AB27B181A8032203A1807
:10362C003023FB180021525E00215B5E9A428FDD35
:10363C001223FB1800229B5E3A180021515E3A00BF
:10364C000024125F8A1A5343FB621623FB180022D4
:10365C009B5E3A180021515E3A1D0020125E8A1AB8
:10366C005343BB6265E01023FB1800229B5E1900DC
:10367C00F86AFCF7CBFD03009AB2BB1C1B88D3186D
:10368C009AB236243B191A801423FB1800229B5E35
:10369C001900B86AFCF7BAFD03009AB2BB1D1B886F
:1036AC00D3189AB234217B181A801223FB180022EB
:1036BC009B5EFA6AD318FB621623FB1800229B5EF2
:1036CC00BA6AD318BB623A197B180020125E00202C
:1036DC001B5E9A420CDD0E203B183A1912881A8098
:1036EC003B197A1812881A807B183A1812881A809B
:1036FC003423FB181A8836203B181B88D31A9BB22C
:10370C0001339BB21AB25023FB181C8832257B194B
:10371C000021595E3B180020185E2300FFF7E4F8E7
:10372C0029007B1800229B5E9BB201339AB27B1856
:10373C001A803223FA184C23FB180021525E002108
:10374C005B5E9A428FDDBD460EB0B0BD80B584B0D5
:10375C0002AF0200BB1D1A80084B00229A5E084B78
:10376C000021595EBB1D1B8800930B00002100201B
:10377C00FEF74EFFC046BD4602B080BD4C00002097
:10378C004E00002080B500AF8023DB0003480022F0
:10379C00190002F0CAFAC046BD4680BD00040048BC
:1037AC0080B500AF8023DB0003480122190002F032
:1037BC00BCFAC046BD4680BD0004004880B500AFD1
:1037CC00084B00220421180002F0AFFA052001F08A
:1037DC002DFD044B01220421180002F0A6FAC0466C
:1037EC00BD4680BD0004004880B582B000AF020029
:1037FC00FB1D1A70084B00220221180002F095FAEA
:10380C0001235B42F91D0548012202F0A7FFC046C7
:10381C00BD4602B080BDC0460004004898000020A0
:10382C0080B582B000AF78603960094B012202216B
:10383C00180002F07AFA3B689AB201235B4279686D
:10384C00044802F08BFFC046BD4602B080BDC046A6
:10385C00000400489800002090B585B000AF786057
:10386C007B685A1C7A600F22BA181B7813704AE0D6
:10387C007B685A1C7A600B217A181B7813707B18A2
:10388C001B781800FFF7B0FF7B685A1C7A600A207F
:10389C003A181B7813703B181B789AB20C23FB1840
:1038AC0080210A401A803B183A1812787F210A406E
:1038BC001A703B181B78002B0CD004003B181A789C
:1038CC007B6811001800FFF7ABFF3B191B787A6877
:1038DC00D3187B600C217B181B88002B13D07B68C2
:1038EC005A1C7A601A787B181A807B181B88FF2B5D
:1038FC0003D17B18FA2252001A800C23FB181B8868
:10390C00180001F093FC0F22BB181B78BA18591E33
:10391C001170002BACD1C046C046BD4605B090BD61
:10392C00B0B584B000AF05000C0010001900FB1DF1
:10393C002A1C1A70BB1D221C1A707B1D021C1A70CB
:10394C003B1D0A1C1A702A20FFF74EFF0C217B1816
:10395C0000221A701C4B1A78FB1D1B78D318DAB294
:10396C007B185A707B1800229A70174B1A787B1DA3
:10397C001B78D318DAB27B18DA700C007B18042190
:10398C001800FFF74DFF2B20FFF72EFF0F4B1A7877
:10399C00BB1D1B78D318DAB221007B185A700B4B65
:1039AC001A783B1D1B78D318DAB27B18DA707B18A7
:1039BC0004211800FFF734FF2C20FFF715FFC04639
:1039CC00BD4604B0B0BDC0465300002054000020DA
:1039DC0080B582B000AF0200FB1D1A70FFF7D2FE5B
:1039EC00FFF7ECFE0E4B1800FFF736FF0D4B1800DF
:1039FC00FFF732FF0C4B1800FFF72EFF0B4B00228A
:103A0C001A700B4B00221A70FB1D1B78180000F06B
:103A1C0011F8FFF7C5FEC046BD4602B080BDC046DA
:103A2C00186F0008506F0008606F000851000020EC
:103A3C005200002080B584B000AF0200FB1D1A704C
:103A4C000F23FB1800221A70FB1D1B780322134056
:103A5C00DAB2364B1A70354B1B78032B41D053DC42
:103A6C00022B2BD050DC002B02D0012B13D04BE0BF
:103A7C000F23FB18C0221A702D4BA0221A802D4B3D
:103A8C0080221A802C4B1A782C4B1A702C4B1A78DB
:103A9C002C4B1A7038E00F23FB18A0221A70254B00
:103AAC00A0221A80224B80221A80234B1A78254B95
:103ABC001A70234B1A78214B1A7025E00F23FB1830
:103ACC0000221A701A4BA0221A801A4B80221A80DC
:103ADC00194B1A78194B1A70194B1A78194B1A7012
:103AEC0012E00F23FB1860221A70124BA0221A80CE
:103AFC000F4B80221A80104B1A78124B1A70104BF5
:103B0C001A780E4B1A70C046FFF73CFE3620FFF7B2
:103B1C006BFE0F23FB1801211800FFF781FEFFF746
:103B2C003FFEC046BD4604B080BDC04650000020DC
:103B3C004E0000204C0000205100002053000020BB
:103B4C00520000205400002090B585B000AF040056
:103B5C0008001100BB1D221C1A803B1D021C1A8080
:103B6C00BB1C0A1C1A80BB1D1B881C4A0021525E00
:103B7C0093422FDA3B1D1B88194A0021525E934257
:103B8C0028DAFFF7FFFDBB1D1B88D8B23B1D1B8835
:103B9C00D9B2BB1D1B88DBB20133DAB23B1D1B88CB
:103BAC00DBB20133DBB2FFF7BBFEBB1C1B881B0A6D
:103BBC009BB2DAB20C217B181A70BB1C1B88DAB2D0
:103BCC007B185A707B1802211800FFF729FEFFF7AB
:103BDC00E7FD00E0C046BD4605B090BD4C0000209E
:103BEC004E00002082B0B0B588B000AF04000800D1
:103BFC001100042230255219D2191360BB1D221C4E
:103C0C001A803B1D021C1A80FB1C0A1C1A70BB1D5F
:103C1C001B88D8B23B1D1B88D9B2BB1D1B88DAB2DE
:103C2C0004235B19DB191B78D318DBB2013BDCB224
:103C3C003B1D1B88DAB204235B19DB195B78D318A4
:103C4C00DBB2013BDBB22200FFF76AFE0023FB6113
:103C5C0053E0042330201B18DB195A68FB1C1B781B
:103C6C00203B04210918C91949784B431900FB69F9
:103C7C00CB185B00D3181B887B610023BB6130E041
:103C8C007A69BB699A4080231B02134013D03C20F5
:103C9C003B181B881B0A9BB2DAB210217B181A70D6
:103CAC003B181B88DAB27B185A707B18022118005B
:103CBC00FFF7B6FD12E040203B181B881B0A9BB295
:103CCC00DAB20C217B181A703B181B88DAB27B18FD
:103CDC005A707B1802211800FFF7A2FDBB69013353
:103CEC00BB61042330229B18DB191B781A00BB69BB
:103CFC009342C5D3FB690133FB61042330229B182B
:103D0C00DB195B781A00FB699342A2D3C046C0460C
:103D1C00BD4608B0B0BC08BC02B0184782B0F0B5C4
:103D2C0087B004AF3A600422182412190824A44660
:103D3C00BC4462441360BB1D021C1A803B1D0A1C50
:103D4C001A80FFF71FFD67E0BB1D1B88042218219A
:103D5C00521808208446BC44624412789B18364A98
:103D6C000020125E934227DBBB1D00221A80042325
:103D7C0008005B1808229446BC4463445B7899B2F3
:103D8C003B1D3A1D12888A181A803B1D1B88042281
:103D9C00121808218C46BC44624452789B18274A5E
:103DAC000021525E93423CDA3B681B78202B03D1F6
:103DBC003B6801333B602FE03B681D7804231826D9
:103DCC009B1908229446BC4463443A1D1488BA1DBE
:103DDC001088282208215218D21912880292242203
:103DEC005218D219128801926A46596811601B68E0
:103DFC002A002100FFF7F6FE04239B1908229446A3
:103E0C00BC4463441B7899B2BB1DBA1D12888A1836
:103E1C001A803B6801333B603B681B78002B93D1C5
:103E2C0000E0C046FFF7BCFCC046BD4603B0F0BC8A
:103E3C0008BC02B01847C0464C0000204E000020C1
:103E4C00B0B584B000AF05000C0010001900BB1D0C
:103E5C002A1C1A803B1D221C1A80BB1C021C1A80B7
:103E6C003B000A1C1A80BB1D1B88494A0021525E6C
:103E7C00934200DB87E03B1D1B88464A0021525EC3
:103E8C00934200DB7FE0BB1D1A88BB1C1B88D31838
:103E9C003F4A0021525E934208DD3D4B00229B5E5F
:103EAC0099B2BB1CBA1D12888A1A1A803B1D1A883B
:103EBC003B001B88D318374A0021525E934208DD21
:103ECC00344B00229B5E99B23B003A1D12888A1A31
:103EDC001A80FFF757FCBB1D1B88D8B23B1D1B88F3
:103EEC00D9B2BB1D1B88DAB2BB1C1B88DBB2D31842
:103EFC00DBB2013BDCB23B1D1B88DAB23B001B88FA
:103F0C00DBB2D318DBB2013BDBB22200FFF708FDBA
:103F1C0020217B181B881B0A9BB2DAB20C203B18A1
:103F2C001A707B181B88DAB23B185A701A4B012294
:103F3C000221180001F0F9FE3B1D3A0012881A808C
:103F4C001AE0BB1DBA1C12881A800CE001235B42DC
:103F5C000C22B9181148022202F000FCBB1D1A8871
:103F6C00BB1D013A1A80BB1D1B88002BEED13B1DDB
:103F7C001A883B1D013A1A803B1D1B88002BE0D18F
:103F8C00FFF70EFC00E0C046BD4604B0B0BDC04615
:103F9C004C0000204E000020000400489800002037
:103FAC00F0B58DB004AFF860080011007B600B24F5
:103FBC003B19021C1A700A203B180A1C1A701F238A
:103FCC00FB1800221A701C23FB1801221A801B23D9
:103FDC00FB1801221A7010217A18302308255B195E
:103FEC00DB191B8853807B183A1912781A707B18CE
:103FFC003A1812785A707B187A685A6005E01F21BB
:10400C007B181A787B1801321A701F217B181B78C9
:10401C007A68D3181B78002BF1D17B181B789BB2D4
:10402C001A1CD200D31A9AB21C243B1905321A80DE
:10403C001B257B190F221A700B26BB191B7818B283
:10404C000A23FB181B7819B23B1900241A5F7B1941
:10405C001B781CB230250823ED18EB191B88019333
:10406C00022300932300FFF787F8BB191B789BB240
:10407C00033398B20A23FB181B789BB203339CB210
:10408C000D4B7D68302208215218D21912880292E9
:10409C000A4A01926A46596811601B682A0021007D
:1040AC00FFF73CFEFB681022BA1803CA03C3F8687A
:1040BC00BD4609B0F0BDC04600000020FFFF000067
:1040CC00F0B589B004AF040008003A601900FB1D7C
:1040DC00221C1A70BB1D021C1A707B1D0A1C1A7044
:1040EC007B1D1B783033DAB20C26BB191A70FB1D02
:1040FC001B7898B2BB1D1B789CB21F4B3D680022ED
:10410C0002921E4A01926A46596811601B682A0085
:10411C002100FFF703FEFB1D1B789BB2203398B2E6
:10412C00BB1D1B789BB216339CB2134BBD190022DE
:10413C000292124A01926A46596811601B682A0061
:10414C002100FFF7EBFDFB1D1B789BB21B339BB2D1
:10415C0018B2BB1D1B789BB214339BB219B2074B20
:10416C0001930223009314231422FEF7C3FEC046CE
:10417C00BD4605B0F0BDC04608000020FFFF0000A2
:10418C0080B500AF00F0E4FF00F01AF800F004F97D
:10419C0000F068F800F0C2F8084B180001F0AAF91A
:1041AC000020FFF715FC0020FFF7D0FAFA235B0084
:1041BC00180001F03BF800F08DF9FCE758000020E6
:1041CC0090B591B000AF10243B19180030231A00A1
:1041DC00002102F0BDFD3B00180010231A00002145
:1041EC0002F0B6FD21007B1812221A607B18012206
:1041FC00DA607B1801225A617B1810221A617B1835
:10420C0010229A617B1802221A627B1880221202F9
:10421C005A627B18C02212039A627B180022DA625F
:10422C007B18180001F09EFD031E01D000F04CF924
:10423C003B0007221A603B0002225A603B0080229E
:10424C009A603B000022DA603B000121180002F06A
:10425C00A7F8031E01D000F037F9C046BD4611B0D7
:10426C0090BD000080B584B000AF3B1D18000C233E
:10427C001A00002102F06CFD264B274A1A60254BD0
:10428C0000225A60234B00229A60224B0022DA60F3
:10429C00204B01221A611F4B04225A611D4B002234
:1042AC001A761C4B00225A761A4B00229A76194B1E
:1042BC000022DA76174BC222FF32DA61154B00224C
:1042CC001A62144B242200219954124B01229A6237
:1042DC00104B180000F0CEFF031E01D000F0F4F8D4
:1042EC003B1D08221A603B1D802252015A603B1D67
:1042FC00802252059A603A1D064B1100180001F0FD
:10430C0059F9031E01D000F0DFF8C046BD4604B0D9
:10431C0080BDC046580000200024014080B500AF8D
:10432C001B4B1C4A1A601A4B822252005A60184BC3
:10433C0000229A60164BE022D200DA60144B002265
:10434C001A61134B00225A61114B802292009A6120
:10435C000F4B0822DA610E4B00221A620C4B002222
:10436C005A620B4B00229A62094B0722DA62084B05
:10437C0000221A63064B08225A63054B180002F000
:10438C0035F9031E01D000F09FF8C046BD4680BD34
:10439C00980000200030014090B58BB000AF142481
:1043AC003B19180014231A00002102F0D1FC424BD7
:1043BC005A69414B802109030A435A613E4B5A69A1
:1043CC0080231B0313403B613B693B4B5A693A4BBF
:1043DC008021C9030A435A61374B5A698023DB0396
:1043EC001340FB60FB68344B5A69334B80218902C4
:1043FC000A435A61304B5A6980239B021340BB60BD
:10440C00BB682D4B5A692C4B8021C9020A435A6157
:10441C00294B5A698023DB0213407B607B68274958
:10442C00274B0022180001F080FC3B19E0221202FD
:10443C001A603B1900225A603B1900229A603B1902
:10444C00204A1900100001F0E3FA3B1903221A600C
:10445C003B1900225A603B1900229A603A199023AA
:10446C00DB051100180001F0D3FA3B19134A1A604E
:10447C003B1901225A603B1900229A603B19002219
:10448C00DA603B190E4A1900100001F0C1FA210044
:10449C007B18802252011A607B1800225A607B180C
:1044AC0001229A607B18064A1900100001F0B0FA3C
:1044BC00C046BD460BB090BD001002400604000083
:1044CC00000400480008004880B500AF72B6C04632
:1044DC00FEE7000090B583B000AFFB1D00221A7000
:1044EC00144B1B78002B01D000F0D0F800F026F80C
:1044FC0000F014FAFC1D00F0E5F9030023700E4BDC
:10450C001B78022B05D0FB1D1B78180000F036F928
:10451C0005E0FB1D1B78180000F0C0F9C046054BE8
:10452C001B78012B02D1034B00221A70C046BD46EA
:10453C0003B090BD1800002020000020F0B585B01D
:10454C0000AF0023FB60464B1B68180000F0DCFC3E
:10455C000200FA239B009A4200D27CE000F0C8FCD7
:10456C0002003F4B1A603F4B180001F017F8030094
:10457C007B607868FDF71CFF3B4A3C4BFDF71AF952
:10458C0002000B0010001900FDF780FF031C3B60BC
:10459C003868FDF733FF0022354BFDF777FB02003F
:1045AC000B00100019000022324BFDF703F902003A
:1045BC000B001000190000222F4BFCF7BFFD02006E
:1045CC000B0014001D002D4B1B6806211800FBF777
:1045DC0019FE0B001E0020002900FDF757FF011CDF
:1045EC00274BB200D150254B1B6806211800FBF756
:1045FC0009FE0B001A00224B9200D358FB601F4B94
:10460C001B685A1C1D4B1A601C4B1B68052B1AD9B6
:10461C000023FB600023BB600CE0194BBA689200CE
:10462C00D358191CF868FBF72FFF031CFB60BB6801
:10463C000133BB60BB68052BEFDD1249F868FCF752
:10464C00C1F8031CFB60104BFA681A60054B18008C
:10465C0000F050FF00E0C046BD4605B0F0BDC046BE
:10466C0014010020580000206666666666664A3FA4
:10467C000000F43F00002EC000001C401801002078
:10468C001C0100200000C0401C00002080B584B03C
:10469C0004AF0120FFF7CEF9314B324800220292D1
:1046AC00314A01926A46596811601B680200002168
:1046BC000020FFF733FBFA239B00180000F0B6FD37
:1046CC000020FFF743F80120FFF7B4F9274B2848E7
:1046DC0000220292FC22D20001926A4659681160B3
:1046EC001B68020032211420FFF718FBFA239B00F1
:1046FC00180000F09BFD0020FFF728F80120FFF7C1
:10470C0099F9174B1B4800220292174A01926A46EC
:10471C00596811601B68020000210020FFF7FEFAA7
:10472C00FA239B00180000F081FD104B1248002268
:10473C000292FC22D20001926A46596811601B68F1
:10474C00020032211420FFF7E9FAFA239B0018002B
:10475C0000F06CFD0020FEF7F9FFC046BD4680BDA1
:10476C0000000020846D0008FFFF000008000020FE
:10477C00986D0008A46D0008BC6D000890B589B058
:10478C0004AF0200FB1D1A70FB1D1B78012B05D01A
:10479C003A4B1A783A4B1B789A424ED0374B1B78CF
:1047AC00052B16D006DC042B21D003DC012B38D0D2
:1047BC00022B2AD0324B03221A70FC23DB00180088
:1047CC00FEF7C4FF00F000F92E4BFC22D2001A8039
:1047DC0034E02B4B05221A70F8231B021800FEF74D
:1047EC00B5FF00F0F1F8274B274A1A8026E0244B3E
:1047FC0004221A70254B1800FEF7A8FF00F0E4F80D
:10480C00204B202252421A8018E01D4B02221A70B3
:10481C00FF20FEF79BFF00F0D7F81A4BFF221A80FF
:10482C000CE0174B01221A701F20FEF78FFF00F0CF
:10483C00CBF8144B1F221A8000E0C046144B1B68A7
:10484C0008243A191100181C00F07CFB0120FFF71A
:10485C00F1F80C4B1A880F4B381902920E4A019240
:10486C006A46596811601B68020032212820FFF744
:10487C0055FAC046BD4605B090BDC046210000208B
:10488C00340100202200002000F8FFFFE0FF0000B0
:10489C001C00002010000020FFFF000080B582B03B
:1048AC0000AF0200FB1D1A70FB1D1B78012B05D1FC
:1048BC000020FEF74BFF00F095F8C046BD4602B055
:1048CC0080BD000080B500AF80235B01104A190049
:1048DC00100001F00DFA031E03D10E4B02221A70C8
:1048EC0002E00C4B01221A700B4B1A78094B1B7807
:1048FC009A4205D0074B1A78074B1A70012304E033
:10490C00044B1A78044B1A7000231800BD4680BD66
:10491C0000040048200000203501002080B500AFC5
:10492C00234B1B682349181CFBF78CFD031E03D07B
:10493C00214B01221A7037E01D4B1B681F49181CB4
:10494C00FBF776FD031E0BD0194B1B681949181C7D
:10495C00FBF75AFD031E03D0174B02221A7023E0FB
:10496C00134B1B681649181CFBF762FD031E0BD07A
:10497C000F4B1B681349181CFBF746FD031E03D095
:10498C000D4B04221A700FE0094B1B680C49181CC4
:10499C00FBF744FD031E03D0074B05221A7003E0FE
:1049AC00054B03221A70FFE7C046BD4680BDC046CA
:1049BC001C000020000028412100002000000841BC
:1049CC00000060400000B04080B500AF044B0A21ED
:1049DC00180000F06BF800F005F9C046BD4680BD2C
:1049EC00C86D000890B589B004AF274B1E21180084
:1049FC0000F05CF80C243B19244A1A80244B2548FF
:104A0C0000220292244A01926A46596811601B687E
:104A1C00020023210520FFF781F91D4B38190022D4
:104A2C0002921D4A01926A46596811601B68020085
:104A3C0037211420FFF772F9154B18480022029207
:104A4C00154A01926A46596811601B68020062217E
:104A5C003C20FFF763F9124A072323215020FFF76C
:104A6C002FFB104C3800104AF8231B020093130044
:104A7C0050225021FFF794FA3A00230003CA03C3D3
:104A8C00C046BD4605B090BDE46D00083330000053
:104A9C0008000020F46D0008FFFF0000FC6D00080A
:104AAC00046E0008FC0000200C6E000890B589B064
:104ABC0004AF78600A00FB1C1A700F217B180022CF
:104ACC001A70FB1C1B780A2B03D17B1800221A705E
:104ADC0015E0FB1C1B78142B04D10F23FB180D22A3
:104AEC001A700CE0FB1C1B781E2B04D10F23FB1837
:104AFC000D221A7003E00F23FB1800221A700120FC
:104B0C00FEF798FF0F243B191B789BB21E22D31A79
:104B1C009BB218B23B191B789BB23222D31A9BB2B0
:104B2C0019B23B191B789BB23222D31A9BB21BB21F
:104B3C00C3221201029214220192009300230A0054
:104B4C000021FEF7D1FB3B191B789BB26E339BB255
:104B5C0018B23B191B789BB282339BB219B23B192A
:104B6C001B789BB26E339BB21BB2C3221201029212
:104B7C0014220192009300230A000021FEF7B4FBDB
:104B8C003B191B789BB23222D31A9BB218B23B1939
:104B9C001B781E339BB2DB189BB21AB2C3231B01CA
:104BAC00009315230021FDF733FD3B191B789BB2B5
:104BBC002D22D31A98B2094B7C68C322120102929F
:104BCC00074A01926A46596811601B68220003214A
:104BDC00FFF7A4F8C046BD4605B090BD000000200C
:104BEC00FFFF000080B584B002AF0120FEF722FF6A
:104BFC00FB1D78221A70BB1D64221A70FB1D1B78DA
:104C0C0018B2BB1D1B789BB2503B9BB219B2002350
:104C1C00009314232822FEF711F9FB1D1B7818B200
:104C2C00BB1D1B789BB23C3B9BB219B2002300937B
:104C3C0014232822FEF702F9FB1D1B7818B2BB1DAA
:104C4C001B789BB2283B9BB219B200230093142310
:104C5C002822FEF7F3F8FB1D1B7818B2BB1D1B783E
:104C6C009BB2143B9BB219B200230093142328224D
:104C7C00FEF7E4F8FB1D1B7818B2BB1D1B7819B2AC
:104C8C000023009314232822FEF7D8F8FB1D1B7871
:104C9C009BB201339BB218B2BB1D1B789BB2503B2D
:104CAC009BB219B21F23009313232722FDF7B0FCEC
:104CBC00FB1D1B789BB201339BB218B2BB1D1B783A
:104CCC009BB23C3B9BB219B2FF23009313232722C8
:104CDC00FDF79EFCFB1D1B789BB201339BB218B2F7
:104CEC00BB1D1B789BB2283B9BB219B2FC23DB008B
:104CFC00009313232722FDF78BFCFB1D1B789BB223
:104D0C0001339BB218B2BB1D1B789BB2143B9BB2F8
:104D1C0019B20D4B009313232722FDF779FCFB1DD1
:104D2C001B789BB201339BB218B2BB1D1B7819B216
:104D3C00F8231B02009313232722FDF769FCC046BE
:104D4C00BD4602B080BDC046E0FF000080B582B019
:104D5C0000AF0F4B9A690E4B01210A439A610C4B21
:104D6C009B69012213407B607B68094BDA69084B15
:104D7C00802149050A43DA61054BDA6980235B051A
:104D8C0013403B603B68C046BD4602B080BDC04688
:104D9C000010024090B58BB000AF786014243B1922
:104DAC00180014231A00002101F0D2FF7B681B6845
:104DBC00184A93422AD1184B9A69174B80218900C3
:104DCC000A439A61144B9A6980239B0013403B6100
:104DDC003B69114B5A69104B8021C9020A435A6135
:104DEC000D4B5A698023DB021340FB60FB683B19B7
:104DFC0001221A603B1903225A603B1900229A6067
:104E0C003B19064A1900100000F002FEC046BD46D0
:104E1C000BB090BD0024014000100240000400487B
:104E2C0090B58BB000AF786014243B191800142394
:104E3C001A00002101F08CFF7B681B681C4A93420E
:104E4C0032D11C4B9A691B4B802149010A439A6150
:104E5C00184B9A6980235B0113403B613B69154BEE
:104E6C005A69144B802189020A435A61114B5A69C1
:104E7C0080239B021340FB60FB6821007B18E0221F
:104E8C001A607B1802225A607B1800229A607B18E9
:104E9C000322DA607B1800221A617A189023DB0552
:104EAC001100180000F0B4FDC046BD460BB090BD1B
:104EBC00003001400010024080B500AFFEE780B525
:104ECC0000AFFEE780B500AFC046BD4680BD80B5E3
:104EDC0000AFC046BD4680BD80B500AF00F080F984
:104EEC00C046BD4680BD80B500AFC046BD4680BD46
:104EFC00B0B500AF00F086F9040000F08DF90300A6
:104F0C0063431800BD46B0BD90B585B000AF786066
:104F1C00FFF7EEFF040000F07FF903006343BB6072
:104F2C00BA687B689A4204D3BA687B68D31AFB6070
:104F3C0003E07A68BB68D31AFB60FB681800BD46B7
:104F4C0005B090BDB0B584B000AF786039606A49E7
:104F5C007868FBF7FFFD031C0E257C19181CFBF76A
:104F6C007BFA030023807B191A88FA239B009A4250
:104F7C006DD33B68053300221A707B191B88FA220B
:104F8C0091001800FBF7B8F803009BB2DBB230338A
:104F9C00DAB23B681A707B191C887B191B88FA22C1
:104FAC0091001800FBF7A8F803009BB21A0013003D
:104FBC009B059B1A9B019B185B009B18DB00E3185D
:104FCC0064211800FBF722F90300DAB23B680133C5
:104FDC003032D2B21A703B6802332E221A707B190F
:104FEC001C887B191B8864211800FBF785F80300CB
:104FFC009BB21A0013005B069B1A9B009B18DB00EC
:10500C009B1A9B00E3180A211800FBF7FFF803001A
:10501C00DAB23B6803333032D2B21A707B191B8878
:10502C00DCB27B191B880A211800FBF765F803001A
:10503C009BB2DBB21A1C9200D318DB18DBB2E31A5A
:10504C00DAB23B6804333032D2B21A7050E03B68AB
:10505C00053300221A703B68043300221A700E25A7
:10506C007B191B8864211800FBF746F803009BB2E0
:10507C00DBB23033DAB23B681A703B6801332E2254
:10508C001A707B191C887B191B8864211800FBF78C
:10509C0033F803009BB21A0013005B069B1A9B00AB
:1050AC009B18DB009B1A9B00E3180A211800FBF7E6
:1050BC00ADF80300DAB23B6802333032D2B21A7068
:1050CC007B191B88DCB27B191B880A211800FBF7A3
:1050DC0013F803009BB2DBB21A1C9200D318DB1836
:1050EC00DBB2E31ADAB23B6803333032D2B21A7055
:1050FC00C046BD4604B0B0BD0000C8420D48854650
:10510C00FFF7F1FE0C480D490D4A002302E0D4587C
:10511C00C4500433C4188C42F9D30A4A0A4C0023F5
:10512C0001E013600432A242FBD301F0EDFDFFF766
:10513C0027F8FEE70080002000000020300000204F
:10514C00D8970008300000203C010020FEE700004A
:10515C0080B500AF074B1A68064B10210A431A6042
:10516C00032000F009F8FFF7F1FD00231800BD46FD
:10517C0080BDC0460020024090B583B000AF78607F
:10518C00144B1C68144B1B781900FA239800FAF77F
:10519C00B3FF030019002000FAF7AEFF030018005C
:1051AC0000F029FC031E01D001230FE07B68032BC8
:1051BC000BD8796801235B420022180000F006FC32
:1051CC00064B7A681A60002300E001231800BD46E4
:1051DC0003B090BD240000202C00002028000020EB
:1051EC0080B500AF054B1B781A00054B1B68D21815
:1051FC00034B1A60C046BD4680BDC0462C00002043
:10520C003801002080B500AF024B1B681800BD466A
:10521C0080BDC0463801002080B500AF024B1B7822
:10522C001800BD4680BDC0462C00002080B584B05F
:10523C0000AF7860FFF7E6FF0300BB607B68FB60A4
:10524C00FB68013305D00A4B1B781A00FB689B18CE
:10525C00FB60C046FFF7D6FF0200BB68D31AFA68A2
:10526C009A42F7D8C046C046BD4604B080BDC04681
:10527C002C00002080B584B000AF78600F23FB18A1
:10528C0000221A700023BB607B68002B01D1012324
:10529C0025E17B689B6B002B0AD17B680022DA63CB
:1052AC007B683422002199547B681800FFF772FD4B
:1052BC007B689B6B1022134000D003E10F23FB187B
:1052CC001B78002B00D0FDE07B681B689B680422D8
:1052DC00134000D0F6E07B689B6B834A134002229C
:1052EC001A437B689A637B681B689B680322134094
:1052FC00012B12D17B681B681B6801221340012B08
:10530C0009D07B681B68DA6880231B021A40802353
:10531C001B029A4201D1012300E00023002B16D17D
:10532C007B681B68DB681822934319007B689A68BA
:10533C007B681B680A43DA607B681B681B699B00EF
:10534C0099087B685A687B681B680A431A617B68FA
:10535C001B68DA687B681B6864490A40DA607B6802
:10536C001B7E9A037B685B7EDB031A437B689B7E08
:10537C005B031A437B689B6A012B02D080235B0181
:10538C0000E000231A437B68DB681A437B681B69C7
:10539C00022B01D1042300E000231A437B68242153
:1053AC005B5C5B001343BA681343BB607B68DB7EBA
:1053BC00012B15D17B689B7E002B05D1BB6880220D
:1053CC0052021343BB600BE07B689B6B20221A4399
:1053DC007B689A637B68DB6B01221A437B68DA6318
:1053EC007B68DA69C223FF339A4207D07B68DA699B
:1053FC007B681B6A1343BA681343BB607B681B68EA
:10540C00D9687B681B68BA680A43DA607B68DA6A19
:10541C0080235B059A421BD07B68DB6A012B17D07B
:10542C007B68DB6A022B13D07B68DB6A032B0FD003
:10543C007B68DB6A042B0BD07B68DB6A052B07D0FF
:10544C007B68DB6A062B03D07B68DB6A072B12D1E7
:10545C007B681B685A697B681B6807218A435A6101
:10546C007B681B6859697B68DB6A07221A407B687A
:10547C001B680A435A617B681B68DB681C4A134033
:10548C00BA689A420BD17B680022DA637B689B6B0B
:10549C000322934301221A437B689A631CE07B68C6
:1054AC009B6B1222934310221A437B689A637B688E
:1054BC00DB6B01221A437B68DA630F23FB18012292
:1054CC001A7009E07B689B6B10221A437B689A6305
:1054DC000F23FB1801221A700F23FB181B781800DE
:1054EC00BD4604B080BDC046FDFEFFFF1902FEFFA5
:1054FC00E7FF3F8390B585B000AF78600F23FB18B2
:10550C0000221A707B681B689B680422134038D1F8
:10551C007B6834229B5C012B01D1022338E07B6831
:10552C003422012199547B685B7E012B07D00F2319
:10553C00FC187B68180000F033F9030023700F236C
:10554C00FB181B78002B20D17B689B6B124A1340F5
:10555C00802252001A437B689A637B680022DA63CC
:10556C007B683422002199547B681B681C221A60CA
:10557C007B681B689A687B681B6804210A439A60E5
:10558C0003E00F23FB1802221A700F23FB181B7861
:10559C001800BD4605B090BDFEF0FFFF80B582B08F
:1055AC0000AF78607B681B681B6C1800BD4602B0AE
:1055BC0080BD000080B584B000AF786039600F23E7
:1055CC00FB1800221A700023BB607B68DA6A802308
:1055DC005B059A4211D07B68DB6A012B0DD07B688E
:1055EC00DB6A022B09D07B68DB6A032B05D07B6856
:1055FC00DB6A042B01D07B68DB6A7B6834229B5C02
:10560C00012B01D10223BBE07B6834220121995488
:10561C007B681B689B680422134000D09FE03B68AA
:10562C005B68594A934200D177E07B681B68996AA2
:10563C003B681B6801229A407B681B680A439A628C
:10564C007B68DA6A80235B059A4237D07B68DB6A19
:10565C00012B33D07B68DB6A022B2FD07B68DB6A93
:10566C00032B2BD07B68DB6A042B27D07B68DB6A8F
:10567C00052B23D07B68DB6A062B1FD07B68DB6A8B
:10568C00072B1BD03B689A687B681B685B690721FA
:10569C000B409A4212D07B681B685A697B681B6866
:1056AC0007218A435A617B681B6859693B689B6870
:1056BC0007221A407B681B680A435A613B681B68C7
:1056CC00102B03D03B681B68112B52D12F4B196840
:1056DC003B681B68102B02D180231B0401E0802344
:1056EC00DB032A4A0B4313603B681B68102B40D129
:1056FC00274B1B6827491800FAF7FEFC03001A0019
:10570C0013009B009B185B00BB6002E0BB68013B75
:10571C00BB60BB68002BF9D12BE07B681B689A6AD5
:10572C003B681B68012199400B00D9437B681B68BF
:10573C000A409A623B681B68102B03D03B681B68BD
:10574C00112B16D1114B19683B681B68102B01D11A
:10575C00114A00E0114A0D4B0A401A6009E07B68BF
:10576C009B6B20221A437B689A630F23FB18012240
:10577C001A707B683422002199540F23FB181B7874
:10578C001800BD4604B080BD011000000827014080
:10579C002400002040420F00FFFF7FFFFFFFBFFFF0
:1057AC0080B584B000AF78600023FB600023BB6041
:1057BC007B681B689B6803221340012B12D17B680A
:1057CC001B681B6801221340012B09D07B681B68E6
:1057DC00DA6880231B021A4080231B029A4201D1F3
:1057EC00012300E00023002B52D17B681B689B68CF
:1057FC002A4A13400DD07B689B6B10221A437B689E
:10580C009A637B68DB6B01221A437B68DA630123A2
:10581C003FE07B681B689A687B681B6801210A4320
:10582C009A601F4B1B681F491800FAF765FC0300B0
:10583C00BB6002E0BB68013BBB60BB68002BF9D1CD
:10584C00FFF7E0FC0300FB601BE0FFF7DBFC020052
:10585C00FB68D31A022B14D97B681B681B680122C6
:10586C001340012B0DD07B689B6B10221A437B6875
:10587C009A637B68DB6B01221A437B68DA63012332
:10588C0007E07B681B681B6801221340012BDCD1ED
:10589C0000231800BD4604B080BDC0461700008030
:1058AC002400002040420F0090B583B000AF0200EE
:1058BC003960FB1D1A70FB1D1B787F2B28D82F4AD3
:1058CC00FB1D1B785BB29B08C0339B009B58FA1DD9
:1058DC001278110003220A40D200FF2191400A00E5
:1058EC00D2431A4011003B689B01FF221A40FB1D5A
:1058FC001B78180003230340DB009A401F48FB1D54
:10590C001B785BB29B080A43C0339B001A5031E0F2
:10591C001B4AFB1D1B7819000F230B40083B9B08EF
:10592C0006339B00D31804331B68FA1D1278110040
:10593C0003220A40D200FF2191400A00D2431A40B0
:10594C0011003B689B01FF221A40FB1D1B781800BD
:10595C0003230340DB009A400948FB1D1B781C0005
:10596C000F232340083B9B080A4306339B00C318B4
:10597C0004331A60C046BD4603B090BD00E100E0A0
:10598C0000ED00E080B582B000AF78607B685A1EF5
:10599C0080235B049A4201D3012310E00A4B7A68FE
:1059AC00013A5A6001235B4203211800FFF77CFF88
:1059BC00054B00229A60044B07221A600023180042
:1059CC00BD4602B080BDC04610E000E080B584B09A
:1059DC0000AFB9607A600F217B18021C1A70BA688C
:1059EC007B181B785BB211001800FFF75DFFC046F7
:1059FC00BD4604B080BD80B582B000AF78607B68D6
:105A0C001800FFF7BFFF03001800BD4602B080BDB1
:105A1C0080B586B000AF7860396000237B614FE1C0
:105A2C003B681B6801217A6991400A001340FB60B6
:105A3C00FB68002B00D140E13B685B6803221340FC
:105A4C00012B05D03B685B6803221340022B30D13D
:105A5C007B689B683B617B695B0003229A40130067
:105A6C00DA433B6913403B613B68DA687B695B0056
:105A7C009A4013003A6913433B617B683A699A6018
:105A8C007B685B683B6101227B699A401300DA43B7
:105A9C003B6913403B613B685B681B0901221A4060
:105AAC007B699A4013003A6913433B617B683A69FE
:105ABC005A603B685B6803221340032B17D07B684A
:105ACC00DB683B617B695B0003229A401300DA437D
