:020000040800F2
:100000000080002091210008592100085F2100088C
:1000100000000000000000000000000000000000E0
:100020000000000000000000000000006521000842
:1000300000000000000000006F2100087921000886
:10004000E121000800000000E1210008E121000892
:10005000E1210008E1210008E1210008E121000878
:1000600000000000E1210008E1210008E121000872
:10007000E1210008E1210008E12100080000000062
:10008000E1210008E1210008E1210008E121000848
:10009000E1210008E1210008E1210008E121000838
:1000A000E1210008E1210008E1210008E121000828
:0C00B000E1210008E12100080000000030
:1000BC0010B5064C2378002B07D1054B002B02D032
:1000CC00044800E000BF0123237010BD1C00002079
:1000DC0000000000E03B0008044B10B5002B03D0DF
:1000EC000349044800E000BF10BDC04600000000FA
:1000FC0020000020E03B0008002243088B4274D310
:10010C0003098B425FD3030A8B4244D3030B8B420C
:10011C0028D3030C8B420DD3FF22090212BA030C15
:10012C008B4202D31212090265D0030B8B4219D3F6
:10013C0000E0090AC30B8B4201D3CB03C01A524116
:10014C00830B8B4201D38B03C01A5241430B8B425E
:10015C0001D34B03C01A5241030B8B4201D30B0347
:10016C00C01A5241C30A8B4201D3CB02C01A52416E
:10017C00830A8B4201D38B02C01A5241430A8B4231
:10018C0001D34B02C01A5241030A8B4201D30B021A
:10019C00C01A5241CDD2C3098B4201D3CB01C01A34
:1001AC00524183098B4201D38B01C01A524143093E
:1001BC008B4201D34B01C01A524103098B4201D32C
:1001CC000B01C01A5241C3088B4201D3CB00C01A99
:1001DC00524183088B4201D38B00C01A5241430811
:1001EC008B4201D34B00C01A5241411A00D2014636
:1001FC00524110467047FFE701B5002000F0F0F8BF
:10020C0002BDC0460029F7D076E7704703460B4382
:10021C007FD4002243088B4274D303098B425FD3F3
:10022C00030A8B4244D3030B8B4228D3030C8B421F
:10023C000DD3FF22090212BA030C8B4202D3121205
:10024C00090265D0030B8B4219D300E0090AC30BDA
:10025C008B4201D3CB03C01A5241830B8B4201D387
:10026C008B03C01A5241430B8B4201D34B03C01A70
:10027C005241030B8B4201D30B03C01A5241C30AE8
:10028C008B4201D3CB02C01A5241830A8B4201D359
:10029C008B02C01A5241430A8B4201D34B02C01A43
:1002AC005241030A8B4201D30B02C01A5241CDD2E8
:1002BC00C3098B4201D3CB01C01A524183098B4233
:1002CC0001D38B01C01A524143098B4201D34B011C
:1002DC00C01A524103098B4201D30B01C01A52417F
:1002EC00C3088B4201D3CB00C01A524183088B4206
:1002FC0001D38B00C01A524143088B4201D34B00EF
:10030C00C01A5241411A00D2014652411046704760
:10031C005DE0CA0F00D04942031000D34042534065
:10032C0000229C4603098B422DD3030A8B4212D325
:10033C00FC22890112BA030A8B420CD38901921157
:10034C008B4208D3890192118B4204D389013AD094
:10035C00921100E08909C3098B4201D3CB01C01A69
:10036C00524183098B4201D38B01C01A524143097C
:10037C008B4201D34B01C01A524103098B4201D36A
:10038C000B01C01A5241C3088B4201D3CB00C01AD7
:10039C00524183088B4201D38B00C01A5241D9D2EF
:1003AC0043088B4201D34B00C01A5241411A00D270
:1003BC000146634652415B10104601D34042002B6C
:1003CC0000D54942704763465B1000D3404201B5EB
:1003DC00002000F005F802BD0029F8D016E77047A0
:1003EC007047C04690B583B000AF04000800110000
:1003FC00BB1D221C1A803B1D021C1A80BB1C0A1C34
:10040C001A80BB1D18883B1D1988BB1C1B881A0041
:10041C0001F0E4F8C046BD4603B090BDB0B584B061
:10042C0002AF05000C0010001900BB1D2A1C1A801D
:10043C003B1D221C1A80BB1C021C1A803B000A1C90
:10044C001A80BB1D18883B1D1988BB1C1A883B00E1
:10045C001C881823FB181B880093230001F03AFA20
:10046C00C046BD4602B0B0BD90B583B000AF04002D
:10047C0008001100BB1D221C1A803B1D021C1A8097
:10048C00BB1C0A1C1A80BB1C1A883B1D0021595E20
:10049C00BB1D00201B5E1800FFF7A4FFC046BD4625
:1004AC0003B090BDB0B588B000AF05000C001000D3
:1004BC001900BB1D2A1C1A803B1D221C1A80BB1C58
:1004CC00021C1A803B000A1C1A803B0000229A5E18
:1004DC003B1D00215B5ED31AD9175A184A40BB1C2E
:1004EC000021595EBB1D00201B5ECB1AD9175B186F
:1004FC004B4001219A4201DC0023191CCAB21A217B
:10050C007B181A807B1800229B5E002B19D01821B7
:10051C007B18BA1D12881A80BB1D3A1D12881A80CE
:10052C003B1D7A1812881A8016217B18BA1C128867
:10053C001A80BB1C3A0012881A803B007A18128869
:10054C001A80BA1DBB1C0021525E00215B5E9A42D0
:10055C0019DD14217B18BA1D12881A80BB1DBA1C18
:10056C0012881A80BB1C7A1812881A8012217B18E8
:10057C003A1D12881A803B1D3A0012881A803B00E3
:10058C007A1812881A80BB1C1A88BB1D1B88D31AB8
:10059C009AB210203B181A803B0000229A5E3B1D39
:1005AC0000215B5ED31AD9175A184A400E23FB1848
:1005BC001A801E23FA183B1800215B5E002B00DA10
:1005CC0001335B1013803A1D3B000021525E002169
:1005DC005B5E9A4204DA1C23FB1801221A804DE060
:1005EC001C23FB18012252421A8047E01A23FB18E5
:1005FC0000229B5E002B0CD03023FB181A88BB1DED
:10060C000021595E3B1D00201B5E1800FFF72CFFDC
:10061C000BE03023FB181A883B1D0021595EBB1DD3
:10062C0000201B5E1800FFF71FFF1E217B181A8885
:10063C000E23FB181B88D31A9AB27B181A807B18CE
:10064C0000229B5E002B11DA3B1D1A881C23FB1821
:10065C001B88D3189AB23B1D1A807B181A8810235A
:10066C00FB181B88D3189AB27B181A80BB1D00226A
:10067C009B5E9BB201339AB2BB1D1A80BA1DBB1C88
:10068C000021525E00215B5E9A42AFDDC046C0463F
:10069C00BD4608B0B0BDB0B584B002AF05000C00CB
:1006AC0010001900BB1D2A1C1A803B1D221C1A802D
:1006BC00BB1C021C1A803B000A1C1A803B1D1A88AA
:1006CC00BB1C1B88D3189BB2013B9BB21CB2BB1D3D
:1006DC0000229A5E3B1D0021595EBB1D0020185E56
:1006EC003B001B8800932300FFF7DCFEC046BD4691
:1006FC0002B0B0BDB0B584B002AF05000C00100064
:10070C001900BB1D2A1C1A803B1D221C1A80BB1C05
:10071C00021C1A803B000A1C1A80BB1D1A88BB1CC9
:10072C001B88D3189BB2013B9BB21AB23B1D002411
:10073C001C5F3B1D0021595EBB1D0020185E3B0059
:10074C001B8800932300FFF7ADFEC046BD4602B0E8
:10075C00B0BDB0B586B002AF05000C00100019009A
:10076C00BB1D2A1C1A803B1D221C1A80BB1C021CA0
:10077C001A803B000A1C1A80BA1DBB1C0021525E59
:10078C0000215B5E9A422AD13A1D3B000021525E49
:10079C0000215B5E9A420CDD0C217B183A1D1288FD
:1007AC001A803B1D3A0012881A803B007A18128876
:1007BC001A803B001A883B1D1B88D31A9BB201334D
:1007CC009BB21AB22023FB181C883B1D0021595EDA
:1007DC00BB1D0020185E2300FFF75DFF45E03A1DAE
:1007EC003B000021525E00215B5E9A422AD1BA1D69
:1007FC00BB1C0021525E00215B5E9A420CDD0E2177
:10080C007B18BA1D12881A80BB1DBA1C12881A805C
:10081C00BB1C7A1812881A80BB1C1A88BB1D1B883B
:10082C00D31A9BB201339BB21AB22023FB181C883B
:10083C003B1D0021595EBB1D0020185E2300FFF7F5
:10084C0059FF12E03B0000241C5FBB1C00229A5E87
:10085C003B1D0021595EBB1D0020185E2023FB1898
:10086C001B8800932300FFF71DFEC046BD4604B055
:10087C00B0BDF0B587B000AF05000C00100019003A
:10088C00BB1D2A1C1A803B1D221C1A80BB1C021C7F
:10089C001A807B1C0A1C1A70BB1C1B880122D31AE1
:1008AC009AB21623FB181A801423FB1801221A8003
:1008BC00BB1C1B881A1CD203D31ADB189AB2122346
:1008CC00FB181A801023FB1800221A800E23FB1829
:1008DC00BA1C12881A80FEE016217B1800229B5E3F
:1008EC00002B17DB0E203B1800229B5E9BB2013BBA
:1008FC009AB23B181A8012203B181B8802339AB20A
:10090C003B181A807B181A883B181B88D3189AB28C
:10091C007B181A8010217B1800229B5E9BB201333E
:10092C009AB27B181A8014203B181B8802339AB297
:10093C003B181A8016243B191A883B181B88D318AD
:10094C009AB23B191A807B1C1B78042213402CD0C2
:10095C00BB1D1A880C007B181B88D3189BB218B2CD
:10096C003B1D1A880E257B191B88D3189BB219B214
:10097C0028260823F218D3191B881A00FFF774FDD8
:10098C00BB1D1A887B191B88D3189BB218B23B1D50
:10099C001A883B191B88D3189BB219B20823F31879
:1009AC00DB191B881A00FFF75FFD7B1C1B780222EA
:1009BC0013402CD0BB1D1A8810243B191B88D3184C
:1009CC009BB218B23B1D1A880E257B191B88D31AB3
:1009DC009BB219B228260823F218D3191B881A00C7
:1009EC00FFF742FDBB1D1A887B191B88D3189BB2DD
:1009FC0018B23B1D1A883B191B88D31A9BB219B22B
:100A0C000823F318DB191B881A00FFF72DFD7B1C3C
:100A1C001B78082213402CD0BB1D1A880E243B19BE
:100A2C001B88D31A9BB218B23B1D1A8810257B1950
:100A3C001B88D3189BB219B228260823F218D31995
:100A4C001B881A00FFF710FDBB1D1A887B191B8829
:100A5C00D31A9BB218B23B1D1A883B191B88D318AA
:100A6C009BB219B20823F318DB191B881A00FFF785
:100A7C00FBFC7B1C1B78012213402CD0BB1D1A885D
:100A8C000E243B191B88D31A9BB218B23B1D1A8833
:100A9C0010257B191B88D31A9BB219B22826082360
:100AAC00F218D3191B881A00FFF7DEFCBB1D1A883D
:100ABC007B191B88D31A9BB218B23B1D1A883B19A1
:100ACC001B88D31A9BB219B20823F318DB191B88A5
:100ADC001A00FFF7C9FC1023FA180E23FB1800218B
:100AEC00525E00215B5E9A4200DAF5E6C046C046D3
:100AFC00BD4607B0F0BDF0B587B002AF05000C00E5
:100B0C0010001900BB1D2A1C1A803B1D221C1A80C8
:100B1C00BB1C021C1A803B000A1C1A803B00BA1C2E
:100B2C0010881B8819B202B2914200DD031C1BB263
:100B3C000E22BA18002B00DA01335B101380202030
:100B4C0008254319DB190E24391900229A5E00235B
:100B5C00CB5E9A4204DD4319DB193A1912881A80CC
:100B6C00BB1D1A88202508242B19DB191B88D318C8
:100B7C009BB218B2BB1C1A882B19DB191B88DB180B
:100B8C009BB2D31A9BB21AB224263319DB191C88D8
:100B9C003B1D0021595E2300FFF7ACFDBB1D1A88DD
:100BAC0008242B19DB191B88D3189BB218B23B1DD8
:100BBC001A883B001B88D3189BB2013B9BB219B21D
:100BCC00BB1C1A882B19DB191B88DB189BB2D31A98
:100BDC009BB21AB23319DB191B88FFF78BFD3B1D37
:100BEC001A882B19DB191B88D3189BB219B23B003E
:100BFC001A882B19DB191B88DB189BB2D31A9BB2F2
:100C0C001AB23319DB191C88BB1D0020185E230097
:100C1C00FFF741FDBB1D1A88BB1C1B88D3189BB268
:100C2C00013B9BB218B23B1D1A8808242B19DB1907
:100C3C001B88D3189BB219B23B001A882B19DB19ED
:100C4C001B88DB189BB2D31A9BB21AB23319DB196F
:100C5C001B88FFF720FDBB1D1A882B19DB191B887D
:100C6C00D3189BB218B23B1D1A882919CB191B88B3
:100C7C00D3189BB219B22C000823EA18D3190022FE
:100C8C009A5E35000826AB19DB191B8800930123EB
:100C9C00FFF7EFFDBB1D1A88BB1C1B88D3189AB23B
:100CAC0031006318DB191B88D31A9BB2013B9BB232
:100CBC0018B23B1D1A880E00A319DB191B88D31818
:100CCC009BB219B2A319DB1900229A5EAB19DB197E
:100CDC001B8800930223FFF7CCFDBB1D1A88BB1C9D
:100CEC001B88D3189AB221008B19DB191B88D31AD5
:100CFC009BB2013B9BB218B23B1D1A883B001B8870
:100D0C00D3189AB20C00A319DB191B88D31A9BB207
:100D1C00013B9BB219B2A319DB1900229A5EAB19E5
:100D2C00DB191B8800930423FFF7A3FDBB1D1A8856
:100D3C0021008B19DB191B88D3189BB218B23B1DF1
:100D4C001A883B001B88D3189AB20C008B19DB193C
:100D5C001B88D31A9BB2013B9BB219B2A319DB19A6
:100D6C0000229A5EAB19DB191B8800930823FFF74E
:100D7C0080FDC046BD4605B0F0BDB0B58EB000AF2D
:100D8C0005000C0010001900BB1D2A1C1A803B1D0D
:100D9C00221C1A80BB1C021C1A803B000A1C1A80E5
:100DAC003A1D3B000021525E00215B5E9A4219DD28
:100DBC0026217B183A1D12881A803B1D3A00128896
:100DCC001A803B007A1812881A8024217B18BA1DCD
:100DDC0012881A80BB1DBA1C12881A80BB1C7A1888
:100DEC0012881A803A004C217B180020125E0020D9
:100DFC001B5E9A421ADD22203B187A1812881A8040
:100E0C007B183A0012881A803B003A1812881A8014
:100E1C0020217A1848203B181B8813803B18BA1CD9
:100E2C0012881A80BB1C7A1812881A803A1D3B0053
:100E3C000021525E00215B5E9A4219DD1E217B1857
:100E4C003A1D12881A803B1D3A0012881A803B000A
:100E5C007A1812881A801C217B18BA1D12881A80E5
:100E6C00BB1DBA1C12881A80BB1C7A1812881A80F7
:100E7C003A1D4C23FB180021525E00215B5E9A4206
:100E8C0058D134203B18BA1D12881A8036217B1891
:100E9C003A1812881A80BA1C7B180020125E0020A7
:100EAC001B5E9A4204DA7B18BA1C12881A800CE07A
:100EBC00BA1C34217B180020125E00201B5E9A4263
:100ECC0003DD7B18BA1C12881A8048203B18362484
:100EDC00391900229A5E0023CB5E9A4204DA3A1941
:100EEC003B181B8813800DE048203B18342439191B
:100EFC0000229A5E0023CB5E9A4203DD3A193B181E
:100F0C001B8813803423FB181A8836203B181B8847
:100F1C00D31A9BB201339BB21AB25023FB181C8814
:100F2C003B1D0021595E3B180020185E2300FFF783
:100F3C00E1FB51E1BB1C1A88BB1D1B88D31A9AB26A
:100F4C001A23FB181A803B001A883B1D1B88D31AE6
:100F5C009AB21823FB181A8048203B181A88BB1D1C
:100F6C001B88D31A9AB21623FB181A804C217B18B3
:100F7C001A883B1D1B88D31A9AB21423FB181A80AB
:100F8C003B181A88BB1C1B88D31A9AB21223FB1865
:100F9C001A807B181A883B001B88D31A9AB210232C
:100FAC00FB181A800023FB620023BB623A007B18FB
:100FBC000021525E00215B5E9A4205D13023FB1862
:100FCC003A0012881A8006E03B001B88013B9AB25B
:100FDC003023FB181A803223FB183A1D12881A8012
:100FEC0065E01823FB1800229B5E1900F86AFFF7D6
:100FFC000DF903009AB2BB1D1B88D3189AB2362484
:10100C003B191A801423FB1800229B5E1900B86A46
:10101C00FFF7FCF803009AB2BB1D1B88D3189AB2D9
:10102C0034217B181A801A23FB1800229B5EFA6A63
:10103C00D318FB621623FB1800229B5EBA6AD318E6
:10104C00BB623A197B180020125E00201B5E9A428C
:10105C000CDD0C203B183A1912881A803B197A18AF
:10106C0012881A807B183A1812881A803423FB18BD
:10107C001A8836203B181B88D31A9BB201339BB2BB
:10108C001AB25023FB181C8832257B190021595E9B
:10109C003B180020185E2300FFF72CFB29007B185F
:1010AC0000229B5E9BB201339AB27B181A803220CD
:1010BC003A183023FB180021525E00215B5E9A42E5
:1010CC008FDD1223FB1800229B5E3A180021515E23
:1010DC003A000024125F8A1A5343FB621623FB1852
:1010EC0000229B5E3A180021515E3A1D0020125ED0
:1010FC008A1A5343BB6265E01023FB1800229B5EE7
:10110C001900F86AFFF782F803009AB2BB1C1B881F
:10111C00D3189AB236243B191A801423FB180022D8
:10112C009B5E1900B86AFFF771F803009AB2BB1DF9
:10113C001B88D3189AB234217B181A801223FB18FF
:10114C0000229B5EFA6AD318FB621623FB1800225E
:10115C009B5EBA6AD318BB623A197B180020125EE8
:10116C0000201B5E9A420CDD0E203B183A191288A7
:10117C001A803B197A1812881A807B183A18128830
:10118C001A803423FB181A8836203B181B88D31A74
:10119C009BB201339BB21AB25023FB181C88322528
:1011AC007B190021595E3B180020185E2300FFF7C5
:1011BC00A1FA29007B1800229B5E9BB201339AB2E4
:1011CC007B181A803223FA184C23FB180021525E2C
:1011DC0000215B5E9A428FDDBD460EB0B0BD0000B3
:1011EC0080B584B002AF0200BB1D1A80084B0022F0
:1011FC009A5E084B0021595EBB1D1B8800930B00A7
:10120C0000210020FFF70AF9C046BD4602B080BDA0
:10121C00380000203A00002080B500AF8023DB00AE
:10122C0003480022190001F0B9FCC046BD4680BD40
:10123C000004004880B500AF8023DB000348012286
:10124C00190001F0ABFCC046BD4680BD000400484F
:10125C0080B500AF084B00220421180001F09EFC61
:10126C00052001F01DF8044B01220421180001F0A7
:10127C0095FCC046BD4680BD0004004880B582B0D8
:10128C0000AF0200FB1D1A70084B0022022118004F
:10129C0001F084FC01235B42F91D0548012202F098
:1012AC0097F9C046BD4602B080BDC0460004004858
:1012BC008400002080B582B000AF78603960094BA3
:1012CC0001220221180001F069FC3B689AB201234B
:1012DC005B427968044802F07BF9C046BD4602B017
:1012EC0080BDC046000400488400002090B585B045
:1012FC0000AF78607B685A1C7A600F22BA181B7892
:10130C0013704AE07B685A1C7A600B217A181B78A0
:10131C0013707B181B781800FFF7B0FF7B685A1C02
:10132C007A600A203A181B7813703B181B789AB213
:10133C000C23FB1880210A401A803B183A181278AB
:10134C007F210A401A703B181B78002B0CD004002C
:10135C003B181A787B6811001800FFF7ABFF3B199C
:10136C001B787A68D3187B600C217B181B88002BA8
:10137C0013D07B685A1C7A601A787B181A807B18F9
:10138C001B88FF2B03D17B18FA2252001A800C23E6
:10139C00FB181B88180000F083FF0F22BB181B786A
:1013AC00BA18591E1170002BACD1C046C046BD46B0
:1013BC0005B090BDB0B584B000AF05000C001000B6
:1013CC001900FB1D2A1C1A70BB1D221C1A707B1DD8
:1013DC00021C1A703B1D0A1C1A702A20FFF74EFFC4
:1013EC000C217B1800221A701C4B1A78FB1D1B78E1
:1013FC00D318DAB27B185A707B1800229A70174BEC
:10140C001A787B1D1B78D318DAB27B18DA700C00B3
:10141C007B1804211800FFF74DFF2B20FFF72EFF40
:10142C000F4B1A78BB1D1B78D318DAB221007B182E
:10143C005A700B4B1A783B1D1B78D318DAB27B18F9
:10144C00DA707B1804211800FFF734FF2C20FFF70B
:10145C0015FFC046BD4604B0B0BDC0463F000020DD
:10146C004000002080B582B000AF0200FB1D1A7056
:10147C00FFF7D2FEFFF7ECFE0E4B1800FFF736FF1E
:10148C000D4B1800FFF732FF0C4B1800FFF72EFF27
:10149C000B4B00221A700B4B00221A70FB1D1B7891
:1014AC00180000F011F8FFF7C5FEC046BD4602B0AB
:1014BC0080BDC046543C00088C3C00089C3C000895
:1014CC003D0000203E00002080B584B000AF02003B
:1014DC00FB1D1A700F23FB1800221A70FB1D1B78C2
:1014EC0003221340DAB2364B1A70354B1B78032BA0
:1014FC0041D053DC022B2BD050DC002B02D0012B23
:10150C0013D04BE00F23FB18C0221A702D4BA022D6
:10151C001A802D4B80221A802C4B1A782C4B1A7067
:10152C002C4B1A782C4B1A7038E00F23FB18A02286
:10153C001A70254BA0221A80224B80221A80234B32
:10154C001A78254B1A70234B1A78214B1A7025E008
:10155C000F23FB1800221A701A4BA0221A801A4B68
:10156C0080221A80194B1A78194B1A70194B1A7859
:10157C00194B1A7012E00F23FB1860221A70124BD1
:10158C00A0221A800F4B80221A80104B1A78124B13
:10159C001A70104B1A780E4B1A70C046FFF73CFEAF
:1015AC003620FFF76BFE0F23FB1801211800FFF705
:1015BC0081FEFFF73FFEC046BD4604B080BDC0466D
:1015CC003C0000203A000020380000203D000020A4
:1015DC003F0000203E0000204000002090B585B068
:1015EC0000AF040008001100BB1D221C1A803B1D1B
:1015FC00021C1A80BB1C0A1C1A80BB1D1B881C4AAF
:10160C000021525E93422FDA3B1D1B88194A0021A0
:10161C00525E934228DAFFF7FFFDBB1D1B88D8B240
:10162C003B1D1B88D9B2BB1D1B88DBB20133DAB260
:10163C003B1D1B88DBB20133DBB2FFF7BBFEBB1CCF
:10164C001B881B0A9BB2DAB20C217B181A70BB1CCC
:10165C001B88DAB27B185A707B1802211800FFF72E
:10166C0029FEFFF7E7FD00E0C046BD4605B090BD82
:10167C00380000203A00002082B0B0B588B000AF2E
:10168C00040008001100042230255219D2191360ED
:10169C00BB1D221C1A803B1D021C1A80FB1C0A1C41
:1016AC001A70BB1D1B88D8B23B1D1B88D9B2BB1D41
:1016BC001B88DAB204235B19DB191B78D318DBB255
:1016CC00013BDCB23B1D1B88DAB204235B19DB192E
:1016DC005B78D318DBB2013BDBB22200FFF76AFE6A
:1016EC000023FB6153E0042330201B18DB195A68DC
:1016FC00FB1C1B78203B04210918C91949784B4362
:10170C001900FB69CB185B00D3181B887B61002385
:10171C00BB6130E07A69BB699A4080231B0213409D
:10172C0013D03C203B181B881B0A9BB2DAB2102149
:10173C007B181A703B181B88DAB27B185A707B180E
:10174C0002211800FFF7B6FD12E040203B181B8861
:10175C001B0A9BB2DAB20C217B181A703B181B883F
:10176C00DAB27B185A707B1802211800FFF7A2FD21
:10177C00BB690133BB61042330229B18DB191B7836
:10178C001A00BB699342C5D3FB690133FB61042387
:10179C0030229B18DB195B781A00FB699342A2D3A9
:1017AC00C046C046BD4608B0B0BC08BC02B0184725
:1017BC0082B0F0B587B004AF3A6004221824121935
:1017CC000824A446BC4462441360BB1D021C1A804E
:1017DC003B1D0A1C1A80FFF71FFD67E0BB1D1B8811
:1017EC0004221821521808208446BC446244127802
:1017FC009B18364A0020125E934227DBBB1D002249
:10180C001A80042308005B1808229446BC446344E5
:10181C005B7899B23B1D3A1D12888A181A803B1DC1
:10182C001B880422121808218C46BC44624452784E
:10183C009B18274A0021525E93423CDA3B681B7886
:10184C00202B03D13B6801333B602FE03B681D78B4
:10185C00042318269B1908229446BC4463443A1D61
:10186C001488BA1D1088282208215218D2191288FF
:10187C00029224225218D219128801926A4659688F
:10188C0011601B682A002100FFF7F6FE04239B1948
:10189C0008229446BC4463441B7899B2BB1DBA1D04
:1018AC0012888A181A803B6801333B603B681B78AE
:1018BC00002B93D100E0C046FFF7BCFCC046BD46F0
:1018CC0003B0F0BC08BC02B01847C046380000207A
:1018DC003A000020B0B584B000AF05000C00100039
:1018EC001900BB1D2A1C1A803B1D221C1A80BB1C14
:1018FC00021C1A803B000A1C1A80BB1D1B88494A1B
:10190C000021525E934200DB87E03B1D1B88464A58
:10191C000021525E934200DB7FE0BB1D1A88BB1C8A
:10192C001B88D3183F4A0021525E934208DD3D4B81
:10193C0000229B5E99B2BB1CBA1D12888A1A1A80AF
:10194C003B1D1A883B001B88D318374A0021525E76
:10195C00934208DD344B00229B5E99B23B003A1D4A
:10196C0012888A1A1A80FFF757FCBB1D1B88D8B245
:10197C003B1D1B88D9B2BB1D1B88DAB2BB1C1B8854
:10198C00DBB2D318DBB2013BDCB23B1D1B88DAB2F5
:10199C003B001B88DBB2D318DBB2013BDBB222006D
:1019AC00FFF708FD20217B181B881B0A9BB2DAB2BB
:1019BC000C203B181A707B181B88DAB23B185A7033
:1019CC001A4B01220221180001F0E8F83B1D3A00E5
:1019DC0012881A801AE0BB1DBA1C12881A800CE0FF
:1019EC0001235B420C22B9181148022201F0F0FDD0
:1019FC00BB1D1A88BB1D013A1A80BB1D1B88002B0E
:101A0C00EED13B1D1A883B1D013A1A803B1D1B88E9
:101A1C00002BE0D1FFF70EFC00E0C046BD4604B041
:101A2C00B0BDC046380000203A0000200004004839
:101A3C008400002080B500AF00F0CEFB00F016F85B
:101A4C0000F000F900F064F800F0BEF80020FFF799
:101A5C0009FD0020FFF7C4FBFA235B00180000F01F
:101A6C001FFC00F097F900F08AF9FCE790B591B0F3
:101A7C0000AF10243B19180030231A00002102F08B
:101A8C007DF83B00180010231A00002102F076F8B4
:101A9C0021007B1812221A607B180122DA607B1855
:101AAC0001225A617B1810221A617B1810229A614C
:101ABC007B1802221A627B18802212025A627B184F
:101ACC00C02212039A627B180022DA627B1818007B
:101ADC0001F082F8031E01D000F04CF93B00072204
:101AEC001A603B0002225A603B0080229A603B0045
:101AFC000022DA603B000121180001F08BFB031E71
:101B0C0001D000F037F9C046BD4611B090BD0000C1
:101B1C0080B584B000AF3B1D18000C231A000021C7
:101B2C0002F02CF8264B274A1A60254B00225A60EB
:101B3C00234B00229A60224B0022DA60204B0122B8
:101B4C001A611F4B04225A611D4B00221A761C4B42
:101B5C0000225A761A4B00229A76194B0022DA761A
:101B6C00174BC222FF32DA61154B00221A62144B5A
:101B7C00242200219954124B01229A62104B180016
:101B8C0000F0B2FB031E01D000F0F4F83B1D08225C
:101B9C001A603B1D802252015A603B1D8022520567
:101BAC009A603A1D064B1100180000F0DDFC031E74
:101BBC0001D000F0DFF8C046BD4604B080BDC04681
:101BCC00440000200024014080B500AF1B4B1C4A90
:101BDC001A601A4B822252005A60184B00229A60EB
:101BEC00164BE022D200DA60144B00221A61134B20
:101BFC0000225A61114B802292009A610F4B0822ED
:101C0C00DA610E4B00221A620C4B00225A620B4B0B
:101C1C0000229A62094B0722DA62084B00221A63EF
:101C2C00064B08225A63054B180001F019FC031EE1
:101C3C0001D000F09FF8C046BD4680BD8400002056
:101C4C000030014090B58BB000AF14243B19180044
:101C5C0014231A00002101F091FF424B5A69414BA9
:101C6C00802109030A435A613E4B5A6980231B03A6
:101C7C0013403B613B693B4B5A693A4B8021C9038A
:101C8C000A435A61374B5A698023DB031340FB60CC
:101C9C00FB68344B5A69334B802189020A435A61E1
:101CAC00304B5A6980239B021340BB60BB682D4BA1
:101CBC005A692C4B8021C9020A435A61294B5A6933
:101CCC008023DB0213407B607B682749274B002273
:101CDC00180000F063FF3B19E02212021A603B1956
:101CEC0000225A603B1900229A603B19204A1900C5
:101CFC00100000F0E3FD3B1903221A603B1900228F
:101D0C005A603B1900229A603A199023DB051100A6
:101D1C00180000F0D3FD3B19134A1A603B1901223D
:101D2C005A603B1900229A603B190022DA603B1979
:101D3C000E4A1900100000F0C1FD21007B18802212
:101D4C0052011A607B1800225A607B1800229A609C
:101D5C007B18064A1900100000F0B0FDC046BD46C5
:101D6C000BB090BD001002400604000000040048B7
:101D7C000008004880B500AF72B6C046FEE780B5DB
:101D8C0000AF0020FFF72CFA00F07CF8C046BD46EF
:101D9C0080BD000080B584B004AF0020FFF794FB39
:101DAC00314B324800220292314A01926A465968FC
:101DBC0011601B68020000210020FFF7F9FCFA23D8
:101DCC009B00180000F06CFA0020FFF709FA0020C5
:101DDC00FFF77AFB274B284800220292FC22D20004
:101DEC0001926A46596811601B68020000210020AC
:101DFC00FFF7DEFCFA239B00180000F051FA0020DC
:101E0C00FFF7EEF90020FFF75FFB174B1B48002292
:101E1C000292174A01926A46596811601B680200C7
:101E2C0000210020FFF7C4FCFA239B00180000F0EF
:101E3C0037FA0D4B1248002202920D4A01926A4663
:101E4C00596811601B68020014210020FFF7B0FCD8
:101E5C00FA239B00180000F023FA0020FFF7C0F9CA
:101E6C00C046BD4680BDC04600000020F83B0008BF
:101E7C00FFFF000008000020103C00081C3C00087C
:101E8C00343C000880B500AF044B180000F008F893
:101E9C0000F06AF8C046BD4680BDC046483C00080C
:101EAC0080B586B004AF7860C3231B010093002378
:101EBC006D2200213120FEF74CFCC3231B01009343
:101ECC001423452200213120FEF743FCC3231B01C0
:101EDC0000931423592214214520FEF73AFCC32306
:101EEC001B01009300236D2214215920FEF731FCB5
:101EFC00C3231B0102931423019345230093002356
:101F0C00452200213120FEF738FFC3231B01029329
:101F1C00142301935923009300236D22002159208F
:101F2C00FEF72BFFC3231B01009314233C22142127
:101F3C003120FEF773FA0A4B7868C3221201029221
:101F4C00084A01926A46596811601B680200052113
:101F5C003B20FFF72DFCC046BD4602B080BDC046FD
:101F6C0000000020FFFF000080B582B002AF1F23ED
:101F7C00019305230093142328226E212820FEF7B9
:101F8C00BAFDFF23019305230093142328226E210D
:101F9C003C20FEF7B0FDFC23DB00019305230093EE
:101FAC00142328226E215020FEF7A5FD0B4B019324
:101FBC0005230093142328226E216420FEF79BFD39
:101FCC00F8231B02019305230093142328226E216E
:101FDC007820FEF790FDC046BD4680BDE0FF0000B6
:101FEC0080B582B000AF0F4B9A690E4B01210A43AA
:101FFC009A610C4B9B69012213407B607B68094BF7
:10200C00DA69084B802149050A43DA61054BDA6924
:10201C0080235B0513403B603B68C046BD4602B065
:10202C0080BDC0460010024090B58BB000AF786008
:10203C0014243B19180014231A00002101F09EFDF2
:10204C007B681B68184A93422AD1184B9A69174B24
:10205C00802189000A439A61144B9A6980239B0062
:10206C0013403B613B69114B5A69104B8021C902EB
:10207C000A435A610D4B5A698023DB021340FB6003
:10208C00FB683B1901221A603B1903225A603B1969
:10209C0000229A603B19064A1900100000F00EFC51
:1020AC00C046BD460BB090BD00240140001002405C
:1020BC000004004890B58BB000AF786014243B1935
:1020CC00180014231A00002101F058FD7B681B68CE
:1020DC001C4A934232D11C4B9A691B4B80214901FB
:1020EC000A439A61184B9A6980235B0113403B6148
:1020FC003B69154B5A69144B802189020A435A617A
:10210C00114B5A6980239B021340FB60FB68210032
:10211C007B18E0221A607B1802225A607B1800227E
:10212C009A607B180322DA607B1800221A617A18F5
:10213C009023DB051100180000F0C0FBC046BD4623
:10214C000BB090BD003001400010024080B500AFD4
:10215C00FEE780B500AFFEE780B500AFC046BD46D8
:10216C0080BD80B500AFC046BD4680BD80B500AF18
:10217C0000F07AF8C046BD4680BD80B500AFC046C1
:10218C00BD4680BD0D488546FFF7F7FF0C480D494D
:10219C000D4A002302E0D458C4500433C4188C42B6
:1021AC00F9D30A4A0A4C002301E013600432A2421C
:1021BC00FBD301F0EBFCFFF73DFCFEE700800020B9
:1021CC00000000201C000020A85D00081C0000205E
:1021DC00EC000020FEE7000080B500AF074B1A684A
:1021EC00064B10210A431A60032000F009F8FFF790
:1021FC00F7FE00231800BD4680BDC04600200240FB
:10220C0090B583B000AF7860144B1C68144B1B78EE
:10221C001900FA239800FDF76FFF03001900200046
:10222C00FDF76AFF0300180000F03BFB031E01D012
:10223C0001230FE07B68032B0BD8796801235B42E9
:10224C000022180000F018FB064B7A681A60002375
:10225C0000E001231800BD4603B090BD1000002023
:10226C00180000201400002080B500AF054B1B782F
:10227C001A00054B1B68D218034B1A60C046BD46AA
:10228C0080BDC04618000020E800002080B500AFDB
:10229C00024B1B681800BD4680BDC046E8000020FC
:1022AC0080B584B000AF7860FFF7F0FF0300BB602F
:1022BC007B68FB60FB68013305D00A4B1B781A0066
:1022CC00FB689B18FB60C046FFF7E0FF0200BB6891
:1022DC00D31AFA689A42F7D8C046C046BD4604B035
:1022EC0080BDC0461800002080B584B000AF786077
:1022FC000F23FB1800221A700023BB607B68002B95
:10230C0001D1012325E17B689B6B002B0AD17B68F3
:10231C000022DA637B683422002199547B68180010
:10232C00FFF782FE7B689B6B1022134000D003E109
:10233C000F23FB181B78002B00D0FDE07B681B687B
:10234C009B680422134000D0F6E07B689B6B834AA9
:10235C00134002221A437B689A637B681B689B6854
:10236C0003221340012B12D17B681B681B680122CE
:10237C001340012B09D07B681B68DA6880231B0291
:10238C001A4080231B029A4201D1012300E0002352
:10239C00002B16D17B681B68DB681822934319004D
:1023AC007B689A687B681B680A43DA607B681B68E9
:1023BC001B699B0099087B685A687B681B680A43F9
:1023CC001A617B681B68DA687B681B6864490A4081
:1023DC00DA607B681B7E9A037B685B7EDB031A43A7
:1023EC007B689B7E5B031A437B689B6A012B02D044
:1023FC0080235B0100E000231A437B68DB681A43EF
:10240C007B681B69022B01D1042300E000231A43D3
:10241C007B6824215B5C5B001343BA681343BB608D
:10242C007B68DB7E012B15D17B689B7E002B05D155
:10243C00BB68802252021343BB600BE07B689B6B32
:10244C0020221A437B689A637B68DB6B01221A4358
:10245C007B68DA637B68DA69C223FF339A4207D060
:10246C007B68DA697B681B6A1343BA681343BB60E9
:10247C007B681B68D9687B681B68BA680A43DA609A
:10248C007B68DA6A80235B059A421BD07B68DB6A27
:10249C00012B17D07B68DB6A022B13D07B68DB6ABD
:1024AC00032B0FD07B68DB6A042B0BD07B68DB6AB9
:1024BC00052B07D07B68DB6A062B03D07B68DB6AB5
:1024CC00072B12D17B681B685A697B681B68072134
:1024DC008A435A617B681B6859697B68DB6A0722EF
:1024EC001A407B681B680A435A617B681B68DB686F
:1024FC001C4A1340BA689A420BD17B680022DA63FB
:10250C007B689B6B0322934301221A437B689A637B
:10251C001CE07B689B6B1222934310221A437B684E
:10252C009A637B68DB6B01221A437B68DA630F23A7
:10253C00FB1801221A7009E07B689B6B10221A436E
:10254C007B689A630F23FB1801221A700F23FB1868
:10255C001B781800BD4604B080BDC046FDFEFFFFD1
:10256C001902FEFFE7FF3F8380B584B000AF7860AF
:10257C0039600F23FB1800221A700023BB607B68A4
:10258C00DA6A80235B059A4211D07B68DB6A012BE7
:10259C000DD07B68DB6A022B09D07B68DB6A032BCE
:1025AC0005D07B68DB6A042B01D07B68DB6A7B6817
:1025BC0034229B5C012B01D10223BBE07B683422CB
:1025CC00012199547B681B689B680422134000D03E
:1025DC009FE03B685B68594A934200D177E07B6887
:1025EC001B68996A3B681B6801229A407B681B68D0
:1025FC000A439A627B68DA6A80235B059A4237D079
:10260C007B68DB6A012B33D07B68DB6A022B2FD013
:10261C007B68DB6A032B2BD07B68DB6A042B27D00F
:10262C007B68DB6A052B23D07B68DB6A062B1FD00B
:10263C007B68DB6A072B1BD03B689A687B681B683E
:10264C005B6907210B409A4212D07B681B685A6960
:10265C007B681B6807218A435A617B681B68596930
:10266C003B689B6807221A407B681B680A435A61C7
:10267C003B681B68102B03D03B681B68112B52D195
:10268C002F4B19683B681B68102B02D180231B044D
:10269C0001E08023DB032A4A0B4313603B681B6871
:1026AC00102B40D1274B1B6827491800FDF724FD40
:1026BC0003001A0013009B009B185B00BB6002E038
:1026CC00BB68013BBB60BB68002BF9D12BE07B687E
:1026DC001B689A6A3B681B68012199400B00D9431F
:1026EC007B681B680A409A623B681B68102B03D0FE
:1026FC003B681B68112B16D1114B19683B681B6882
:10270C00102B01D1114A00E0114A0D4B0A401A60FE
:10271C0009E07B689B6B20221A437B689A630F232A
:10272C00FB1801221A707B683422002199540F2364
:10273C00FB181B781800BD4604B080BD01100000CA
:10274C00082701401000002040420F00FFFF7FFFD0
:10275C00FFFFBFFF90B583B000AF02003960FB1DD7
:10276C001A70FB1D1B787F2B28D82F4AFB1D1B785A
:10277C005BB29B08C0339B009B58FA1D127811006A
:10278C0003220A40D200FF2191400A00D2431A4092
:10279C0011003B689B01FF221A40FB1D1B7818009F
:1027AC0003230340DB009A401F48FB1D1B785BB2E0
:1027BC009B080A43C0339B001A5031E01B4AFB1D97
:1027CC001B7819000F230B40083B9B0806339B001A
:1027DC00D31804331B68FA1D1278110003220A4027
:1027EC00D200FF2191400A00D2431A4011003B68ED
:1027FC009B01FF221A40FB1D1B781800032303408A
:10280C00DB009A400948FB1D1B781C000F2323405A
:10281C00083B9B080A4306339B00C31804331A6019
:10282C00C046BD4603B090BD00E100E000ED00E005
:10283C0080B582B000AF78607B685A1E80235B0441
:10284C009A4201D3012310E00A4B7A68013A5A608C
:10285C0001235B4203211800FFF77CFF054B00228C
:10286C009A60044B07221A6000231800BD4602B080
:10287C0080BDC04610E000E080B584B000AFB96008
:10288C007A600F217B18021C1A70BA687B181B78AF
:10289C005BB211001800FFF75DFFC046BD4604B0E7
:1028AC0080BD80B582B000AF78607B681800FFF700
:1028BC00BFFF03001800BD4602B080BD80B586B0D6
:1028CC0000AF7860396000237B614FE13B681B6887
:1028DC0001217A6991400A001340FB60FB68002BD0
:1028EC0000D140E13B685B6803221340012B05D00B
:1028FC003B685B6803221340022B30D17B689B68DA
:10290C003B617B695B0003229A401300DA433B690D
:10291C0013403B613B68DA687B695B009A401300AB
:10292C003A6913433B617B683A699A607B685B68E0
:10293C003B6101227B699A401300DA433B691340E7
:10294C003B613B685B681B0901221A407B699A401A
:10295C0013003A6913433B617B683A695A603B68E0
:10296C005B6803221340032B17D07B68DB683B6149
:10297C007B695B0003229A401300DA433B691340E6
:10298C003B613B689A687B695B009A4013003A692B
:10299C0013433B617B683A69DA603B685B680322EE
:1029AC001340022B23D17B69DA087B680832920032
:1029BC00D3583B617B69072213409B000F229A403E
:1029CC001300DA433B6913403B613B681A697B692E
:1029DC0007210B409B009A4013003A6913433B615B
:1029EC007B69DA087B68083292003969D1507B68C0
:1029FC001B683B617B695B0003229A401300DA433E
:102A0C003B6913403B613B685B6803221A407B695E
:102A1C005B009A4013003A6913433B617B683A6947
:102A2C001A603B685A68C0239B02134000D19AE09D
:102A3C00544B9A69534B01210A439A61514B9B6940
:102A4C0001221340BB60BB684F4A7B699B08023371
:102A5C009B009B583B617B69032213409B000F2218
:102A6C009A401300DA433B6913403B617A68902328
:102A7C00DB059A4213D07B68444A93420DD07B68A5
:102A8C00434A934207D07B68424A934201D10323C5
:102A9C0006E0052304E0022302E0012300E000230A
:102AAC007A6903210A40920093403A6913433B61CF
:102ABC0035497B699B0802339B003A695A50364B67
:102ACC009B683B61FB68DA433B6913403B613B68A5
:102ADC005A6880235B03134003D03A69FB681343A5
:102AEC003B612D4B3A699A602B4BDB683B61FB6871
:102AFC00DA433B6913403B613B685A6880239B0374
:102B0C00134003D03A69FB6813433B61224B3A698B
:102B1C00DA60214B5B683B61FB68DA433B6913402D
:102B2C003B613B685A6880239B02134003D03A698F
:102B3C00FB6813433B61184B3A695A60164B1B6890
:102B4C003B61FB68DA433B6913403B613B685A6865
:102B5C0080235B02134003D03A69FB6813433B614B
:102B6C000D4B3A691A607B6901337B613B681A68CB
:102B7C007B69DA40131E00D0A8E6C046C046BD46AD
:102B8C0006B080BD00100240000001400004004867
:102B9C0000080048000C00480004014080B582B0D9
:102BAC0000AF786008001100BB1C021C1A807B1C53
:102BBC000A1C1A707B1C1B78002B04D0BB1C1A88B7
:102BCC007B689A6103E0BB1C1A887B689A62C046DA
:102BDC00BD4602B080BD000080B588B000AF786003
:102BEC007B68002B01D1012305E37B681B68012264
:102BFC00134000D18DE0C54B5B680C221340042BB5
:102C0C000ED0C24B5B680C221340082B16D1BF4B65
:102C1C005A68C0235B021A4080235B029A420DD192
:102C2C00BA4B1A6880239B02134000D170E07B687A
:102C3C005B68002B00D06BE00123DCE27B685B68F7
:102C4C00012B07D1B14B1A68B04B802149020A43C2
:102C5C001A602FE07B685B68002B0CD1AB4B1A68B9
:102C6C00AA4BAB490A401A60A84B1A68A74BA94952
:102C7C000A401A601EE07B685B68052B0ED1A34BE3
:102C8C001A68A24B8021C9020A431A609F4B1A682A
:102C9C009E4B802149020A431A600BE09B4B1A6839
:102CAC009A4B9B490A401A60984B1A68974B994962
:102CBC000A401A607B685B68002B14D0FFF7E6FAB9
:102CCC000300BB6108E0FFF7E1FA0200BB69D31A0D
:102CDC00642B01D903238EE28C4B1A6880239B0250
:102CEC001340F0D015E0FFF7D1FA0300BB6108E008
:102CFC00FFF7CCFA0200BB69D31A642B01D903236A
:102D0C0079E2824B1A6880239B021340F0D100E0D9
:102D1C00C0467B681B680222134000D16CE07B4BE1
:102D2C005B680C2213400ED0784B5B680C2213406E
:102D3C00082B1FD1754B5A68C0235B021A408023A5
:102D4C001B029A4216D1714B1B680222134005D00C
:102D5C007B68DB68012B01D001234CE26B4B1B68B9
:102D6C00F822934319007B681B69DA00674B0A430E
:102D7C001A6041E07B68DB68002B24D0634B1A6837
:102D8C00624B01210A431A60FFF780FA0300BB6112
:102D9C0008E0FFF77BFA0200BB69D31A022B01D9BA
:102DAC00032328E2594B1B6802221340F1D0574BE6
:102DBC001B68F822934319007B681B69DA00534B9C
:102DCC000A431A6018E0514B1A68504B01218A4390
:102DDC001A60FFF75BFA0300BB6108E0FFF756FAD5
:102DEC000200BB69D31A022B01D9032303E2474B20
:102DFC001B6802221340F1D17B681B680822134028
:102E0C0036D07B68DB69002B19D0404B5A6A3F4B9C
:102E1C0001210A435A62FFF739FA0300BB6108E04B
:102E2C00FFF734FA0200BB69D31A022B01D9032332
:102E3C00E1E1364B5B6A02221340F1D018E0334BD0
:102E4C005A6A324B01218A435A62FFF71FFA030078
:102E5C00BB6108E0FFF71AFA0200BB69D31A022B18
:102E6C0001D90323C7E1294B5B6A02221340F1D13C
:102E7C007B681B680422134000D1B5E01F203B186F
:102E8C0000221A70214BDA6980235B05134010D1A4
:102E9C001E4BDA691D4B802149050A43DA611B4B35
:102EAC00DA6980235B051340FB60FB683B18012249
:102EBC001A70194B1A6880235B0013401AD1164BF9
:102ECC001A68154B802149000A431A60FFF7DEF996
:102EDC000300BB6108E0FFF7D9F90200BB69D31A04
:102EEC00642B01D9032386E10B4B1A6880235B000A
:102EFC001340F0D07B689B68012B0FD1034B1A6AEF
:102F0C00024B01210A431A6236E0C046001002400F
:102F1C00FFFFFEFFFFFFFBFF007000407B689B681C
:102F2C00002B0CD1B64B1A6AB54B01218A431A629D
:102F3C00B34B1A6AB24B04218A431A621CE07B68B9
:102F4C009B68052B0CD1AE4B1A6AAD4B04210A437E
:102F5C001A62AB4B1A6AAA4B01210A431A620BE0A4
:102F6C00A74B1A6AA64B01218A431A62A44B1A6A10
:102F7C00A34B04218A431A627B689B68002B14D0F4
:102F8C00FFF784F90300BB6109E0FFF77FF902004A
:102F9C00BB69D31A9B4A934201D903232BE1984B6B
:102FAC001B6A02221340F0D013E0FFF76FF9030005
:102FBC00BB6109E0FFF76AF90200BB69D31A914AB9
:102FCC00934201D9032316E18D4B1B6A0222134055
:102FDC00F0D11F23FB181B78012B05D1884BDA6924
:102FEC00874B89490A40DA617B681B6810221340C1
:102FFC0063D07B685B69012B2AD1814B5A6B804B68
:10300C0004210A435A637E4B5A6B7D4B01210A43C0
:10301C005A63FFF73BF90300BB6108E0FFF736F991
:10302C000200BB69D31A022B01D90323E3E0744BD2
:10303C005B6B02221340F1D0714B5B6BF822934314
:10304C0019007B689B69DA006D4B0A435A6334E0C4
:10305C007B685B69053311D1694B5A6B684B042152
:10306C008A435A63664B5B6BF822934319007B6867
:10307C009B69DA00624B0A435A631EE0604B5A6B41
:10308C005F4B04210A435A635D4B5A6B5C4B012125
:10309C008A435A63FFF7FAF80300BB6108E0FFF7B5
:1030AC00F5F80200BB69D31A022B01D90323A2E065
:1030BC00534B5B6B02221340F1D17B681B6A002BD4
:1030CC0000D197E04E4B5B680C221340082B00D1CB
:1030DC006BE07B681B6A022B4CD1494B1A68484B3E
:1030EC004A490A401A60FFF7D1F80300BB6108E0B7
:1030FC00FFF7CCF80200BB69D31A022B01D90323CA
:10310C0079E03F4B1A6880239B041340F0D13C4B71
:10311C00DB6A0F22934319007B68DA6A384B0A4347
:10312C00DA62374B5B683A4A134019007B689A6A3B
:10313C007B685B6A1A43324B0A435A60304B1A68FD
:10314C002F4B802149040A431A60FFF79FF80300B4
:10315C00BB6108E0FFF79AF80200BB69D31A022B97
:10316C0001D9032347E0264B1A6880239B041340A4
:10317C00F0D03FE0224B1A68214B24490A401A60D8
:10318C00FFF784F80300BB6108E0FFF77FF802004B
:10319C00BB69D31A022B01D903232CE0184B1A68F4
:1031AC0080239B041340F0D124E07B681B6A012B25
:1031BC0001D101231FE0124B5B687B61104BDB6A72
:1031CC003B617A69C0235B021A407B685B6A9A4256
:1031DC000ED13B690F221A407B68DB6A9A4207D1F9
:1031EC007A69F0239B031A407B689B6A9A4201D050
:1031FC00012300E000231800BD4608B080BDC04686
:10320C000010024088130000FFFFFFEFFFFFFFFEDE
:10321C00FF7FC2FF80B584B000AF786039607B68F7
:10322C00002B01D10123B3E05B4B1B68012213403F
:10323C003A689A4211D9584B1B68012293431900E2
:10324C00554B3A680A431A60534B1B6801221340D2
:10325C003A689A4201D001239AE07B681B680222EB
:10326C00134015D07B681B680422134006D04B4BCF
:10327C005A684A4BE021C9000A435A60474B5B68C5
:10328C00F022934319007B689A68444B0A435A60B6
:10329C007B681B680122134040D07B685B68012B64
:1032AC0007D13E4B1A6880239B02134014D1012393
:1032BC006EE07B685B68022B07D1384B1A68802361
:1032CC009B04134008D1012362E0344B1B6802229B
:1032DC00134001D101235BE0304B5B680322934325
:1032EC0019007B685A682D4B0A435A60FEF7CEFFD3
:1032FC000300FB6009E0FEF7C9FF0200FB68D31A6C
:10330C00274A934201D9032342E0244B5B680C22E9
:10331C001A407B685B689B009A42ECD11E4B1B6881
:10332C00012213403A689A4211D21B4B1B680122AE
:10333C0093431900184B3A680A431A60164B1B68E2
:10334C00012213403A689A4201D0012320E07B68A5
:10335C001B680422134009D0104B5B68114A1340C0
:10336C0019007B68DA680D4B0A435A6000F020F8AC
:10337C0001000A4B5B681B090F2213400A4AD35CFD
:10338C000A00DA40094B1A600320FEF739FF0023CC
:10339C001800BD4604B080BD002002400010024061
:1033AC0088130000FFF8FFFF705D0008100000207C
:1033BC0080B586B000AF0023FB600023BB60002308
:1033CC007B6100237B6000233B61214B5B68FB60CE
:1033DC00FB680C221340042B02D0082B03D02EE0E8
:1033EC001C4B3B612EE0FB689B0C0F2213401A4ACE
:1033FC00D35C7B60164BDB6A0F221340174AD35CFD
:10340C00BB60FA68C0235B021A4080235B029A42BD
:10341C0009D1B9680F48FCF76FFE03001A007B68EE
:10342C0053437B6108E0B9680A48FCF765FE03006A
:10343C001A007B6853437B617B693B6102E0054B5F
:10344C003B61C0463B691800BD4606B080BDC04616
:10345C000010024000127A00805D0008905D0008A8
:10346C0080B584B000AF78607B68002B01D101235C
:10347C00A8E07B685B6A002B09D17B685A688223C1
:10348C005B009A4209D07B680022DA6105E07B6818
:10349C0000221A617B6800225A617B6800229A62C2
:1034AC007B685D229B5CDBB2002B07D17B685C22C6
:1034BC00002199547B681800FEF7FCFD7B685D22A7
:1034CC00022199547B681B681A687B681B68402131
:1034DC008A431A607B68DA68E023DB009A4202D9DF
:1034EC000023FB6002E080235B01FB607B68DA68F1
:1034FC00F0231B019A4208D07B68DA68E023DB00DA
:10350C009A4202D07B6800229A627B685A688223B6
:10351C005B001A407B68996884231B020B401A439A
:10352C007B681B6902210B401A437B685B69012194
:10353C000B401A437B68996980239B000B401A430C
:10354C007B68DB6938210B401A437B681B6A80213E
:10355C000B401A4311007B689A6A80239B011A4026
:10356C007B681B680A431A607B689B691B0C0422EE
:10357C001A407B685B6A10210B401A437B685B6BBB
:10358C0008210B401A437B68D968F0231B010B40C0
:10359C001A431100FA6880235B011A407B681B6890
:1035AC000A435A607B681B68DA697B681B680749A9
:1035BC000A40DA617B6800221A667B685D22012171
:1035CC00995400231800BD4604B080BDFFF7FFFFDF
:1035DC0080B588B000AFF860B9603B60BB1D1A8045
:1035EC001F23FB1800221A70FB685C229B5C012BCA
:1035FC0001D1022347E1FB685C2201219954FEF7BB
:10360C0045FE0300BB611623FB18BA1D12881A80F5
:10361C00FB685D229B5CDBB2012B04D01F23FB18E3
:10362C0002221A7028E1BB68002B03D0BB1D1B883B
:10363C00002B04D11F23FB1801221A701CE1FB681C
:10364C005D2203219954FB6800221A66FB68BA6854
:10365C009A63FB68BA1D12889A87FB68BA1D128898
:10366C00DA87FB6800221A64FB6844220021995215
:10367C00FB68462200219952FB6800221A65FB6800
:10368C000022DA64FB689A6880231B029A4210D1EC
:10369C00FB681B681A68FB681B6840218A431A6028
:1036AC00FB681B681A68FB681B688021C9010A4308
:1036BC001A60FB681B681B6840221340402B07D024
:1036CC00FB681B681A68FB681B6840210A431A6078
:1036DC00FB68DA68E023DB009A4252D9FB685B682E
:1036EC00002B04D01623FB181B88012B43D1FB683D
:1036FC009B6B1A88FB681B68DA60FB689B6B9A1CD7
:10370C00FB689A63FB68DB8F9BB2013B9AB2FB6848
:10371C00DA8730E0FB681B689B6802221340022B9F
:10372C0012D1FB689B6B1A88FB681B68DA60FB681C
:10373C009B6B9A1CFB689A63FB68DB8F9BB2013B0B
:10374C009AB2FB68DA8716E0FEF7A0FD0200BB69AF
:10375C00D31A3A689A4202D83B68013302D13B68CB
:10376C00002B08D11F23FB1803221A70FB685D2263
:10377C000121995480E0FB68DB8F9BB2002BC9D1EF
:10378C0053E0FB685B68002B04D01623FB181B88E6
:10379C00012B45D1FB689A6BFB681B680C331278C4
:1037AC001A70FB689B6B5A1CFB689A63FB68DB8F77
:1037BC009BB2013B9AB2FB68DA8731E0FB681B686D
:1037CC009B6802221340022B13D1FB689A6BFB6897
:1037DC001B680C3312781A70FB689B6B5A1CFB68C5
:1037EC009A63FB68DB8F9BB2013B9AB2FB68DA876A
:1037FC0016E0FEF74BFD0200BB69D31A3A689A42F9
:10380C0002D83B68013302D13B68002B08D11F233F
:10381C00FB1803221A70FB685D22012199542BE0DE
:10382C00FB68DB8F9BB2002BC8D1BA693968FB6887
:10383C00180000F05DF9031E02D0FB6820221A6606
:10384C00FB689B68002B0AD100233B61FB681B685B
:10385C00DB683B61FB681B689B683B613B69FB68F1
:10386C001B6E002B04D01F23FB1801221A7003E0DF
:10387C00FB685D2201219954FB685C22002199545C
:10388C001F23FB181B781800BD4608B080BD000034
:10389C0080B588B000AFF860B9603B60FB1D1A7052
:1038AC00FEF7F4FC0200BB6A9B1A3A68D318FB6162
:1038BC00FEF7ECFC0300BB613A4B1B685B011B0D74
:1038CC00FA6953437B6158E03B68013355D0FEF7EE
:1038DC00DDFC0200BB69D31AFA699A4202D9FB6972
:1038EC00002B42D1FB681B685A68FB681B68E021FF
:1038FC008A435A60FB685A6882235B009A4213D150
:10390C00FB689A6880231B029A4205D0FB689A6870
:10391C008023DB009A4207D1FB681B681A68FB689E
:10392C001B6840218A431A60FB689A6A80239B01BA
:10393C009A4210D1FB681B681A68FB681B681A490D
:10394C000A401A60FB681B681A68FB681B688021B8
:10395C0089010A431A60FB685D2201219954FB68B6
:10396C005C2200219954032317E07B69002B01D1C1
:10397C000023FB617B69013B7B61FB681B689B68D7
:10398C00BA681340BA68D31A5A425341DBB21A00D0
:10399C00FB1D1B789A4297D100231800BD4608B036
:1039AC0080BDC04610000020FFDFFFFF80B58AB04D
:1039BC0000AFF860B9607A603B601723FB180022F7
:1039CC001A70FEF763FC02003B6B9B1A3A68D31823
:1039DC007B62FEF75BFC03003B62FB681B680C33ED
:1039EC00FB61414B1A6813009B009B18DA00D31A39
:1039FC001B0D7A6A5343BB6168E0BA68C023DB00D5
:103A0C009A420AD17B68002B07D1FB691B78DAB28A
:103A1C0017217B181A707B181B783B68013355D023
:103A2C00FEF734FC02003B6AD31A7A6A9A4202D936
:103A3C007B6A002B42D1FB681B685A68FB681B68C9
:103A4C00E0218A435A60FB685A6882235B009A42E1
:103A5C0013D1FB689A6880231B029A4205D0FB683D
:103A6C009A688023DB009A4207D1FB681B681A68AE
:103A7C00FB681B6840218A431A60FB689A6A8023A2
:103A8C009B019A4210D1FB681B681A68FB681B6883
:103A9C0016490A401A60FB681B681A68FB681B68A9
:103AAC00802189010A431A60FB685D220121995427
:103ABC00FB685C2200219954032310E0BB69002BA6
:103ACC0001D100237B62BB69013BBB61FB681B68B6
:103ADC009B68BA6813407A689A428ED1002318000A
:103AEC00BD460AB080BDC04610000020FFDFFFFFBE
:103AFC0080B586B002AFF860B9607A60BA68C0234E
:103B0C005901F8687B68009313000022FFF74EFF01
:103B1C00031E07D0FB681B6E20221A43FB681A6633
:103B2C00032327E0BA68F8687B680093130000222F
:103B3C008021FFF7ADFE031E07D0FB681B6E202211
:103B4C001A43FB681A66032314E0BA68C023D90031
:103B5C00F8687B68009313000022FFF727FF031E11
:103B6C0007D0FB681B6E20221A43FB681A660323DE
:103B7C0000E000231800BD4604B080BD030082188D
:103B8C00934200D1704719700133F9E770B50026E4
:103B9C000C4C0D4D641BA410A64209D1002600F05C
:103BAC0019F80A4C0A4D641BA410A64205D170BD2D
:103BBC00B300EB5898470136EEE7B300EB58984743
:103BCC000136F2E7A05D0008A05D0008A45D0008C6
:103BDC00A05D0008F8B5C046F8BC08BC9E4670470E
:0C3BEC00F8B5C046F8BC08BC9E46704707
:103BF800556E4E61747572616C20656E672E20700B
:103C0800726573656E74730070482D4D4554455246
:103C180020563000412070726F64756374206465AB
:103C280076656C6F7065642062790000416E64721D
:103C38006561204661746F20656E672E0000000084
:103C480043757272656E7420704800000F0180968B
:103C58001180FFB103012C2DB203012C2DB30601F5
:103C68002C2D012C2DB40107C003A20284C101C56B
:103C7800C2020A00C3028A2AC4028AEEC5010E20C3
:103C8800003A0105022A040000007F2B040000000E
:103C98007F00000004E010021C07123732292D298A
:103CA800252B3900010310E110031D07062E2C29CE
:103CB8002D2E2E373F0000021013800A2980640041
:103CC80000000000000000000000000000000000EC
:103CD80000000000000000000000000000000000DC
:103CE800000000000000000C000C000C000C000C90
:103CF800000C000C000C000C000C000C0000000C68
:103D0800000C0000000000000000001B001B001B4E
:103D1800001B001B00000000000000000000000065
:103D280000000000000000000000000000008019F2
:103D3800801980198019C07FC07F80190033C07F27
:103D4800C07F003300330033003300000000000060
:103D58000000001E003F807580650074003C001E56
:103D680000078005806580658075003F001E00049F
:103D7800000400000000007000D840D8C0D880D9E6
:103D880000730006000C801BC036C066C046C00623
:103D980080030000000000000000001E003F003308
:103DA80000330033001E000CC03CC0668063806195
:103DB8008063C03E801C0000000000000000000C72
:103DC800000C000C000C000C0000000000000000BB
:103DD80000000000000000000000000000000000DB
:103DE800800000010003000600060004000C000C1F
:103DF800000C000C000C000C000400060006000378
:103E080000018000002000100018000C000C0004C5
:103E18000006000600060006000600060004000C66
:103E2800000C0018001000200000000C002D003FBE
:103E3800001E003300000000000000000000000029
:103E4800000000000000000000000000000000006A
:103E58000000000C000C000C000CC0FFC0FF000CA0
:103E6800000C000C000C0000000000000000000026
:103E7800000000000000000000000000000000003A
:103E880000000000000000000000000C000C00040E
:103E9800000400080000000000000000000000000E
:103EA800000000000000001E001E000000000000CE
:103EB80000000000000000000000000000000000FA
:103EC80000000000000000000000000000000000EA
:103ED8000000000C000C00000000000000000003BF
:103EE800000300030006000600060006000C000C94
:103EF800000C000C0018001800180000000000005A
:103F08000000001E003F0033806180618061806D89
:103F1800806D8061806180610033003F001E000079
:103F28000000000000000006000E001E00360026FB
:103F38000006000600060006000600060006000649
:103F480000060000000000000000001E003F807313
:103F580080618061800100030006000C00180030B9
:103F68000060807F807F0000000000000000001CCF
:103F7800003E006300630003000E000E0003800192
:103F8800800180618073003F001E00000000000077
:103F980000000006000E000E001E001E001600366F
:103FA80000360066807F807F00060006000600005D
:103FB800000000000000007F007F006000600060DB
:103FC800006E007F80638001800180618073003F04
:103FD800001E0000000000000000001E003F8033AB
:103FE80080610060006E007F807380618061806105
:103FF8008033003F001E0000000000000000807FAA
:10400800807F80010003000300060006000C000CFE
:10401800000C00080018001800180000000000003C
:104028000000001E003F8063806180610021001E47
:10403800003F8061806180618061003F001E000058
:10404800000000000000001E003F007380618061D6
:1040580080618073803F801D800180610073003F14
:10406800001E00000000000000000000000000002A
:104078000000000C000C0000000000000000000020
:104088000000000C000C0000000000000000000010
:104098000000000000000000000C000C0000000000
:1040A800000000000000000C000C000400040008E0
:1040B800000000000000000080008003000E0038AF
:1040C80000600038000E800380000000000000003F
:1040D8000000000000000000000000000000807FD9
:1040E800807F00000000807F807F000000000000CB
:1040F80000000000000000000000000000000000B8
:1041080000400070001C000780010007001C0070C0
:104118000040000000000000000000000000001F38
:10412800803FC071C060C000C00180030007000E5E
:10413800000C000C0000000C000C00000000000047
:104148000000001E003F803180718063806F806DA9
:10415800806D806F806700600032003E001C0000A8
:10416800000000000000000E000E001B001B001BDA
:10417800001B80318031803F803F8031C060C0604B
:10418800C0600000000000000000007C007E0063AA
:10419800006300630063007E007E006380618061CD
:1041A8008063007F007E0000000000000000001E09
:1041B800003F803180610060006000600060006046
:1041C800006080618031003F001E00000000000098
:1041D8000000007C007F00638063806180618061F3
:1041E80080618061806100630063007E007C000064
:1041F800000000000000807F807F00600060006099
:104208000060007F007F0060006000600060807FC9
:10421800807F0000000000000000807F807F006039
:10422800006000600060007F007F00600060006048
:104238000060006000600000000000000000001E38
:10424800003F8031806100600060006080638063AF
:10425800806180618031803F001E00000000000006
:104268000000806180618061806180618061807F01
:10427800807F8061806180618061806180610000F1
:10428800000000000000003F003F000C000C000C84
:10429800000C000C000C000C000C000C000C003F83
:1042A800003F000000000000000080018001800144
:1042B800800180018001800180018001806180612E
:1042C8008073003F001E0000000000000000C06076
:1042D8008061006300660066006C0078007C006600
:1042E8000066006380618061C0600000000000001B
:1042F8000000006000600060006000600060006016
:1043080000600060006000600060807F807F0000C7
:10431800000000000000C071C071C07BC07AC06A94
:10432800C06AC06EC064C060C060C060C060C06069
:10433800C06000000000000000008071807180797A
:1043480080798079806D806D806D806580678067F9
:104358008067806380630000000000000000001E8A
:10436800003F00338061806180618061806180618D
:10437800806180610033003F001E000000000000E3
:104388000000007E007F80638061806180618063BF
:10439800007F007E00600060006000600060000038
:1043A800000000000000001E003F003380618061B3
:1043B8008061806180618061806580670033803FB3
:1043C800401E0000000000000000007E007F8063A7
:1043D800806180618063007F007E00660063006307
:1043E80080618061C0600000000000000000000ED5
:1043F800001F8031803100300038001E0007800324
:10440800806180618031003F001E000000000000D4
:104418000000C0FFC0FF000C000C000C000C000CDA
:10442800000C000C000C000C000C000C000C000030
:10443800000000000000806180618061806180610F
:104448008061806180618061806180618073003FEC
:10445800001E0000000000000000C060C060C060D6
:10446800803180318031001B001B001B001B000EB7
:10447800000E000E00040000000000000000C0C094
:10448800C0C0C0C0C0C0C0C0C0CC804C804C805E22
:1044980080528052807380618061000000000000BB
:1044A8000000C0C0806080610033003B001E000C2B
:1044B800000C001E001F003B80718061C0C000001E
:1044C800000000000000C0C080618061003300333C
:1044D800001E001E000C000C000C000C000C000C50
:1044E800000C0000000000000000803F803F8001B9
:1044F800000300030006000C000C00180018003030
:104508000060807F807F000000000000000F000F27
:10451800000C000C000C000C000C000C000C000C33
:10452800000C000C000C000C000C000C000F000F1D
:104538000000001800180018000C000C000C000CFB
:104548000006000600060006000300030003000042
:1045580000000000001E001E0006000600060006FF
:104568000006000600060006000600060006000613
:1045780000060006001E001E0000000C000C001EB5
:1045880000120033003380618061000000000000E9
:104598000000000000000000000000000000000013
:1045A8000000000000000000000000000000000003
:1045B800000000000000000000000000E0FF000014
:1045C800000000380018000C000000000000000087
:1045D80000000000000000000000000000000000D3
:1045E8000000000000000000000000000000001FA4
:1045F800803F80618001801F803F80618063807F71
:10460800C03800000000000000000060006000608A
:104618000060006E007F80738061806180618061CE
:104628008073007F006E00000000000000000000A2
:10463800000000000000001E003F807380610060E1
:10464800006080618073003F001E000000000000D1
:1046580000008001800180018001801D803F8073FF
:1046680080618061806180618073803F801D00006F
:104678000000000000000000000000000000001E14
:10468800003F00738061807F807F00608071003F01
:10469800001E0000000000000000C007C00F000C52
:1046A800000C807F807F000C000C000C000C000CBC
:1046B800000C000C000C00000000000000000000CE
:1046C80000000000801D803F8073806180618061F0
:1046D80080618073803F801D80018063007F003E81
:1046E80000000060006000600060006F807F8071E3
:1046F800806180618061806180618061806100008B
:104708000000000000000006000600000000003E57
:10471800003E000600060006000600060006000629
:10472800000600000000000000060006000000006F
:10473800003E003E000600060006000600060006D1
:104748000006000600060046007E003C00000060EF
:10475800006000600060806100630066006C007C9F
:104768000076006300638061C06000000000000004
:104778000000003E003E0006000600060006000697
:1047880000060006000600060006000600060000F7
:10479800000000000000000000000000000080DDB4
:1047A800C0FFC0CEC0CCC0CCC0CCC0CCC0CCC0CC6C
:1047B800C0CC000000000000000000000000000065
:1047C8000000006F807F80718061806180618061FE
:1047D800806180618061000000000000000000002E
:1047E800000000000000001E003F807380618061AF
:1047F800806180618073003F001E0000000000009F
:104808000000000000000000006E007F80738061DF
:104818008061806180618073007F006E006000604D
:10482800006000600000000000000000801D803F64
:10483800807380618061806180618073803F801DAA
:10484800800180018001800100000000000000005C
:1048580000000067803F0039003000300030003031
:1048680000300030003000000000000000000000B0
:10487800000000000000001E803F80610060007F93
:10488800803F80018061007F001E00000000000062
:1048980000000000000800180018007F007F0018C2
:1048A80000180018001800180018801F800F00005A
:1048B800000000000000000000000000000080610F
:1048C8008061806180618061806180618063807FB8
:1048D800803D000000000000000000000000000013
:1048E8000000C060803180318031001B001B001B3C
:1048F800000E000E0006000000000000000000008E
:1049080000000000000080DD80DD80DD00550055DE
:104918000055007700770022002200000000000008
:104928000000000000000000000080610033003338
:10493800001E000C000C001E0033003380610000D4
:10494800000000000000000000000000806180619D
:10495800803100330033001B001B001B000E000ECB
:10496800000E001C007C0070000000000000000029
:104978000000C07FC07F800100030006000C001803
:104988000030C07FC07F0000000000008003800767
:1049980000060006000600060006000E001C001CAB
:1049A800000E0006000600060006000680078003C9
:1049B80000060006000600060006000600060006BF
:1049C80000060006000600060006000600060006AF
:1049D800000600060038003C000C000C000C000C1F
:1049E800000C000E00070007000E000C000C000C65
:1049F800000C000C003C0038000000000000000023
:104A08000000000000008038807F004700000000A0
:104A1800000000000000000000000000000000008E
:104A2800000000000000000000000000000000007E
:104A3800000000000000000000000000000000006E
:104A4800000000000000000000000000000000005E
:104A5800E003E003E003E003E003E003E003E00336
:104A6800C003C003C001C001C001C001C0010000F3
:104A780000000000E003E003E00300000000000085
:104A8800000000003C1E3C1E3C1E3C1E3C1E3C1E02
:104A98003C1E0000000000000000000000000000B4
:104AA80000000000000000000000000000000000FE
:104AB8000000000000000000CE01CE03DE039E03CC
:104AC8009C039C07FF3FFF7F3807380F780F780F4C
:104AD800780EFFFFFFFFF01EF01CE01CE03CE03DFD
:104AE800E03900000000000000000000FC03FE0F99
:104AF800EE1FE01EE01EE01EE01EE01FE00FE007D4
:104B0800F003FC01FE01FE01FE01FE01FE01FE01B3
:104B1800FE3DFC3FF00FE001E00100000000000056
:104B2800033E07F78FE78EE79EE3BCE3B8E7F8E7B5
:104B3800F0F7E03FC001FF03FF07F307F30FF31E91
:104B4800F33CF338F3787FF03FE00000000000000A
:104B580000000000E007F80F780F781F781F781F13
:104B6800780FF00FE00F801FC37FC3FBE7F3F7F167
:104B7800F7F0FFF07FF03EF87F7CFF3FEF1F00006B
:104B88000000000000000000E003E003E003E00391
:104B9800E003C003C00100000000000000000000A6
:104BA80000000000000000000000000000000000FD
:104BB8000000000000000000000000003F007C0032
:104BC800F001E001C003C00780078007800F000FD5
:104BD800000F000F000F000F000F800F80078007E5
:104BE800C007C003E001F0017C003F000F00000097
:104BF800007E001FC007C003E001F001F000F000D4
:104C0800F800780078007800780078007800F800DC
:104C1800F000F000F001E001C003C007001F007EB3
:104C280000780000E003C003C001CE39FF3F7F3F9A
:104C380020037003F807780F3C1F380600000000B7
:104C4800000000000000000000000000000000005C
:104C5800000000000000000000000000000000004C
:104C680000000000C001C001C001C001C001C001B6
:104C7800C001FFFFFFFFC001C001C001C001C001AA
:104C8800C00100000000000000000000000000005B
:104C9800000000000000000000000000000000000C
:104CA8000000000000000000000000000000E00319
:104CB800E003E003E003E001E001E001C00180035C
:104CC80000000000000000000000000000000000DC
:104CD800000000000000FE3FFE3F00000000000052
:104CE80000000000000000000000000000000000BC
:104CF80000000000000000000000000000000000AC
:104D0800000000000000000000000000000000009B
:104D1800000000000000E003E003E003E0030000FF
:104D280000000000000000000F000F001E001E0021
:104D38003C003C0078007800F000F000E001E00161
:104D4800C003C00380078007000F000F001E001E6D
:104D5800003C003C0078007800F00000F007F80FF5
:104D68007C1F3E3E1E3C1F7C1F7C0F780F780F78FF
:104D78000F780F780F780F781F7C1F7C1E3C3E3E03
:104D88007C1FF80FF0070000000000000000000082
:104D9800F000F007F03FF03FF001F001F001F00102
:104DA800F001F001F001F001F001F001F001F00173
:104DB800F001F001F001FF3FFF3F0000000000009C
:104DC80000000000E00FF83F7C3C3C003E003E0045
:104DD8003E003C003C007C00F800F001E003C00706
:104DE8008007000F001E003E003CFE3FFE3F000013
:104DF8000000000000000000F00FF81F7C1C3E00BF
:104E08003E003E003C003C00F800F00FF80F7C002C
:104E18003E001E001E001E001E003E007C1CF81FE7
:104E2800E01F000000000000000000007800F8000B
:104E3800F800F801F803F807F807780F781E781ECD
:104E4800783C78787878FFFFFFFF78007800780062
:104E580078007800780000000000000000000000E2
:104E6800FC1FFC1FFC1F001E001E001E001E001E53
:104E7800E01FF81FFC007C003E003E001E003E00C4
:104E88003E003C007C1CF81FE01F000000000000F2
:104E980000000000FC01FE078E0F001F001E003EF0
:104EA800003C003CF83DFC3F3E7F1F7E0F3C0F3C22
:104EB8000F3C0F3C0F3E1F1E3E1FFC0FF00300006F
:104EC8000000000000000000FF3FFF3FFF3F0F0011
:104ED8001E001E003C0038007800F000F000E001E1
:104EE800E001C003C0038007800F800F000F001F80
:104EF800001F00000000000000000000F807FC0F81
:104F08003E1F1E1E1E3E1E3E1E1E3C1FF80FF007B3
:104F1800F80FFC1E3E3E1F3C1F7C0F7C0F7C1F3C85
:104F28003E3FFC1FF00700000000000000000000EA
:104F3800F007F80F7C1E3E3C1E3C1F7C1F7C1F7C2C
:104F48001F7C1F3C3F3EFF1FEF071F001E001E0077
:104F58003E003C00F838F03FE01F00000000000071
:104F68000000000000000000000000000000000039
:104F7800E003E003E003E00300000000000000009D
:104F8800000000000000E003E003E003E00300008D
:104F98000000000000000000000000000000000009
:104FA80000000000E003E003E003E003000000006D
:104FB80000000000000000000000E003E003E00340
:104FC800E003E001E001E001C0038003000000000D
:104FD800000000000000000003000F003F00FC007C
:104FE800F003C00F003F00FE003FC00FF003FC00BD
:104FF8003F000F0003000000000000000000000058
:105008000000000000000000000000000000000098
:1050180000000000FFFFFFFF000000000000FFFF8E
:10502800FFFF00000000000000000000000000007A
:105038000000000000000000000000000000000068
:1050480000E000F8007E801FE007F8017E001F00E6
:105058007E00F801E007801F007E00F800E00000F5
:105068000000000000000000F01FFC3F3E381F3821
:105078001F381E001E003C007800F000E001C0034D
:10508800C003C007C007000000000000C007C00739
:10509800C00700000000000000000000F803FE0F39
:1050A8001E1F0F3E7F3CFF78EF79C773C7F38FF35E
:1050B8008FF38FF39FF39FF3FF73FF7BF779003C28
:1050C8001C1FFC0FF8030000000000000000000097
:1050D800000000000000E003E003F007F007F0071D
:1050E800780F780F7C0E3C1E3C1E3E3CFE3FFF3F77
:1050F8001F780F780FF007F007F00000000000009D
:1051080000000000000000000000F83FFC3F3E3CAB
:105118001E3C1E3C1E3C3E3C7C3CF03FF83F7E3C27
:105128001F3C1F3C0F3C0F3C1F3CFE3FF83F00005C
:105138000000000000000000000000000000FF0167
:10514800FF07871F003E003C007C0078007800784D
:1051580000780078007C007C003E003F831FFF073A
:10516800FF01000000000000000000000000000037
:105178000000F07FFC7F7E781F781F780F780F780B
:105188000F780F780F780F780F780F781F781E78C0
:105198007E78F87FE07F000000000000000000003B
:1051A800000000000000FF3FFF3F003E003E003EC1
:1051B800003E003E003EFE3FFE3F003E003E003EF9
:1051C800003E003E003EFF3FFF3F000000000000A1
:1051D80000000000000000000000FF1FFF1F001E6D
:1051E800001E001E001E001E001EFF1FFF1F001EC7
:1051F800001E001E001E001E001E001E001E0000D5
:105208000000000000000000000000000000FE0395
:10521800FF0F871F003E007C007C007800F800F834
:105228007FF87FF80F780F7C0F7C0F3E8F1FFF0FE2
:10523800FE03000000000000000000000000000065
:1052480000001F7C1F7C1F7C1F7C1F7C1F7C1F7C19
:105258001F7CFF7FFF7F1F7C1F7C1F7C1F7C1F7CA8
:105268001F7C1F7C1F7C0000000000000000000065
:10527800000000000000FF3FFF3FE003E003E00301
:10528800E003E003E003E003E003E003E003E003FE
:10529800E003E003E003FF3FFF3F000000000000E1
:1052A80000000000000000000000FC1FFC1F7C0044
:1052B8007C007C007C007C007C007C007C007C0006
:1052C8007C007C0078007800F838F03FC03F000090
:1052D80000000000000000000000000000001F3C6B
:1052E8001E3C3C3C783CF03CE03DE03FC03F803F0A
:1052F800C03FE03FF03DF03C783C7C3C3E3C1F3CEE
:105308000F3C00000000000000000000000000004A
:105318000000003E003E003E003E003E003E003ED3
:10532800003E003E003E003E003E003E003E003E85
:10533800003EFF3FFF3F00000000000000000000AB
:105348000000000000001FF81FFC1FFC3FFE3FFE8E
:105358003FFE7FFF77FF77FFF7F7E7F7E7F3E7F31E
:10536800C7F307F007F007F007F00000000000009F
:10537800000000000000000000000F7C0F7C0F7E82
:105388000F7F0F7F8F7F8F7FCF7FEF7BEF79FF7945
:10539800FF78FF787F783F783F781F781F78000084
:1053A8000000000000000000000000000000F007FE
:1053B800FC1F3E3E1F7C0F780F780FF80FF80FF890
:1053C8000FF80FF80FF80F780F781F7C3E3EFC1F80
:1053D800F0070000000000000000000000000000CE
:1053E8000000FC3FFF3F1F3E0F3E0F3E0F3E0F3EAB
:1053F8001F3E3F3EFC3FF03F003E003E003E003E69
:10540800003E003E003E00000000000000000000DA
:10541800000000000000F007FC1F3E3E1F7C0F78D4
:105428000F780FF80FF80FF80FF80FF80FF80F783C
:105438000F781F7C3E3EFC1FF8077C003F000F00E2
:1054480003000000000000000000F03FFC3F7E3C2D
:105458003E3C1E3C1E3C3E3C3C3CFC3CF03FE03F9E
:10546800F03DF83C7C3C3E3C1E3C1F3C0F3C0000A1
:105478000000000000000000000000000000FC0721
:10548800FE1F0E3E003C003C003C003EC01FF80FD3
:10549800FE037F001F000F000F001F203E3CFC3F53
:1054A800F01F0000000000000000000000000000E5
:1054B8000000FFFFFFFFE003E003E003E003E00379
:1054C800E003E003E003E003E003E003E003E003BC
:1054D800E003E003E003000000000000000000001B
:1054E8000000000000000F7C0F7C0F7C0F7C0F7CFD
:1054F8000F7C0F7C0F7C0F7C0F7C0F7C0F7C0F7C4C
:105508001E3C1E3C3E3EFC1FF00700000000000051
:105518000000000000000000000007F007F007F896
:105528000F780F7C1E3C1E3C1E3E3C1E3C1F781F05
:10553800780FF80FF007F007F007E003E00300002A
:10554800000000000000000000000000000003E070
:1055580003F003F007F0E7F3E7F3E7F3E773F77B0C
:10556800F77FFF7F7F7F7F7F7E7F7E3F3E3E3E3E91
:105578003E3E0000000000000000000000000000A7
:10558800000007F80F7C1E3E3E3E3C1FF80FF00758
:10559800E007E003E003F007F80F7C0F7C1E3E3CB9
:1055A8001F780F780FF000000000000000000000D6
:1055B80000000000000007F807780F7C1E3C1E3E24
:1055C8003C1F780FF80FF007E003E003E003E00367
:1055D800E003E003E003E003E00300000000000054
:1055E80000000000000000000000FF7FFF7F0F00A8
:1055F8001F003E007C00F800F000E001E003C00757
:10560800800F000F001E003E007CFF7FFF7F000020
:105618000000000000000000FF07800780078007E7
:10562800800780078007800780078007800780073A
:10563800800780078007800780078007800780072A
:10564800800780078007FF07FF07000000780078C1
:10565800003C003C001E001E000F000F8007800762
:10566800C003C003E001E001F000F000780078001A
:105678003C003C001E001E000F000F000700000049
:10568800F07FF000F000F000F000F000F000F00013
:10569800F000F000F000F000F000F000F000F00082
:1056A800F000F000F000F000F000F000F000F07FF3
:1056B800F07F0000C000C001C001E003E003F00774
:1056C800F0077807780F380F3C1E3C1E1E3C1E3C26
:1056D8000F380F7807780000000000000000000075
:1056E80000000000000000000000000000000000B2
:1056F80000000000000000000000000000000000A2
:105708000000000000000000000000000000000091
:105718000000FFFFFFFF000000000000F000000095
:105728000000000000000000000000000000000071
:105738000000000000000000000000000000000061
:105748000000000000000000000000000000000051
:10575800000000000000000000000000F80FFC3FFF
:105768007C3C3E003E003E00FE07FE1F3E3E3E7C67
:105778003E783E7C7E7CFF3FCF1F0000000000008B
:1057880000000000003C003C003C003C003C003CA9
:10579800F83DFE3F3E3F1F3E0F3C0F3C0F3C0F3C89
:1057A8000F3C0F3C1F3C1E3C3E3FFC3FF03B0000C3
:1057B80000000000000000000000000000000000E1
:1057C80000000000FE03FF0F871F003E003E003C64
:1057D800007C007C007C003C003E003E871FFF0FE1
:1057E800FE03000000000000000000001F001F0072
:1057F8001F001F001F001F00FF07FF1F3F3E1F3C29
:105808001F7C1F7C1F7C1F781F781F7C1F7C3F3CE0
:105818007F3EFF1FDF0F00000000000000000000B7
:10582800000000000000000000000000F803FC0F6A
:105838003E1F1E3E1F3C1F7CFF7FFF7F007C007CBD
:10584800003C003E071FFF0FFE03000000000000A1
:1058580000000000FF01E103C003C007C007C00744
:10586800FF7FFF7FC007C007C007C007C007C0078A
:10587800C007C007C007C007C007C007C0070000AF
:105888000000000000000000000000000000000010
:1058980000000000EF07FF1F7F3E1F3C1F7C1F7C9E
:1058A8001F781F781F781F7C1F7C3F3C7F3EFF1F9F
:1058B800DF0F1E001E001E007C38F83F003C003C35
:1058C800003C003C003C003CFC3DFE3F9E3F1F3F2F
:1058D8001F3E1F3C1F3C1F3C1F3C1F3C1F3C1F3CE6
:1058E8001F3C1F3C1F3C000000000000000000009F
:1058F800F001F0010000000000000000E07FE07F00
:10590800E001E001E001E001E001E001E001E00187
:10591800E001E001E001E001E0010000000000001A
:1059280000000000F800F80000000000000000007F
:10593800F83FF83FF800F800F800F800F800F80021
:10594800F800F800F800F800F800F800F800F8008F
:10595800F800F000F071E07F003C003C003C003CA7
:10596800003C003C1F3C3E3C7C3CF83CF03DE03DAC
:10597800C03FC03FE03FF03DF83C7C3C3E3C1F3C14
:105988001F3C00000000000000000000F07FF00154
:10599800F001F001F001F001F001F001F001F00177
:1059A800F001F001F001F001F001F001F001F00167
:1059B800F001F001F001000000000000000000000C
:1059C8000000000000000000000000009EF7FFFF3C
:1059D800FFFFFFFFE7FBE7F9C7F1C7F1C7F1C7F121
:1059E800C7F1C7F1C7F1C7F1C7F100000000000017
:1059F800000000000000000000000000000000009F
:105A0800FC3DFE3F9E3F1F3F1F3E1F3C1F3C1F3C6F
:105A18001F3C1F3C1F3C1F3C1F3C1F3C1F3C000001
:105A2800000000000000000000000000000000006E
:105A380000000000F007FC1F3E3E1F3C1F7C0F7853
:105A48000F780F780F780F781F7C1F3C3E3EFC1FA5
:105A5800F007000000000000000000000000000047
:105A68000000000000000000F83DFE3F3E3F1F3EE2
:105A78000F3C0F3C0F3C0F3C0F3C0F3C1F3C1E3EA5
:105A88003E3FFC3FF83F003C003C003C003C003CF3
:105A9800000000000000000000000000EE07FE1FEC
:105AA8007E3E1E3C1E7C1E781E781E781E781E7850
:105AB8001E7C3E7C7E3EFE1FDE0F1E001E001E006A
:105AC8001E001E0000000000000000000000000092
