:020000040800F2
:1000000000800020696900085163000857630008F8
:1000100000000000000000000000000000000000E0
:100020000000000000000000000000005D63000808
:100030000000000000000000676300087163000812
:10004000B969000800000000B9690008B969000832
:10005000B9690008B9690008B9690008B9690008F8
:1000600000000000B9690008B9690008B969000812
:10007000B9690008B9690008B96900080000000002
:10008000B9690008B9690008B9690008B9690008C8
:10009000B9690008B9690008B9690008B9690008B8
:1000A000B9690008B9690008B9690008B9690008A8
:0C00B000B9690008B969000800000000F0
:1000BC0010B5064C2378002B07D1054B002B02D032
:1000CC00044800E000BF0123237010BD5000002045
:1000DC0000000000D0890008044B10B5002B03D0A1
:1000EC000349044800E000BF10BDC04600000000FA
:1000FC0054000020D0890008002243088B4274D39E
:10010C0003098B425FD3030A8B4244D3030B8B420C
:10011C0028D3030C8B420DD3FF22090212BA030C15
:10012C008B4202D31212090265D0030B8B4219D3F6
:10013C0000E0090AC30B8B4201D3CB03C01A524116
:10014C00830B8B4201D38B03C01A5241430B8B425E
:10015C0001D34B03C01A5241030B8B4201D30B0347
:10016C00C01A5241C30A8B4201D3CB02C01A52416E
:10017C00830A8B4201D38B02C01A5241430A8B4231
:10018C0001D34B02C01A5241030A8B4201D30B021A
:10019C00C01A5241CDD2C3098B4201D3CB01C01A34
:1001AC00524183098B4201D38B01C01A524143093E
:1001BC008B4201D34B01C01A524103098B4201D32C
:1001CC000B01C01A5241C3088B4201D3CB00C01A99
:1001DC00524183088B4201D38B00C01A5241430811
:1001EC008B4201D34B00C01A5241411A00D2014636
:1001FC00524110467047FFE701B5002000F0F0F8BF
:10020C0002BDC0460029F7D076E7704703460B4382
:10021C007FD4002243088B4274D303098B425FD3F3
:10022C00030A8B4244D3030B8B4228D3030C8B421F
:10023C000DD3FF22090212BA030C8B4202D3121205
:10024C00090265D0030B8B4219D300E0090AC30BDA
:10025C008B4201D3CB03C01A5241830B8B4201D387
:10026C008B03C01A5241430B8B4201D34B03C01A70
:10027C005241030B8B4201D30B03C01A5241C30AE8
:10028C008B4201D3CB02C01A5241830A8B4201D359
:10029C008B02C01A5241430A8B4201D34B02C01A43
:1002AC005241030A8B4201D30B02C01A5241CDD2E8
:1002BC00C3098B4201D3CB01C01A524183098B4233
:1002CC0001D38B01C01A524143098B4201D34B011C
:1002DC00C01A524103098B4201D30B01C01A52417F
:1002EC00C3088B4201D3CB00C01A524183088B4206
:1002FC0001D38B00C01A524143088B4201D34B00EF
:10030C00C01A5241411A00D2014652411046704760
:10031C005DE0CA0F00D04942031000D34042534065
:10032C0000229C4603098B422DD3030A8B4212D325
:10033C00FC22890112BA030A8B420CD38901921157
:10034C008B4208D3890192118B4204D389013AD094
:10035C00921100E08909C3098B4201D3CB01C01A69
:10036C00524183098B4201D38B01C01A524143097C
:10037C008B4201D34B01C01A524103098B4201D36A
:10038C000B01C01A5241C3088B4201D3CB00C01AD7
:10039C00524183088B4201D38B00C01A5241D9D2EF
:1003AC0043088B4201D34B00C01A5241411A00D270
:1003BC000146634652415B10104601D34042002B6C
:1003CC0000D54942704763465B1000D3404201B5EB
:1003DC00002000F005F802BD0029F8D016E77047A0
:1003EC007047C0468446100062468C46190063462E
:1003FC0000E0C0461FB501F0F9FA002801D4002135
:10040C00C8421FBD10B501F049FA4042013010BD81
:10041C0010B501F0EBFA002801DB002010BD012023
:10042C0010BDC04610B501F0E1FA002801DD002036
:10043C0010BD012010BDC04610B501F071FA0028A6
:10044C0001DC002010BD012010BDC04610B501F02C
:10045C0067FA002801DA002010BD012010BDC0464B
:10046C00844608006146FFE71FB500F08FFB0028AB
:10047C0001D40021C8421FBD10B500F01BFB404247
:10048C00013010BD10B500F081FB002801DB00200D
:10049C0010BD012010BDC04610B500F077FB002840
:1004AC0001DD002010BD012010BDC04610B500F0CC
:1004BC0027FB002801DC002010BD012010BDC04628
:1004CC0010B500F01DFB002801DA002010BD012042
:1004DC0010BDC0469E2110B5C905041CFFF7F0FFE6
:1004EC00002803D1201C00F083FE10BD9E21201C8F
:1004FC00C90500F0DDFC00F07BFE80231B069C464A
:10050C006044F2E770B500220C4B04000D00FFF7BD
:10051C009DFF002804D12000290002F00FF970BDC6
:10052C00064B00222000290001F086FD02F006F99E
:10053C0080231B069C466044F1E7C0460000E04166
:10054C00F8B54746CE464A0243024500C40F500A4E
:10055C00804648005B0A000E9209944680B51E0046
:10056C00814602002D0EDF00C90F8C4224D0281AC0
:10057C0000280EDD002A3ED16246002A00D1FDE0A3
:10058C00421E012800D137E1FF2800D1A9E010005C
:10059C0039E0002863D04B46521B002D00D0E0E020
:1005AC00002F00D1CEE0531E012A00D155E1FF2AC5
:1005BC0000D194E01A00D9E02A1A002A00DC99E054
:1005CC00002862D0FF2D00D18BE080236146DB0434
:1005DC0019438C461B2A00DCD2E00123DB195A019B
:1005EC006AD50135FF2D5BD00122A3491A405B0867
:1005FC000B4013431CE0FF2D00D172E080236246B8
:10060C00DB041A4394461B2800DC90E00123FB1A00
:10061C005A0151D59B019E09300002F0E9F93300D3
:10062C0005388340854200DC75E0944A2D1A13404E
:10063C005A0704D00F221A40042A00D004335A015E
:10064C003CD5681CFE2D2BD09B015E0AC0B2C005A8
:10065C003043E4072043C0BCB946B046F8BDFE2089
:10066C006A1C104272D1002D00D0AEE0002F00D1D8
:10067C00ECE063460020002BE9D0FB1A5A0100D4B1
:10068C00F3E063460C00DB1BD2E7614600295BD02C
:10069C00511E012A00D1A7E0FF2A22D00A0099E7B7
:1006AC00FF200026D3E7FE216A1C114273D0FF2ADB
:1006BC00F6D0150067447B085A07BBD1DB08FF2D29
:1006CC000FD05B025E0AE8B2C1E76246002A08D08E
:1006DC008022D203134204D04046104201D10C00B8
:1006EC004346002BDCD08026F6031E437602FF2007
:1006FC00760AACE7002AD6D0421B002D5CD0FF282E
:10070C00EED08023DB041F431B2A00DC82E0012394
:10071C004D46634463E72022401B0130121A190036
:10072C009340C1405A1E934100250B4380E7202380
:10073C0061461B1A994062460B00C240591E8B4100
:10074C00134364E70C0043461500B8E76346FE1AF2
:10075C00730145D4002E00D05EE700240020002653
:10076C0075E7FF2BBBD08023DB041F431B2A47DD1F
:10077C00012362460C004D46D31A49E705009EE75B
:10078C0061462023D1409B1A62469A4013005A1EA0
:10079C0093410B4322E7002D46D1002F62D06346D4
:1007AC000020002B00D152E73B0063445A0183D553
:1007BC00324A013513407FE7002FC4D0531E012A63
:1007CC0012D0FF2A8CD01A009EE7002F00D07CE7B5
:1007DC006346002B83D180260024FF20F60336E7E6
:1007EC0063460C00DE1B17E73B00634401255A01EE
:1007FC0000D461E70225F7E663460125FB1A07E7FB
:10080C0020239B1A38009F403B00D0405A1E934136
:10081C000343AEE720239B1A39009F403B00D14095
:10082C005A1E93410B4373E7002F00D158E76246E1
:10083C00002A00D155E78022D203134200D150E7A1
:10084C004146114200D04CE743464AE76346002B31
:10085C0083D00C0046460020F9E663460C00DB1BF7
:10086C000135D5E646460020F1E6002B00D023E703
:10087C0000240026EBE6C046FFFFFF7DFFFFFFFBD9
:10088C00F0B54F464646D6464502C0B547000C1C4F
:10089C006D0A3F0EC60F002F00D16FE0FF2F00D165
:1008AC0074E00023802299469A46ED00D204154349
:1008BC007F3F63025B0A984663001B0EE40F002B1C
:1008CC004DD0FF2B45D042468021D200C9041143A4
:1008DC00884600227F3B3100FF1A4B466140C9B26B
:1008EC000F2B00D9B8E070489B00C3589F460023DB
:1008FC0098462600454692465346022B00D18DE081
:10090C00032B00D1A1E0012B18D03B007F33002B2F
:10091C006DDD6A0704D00F222A40042A00D004356A
:10092C002A0103D5614B1D403B008033FE2B00DDBB
:10093C0074E0AA01520AD8B202E00E000020002294
:10094C00C005F60710433043E0BCBA46B146A84692
:10095C00F0BD4346002B3FD10222FF3F03E043464C
:10096C00002B2DD1012231004B466140C9B21343FB
:10097C000F2B38D84E489B00C3589F46002D13D1DF
:10098C0004239946033B00279A4692E7002D05D194
:10099C0008239946063BFF279A468AE70C2399467B
:1009AC00093BFF279A4684E7280002F021F87627B6
:1009BC00431F9D4000237F4299469A463F1A78E791
:1009CC00404602F015F84246431F9A4076235B429C
:1009DC0090461B1A00227EE703234A461A4391468F
:1009EC00FC33032277E70E00FF200022A8E7012248
:1009FC00D31A1B2BA2DC9E372A00BD40DA406B1E9B
:100A0C009D4115436A0704D00F222A40042A00D0C6
:100A1C0004356A0144D50120002291E7FF20002211
:100A2C008EE780220026FF20D20389E70023984618
:100A3C008022D203154208D04346134205D11A43F3
:100A4C0052022600FF20520A7AE78022D2032A4360
:100A5C005202FF20520A73E742466B015501AB422A
:100A6C001AD21B200022013F01261C0052005B0001
:100A7C00002C01DB9D4201D85B1B3243013800285E
:100A8C00F3D1581E834113431D003B007F330E00EE
:100A9C00002B00DD3DE7AAE71A2001225B1BE3E7F0
:100AAC00AA010020520A4BE7908A0008FFFFFFF7CB
:100ABC00D08A000870B5420045024E024C00C30FAC
:100ACC006D0A0120120E760A240EC90FFF2A06D0D9
:100ADC00FF2C03D0A24201D1B54206D070BD002D2F
:100AEC00FCD1FF2CFAD1002EF8D18B4206D001207C
:100AFC00002AF3D12800431E9841EFE70020EDE7D0
:100B0C0070B5420045024E024C00C30F6D0A120E26
:100B1C00760A240EC80FFF2A1BD0FF2C0ED0002AF9
:100B2C001BD1002C01D1002E1CD0002D0CD08342E7
:100B3C001CD00221581E0840013870BD002E22D155
:100B4C00002AF4D1002DF2D10028F6D10120404228
:100B5C00F3E7002D17D1FF2CF0D0002CE7D1002E9D
:100B6C00E5D1E6E70020002DE7D0E2E7A24205DC64
:100B7C00EADBB54202D8E7D30020DEE74342584116
:100B8C0040000138D9E702204042D6E770B5420058
:100B9C0045024E024C00C30F6D0A120E760A240E4B
:100BAC00C80FFF2A0BD0FF2C0DD0002A1FD1002C10
:100BBC0016D1002E14D10020002D10D009E0002DEC
:100BCC000CD1FF2C13D1002E08D1002A08D083425F
:100BDC0012D00221581E0840013800E0022070BDDE
:100BEC00002DF4D10028FAD101204042F7E7002C67
:100BFC00EDD1002EEBD1ECE7A24205DCF2DBB542E5
:100C0C0002D8EFD30020EAE74342584140000138B4
:100C1C00E5E7C04643025B0AF0B54F4646469946A7
:100C2C00D646C30F45009846C0B54B460F1C2D0E3B
:100C3C0000D1CBE0FF2D00D1CFE08022DB00D2042D
:100C4C001A430023914600269A467F3D7C027B0086
:100C5C00640A1B0EFF0F002B00D1A9E0FF2B11D053
:100C6C008022E400D204144342467F3B5B197A4055
:100C7C000020D2B25D1C0A2E13DD3A000B2E47D099
:100C8C0047463FE02B00FF33002C1ED102221643B7
:100C9C00424601357A40D2B2FF350A2E00DDE4E03F
:100CAC000220022E1CDC013E012E42D802283DD02F
:100CBC00012866D100200021C0050843D20710434B
:100CCC00E0BCBA46B146A846F0BD032216434246E4
:100CDC0001357A40D2B2FF350A2E00DDE4E0032064
:100CEC000121B140A626F60031420AD19026B60069
:100CFC00314216D1B93EFF3E0E421AD0A146824671
:100D0C0000E0170053463A00022B0FD04C465046D9
:100D1C000328CDD18021C90321434902FF20490A70
:100D2C00CAE780210022FF20C903C5E7FF2000216C
:100D3C00C2E7200C49462404240C27000E0C09049D
:100D4C00090C74434F4346434843390C00190918A6
:100D5C008C4203D980204002844666443F04080438
:100D6C003F0CC0198401671EBC41090C800E891907
:100D7C00044389010C43090171D5012361081C400E
:100D8C000C432B007F33002B51DD610704D00F2166
:100D9C002140042900D00434210103D5434B1C40CD
:100DAC002B008033FE2BC1DCA101490AD8B283E7AA
:100DBC00002C2CD1012342461E432B007A400120EB
:100DCC00D2B25D1C0A2E00DD57E76AE7002B10D16A
:100DDC000123042600259A4638E7002B04D1022370
:100DEC000826FF259A4631E703230C26FF259A4651
:100DFC002CE7484601F0FCFD4A46431F76259A40F5
:100E0C0000236D42914600269A462D1A1EE72000BB
:100E1C0001F0EEFD4246431F9C402B1A763B7A4074
:100E2C000020D2B25D1C0A2E00DD26E739E7012135
:100E3C00CB1A1B2B00DD3DE79E352100AC40D94081
:100E4C00631E9C4121434B0704D00F230B40042B02
:100E5C0000D004314B0104D5012000212CE71D00EA
:100E6C008FE789010020490A26E702230F2E0CD1B7
:100E7C0080214B46C9030B420DD00C420BD12143B0
:100E8C0049023A00FF20490A16E70B2E00D0F7E67C
:100E9C00A1469A4636E780214B46C90319434902BD
:100EAC004246FF20490A07E70323DFE7FFFFFFF76E
:100EBC00F0B5C64643025B0A4500DA00C40F48028F
:100ECC004F009446420A1E00904600B52D0E3F0E70
:100EDC00C90F8009FF2F59D0012251408C4239D0C3
:100EEC00EA1B002A58DD002F68D0FF2D00D1D1E07D
:100EFC008023DB0418431B2A00DCE3E00123624659
:100F0C00D31A5A0100D4ACE09B019E09300001F0C9
:100F1C006FFD330005388340854200DCC6E0B24AE1
:100F2C002D1A13405A0704D00F221A40042A00D05D
:100F3C0004335A0100D497E06A1CFE2D00D184E0E2
:100F4C009B015E0AD2B2D0053043E407204380BC3B
:100F5C00B846F0BDEA1B002A41DD002F6BD0FF2DF7
:100F6C0000D197E08023DB0418431B2A00DCCCE083
:100F7C00012363445A0174D50135FF2D65D001223C
:100F8C009A491A405B080B401343CBE700281FD04B
:100F9C008C4222D02A00FF3A002A35D07A1B002D31
:100FAC0000D099E06346002B00D1DDE0531E012AEE
:100FBC0000D105E1FF2A6BD01A0094E0002873D011
:100FCC00511E012A00D1DFE0FF2A63D00A0092E70C
:100FDC0001225140A14200D082E72A00FF3A002AA8
:100FEC0036D07A1B002D00D1AAE0FF2F00D1DAE019
:100FFC0080236146DB0419438C461B2A00DCD4E0B9
:10100C0001233D001B18B5E7FE276A1C174271D15E
:10101C00002D00D09EE06346002B00D1D5E00022CD
:10102C00002800D18FE71B1A5E0100D4D6E063467E
:10103C000C00C31A76E7002836D0511E012A00D1C5
:10104C009AE0FF2A26D00A008FE7FF2200267AE7D3
:10105C00FE276A1C174262D0FF2AF6D015006044A6
:10106C0043085A0700D05FE7DB08FF2D12D05B0264
:10107C005E0AEAB267E76246002A00D193E00028D4
:10108C0008D08022D203134204D04046104201D132
:10109C000C004346002BD8D08026F6031E43760264
:1010AC00FF22760A4FE743461500DEE72022401B5D
:1010BC000130121A19009340C1405A1E9341002569
:1010CC000B432FE720239B1A010098400300D140CB
:1010DC005A1E93410B4312E7FF2FD9D0802364464D
:1010EC00DB041C43A4461B2A52DD01230C003D00EB
:1010FC00C31A06E763461E1A730139D4002E00D0BA
:10110C0004E70024002200261DE720239B1A01007F
:10111C0098400300D1405A1E93410B4329E7002D00
:10112C00A9D16346002B56D00022002800D10AE733
:10113C00030063445A0194D52B4A0135134090E7C0
:10114C006346002BAFD0531E012A15D0FF2A2AD09C
:10115C001A0052E76246002A91D1002898D18026C5
:10116C000024FF22F603EEE60C00434615007CE754
:10117C0063460C00C61AC9E60300634401255A01F4
:10118C0000D46EE70225FAE6634601251B1AB8E681
:10119C0064462023D4409B1A62469A4013005A1E80
:1011AC0093412343A2E7434674E761462023D14091
:1011BC009B1A62469A4013005A1E93410B4320E738
:1011CC0063460C000125C31A9BE6002899D00C003D
:1011DC0046460022B7E646460022B4E6002B00D075
:1011EC003FE700240026AEE6FFFFFFFBFFFFFF7D7D
:1011FC0041024200C30F490A0020120E7E2A03DD71
:10120C009D2A02DD094A981870478020000401438A
:10121C00952A07DC9620821AD1404842002BF3D144
:10122C000800F1E7963A9140F7E7C046FFFFFF7FD1
:10123C0070B5041E0ED001F0DBFB9E2301001B1ABF
:10124C00962B0CDC08282CD008398C406402640ADC
:10125C00D8B201E000200024C005204370BD992BBA
:10126C000ADD020020001B3290400200501E824119
:10127C000520401AC4401443052916DC22000F48EF
:10128C000240650709D00F252C40042C05D00432F0
:10129C00540102D59F2302405B1A9201540AD8B222
:1012AC00DAE764029620640AD6E74A1F94402200CB
:1012BC00024802406507F0D0E5E7C046FFFFFFFBA0
:1012CC00F0B557464E464546DE46E0B50C031F00CA
:1012DC004B0081469246050085B0240B5B0DCE0F6A
:1012EC00002B00D152E1D24A934200D16EE1420F61
:1012FC00E40014438022120422439046CD4AC500D8
:10130C0093469B440023994600933C037B00504634
:10131C00240B5B0DFF0F002B00D11AE1C44A934242
:10132C0000D15EE1420FE4002243802424041443E4
:10133C00C04AC10094465A466344D31A9B460020C7
:10134C0033007B409A464B460F2B27D8BA4A9B005A
:10135C00D3589F46B246009B022B16D0032B00D1CC
:10136C0087E2012B00D0D5E00023002200251B05CD
:10137C0013435246D20713432800190005B0F0BCA2
:10138C00BB46B246A946A046F0BD00220025A84B9C
:10139C00EDE7BA46A0460D000090DCE7444500D2CC
:1013AC00C4E100D1BFE101235B429C462E004046C4
:1013BC000025E34423020C0E1C431B0C994623040A
:1013CC000A021F0C494600920197FEF71BFF020010
:1013DC007A430B04310C804619438A4207D9012306
:1013EC005B429C460919E0448C4200D801E2881A01
:1013FC004946FEF707FF019A360442430904360CAE
:10140C0003000E43B24204D93619013BB44200D852
:10141C00E9E1B01A4246009E12041A43330C1F0035
:10142C00110C9046029313043204160C32001B0C60
:10143C005A4303967B434E437943170CBC469B1986
:10144C0063449E4203D980267602B44661441E0C46
:10145C00711816041B04360C9E19884202D312D143
:10146C00B54210D243465A1E009B9C4665441F0051
:10147C009D429B415B421B19C018844200D29EE1E5
:10148C0000D199E19046AE1BB542AD41401A6D4278
:10149C00401B844200D1D2E14946FEF7B3FE019ACB
:1014AC000B044243310C050019438A4200D96CE10C
:1014BC00881A4946FEF7A6FE019A360442430904EF
:1014CC00360C03000E43B24200D953E10398B61A0E
:1014DC0002002D041D43029F2B041B0C5A437B431B
:1014EC009C46290C4843130C84446344794398422A
:1014FC0003D98020400284466144180C12041B045A
:10150C00120C40189B18864200D200E100D1FBE07F
:10151C0001231D43494B5B44002B00DCAAE06A0706
:10152C0000D03DE1E9084246D20106D54246444B83
:10153C001A4080239046DB005B44424A934200DD14
:10154C0023E742465B05550752020D43120B5B0D18
:10155C000DE75146214300D17CE0002C00D1FBE08B
:10156C00200001F045FA02000B3A1D239B1A52464B
:10157C000100DA40534608398B408C401900144363
:10158C00314B58449B4683440020D9E60300234347
:10159C00984644D0002C00D1CFE0200001F028FA6E
:1015AC00010002000B391D235B1A49461000D9407B
:1015BC00083884400B004D46234398468540234B06
:1015CC009B1A9B460023994600939EE602002243F9
:1015DC0090461DD108229B4602230025914600937C
:1015EC0093E65146214309D102234A461A43184B2C
:1015FC0091469C4600240220E344A1E603234A467C
:10160C001A43134B91469C4651460320E34497E6FC
:10161C000C229B460323A0469146009375E60423B7
:10162C00994600239B460133002500936DE6C04686
:10163C00FF07000001FCFFFF108B0008FF030000F8
:10164C00FFFFFFFEFE070000F30300000DFCFFFF91
:10165C0001F8FFFF4A4601231A439146002401205A
:10166C006EE6002380229A460025884B12037EE604
:10167C0001256D420122D21A382A00DD74E61F2A98
:10168C0000DCBDE01F214942CB1A4146D9400B007A
:10169C00202A04D041467E4A5A4491400D432900E9
:1016AC004A1E9141194307231D0000220D400B4295
:1016BC0000D1D0E00F2200230A40042A00D1C7E059
:1016CC000A1D8A42894149425B1811001A0200D452
:1016DC00BEE001230022002549E680224346120386
:1016EC00134208D0144206D122431203BA460D000D
:1016FC00664B120B3BE68022434612031A4312033D
:10170C00B246624B120B32E6002B00D102E7A6194F
:10171C006A1EA64200D289E0864200D29FE000D128
:10172C00AFE01500F4E6A94200D93CE64346DE07DB
:10173C0058086B081E43ED073CE601F059F901000F
:10174C000200153120321C2900DC2CE74B460838EE
:10175C0083400025984632E701F04AF903001A004D
:10176C00153220301C2A00DCFFE65446083B0021D1
:10177C009C4005E73619013BB44200D9A6E6B242BB
:10178C0000D8A3E6831E3619A0E60919013D8C4248
:10179C0000D98DE68A4200D88AE6851E091987E6AB
:1017AC000F222A40042A00D1BCE6291DA942AD41D2
:1017BC006D42C908A844B6E6AF4200D962E6814240
:1017CC0004D800D05EE6AE4200D85BE602235B4252
:1017DC009C46009BE0449C4665449D429B415B4279
:1017EC001B19C0184FE6B24200D812E6831E3619F8
:1017FC000FE68A4200D8FAE5831E98460919F6E5E9
:10180C00244B28005B4441469D409940D0406B1EC0
:10181C009D41434601432943D3404A0700D155E734
:10182C000F220A40042A00D04AE74FE715008642EF
:10183C0000D06DE6009A9A4200D069E66AE6164B33
:10184C005B44002B00DC13E701250021A8446AE669
:10185C005D075B021A0BC90800230D4387E500994D
:10186C00023D4A008A42BF417F423F19F61900925D
:10187C00DDE78022434612031A431203034B120B7B
:10188C0075E500999942EAD31500D3E7FF070000EC
:10189C003E0400001E040000FF030000F0B54E469D
:1018AC004546DE4657469046E0B517001A03120B24
:1018BC000500844619480E034C0091465A00DB0F74
:1018CC009B46360B640DC90F520D844219D08242CF
:1018DC0010D0012094420ED14E450CD10120C445AC
:1018EC0009D1594517D0002C05D130002843431E8F
:1018FC00984100E00120F0BCBB46B246A946A04688
:10190C00F0BD330001202B43F5D1A242F3D14B465D
:10191C003B43F0D1E2E70020EDE7C046FF070000B3
:10192C00F0B54746CE460400180016001B031B0BEF
:10193C002D4D4A00994680B543000F03A446B0468E
:10194C003F0B520DC90F5B0DC00FAA4221D0AB4209
:10195C0013D0002A22D13C43002B02D14D462E43FA
:10196C0022D0002C10D0814222D002200139084014
:10197C000138C0BCB946B046F0BD4D462E4329D106
:10198C00002AF0D13C43EED10028F2D10120404294
:10199C00EFE73D0025431DD19342EED0002BE2D161
:1019AC004C462643DFD1E0E70020002CE1D0DCE7F9
:1019BC009A420ADCE8DB4F45D7D80ED000204F45C1
:1019CC00D7D20029E2D00800D3E743425841400067
:1019DC000138CEE702204042CBE7C445C5D80020F1
:1019EC00C445C6D2EDE7C046FF070000F0B5474638
:1019FC00CE460400180016001B031B0B2C4D4A008E
:101A0C00994680B543000F03A446B0463F0B520DD8
:101A1C00C90F5B0DC00FAA420DD0AB4210D0002AEB
:101A2C0027D13C43002B11D14D462E430ED1002023
:101A3C00002C15D00EE03D00254310D1934218D157
:101A4C004D462E430BD1002A02D13C43002C0BD027
:101A5C00814214D0022001390840013800E00220F4
:101A6C00C0BCB946B046F0BD0028F9D101204042B7
:101A7C00F6E7002BECD14C462643E9D1EAE79A4233
:101A8C0004DD4342584140000138E9E79A42EBDB60
:101A9C004F45DFD806D000204F45E1D20029E5D0D4
:101AAC000800DDE7C445D5D80020C445D8D2F5E7F9
:101ABC00FF070000F0B54546DE4657464E46E0B5FA
:101ACC001F000B031B0B9B464D00CB0F04009146D4
:101ADC00984687B06D0D00D1CDE1CE4B9D4200D123
:101AEC00E9E15A46430FD2001343802212041A43F1
:101AFC00C3009A46C84B93469C4600230026654477
:101B0C0000933C037B004846240B5B0DFF0F002B1E
:101B1C0000D189E1BF4A934219D0420FE40022431D
:101B2C00802424041443BC4A002194464246634456
:101B3C005B190193019B7A400133C000D2B202932E
:101B4C000A2E1CDD3A000B2E5ED0474656E0494665
:101B5C00B04B2143EB18019300292AD1802002229B
:101B6C0000012B0084461643424663447A40D2B2AD
:101B7C0002930A2E00DD31E2002000240221022E05
:101B8C0026DC013E012E52D802294CD0012900D06E
:101B9C0018E10023002400251B052343D20713431F
:101BAC002800190007B0F0BCBB46B246A946A046B7
:101BBC00F0BD8021032209012B008C4616434246BE
:101BCC0063447A40D2B202930A2E00DD28E203214C
:101BDC000125B540AC46A6266346F6003540334297
:101BEC000BD19026B600334218D1B93EFF3E1E42AF
:101BFC001DD0A3468246009100E0170000993A00E0
:101C0C00022910D05C4650460329BFD180231B0308
:101C1C001C43240305007F4B240BBDE780240022CA
:101C2C007C4B2403B8E7002400257A4BB4E75346D9
:101C3C001E04360C1F0C3300010C0004000C434333
:101C4C00984603007B43994633004B439C464346DE
:101C5C000D001B0C9A467D43CC44D4440095E145C1
:101C6C0004D980235B0299464D44009563461B0CB6
:101C7C001D0063461B049C4643461B041B0C9846E4
:101C8C00634643440393230C984633002404240CEA
:101C9C0063439C4623007B43994643465E435F4324
:101CAC004E446346B2461E0C5644B14503D98023BC
:101CBC005B0299464F44330C99463B004B440593C9
:101CCC006346AC461F043F0C3604F619B444634615
:101CDC0004935B461B0C9C465B461F043F0C3B006D
:101CEC0043439946634643439A464B4660461B0C16
:101CFC009B4648437943514459448A4503D9802330
:101D0C005B029A4650440B0C9A464B461B041B0C28
:101D1C0099463B006343090445464944994663464A
:101D2C005C436B439C464B461B0C98466F433F19D8
:101D3C0047445044BC4203D980235B029846C444B8
:101D4C00049B009D98464544B542B6417342984663
:101D5C004B461E04059B3C049946360CA4194C4476
:101D6C00A14683466E18C1448E428941CB445D46E0
:101D7C0049426D189C42A441C1459B418345804119
:101D8C008D4289415B4264421C434042039B494261
:101D9C00014370023F0C1843E419471EB841641804
:101DAC006444F60D61023043EC0D6E020C4330437B
:101DBC00C90100D4F1E00121430801400B43E007C5
:101DCC00184364081549029B8C466344002B00DCC5
:101DDC0097E0410709D00F210140042905D0011DCE
:101DEC0081428041404224180800E10106D580213F
:101DFC00C9008C460A4B1C40029B634409498B4228
:101E0C0000DD10E76107C50864025B050D43240B78
:101E1C005B0DC1E6FF07000001FCFFFFFF030000A4
:101E2C00FFFFFFFEFE0700004B46234359D0002C5A
:101E3C0000D1A3E0200000F0DBFD010003000B3912
:101E4C001D22521A49461800D1404A460838824091
:101E5C00844010000C43744AEB1A94464246634487
:101E6C000193019B7A4001330021D2B202930A2ED6
:101E7C0000DD67E683E65B4603439A462AD05B4661
:101E8C00002B6DD0584600F0B3FD010003000B3958
:101E9C001D22521A210018005D46D1400838854099
:101EAC000A0084402A439346A2465F4D0026ED1A51
:101EBC000023009325E65B4603439A4605D1002395
:101ECC009B460233082600931BE6032382460C260E
:101EDC00009316E600239B4601330426002500934D
:101EEC000FE64246013301951E43019B7A400133B4
:101EFC00002400200121D2B202930A2E00DD21E63B
:101F0C003DE60121C91A382900DD42E61F2947DDCB
:101F1C001F2625007642F31ADD402B00202905D020
:101F2C004249029D8C466544AC402043411E884189
:101F3C00184307231D000024054003424AD00F23F9
:101F4C0000240340042B42D0031D834280414042B5
:101F5C002418180023023AD50123002400251BE67F
:101F6C0000F046FD01000300153120331C298FDDE4
:101F7C000838002284409246A34696E700F038FDCC
:101F8C0001000300153120331C2900DC58E7020046
:101F9C004C46083A002094405DE7019B029311E700
:101FAC00234B26009C460300029DCB406544AE406B
:101FBC001E430300AB40581E834130001843CC40F5
:101FCC004307C7D00F230340042BBDD1C2E76507DD
:101FDC006402240BC00800230543DDE50025022321
:101FEC000F2E0CD180245B46240323420ED02142B9
:101FFC000CD10C4324033A000E4B240BCCE50B2ED6
:10200C0000D0A2E58B46AA460093F7E580245B46F8
:10201C0024031C43240342465546064B240BBBE5C4
:10202C004D4621000323DBE70DFCFFFF3E040000BF
:10203C001E040000FF070000F0B557464E4645460B
:10204C00DE46E0B50D000400190010002B035B0AFE
:10205C00620F1A43E3000C03640A470F2743D04C6A
:10206C006E00914683B04A00C0009846A246760D99
:10207C00ED0F520DC90F0190A24200D1B9E001241D
:10208C0061408B468D4200D18DE0B41AA446002CE1
:10209C0000DCB7E0002A00D1CBE0C14A964200D167
:1020AC0086E18022120417436246382A00DDA4E13F
:1020BC001F2A00DD1DE2614620223C00521A01005D
:1020CC0090409440421E90416246A0466446D740E0
:1020DC004A46E1404446D21B91460C4304431C1B28
:1020EC00A34292414B4652429B1A9A4653461B02BC
:1020FC0000D42BE153465A02530A9A465346002BFE
:10210C0000D166E1504600F073FC0300083B20222E
:10211C002000D21A5146D040994002009C400A43FC
:10212C009E4200DD64E19B1B591C1F2900DDFEE073
:10213C002023100026005B1A9C409840CE40CA40D9
:10214C00631E9C413043924600260443630709D02A
:10215C000F232340042B05D0231DA342A44164422A
:10216C00A2441C0053461B0200D4F2E08C4B0136F7
:10217C009E4200D10FE153468A49E4080B401900F6
:10218C005B07234372054C02240B520D12052243AC
:10219C00ED072A431800110003B0F0BCBB46B24651
:1021AC00A946A046F0BDB41AA446002C59DD002A5D
:1021BC0000D1B0E0564500D1FAE08022120417435A
:1021CC006246382A00DDD4E01F2A00DCC0E1390069
:1021DC00203AD1406246202A06D064464022121B87
:1021EC003C00944004430194019C621E94410C43B6
:1021FC00C3E03C0004432BD08B468D422ED06A4C5E
:10220C00A446B4446446002C5FD0941BA446002E14
:10221C0000D020E14C461C4300D1C7E161464C1E66
:10222C00012900D123E25E4DAC4500D1D8E1A44692
:10223C001AE13A00024300D1E4E02200013A012CF9
:10224C0000D1C3E156498C4200D1B1E094462BE752
:10225C00012461408B468D4200D016E752498C46D2
:10226C00B4446446002C00D1D3E0911B8C46002E64
:10227C0000D15EE14A498A4200D1BEE180214C4640
:10228C0009040C43A1466146382900DDBAE11F2937
:10229C0000DD27E22024641A4946A1401E0088462E
:1022AC006146A340CE4041465C1EA34131431943D5
:1022BC000C0063464946D9407F18241884429B4140
:1022CC005B429A461600BA445DE0384C721C2242BE
:1022DC0000D0DFE04A461A43002E00D05CE1002A11
:1022EC0000D1CFE13A00024300D17FE11C1A4A46EB
:1022FC00A3428941D21B4942521A9246120200D47F
:10230C000AE2C41AA04280414B464042FF1A3B1AD3
:10231C009A465D461AE73A00024373D02200013A0E
:10232C00012C00D1CBE0544542D0944648E7100034
:10233C001F3BD840202903D040235B1A9A401443FA
:10234C00631E9C41002300269A460443630700D079
:10235C00FEE65246E308520713435246B446D208EF
:10236C000F498C452AD01203140B62465205520DAC
:10237C000CE73C000443621E9441E4189C429241D9
:10238C0052424A44924653461B02DFD5044B013657
:10239C009E4200D0A0E0320000240023F6E6C046A6
:1023AC00FF070000FFFF7FFF01F8FFFFFE070000A3
:1023BC00DB084A46520713434A46D2081900114318
:1023CC0000D1B5E18024240314432403D54A240B03
:1023DC00DCE6200000F00CFB030018331F2B00DCA4
:1023EC0095E622000838824000249E4200DC9AE6E2
:1023FC00F61ACD4B1A409246A8E63C000443621EE6
:10240C0094416CE64A46DB08520713434A46D2080D
:10241C00A6E7C64C721C224200D0ACE04A461A43D6
:10242C00002E00D005E1002A00D156E13A0002430B
:10243C0000D1DBE01C189C429B414F44BA465B42E6
:10244C009A4453461B0200D480E75246B64B0126F1
:10245C001A4092467AE7B34CA24200D1C0E08024E5
:10246C004D4624042543A9466446382C53DC61466A
:10247C001F2C00DDCDE020251E002D1B4C46AB4053
:10248C00AC40CE405D1EAB41344323434C46CC4064
:10249C003F1B45E04A461C1AD11BA34292415242B3
:1024AC0092460A005146521A9246120200D583E017
:1024BC005346234300D021E60022002553E71C1885
:1024CC009C429B414F44BA465B429A445346012678
:1024DC001B0200D43AE702265246934B01211A40C4
:1024EC001300214062080A43DC075B089A46144338
:1024FC002CE63900203AD1406246202A06D06446A8
:10250C004022121B3C00944004430194019C621E27
:10251C0094410C43E3E5494619430B005C1EA3416F
:10252C00C41AA0429B415B42FB1A9A465D461600B8
:10253C00DCE54946194300D1AEE0614664460139F9
:10254C00012C00D1E0E0774CA44556D08C469AE69D
:10255C00614620223C00521A944001009040A04653
:10256C006446421E90416246E1404446D7400C43CB
:10257C000443B94401E76B498A4200D10CE71818AF
:10258C0098429B414F445B42FB18DC0740085B08B8
:10259C009A4616000443D9E6002A00D081E03B009D
:1025AC0003431DD18022002512030BE7C0087B07D3
:1025BC005D460343FA08D3E6C41AA04280414B4659
:1025CC004042FF1A3B1A9A465D4697E51C1A4A464A
:1025DC00A3429B41D71B5B42FB1A9A46012685E519
:1025EC00C0087B075D460343FA08E7E64A46DB086A
:1025FC00520713434A46D208B5E6C0087B0703438B
:10260C00FA08DBE6494619430B00591E8B411C00A6
:10261C0053E64D46203CE540202905D04024641A61
:10262C004946A1400B43984643465C1EA3412B43AD
:10263C0076E7002AE1D03A00DB08024300D1B8E685
:10264C004A465207802413434A462403D2082242A6
:10265C0007D0FE08264204D15D463200C3087F072E
:10266C003B43590FDB004907DB080B43A6E6C41AB2
:10267C00A04280414B464042FF1A3B1A9A465D46A7
:10268C00012633E53B00034300D115E7C0087B0767
:10269C005D460343FA0866E6C0087B070343FA0865
:1026AC005EE63A00DB08024300D182E64A46520756
:1026BC00802413434A462403D208224207D0FE0842
:1026CC00264204D15D463200C3087F073B43590FB5
:1026DC00DB00DB0849070B4370E6C0087B070343AC
:1026EC00FA0840E64C462039CC406146202906D0F9
:1026FC0066464021891B4E468E40334398464346DE
:10270C00591E8B411C43D8E51C18844280414F4410
:10271C00BA4640428244D9E65346234300D1CBE625
:10272C0014E6C046FF070000FFFF7FFFFE07000016
:10273C000023014A1C0029E5FF0700000A0030B500
:10274C00134C530009030500090B00205B0DD20F3D
:10275C00A34204DD0F48834202DD0F4BD01830BD7D
:10276C008020400301430D48C01A1F2808DD0C4887
:10277C00C31AD9400B005842002AF0D11800EEE7DA
:10278C00084CC540A446634499400B002B43F2E728
:10279C00FE0300001D040000FFFFFF7F3304000058
:1027AC0013040000EDFBFFFF70B5002816D0C31713
:1027BC00C5185D40C40F280000F01AF9114B1B1A04
:1027CC000A2816DC02002E00153296400B22121A33
:1027DC00D5405B052D032D0B5B0D03E0002400237E
:1027EC00002500261B052B43E4072343300019006A
:1027FC0070BD0B3885405B052D0300262D0B5B0D42
:10280C00F0E7C0461E04000010B5041E10D000F006
:10281C00EFF80F4B1B1A0A2811DC0B222100121A9D
:10282C00D14015300A035B058440120B5B0D01E0AF
:10283C00002300221B0513432000190010BD2200A9
:10284C000B3882405B0512030024120B5B0DF1E781
:10285C001E04000070B542024300C40FFE201B0E84
:10286C00591C550A08420CD0E02189008C466D0792
:10287C00120B63441B051343E40723432800190080
:10288C0070BD002B14D1002D1BD0280000F0B0F827
:10289C000A281CDC0B232A001B1ADA400300153310
:1028AC009D400E4B12031B1A5B05120B5B0DE1E7EF
:1028BC00002D09D0130B802212031A436D07084B0D
:1028CC00D8E700230022D5E70022054BD2E703000E
:1028DC002A000B3B9A400025E3E7C0468903000021
:1028EC00FF0700000200F0B54B000D03400F5B0D1D
:1028FC00CC0F6D0A3A490543581CD70008420AD040
:10290C0038495918FE2916DDFF200022C005104356
:10291C00E4072043F0BD002B06D13D4326D0052211
:10292C009201520AD8B2F1E72F43EDD08022D203A4
:10293C00FF202A43EAE700291BDD9201501E824149
:10294C00ED007F0F2A433A43530747D00F23134020
:10295C00042B00D004328023DB0413403ED0481CEF
:10296C00FE29D1D09201520AC0B2CFE7002000223A
:10297C00CCE70A0017322FDB802636042E431E25A7
:10298C006D1A1F2D11DD02225242521A3100D14014
:10299C00202D04D0144A944663449E4037433A0099
:1029AC00531E9A410A430021CEE7104A3800944640
:1029BC00634498403A00411E88419E40EA403043AF
:1029CC00024300215307C1D180211300C904012007
:1029DC000B400A42C6D1A3E70023A0E70B009FE7F8
:1029EC00FE07000080FCFFFFA2FCFFFF82FCFFFF44
:1029FC001C2101231B04984201D3000C10391B0A23
:102A0C00984201D3000A08391B09984201D30009E6
:102A1C00043902A2105C40187047C046040302023D
:102A2C0001010101000000000000000090B583B01E
:102A3C0000AF040008001100BB1D221C1A803B1DB6
:102A4C00021C1A80BB1C0A1C1A80BB1D18883B1D5B
:102A5C001988BB1C1B881A0001F030FBC046BD4610
:102A6C0003B090BDB0B584B002AF05000C001000EF
:102A7C001900BB1D2A1C1A803B1D221C1A80BB1C72
:102A8C00021C1A803B000A1C1A80BB1D18883B1DB7
:102A9C001988BB1C1A883B001C881823FB181B8840
:102AAC000093230001F086FCC046BD4602B0B0BDC9
:102ABC0090B583B000AF040008001100BB1D221CB0
:102ACC001A803B1D021C1A80BB1C0A1C1A80BB1CE2
:102ADC001A883B1D0021595EBB1D00201B5E18008F
:102AEC00FFF7A4FFC046BD4603B090BDB0B588B09B
:102AFC0000AF05000C0010001900BB1D2A1C1A8029
:102B0C003B1D221C1A80BB1C021C1A803B000A1C99
:102B1C001A803B0000229A5E3B1D00215B5ED31A9B
:102B2C00D9175A184A40BB1C0021595EBB1D002006
:102B3C001B5ECB1AD9175B184B4001219A4201DC62
:102B4C000023191CCAB21A217B181A807B18002288
:102B5C009B5E002B19D018217B18BA1D12881A8085
:102B6C00BB1D3A1D12881A803B1D7A1812881A80D8
:102B7C0016217B18BA1C12881A80BB1C3A001288CA
:102B8C001A803B007A1812881A80BA1DBB1C0021CF
:102B9C00525E00215B5E9A4219DD14217B18BA1D2E
:102BAC0012881A80BB1DBA1C12881A80BB1C7A189A
:102BBC0012881A8012217B183A1D12881A803B1D2C
:102BCC003A0012881A803B007A1812881A80BB1CB3
:102BDC001A88BB1D1B88D31A9AB210203B181A8076
:102BEC003B0000229A5E3B1D00215B5ED31AD91775
:102BFC005A184A400E23FB181A801E23FA183B1849
:102C0C0000215B5E002B00DA01335B1013803A1D50
:102C1C003B000021525E00215B5E9A4204DA1C23C9
:102C2C00FB1801221A804DE01C23FB180122524292
:102C3C001A8047E01A23FB1800229B5E002B0CD055
:102C4C003023FB181A88BB1D0021595E3B1D002048
:102C5C001B5E1800FFF72CFF0BE03023FB181A88C3
:102C6C003B1D0021595EBB1D00201B5E1800FFF7A9
:102C7C001FFF1E217B181A880E23FB181B88D31AE2
:102C8C009AB27B181A807B1800229B5E002B11DAFB
:102C9C003B1D1A881C23FB181B88D3189AB23B1DAA
:102CAC001A807B181A881023FB181B88D3189AB229
:102CBC007B181A80BB1D00229B5E9BB201339AB21B
:102CCC00BB1D1A80BA1DBB1C0021525E00215B5E2D
:102CDC009A42AFDDC046C046BD4608B0B0BDB0B5E7
:102CEC0084B002AF05000C0010001900BB1D2A1C9B
:102CFC001A803B1D221C1A80BB1C021C1A803B0034
:102D0C000A1C1A803B1D1A88BB1C1B88D3189BB24B
:102D1C00013B9BB21CB2BB1D00229A5E3B1D0021E5
:102D2C00595EBB1D0020185E3B001B8800932300DE
:102D3C00FFF7DCFEC046BD4602B0B0BDB0B584B0F6
:102D4C0002AF05000C0010001900BB1D2A1C1A80D4
:102D5C003B1D221C1A80BB1C021C1A803B000A1C47
:102D6C001A80BB1D1A88BB1C1B88D3189BB2013B55
:102D7C009BB21AB23B1D00241C5F3B1D0021595E07
:102D8C00BB1D0020185E3B001B8800932300FFF73F
:102D9C00ADFEC046BD4602B0B0BDB0B586B002AF08
:102DAC0005000C0010001900BB1D2A1C1A803B1DCD
:102DBC00221C1A80BB1C021C1A803B000A1C1A80A5
:102DCC00BA1DBB1C0021525E00215B5E9A422AD1C7
:102DDC003A1D3B000021525E00215B5E9A420CDDE5
:102DEC000C217B183A1D12881A803B1D3A00128860
:102DFC001A803B007A1812881A803B001A883B1DF7
:102E0C001B88D31A9BB201339BB21AB22023FB1836
:102E1C001C883B1D0021595EBB1D0020185E230041
:102E2C00FFF75DFF45E03A1D3B000021525E00219B
:102E3C005B5E9A422AD1BA1DBB1C0021525E002156
:102E4C005B5E9A420CDD0E217B18BA1D12881A802B
:102E5C00BB1DBA1C12881A80BB1C7A1812881A80E7
:102E6C00BB1C1A88BB1D1B88D31A9BB201339BB2A7
:102E7C001AB22023FB181C883B1D0021595EBB1D78
:102E8C000020185E2300FFF759FF12E03B000024DE
:102E9C001C5FBB1C00229A5E3B1D0021595EBB1DB2
:102EAC000020185E2023FB181B8800932300FFF7DB
:102EBC001DFEC046BD4604B0B0BDF0B587B000AF36
:102ECC0005000C0010001900BB1D2A1C1A803B1DAC
:102EDC00221C1A80BB1C021C1A807B1C0A1C1A7038
:102EEC00BB1C1B880122D31A9AB21623FB181A801A
:102EFC001423FB1801221A80BB1C1B881A1CD2033A
:102F0C00D31ADB189AB21223FB181A801023FB1861
:102F1C0000221A800E23FB18BA1C12881A80FEE0BD
:102F2C0016217B1800229B5E002B17DB0E203B1812
:102F3C0000229B5E9BB2013B9AB23B181A80122076
:102F4C003B181B8802339AB23B181A807B181A88DC
:102F5C003B181B88D3189AB27B181A8010217B1847
:102F6C0000229B5E9BB201339AB27B181A8014200C
:102F7C003B181B8802339AB23B181A8016243B1953
:102F8C001A883B181B88D3189AB23B191A807B1CE1
:102F9C001B78042213402CD0BB1D1A880C007B1804
:102FAC001B88D3189BB218B23B1D1A880E257B19AF
:102FBC001B88D3189BB219B228260823F218D319F0
:102FCC001B881A00FFF774FDBB1D1A887B191B8820
:102FDC00D3189BB218B23B1D1A883B191B88D31807
:102FEC009BB219B20823F318DB191B881A00FFF7E0
:102FFC005FFD7B1C1B78022213402CD0BB1D1A8852
:10300C0010243B191B88D3189BB218B23B1D1A888D
:10301C000E257B191B88D31A9BB219B228260823BC
:10302C00F218D3191B881A00FFF742FDBB1D1A8832
:10303C007B191B88D3189BB218B23B1D1A883B19FD
:10304C001B88D31A9BB219B20823F318DB191B88FF
:10305C001A00FFF72DFD7B1C1B78082213402CD087
:10306C00BB1D1A880E243B191B88D31A9BB218B2AD
:10307C003B1D1A8810257B191B88D3189BB219B2DB
:10308C0028260823F218D3191B881A00FFF710FD05
:10309C00BB1D1A887B191B88D31A9BB218B23B1D17
:1030AC001A883B191B88D3189BB219B20823F31842
:1030BC00DB191B881A00FFF7FBFC7B1C1B78012219
:1030CC0013402CD0BB1D1A880E243B191B88D31A15
:1030DC009BB218B23B1D1A8810257B191B88D31A7A
:1030EC009BB219B228260823F218D3191B881A0090
:1030FC00FFF7DEFCBB1D1A887B191B88D31A9BB209
:10310C0018B23B1D1A883B191B88D31A9BB219B2F3
:10311C000823F318DB191B881A00FFF7C9FC1023CE
:10312C00FA180E23FB180021525E00215B5E9A42B6
:10313C0000DAF5E6C046C046BD4607B0F0BDB0B5F6
:10314C0086B000AF05000C0010001900BB1D2A1C36
:10315C001A803B1D221C1A80BB1C021C1A807B1C73
:10316C000A1C1A70BB1C1B880122D31A9AB2162394
:10317C00FB181A801423FB1801221A80BB1C1B8815
:10318C001A1CD203D31ADB189AB21223FB181A801A
:10319C0010217B1800221A800E203B18BA1C1288B2
:1031AC001A800C23FB187A1812881A800A23FB1831
:1031BC003A1812881A8028217B1800229B5E9BB239
:1031CC0001339AB27B181A80E2E016217B18002298
:1031DC009B5E002B17DB0E203B1800229B5E9BB2E4
:1031EC00013B9AB23B181A8012203B181B88023301
:1031FC009AB23B181A807B181A883B181B88D31874
:10320C009AB27B181A8010217B1800229B5E9BB20D
:10321C0001339AB27B181A8014203B181B88023396
:10322C009AB23B181A8016243B191A883B181B8833
:10323C00D3189AB23B191A800E243A197B18002025
:10324C00125E00201B5E9A4245DB7B1C1B78012220
:10325C0013401CD0BB1D1A887B181B88D3189BB23B
:10326C0018B23B1D1A883B191B88D31A9BB219B292
:10327C003B191B88DB189AB22823FB181B88D31820
:10328C009BB21AB22C23FB181B88FFF728FD7B1C62
:10329C001B78022213401ED0BB1D1A881023FB186A
:1032AC001B88D31A9BB218B23B1D1A880E243B19EB
:1032BC001B88D31A9BB219B23B191B88DB189AB224
:1032CC002823FB181B88D3189BB21AB22C23FB188B
:1032DC001B88FFF704FD0E23FA180A217B18002027
:1032EC00125E00201B5E9A424CD07B1C1B78012284
:1032FC0013401DD0BB1D1A887B181B88D3189BB29A
:10330C0018B23B1D1A880C243B191B88D31A9BB28C
:10331C0019B23B191B88DB189AB22823FB181B889F
:10332C00D3189BB21AB22C23FB181B88FFF7D7FCBF
:10333C007B1C1B78022213401ED0BB1D1A880A234B
:10334C00FB181B88D31A9BB218B23B1D1A880C248D
:10335C003B191B88D31A9BB219B23B191B88DB187B
:10336C009AB22823FB181B88D3189BB21AB22C23B1
:10337C00FB181B88FFF7B3FC0A23FB180E22BA18A4
:10338C0012881A800C23FB181022BA1812881A8083
:10339C001023FA180E23FB180021525E00215B5EED
:1033AC009A4200DA11E7C046C046BD4606B0B0BD31
:1033BC00B0B582B000AF05000C0010001900BB1DA9
:1033CC002A1C1A803B1D221C1A80BB1C021C1A8052
:1033DC003B000A1C1A8018257B191C88BB1C002278
:1033EC009A5E3B1D0021595EBB1D0020185E230018
:1033FC00FFF7A4FC3B1D1A883B001B88D3189BB21B
:10340C00013B9BB219B27B191C88BB1C00229A5E33
:10341C00BB1D0020185E2300FFF790FC7B191C8855
:10342C003B0000229A5E3B1D0021595EBB1D002013
:10343C00185E2300FFF753FCBB1D1A88BB1C1B88AE
:10344C00D3189BB2013B9BB218B27B191C883B0072
:10345C0000229A5E3B1D0021595E2300FFF73FFCC2
:10346C00C046BD4602B0B0BDF0B587B002AF050096
:10347C000C0010001900BB1D2A1C1A803B1D221CBD
:10348C001A80BB1C021C1A803B000A1C1A803B00D1
:10349C00BA1C10881B8819B202B2914200DD031CC1
:1034AC001BB20E22BA18002B00DA01335B1013800A
:1034BC00202008254319DB190E24391900229A5EA5
:1034CC000023CB5E9A4204DD4319DB193A191288AA
:1034DC001A80BB1D1A88202508242B19DB191B8880
:1034EC00D3189BB218B2BB1C1A882B19DB191B887A
:1034FC00DB189BB2D31A9BB21AB224263319DB19F0
:10350C001C883B1D0021595E2300FFF717FCBB1DD7
:10351C001A8808242B19DB191B88D3189BB218B2F4
:10352C003B1D1A883B001B88D3189BB2013B9BB2F6
:10353C0019B2BB1C1A882B19DB191B88DB189BB220
:10354C00D31A9BB21AB23319DB191B88FFF7F6FB9F
:10355C003B1D1A882B19DB191B88D3189BB219B287
:10356C003B001A882B19DB191B88DB189BB2D31A6A
:10357C009BB21AB23319DB191C88BB1D0020185ED4
:10358C002300FFF7ACFBBB1D1A88BB1C1B88D31890
:10359C009BB2013B9BB218B23B1D1A8808242B1915
:1035AC00DB191B88D3189BB219B23B001A882B1954
:1035BC00DB191B88DB189BB2D31A9BB21AB23319D6
:1035CC00DB191B88FFF78BFBBB1D1A882B19DB192A
:1035DC001B88D3189BB218B23B1D1A882919CB191A
:1035EC001B88D3189BB219B22C000823EA18D319E4
:1035FC0000229A5E35000826AB19DB191B88009354
:10360C000123FFF75AFCBB1D1A88BB1C1B88D3185F
:10361C009AB231006318DB191B88D31A9BB2013B99
:10362C009BB218B23B1D1A880E00A319DB191B881C
:10363C00D3189BB219B2A319DB1900229A5EAB19ED
:10364C00DB191B8800930223FFF737FCBB1D1A887C
:10365C00BB1C1B88D3189AB221008B19DB191B8851
:10366C00D31A9BB2013B9BB218B23B1D1A883B008C
:10367C001B88D3189AB20C00A319DB191B88D31A18
:10368C009BB2013B9BB219B2A319DB1900229A5EC3
:10369C00AB19DB191B8800930423FFF70EFCBB1D31
:1036AC001A8821008B19DB191B88D3189BB218B20E
:1036BC003B1D1A883B001B88D3189AB20C008B193F
:1036CC00DB191B88D31A9BB2013B9BB219B2A3190D
:1036DC00DB1900229A5EAB19DB191B8800930823B7
:1036EC00FFF7EBFBC046BD4605B0F0BDF0B587B0AB
:1036FC0002AF05000C0010001900BB1D2A1C1A801B
:10370C003B1D221C1A80BB1C021C1A803B000A1C8D
:10371C001A803B00BA1C10881B8819B202B2914265
:10372C0000DD031C1BB20E22BA18002B00DA013389
:10373C005B101380202008254319DB190E2439193E
:10374C0000229A5E0023CB5E9A4204DD4319DB19FA
:10375C003A1912881A80BB1D1A88202508242B19A7
:10376C00DB191B88D3189BB218B2BB1C1A882919F9
:10377C00CB191B88DB189BB2D31A9BB21AB23B0035
:10378C0000241C5F3B1D0021595E24260823F318DE
:10379C00DB191B8800932300FFF764F9BB1D1A8803
:1037AC00BB1C1B88D3189AB208242B19DB191B8855
:1037BC00D31A9BB2013B9BB218B23B1D1A882B1932
:1037CC00DB191B88D3189BB219B23B001A882B1932
:1037DC00DB191B88DB189BB2D31A9BB2013B9BB243
:1037EC001AB22B19DB1900241C5F0823F318DB1900
:1037FC001B880193009201232200FFF7A0FCBB1D44
:10380C001A882C0008256319DB191B88D3189BB266
:10381C0018B23B1D1A886319DB191B88D3189BB28D
:10382C0019B23B001A886319DB191B88DB189BB291
:10383C00D31A9BB2013B9BB21AB26319DB19002459
:10384C001C5F7319DB191B88019300920223220061
:10385C00FFF775FCC046BD4605B0F0BDB0B58EB0E7
:10386C0000AF05000C0010001900BB1D2A1C1A80AB
:10387C003B1D221C1A80BB1C021C1A803B000A1C1C
:10388C001A803A1D3B000021525E00215B5E9A4279
:10389C0019DD26217B183A1D12881A803B1D3A002F
:1038AC0012881A803B007A1812881A8024217B18FF
:1038BC00BA1D12881A80BB1DBA1C12881A80BB1C38
:1038CC007A1812881A803A004C217B180020125E5C
:1038DC0000201B5E9A421ADD22203B187A181288AF
:1038EC001A807B183A0012881A803B003A1812880A
:1038FC001A8020217A1848203B181B8813803B180B
:10390C00BA1C12881A80BB1C7A1812881A803A1DAD
:10391C003B000021525E00215B5E9A4219DD1E21A4
:10392C007B183A1D12881A803B1D3A0012881A80A7
:10393C003B007A1812881A801C217B18BA1D128839
:10394C001A80BB1DBA1C12881A80BB1C7A181288EC
:10395C001A803A1D4C23FB180021525E00215B5E3D
:10396C009A4258D134203B18BA1D12881A8036213D
:10397C007B183A1812881A80BA1C7B180020125E29
:10398C0000201B5E9A4204DA7B18BA1C12881A803B
:10399C000CE0BA1C34217B180020125E00201B5E48
:1039AC009A4203DD7B18BA1C12881A8048203B18F7
:1039BC003624391900229A5E0023CB5E9A4204DA2F
:1039CC003A193B181B8813800DE048203B1834240F
:1039DC00391900229A5E0023CB5E9A4203DD3A1914
:1039EC003B181B8813803423FB181A8836203B188D
:1039FC001B88D31A9BB201339BB21AB25023FB180B
:103A0C001C883B1D0021595E3B180020185E2300CA
:103A1C00FFF794F951E1BB1C1A88BB1D1B88D31A04
:103A2C009AB21A23FB181A803B001A883B1D1B887C
:103A3C00D31A9AB21823FB181A8048203B181A88FC
:103A4C00BB1D1B88D31A9AB21623FB181A804C2163
:103A5C007B181A883B1D1B88D31A9AB21423FB18A7
:103A6C001A803B181A88BB1C1B88D31A9AB21223D3
:103A7C00FB181A807B181A883B001B88D31A9AB241
:103A8C001023FB181A800023FB620023BB623A0050
:103A9C007B180021525E00215B5E9A4205D13023D7
:103AAC00FB183A0012881A8006E03B001B88013B89
:103ABC009AB23023FB181A803223FB183A1D128855
:103ACC001A8065E01823FB1800229B5E1900F86A27
:103ADC00FCF79CFB03009AB2BB1D1B88D3189AB24F
:103AEC0036243B191A801423FB1800229B5E190004
:103AFC00B86AFCF78BFB03009AB2BB1D1B88D3186A
:103B0C009AB234217B181A801A23FB1800229B5E70
:103B1C00FA6AD318FB621623FB1800229B5EBA6A62
:103B2C00D318BB623A197B180020125E00201B5E72
:103B3C009A420CDD0C203B183A1912881A803B195A
:103B4C007A1812881A807B183A1812881A80342333
:103B5C00FB181A8836203B181B88D31A9BB20133EA
:103B6C009BB21AB25023FB181C8832257B190021FA
:103B7C00595E3B180020185E2300FFF7DFF8290080
:103B8C007B1800229B5E9BB201339AB27B181A8081
:103B9C0032203A183023FB180021525E00215B5E64
:103BAC009A428FDD1223FB1800229B5E3A180021EB
:103BBC00515E3A000024125F8A1A5343FB621623AB
:103BCC00FB1800229B5E3A180021515E3A1D002022
:103BDC00125E8A1A5343BB6265E01023FB18002265
:103BEC009B5E1900F86AFCF711FB03009AB2BB1C30
:103BFC001B88D3189AB236243B191A801423FB184D
:103C0C0000229B5E1900B86AFCF700FB03009AB215
:103C1C00BB1D1B88D3189AB234217B181A8012232F
:103C2C00FB1800229B5EFA6AD318FB621623FB1862
:103C3C0000229B5EBA6AD318BB623A197B1800202B
:103C4C00125E00201B5E9A420CDD0E203B183A19C6
:103C5C0012881A803B197A1812881A807B183A1825
:103C6C0012881A803423FB181A8836203B181B88BC
:103C7C00D31A9BB201339BB21AB25023FB181C8887
:103C8C0032257B190021595E3B180020185E230059
:103C9C00FFF754F829007B1800229B5E9BB201337E
:103CAC009AB27B181A803223FA184C23FB18002185
:103CBC00525E00215B5E9A428FDDBD460EB0B0BDF8
:103CCC0080B584B002AF0200BB1D1A80084B0022E5
:103CDC009A5E084B0021595EBB1D1B8800930B009C
:103CEC0000210020FEF7BEFEC046BD4602B080BDDE
:103CFC006C0000206E00002080B500AF8023DB003C
:103D0C0003480022190003F042FEC046BD4680BDA8
:103D1C000004004880B500AF8023DB00034801227B
:103D2C00190003F034FEC046BD4680BD00040048B7
:103D3C0080B500AF084B00220421180003F027FEC9
:103D4C00052002F0A3FE044B01220421180003F00D
:103D5C001EFEC046BD4680BD0004004880B582B042
:103D6C0000AF0200FB1D1A70084B00220221180044
:103D7C0003F00DFE01235B42F91D0548012204F0FE
:103D8C001FFBC046BD4602B080BDC04600040048C3
:103D9C00DC00002080B582B000AF78603960094B40
:103DAC0001220221180003F0F2FD3B689AB20123B4
:103DBC005B427968044804F003FBC046BD4602B080
:103DCC0080BDC04600040048DC00002090B585B0E2
:103DDC0000AF78607B685A1C7A600F22BA181B7887
:103DEC0013704AE07B685A1C7A600B217A181B7896
:103DFC0013707B181B781800FFF7B0FF7B685A1CF8
:103E0C007A600A203A181B7813703B181B789AB208
:103E1C000C23FB1880210A401A803B183A181278A0
:103E2C007F210A401A703B181B78002B0CD0040021
:103E3C003B181A787B6811001800FFF7ABFF3B1991
:103E4C001B787A68D3187B600C217B181B88002B9D
:103E5C0013D07B685A1C7A601A787B181A807B18EE
:103E6C001B88FF2B03D17B18FA2252001A800C23DB
:103E7C00FB181B88180002F009FE0F22BB181B78D8
:103E8C00BA18591E1170002BACD1C046C046BD46A5
:103E9C0005B090BDB0B584B000AF05000C001000AB
:103EAC001900FB1D2A1C1A70BB1D221C1A707B1DCD
:103EBC00021C1A703B1D0A1C1A702A20FFF74EFFB9
:103ECC000C217B1800221A701C4B1A78FB1D1B78D6
:103EDC00D318DAB27B185A707B1800229A70174BE1
:103EEC001A787B1D1B78D318DAB27B18DA700C00A9
:103EFC007B1804211800FFF74DFF2B20FFF72EFF36
:103F0C000F4B1A78BB1D1B78D318DAB221007B1823
:103F1C005A700B4B1A783B1D1B78D318DAB27B18EE
:103F2C00DA707B1804211800FFF734FF2C20FFF700
:103F3C0015FFC046BD4604B0B0BDC046730000209E
:103F4C007400002080B582B000AF0200FB1D1A7017
:103F5C00FFF7D2FEFFF7ECFE0E4B1800FFF736FF13
:103F6C000D4B1800FFF732FF0C4B1800FFF72EFF1C
:103F7C000B4B00221A700B4B00221A70FB1D1B7886
:103F8C00180000F011F8FFF7C5FEC046BD4602B0A0
:103F9C0080BDC046508B0008888B0008988B0008A9
:103FAC00710000207200002080B584B000AF0200C8
:103FBC00FB1D1A700F23FB1800221A70FB1D1B78B7
:103FCC0003221340DAB2364B1A70354B1B78032B95
:103FDC0041D053DC022B2BD050DC002B02D0012B18
:103FEC0013D04BE00F23FB18C0221A702D4BA022CC
:103FFC001A802D4B80221A802C4B1A782C4B1A705D
:10400C002C4B1A782C4B1A7038E00F23FB18A0227B
:10401C001A70254BA0221A80224B80221A80234B27
:10402C001A78254B1A70234B1A78214B1A7025E0FD
:10403C000F23FB1800221A701A4BA0221A801A4B5D
:10404C0080221A80194B1A78194B1A70194B1A784E
:10405C00194B1A7012E00F23FB1860221A70124BC6
:10406C00A0221A800F4B80221A80104B1A78124B08
:10407C001A70104B1A780E4B1A70C046FFF73CFEA4
:10408C003620FFF76BFE0F23FB1801211800FFF7FA
:10409C0081FEFFF73FFEC046BD4604B080BDC04662
:1040AC00700000206E0000206C00002071000020C9
:1040BC0073000020720000207400002090B585B0C1
:1040CC0000AF040008001100BB1D221C1A803B1D10
:1040DC00021C1A80BB1C0A1C1A80BB1D1B881C4AA4
:1040EC000021525E93422FDA3B1D1B88194A002196
:1040FC00525E934228DAFFF7FFFDBB1D1B88D8B236
:10410C003B1D1B88D9B2BB1D1B88DBB20133DAB255
:10411C003B1D1B88DBB20133DBB2FFF7BBFEBB1CC4
:10412C001B881B0A9BB2DAB20C217B181A70BB1CC1
:10413C001B88DAB27B185A707B1802211800FFF723
:10414C0029FEFFF7E7FD00E0C046BD4605B090BD77
:10415C006C0000206E00002082B0B0B588B000AFBB
:10416C00040008001100042230255219D2191360E2
:10417C00BB1D221C1A803B1D021C1A80FB1C0A1C36
:10418C001A70BB1D1B88D8B23B1D1B88D9B2BB1D36
:10419C001B88DAB204235B19DB191B78D318DBB24A
:1041AC00013BDCB23B1D1B88DAB204235B19DB1923
:1041BC005B78D318DBB2013BDBB22200FFF76AFE5F
:1041CC000023FB6153E0042330201B18DB195A68D1
:1041DC00FB1C1B78203B04210918C91949784B4357
:1041EC001900FB69CB185B00D3181B887B6100237B
:1041FC00BB6130E07A69BB699A4080231B02134093
:10420C0013D03C203B181B881B0A9BB2DAB210213E
:10421C007B181A703B181B88DAB27B185A707B1803
:10422C0002211800FFF7B6FD12E040203B181B8856
:10423C001B0A9BB2DAB20C217B181A703B181B8834
:10424C00DAB27B185A707B1802211800FFF7A2FD16
:10425C00BB690133BB61042330229B18DB191B782B
:10426C001A00BB699342C5D3FB690133FB6104237C
:10427C0030229B18DB195B781A00FB699342A2D39E
:10428C00C046C046BD4608B0B0BC08BC02B018471A
:10429C0082B0F0B587B004AF3A600422182412192A
:1042AC000824A446BC4462441360BB1D021C1A8043
:1042BC003B1D0A1C1A80FFF71FFD67E0BB1D1B8806
:1042CC0004221821521808208446BC4462441278F7
:1042DC009B18364A0020125E934227DBBB1D00223E
:1042EC001A80042308005B1808229446BC446344DB
:1042FC005B7899B23B1D3A1D12888A181A803B1DB7
:10430C001B880422121808218C46BC446244527843
:10431C009B18274A0021525E93423CDA3B681B787B
:10432C00202B03D13B6801333B602FE03B681D78A9
:10433C00042318269B1908229446BC4463443A1D56
:10434C001488BA1D1088282208215218D2191288F4
:10435C00029224225218D219128801926A46596884
:10436C0011601B682A002100FFF7F6FE04239B193D
:10437C0008229446BC4463441B7899B2BB1DBA1DF9
:10438C0012888A181A803B6801333B603B681B78A3
:10439C00002B93D100E0C046FFF7BCFCC046BD46E5
:1043AC0003B0F0BC08BC02B01847C0466C0000203B
:1043BC006E000020B0B584B000AF05000C001000FA
:1043CC001900BB1D2A1C1A803B1D221C1A80BB1C09
:1043DC00021C1A803B000A1C1A80BB1D1B88494A10
:1043EC000021525E934200DB87E03B1D1B88464A4E
:1043FC000021525E934200DB7FE0BB1D1A88BB1C80
:10440C001B88D3183F4A0021525E934208DD3D4B76
:10441C0000229B5E99B2BB1CBA1D12888A1A1A80A4
:10442C003B1D1A883B001B88D318374A0021525E6B
:10443C00934208DD344B00229B5E99B23B003A1D3F
:10444C0012888A1A1A80FFF757FCBB1D1B88D8B23A
:10445C003B1D1B88D9B2BB1D1B88DAB2BB1C1B8849
:10446C00DBB2D318DBB2013BDCB23B1D1B88DAB2EA
:10447C003B001B88DBB2D318DBB2013BDBB2220062
:10448C00FFF708FD20217B181B881B0A9BB2DAB2B0
:10449C000C203B181A707B181B88DAB23B185A7028
:1044AC001A4B01220221180003F071FA3B1D3A004D
:1044BC0012881A801AE0BB1DBA1C12881A800CE0F4
:1044CC0001235B420C22B9181148022203F078FF39
:1044DC00BB1D1A88BB1D013A1A80BB1D1B88002B03
:1044EC00EED13B1D1A883B1D013A1A803B1D1B88DF
:1044FC00002BE0D1FFF70EFC00E0C046BD4604B037
:10450C00B0BDC0466C0000206E00002000040048C6
:10451C00DC000020F0B595B004AFF8600800110085
:10452C007B600B243B19021C1A700A203B180A1CD6
:10453C001A703F23FB1800221A703C23FB1801222F
:10454C001A803B23FB1801221A7014217B180122BC
:10455C001A707B183A1912781A717B183A1812785B
:10456C005A717B187A68DA607A18502308201B1865
:10457C00DB191B88D3807B1854221218D21912888D
:10458C001A817B183A6E1A617B185C221218D219A8
:10459C0012889A8205E03F217B181A787B18013229
:1045AC001A703F217B181B787A68D3181B78002B64
:1045BC00F1D17B181B789BB21A1CD200D31A9AB279
:1045CC003C243B1905321A803B257B190F221A70AB
:1045DC000B26BB191B7818B20A23FB181B7819B2CF
:1045EC003B1900241A5F7B191B781CB25025082339
:1045FC00ED18EB191B880193022300932300FFF79E
:10460C0075F8BB191B789BB2033398B20A23FB18BD
:10461C001B789BB203339CB20F4B7D685022082150
:10462C005218D219128802920C4A01926A465968A1
:10463C0011601B682A002100FFF72AFEFB68142278
:10464C00BA1813CA13C313CA13C313CA13C3F86813
:10465C00BD4611B0F0BDC04600000020FFFF0000B9
:10466C00F0B593B004AFF860080011007B600B2428
:10467C003B19021C1A700A257B190A1C1A7014208B
:10468C003B1802221A703B183A1912781A763B180A
:10469C007A1912785A763A18482308269B19DB198E
:1046AC001B8853833B187A68DA613B184C24A21997
:1046BC00D219202112785A5450239B19DB191B88CC
:1046CC00D9B23B1821229954A319DB191B78092B59
:1046DC0027D9A319DB191B780A211800FBF70CFD4D
:1046EC000300DBB23033DAB210257B191A70A31930
:1046FC00DB191B780A211800FBF7FEFC0300DBB268
:10470C001A1C5201D21A9200D31ADB18DAB2A3196E
:10471C00DB191B78D318DBB23033DAB27B195A7041
:10472C000CE010217B1830221A704C2308229B18A5
:10473C00DB191B783033DAB27B185A701023FB1854
:10474C0000229A700B26BB191B7898B20A23FB180F
:10475C001B789CB2284B7D68482108228A18D219F4
:10476C0012880292254A01926A46596811601B68A8
:10477C002A002100FFF78CFDBB191B789BB220335C
:10478C0098B20A23FB181B789BB216339CB21A4BB7
:10479C001022BD18502208215218D21912880292E8
:1047AC00164A01926A46596811601B682A0021005A
:1047BC00FFF76EFDBB191B789BB21B339BB218B273
:1047CC000A23FB181B789BB214339BB219B20B4B08
:1047DC0001930223009314231E22FEF745FEFB686F
:1047EC001422BA1813CA13C313CA13C313CA13C39C
:1047FC00F868BD460FB0F0BD08000020FFFF0000B8
:10480C00B0B58AB004AF3B1D186059609A6014258E
:10481C007B19404A12881A800222002199543B1DB0
:10482C001B7A092B23D93B1D1B7A0A211800FBF795
:10483C0063FC0300DBB23033DAB27B191A703B1D18
:10484C001C7A3B1D1B7A0A211800FBF755FC030050
:10485C00DBB21A1C5201D21A9200D31ADB18DBB24B
:10486C00E318DBB23033DAB27B195A7009E0142149
:10487C007B1830221A703B1D1B7A3033DAB27B184E
:10488C005A703B1D1B7898B23B1D5B789CB23B1D4C
:10489C005D683B1D5A88204B0292204A01926A4661
:1048AC00596811601B682A002100FFF7F1FC3B1DC1
:1048BC001B789BB2203398B23B1D5B789BB21633AE
:1048CC009CB23B1D5B7A9AB2134B14217D18029259
:1048DC00124A01926A46596811601B682A0021002D
:1048EC00FFF7D6FC3B1D1B789BB21B339BB218B257
:1048FC003B1D5B789BB214339BB219B2074B0193EF
:10490C000223009314231E22FEF7AEFDC046BD46C3
:10491C0006B0B0BDE889000808000020FFFF0000C9
:10492C00B0B588B004AF78600F23FB1800221A7062
:10493C0005E00F217B181A787B1801321A707B68FE
:10494C009A680F217B181B78D3181B78002BF0D199
:10495C007B181B789BB21A1CD200D31A9AB20C2467
:10496C003B1905321A800B257B190F221A707B68B4
:10497C001B7818B27B685B7819B23B1900229A5EDF
:10498C007B191B781CB27B689B88019302230093D4
:10499C002300FEF7ABFE7B681B789BB2033398B207
:1049AC007B685B789BB203339CB27B689D687B68A9
:1049BC009A880E4B02920E4A01926A46596811600F
:1049CC001B682A002100FFF763FC08217B187A681A
:1049DC0052881A807B689A887B685A807B687A1820
:1049EC0012889A80C046BD4604B0B0BD00000020BD
:1049FC00FFFF000084B0F0B587B004AF20243C1951
:104A0C0020606160A260E360744B1B78012B30D195
:104A1C00724B1A79FB1D0B3A1A70BB1D6F4A5279F7
:104A2C001A707B1DBA1D127807321A70FB1D1B7889
:104A3C0018B2BB1D1B781CB2FB1D1B789BB20A3332
:104A4C009BB21DB27B1D1B781EB2FB1D1B781BB2CB
:104A5C00BA1D127892B20E3292B212B26049098823
:104A6C0002910192009333002A002100FEF7F6FE1A
:104A7C0033E05A4B1B78022B2FD1584B1A7EFB1D5F
:104A8C000B3A1A70BB1D554A527E1A707B1DBA1D0B
:104A9C00127807321A70FB1D1B7818B2BB1D1B78DD
:104AAC001CB2FB1D1B789BB20A339BB21DB27B1D43
:104ABC001B781EB2FB1D1B781BB2BA1D127892B26A
:104ACC000E3292B212B246490988029101920093B9
:104ADC0033002A002100FEF7C1FE20217B181B7831
:104AEC00012B37D17B181A79FB1D0B3A1A70BA1DA2
:104AFC007B185B7913707B1DBA1D127807321A7004
:104B0C00FB1D1B7818B2BB1D1B7819B2FB1D1B7843
:104B1C009BB20A339BB21CB27B1D1B781DB2FB1DD2
:104B2C001B781BB2BA1D127892B20E3292B212B22C
:104B3C002C4E0296019200932B002200FEF78EFE63
:104B4C00264B20217A1813CA13C313CA13C313CAD2
:104B5C0013C33BE020217B181B78022B36D17B182A
:104B6C001A7EFB1D0B3A1A70BA1D7B185B7E1370F4
:104B7C007B1DBA1D127807321A70FB1D1B7818B2F8
:104B8C00BB1D1B7819B2FB1D1B789BB20A339BB261
:104B9C001CB27B1D1B781DB2FB1D1B781BB2BA1DF2
:104BAC00127892B20E3292B212B20E4E029601925C
:104BBC0000932B002200FEF751FE084B20217A189F
:104BCC0013CA13C313CA13C313CA13C3C046BD46B7
:104BDC0003B0F0BC08BC04B01847C04678000020F5
:104BEC0028020020FFFF000080B500AF01F0E0FEBE
:104BFC0001F0CAFC00F01AF800F004F900F068F8B3
:104C0C0000F0C2F8084B180002F0A4F80020FFF7DF
:104C1C0099F90020FFF754F8FA235B00180001F013
:104C2C0035FF00F08DF9FCE79C00002090B591B0A9
:104C3C0000AF10243B19180030231A00002103F098
:104C4C0095FE3B00180010231A00002103F08EFE85
:104C5C0021007B1812221A607B180122DA607B1863
:104C6C0001225A617B1810221A617B1810229A615A
:104C7C007B1802221A627B18802212025A627B185D
:104C8C00C02212039A627B180022DA627B18180089
:104C9C0002F09AFE031E01D000F04CF93B000722F3
:104CAC001A603B0002225A603B0080229A603B0053
:104CBC000022DA603B000121180003F0A3F9031E67
:104CCC0001D000F037F9C046BD4611B090BD0000D0
:104CDC0080B584B000AF3B1D18000C231A000021D6
:104CEC0003F044FE264B274A1A60254B00225A60DB
:104CFC00234B00229A60224B0022DA60204B0122C7
:104D0C001A611F4B04225A611D4B00221A761C4B50
:104D1C0000225A761A4B00229A76194B0022DA7628
:104D2C00174BC222FF32DA61154B00221A62144B68
:104D3C00242200219954124B01229A62104B180024
:104D4C0001F0C8FE031E01D000F0F4F83B1D082250
:104D5C001A603B1D802252015A603B1D8022520575
:104D6C009A603A1D064B1100180002F053F8031E0E
:104D7C0001D000F0DFF8C046BD4604B080BDC0468F
:104D8C009C0000200024014080B500AF1B4B1C4A46
:104D9C001A601A4B822252005A60184B00229A60F9
:104DAC00164BE022D200DA60144B00221A61134B2E
:104DBC0000225A61114B802292009A610F4B0822FB
:104DCC00DA610E4B00221A620C4B00225A620B4B1A
:104DDC0000229A62094B0722DA62084B00221A63FE
:104DEC00064B08225A63054B180003F031FA031ED8
:104DFC0001D000F09FF8C046BD4680BDDC0000200D
:104E0C000030014090B58BB000AF14243B19180052
:104E1C0014231A00002103F0A9FD434B5A69424B9D
:104E2C00802109030A435A613F4B5A6980231B03B3
:104E3C0013403B613B693C4B5A693B4B8021C90396
:104E4C000A435A61384B5A698023DB031340FB60D9
:104E5C00FB68354B5A69344B802189020A435A61ED
:104E6C00314B5A6980239B021340BB60BB682E4BAD
:104E7C005A692D4B8021C9020A435A612A4B5A693F
:104E8C008023DB0213407B607B682849284B00227F
:104E9C00180002F07CFD3B19802252011A603B196C
:104EAC0000225A603B1901229A603A199023DB05C3
:104EBC001100180002F0DEFB3B19C02212011A602F
:104ECC003B1900225A603B1901229A603A1990232F
:104EDC00DB051100180002F0CDFB3B19134A1A60D8
:104EEC003B1901225A603B1900229A603B1900229F
:104EFC00DA603B190E4A1900100002F0BBFB2100CE
:104F0C007B18802252011A607B1800225A607B1891
:104F1C0001229A607B18064A1900100002F0AAFBC5
:104F2C00C046BD460BB090BD001002400604000008
:104F3C000004004880B500AF72B6C046FEE7000022
:104F4C0090B583B000AFFB1D00221A701C4B1B7870
:104F5C00002B03D000F0EEF801F05EFB00F036F809
:104F6C0000F088FEFC1D00F04BFE03002370154B77
:104F7C001B78042B07D0082B0BD0FB1D1B781800BB
:104F8C0000F050F90BE0FB1D1B78180000F0FEFA46
:104F9C0005E0FB1D1B78180000F0FAF9C046084B21
:104FAC001B78012B02D1064B00221A70064B1B6892
:104FBC00180000F067FCC046BD4603B090BDC0466B
:104FCC00180000202000002044010020F0B585B01E
:104FDC0000AF0023FB604D4B1B68180001F0DAF9A1
:104FEC000200FA239B009A4200D28AE001F0C6F933
:104FFC000200464B1A60464B180001F0FFFE0300FE
:10500C007B607868FDF700FC424A434BFCF752FD8D
:10501C0002000B0010001900FDF764FC031C3B6040
:10502C003E4B1A683D4B5B68191C101CFBF740FF8C
:10503C00031C1C1C3A4B1A68394B5B68191C101C5E
:10504C00FBF736FF031C191C201CFBF719FC031C77
:10505C001C1C334B1B68191C3868FBF729FF031CFD
:10506C00191C201CFBF7D6FD031C1E1C2B4B1C68AB
:10507C002C4B1B6806211800FBF7C4F80B001D0015
:10508C00211C301CFBF75CFA031C191C264BAA00D4
:10509C00D150244B1B6806211800FBF7B3F80B000A
:1050AC001A00214B9200D358FB601E4B1B685A1CF4
:1050BC001C4B1A601B4B1B68052B1AD90023FB6079
:1050CC000023BB600CE0184BBA689200D358191C33
:1050DC00F868FBF735FA031CFB60BB680133BB6057
:1050EC00BB68052BEFDD1149F868FBF7C9FB031C06
:1050FC00FB600F4BFA681A60054B180001F02AFE92
:10510C0000E0C046BD4605B0F0BDC04624020020FC
:10511C009C0000206666666666664A3F2400002096
:10512C002C0000202C020020300200200000C04087
:10513C001C00002080B584B004AF0120FEF734FFC2
:10514C00314B324800220292314A01926A46596828
:10515C0011601B68020000210020FFF799F8FA2368
:10516C009B00180001F092FC0020FEF7A9FD012025
:10517C00FEF71AFF274B284800220292FC22D2008D
:10518C0001926A46596811601B6802003221142092
:10519C00FFF77EF8FA239B00180001F077FC002043
:1051AC00FEF78EFD0120FEF7FFFE174B1B48002279
:1051BC000292174A01926A46596811601B680200F4
:1051CC0000210020FFF764F8FA239B00180001F07F
:1051DC005DFC104B124800220292FC22D20001927C
:1051EC006A46596811601B68020032211420FFF7CF
:1051FC004FF8FA239B00180001F048FC0020FEF742
:10520C005FFDC046BD4680BD00000020EC89000853
:10521C00FFFF000008000020008A00080C8A00082C
:10522C00248A000890B589B004AF0200FB1D1A70E7
:10523C00FB1D1B78012B05D0494B1A78494B1B7869
:10524C009A425FD0464B1B78052B1AD006DC042BF8
:10525C0028D003DC012B46D0022B35D0414B032246
:10526C001A70414BFC22D2001A80FC23DB00180080
:10527C00FEF726FD00F054FD3C4BFC22D2001A80B8
:10528C0040E0384B05221A70374B394A1A80F82304
:10529C001B021800FEF714FD00F042FD334B344A9C
:1052AC001A802FE02F4B04221A702F4B20225242CF
:1052BC001A80304B1800FEF703FD00F031FD2B4B2C
:1052CC00202252421A801DE0264B02221A70264BD5
:1052DC00FF221A80FF20FEF7F3FC00F021FD234B88
:1052EC00FF221A800EE01F4B01221A701E4B1F2248
:1052FC001A801F20FEF7E4FC00F012FD1B4B1F224E
:10530C001A80C046FB1D1B78012B09D11A4B1B4A76
:10531C001A601B4B02221A70144B1A88124B1A80FB
:10532C00184B1B6808243A191100181C01F050F88E
:10533C000120FEF739FE0D4B1A88134B38190292D7
:10534C00124A01926A46596811601B6802003821A2
:10535C001420FEF79DFFC046BD4605B090BDC0466B
:10536C0021000020480200202802002034000020E8
:10537C0000F8FFFFE0FF000044010020D8010020EE
:10538C00210200201C00002010000020FFFF000064
:10539C00F0B58BB002AF0200FB1D1A701E23FB1878
:1053AC006D4A1A801223FB1880221A808023BB615D
:1053BC000023FB60FB1D1B78012B0CD10020FEF79A
:1053CC007FFC00F0E1FC654B00221A80644B180056
:1053DC0001F0C0FCBCE0624B180001F00FFD0200B4
:1053EC0012217B181A807B181B881800FDF7DCF93A
:1053FC005C4A5D4BFCF75EFB02000B0010001900D1
:10540C00FDF770FA031CFB60F868FDF723FA574AA6
:10541C00574BFCF74FFB02000B0000205549FCF7E3
:10542C000BFE02000B0014001D00534B1B680621E1
:10543C001800FAF7E7FE0B001E0020002900FDF70C
:10544C0051FA011C4D4BB200D1504B4B1B6806213D
:10545C001800FAF7D7FE0B001A00484B9200D358ED
:10546C00181CFBF737F80300BB61434B1B685A1C35
:10547C00414B1A60404B1B68052B29D90023BB619B
:10548C0000237B6112E0B869FBF7D2FE3B4B7A69D3
:10549C009200D358191CFBF753F8031C181CFBF78C
:1054AC0019F80300BB617B6901337B617B69052BB8
:1054BC00E9DDB869FDF7A8F90022314BFBF700FFD5
:1054CC0002000B0010001900FBF71CF80300BB6175
:1054DC00234B180001F03EFC2A4B1B68DBB2642204
:1054EC005343DAB2BB69DBB264214B43DBB29A4261
:1054FC000BD0244B1B6819B2224B1B681BB2002229
:10550C000092A0220020FDF748FCBB6919B2BB69D0
:10551C001BB21D4A0092A0220020FDF73EFC194B45
:10552C00BA691A60BB69482B08D9BB694B2B05D8E3
:10553C001E23FB18FC22D2001A8003E01E23FB184A
:10554C00054A1A801E23FB181B88180000F020FE49
:10555C00BD4609B0F0BDC04600F8FFFF2802002090
:10556C009C0000206666666666664A3F5C8FC2F5E4
:10557C00285C4040000060404C020020500200209B
:10558C000000184038000020FFFF000090B58BB0E1
:10559C0004AF0200FB1D1A700C23FB1800221A80AA
:1055AC00FB1D1B78012B12D10020FEF789FB00F0AC
:1055BC00FDFB8B4B8B4A1A608B4B04221A708B4B66
:1055CC0000221A808A4B180001F0C4FB05E1894BBC
:1055DC001B78002B00D1DCE0874B1B68180000F017
:1055EC00D9FE0200FA239B009A4200D2F5E0804BD0
:1055FC00180001F003FC02000E217B181A807B18A6
:10560C001B881800FDF7D0F87C4A7D4BFCF752FA4A
:10561C0002000B0010001900FDF764F9031C7B61FC
:10562C00784B1B7806211800FAF7ECFD0B00DBB267
:10563C001A00754B92007969D150724B1B7801336B
:10564C00DAB2704B1A706F4B1B78052B1AD90023EA
:10565C007B6100233B610CE06B4B3A699200D358A1
:10566C00191C7869FAF76CFF031C7B613B690133E9
:10567C003B613B69052BEFDD64497869FBF700F969
:10568C00031C7B615A4B180001F064FB604B1B78C8
:10569C00013BDAB25E4B1A705D4B1B78002B58D174
:1056AC005B4B09221A70534B00221A70554B002287
:1056BC001A704E4B1A88574B57480292574A019210
:1056CC006A46596811601B68020068213C20FEF78D
:1056DC00DFFD534B1800FFF723F9524B1B781A00D0
:1056EC00514B92007969D1503E4B68229A5C4D4BDC
:1056FC001B781C001000FBF79BFD011C4B4BA20000
:10570C00D150484B1B780133DAB2464B1A70454BDB
:10571C001B78012B1DD9454B1B68191C002001F06F
:10572C0026F8414B1B68191C042001F020F83F4B54
:10573C005B68191C082001F01AF83B4B5B68191CBC
:10574C000C2001F014F8374B00221A70384B02224F
:10575C001A802F4B1B783033DAB20C217B181A705D
:10576C007B1800225A70214B1A882A4B7818029207
:10577C002A4A01926A46596811601B680200372157
:10578C001420FEF785FD00F0F9FD02001A4B1A609B
:10579C0023E01F4B1B78092B1FD01D4B09221A70BD
:1057AC00154B00221A601A4B1B783033DAB20C21DD
:1057BC007B181A707B1800225A700C4B1A88154BE8
:1057CC0078180292154A01926A46596811601B6852
:1057DC00020037211420FEF75BFDBD4607B090BDDB
:1057EC004401002048010020210200202802002052
:1057FC009C0000202A020020680200206666666673
:10580C0066664A3F6C020020700200200000C04017
:10581C003C00002008000020308A0008FFFF000038
:10582C00B8010020880200202C0000202400002059
:10583C002200002080B582B000AF78607B68180031
:10584C00FFF76EF87B681A8A024B1A80C046BD4679
:10585C0002B080BD2200002080B582B000AF78601D
:10586C007B681800FFF75CF8054B1B785A425341D4
:10587C00DBB21A00024B1A70C046BD4602B080BDA6
:10588C002A020020B0B588B006AF786080231A01D8
:10589C009023DB051100180002F05CF8031E6CD19C
:1058AC00D24B01221A70D24B1B78002B61D1D14BF9
:1058BC001B781A001300DB009B189B001A007B68F6
:1058CC009B181B78022B2DD1CA4B1B781A00130086
:1058DC00DB009B189B001A007B689B1820229B5CAA
:1058EC000D2B1FD8C34B1B781A001300DB009B1821
:1058FC009B001A007B689B1820229A5C0132D1B263
:10590C0020229954BB4B1B781A001300DB009B1808
:10591C009B001A007B689B189869D9691A6AFEF774
:10592C006FFF26E0B34B1B78013BDAB2B14B1A7018
:10593C00B04B1A78B04B1B789A4202D3AD4B002275
:10594C001A70AC4B1B781A001300DB009B189B00E1
:10595C001A007B689B186A4611001A00103231CA73
:10596C0031C111CA11C1186859689A68DB68FFF710
:10597C0041F8C82001F08AF830E18023DB019F4A0E
:10598C001900100001F0E6FF031E6FD1974B0222A5
:10599C001A70974B1B78002B64D1964B1B781A000E
:1059AC001300DB009B189B001A007B689B181B786C
:1059BC00022B2DD18F4B1B781A001300DB009B1888
:1059CC009B001A007B689B1820229B5C002B1FD02D
:1059DC00884B1B781A001300DB009B189B001A00E5
:1059EC007B689B1820229A5C013AD1B220229954F0
:1059FC00804B1B781A001300DB009B189B001A00CD
:105A0C007B689B189869D9691A6AFEF7F9FE29E038
:105A1C00784B1B780133DAB2764B1A70754B1A78C7
:105A2C00754B1B789A4205D3734B1B78013BDAB24A
:105A3C00704B1A706F4B1B781A001300DB009B180D
:105A4C009B001A007B689B186A4611001A001032E2
:105A5C0031CA31C111CA11C1186859689A68DB681A
:105A6C00FEF7C8FFC82001F011F8B7E080231A0137
:105A7C009023DB051100180001F06CFF031E34D1DC
:105A8C005A4B03221A705A4B1B78002B29D1594BB5
:105A9C001B78013BDAB2574B1A70564B1A78564B9F
:105AAC001B789A4205D3544B1B78013BDAB2514B0D
:105ABC001A70504B1B781A001300DB009B189B00CC
:105ACC001A007B689B186A4611001A00103231CA02
